{
  "_format": "hh-sol-artifact-1",
  "contractName": "Space",
  "sourceName": "contracts/Space.sol",
  "abi": [
    {
      "inputs": [
        {
          "internalType": "address",
          "name": "spaceExchangeContractAddr",
          "type": "address"
        }
      ],
      "stateMutability": "nonpayable",
      "type": "constructor"
    },
    {
      "anonymous": false,
      "inputs": [
        {
          "indexed": true,
          "internalType": "address",
          "name": "owner",
          "type": "address"
        },
        {
          "indexed": true,
          "internalType": "address",
          "name": "approved",
          "type": "address"
        },
        {
          "indexed": true,
          "internalType": "uint256",
          "name": "tokenId",
          "type": "uint256"
        }
      ],
      "name": "Approval",
      "type": "event"
    },
    {
      "anonymous": false,
      "inputs": [
        {
          "indexed": true,
          "internalType": "address",
          "name": "owner",
          "type": "address"
        },
        {
          "indexed": true,
          "internalType": "address",
          "name": "operator",
          "type": "address"
        },
        {
          "indexed": false,
          "internalType": "bool",
          "name": "approved",
          "type": "bool"
        }
      ],
      "name": "ApprovalForAll",
      "type": "event"
    },
    {
      "anonymous": false,
      "inputs": [
        {
          "indexed": true,
          "internalType": "uint256",
          "name": "_tokenId",
          "type": "uint256"
        },
        {
          "indexed": false,
          "internalType": "address",
          "name": "owner",
          "type": "address"
        },
        {
          "indexed": false,
          "internalType": "uint256[]",
          "name": "lands",
          "type": "uint256[]"
        }
      ],
      "name": "TokenLandsUpdated",
      "type": "event"
    },
    {
      "anonymous": false,
      "inputs": [
        {
          "indexed": true,
          "internalType": "uint256",
          "name": "_tokenId",
          "type": "uint256"
        },
        {
          "indexed": false,
          "internalType": "address",
          "name": "owner",
          "type": "address"
        },
        {
          "indexed": false,
          "internalType": "string",
          "name": "_uri",
          "type": "string"
        }
      ],
      "name": "TokenMetadataURIUpdated",
      "type": "event"
    },
    {
      "anonymous": false,
      "inputs": [
        {
          "indexed": true,
          "internalType": "uint256",
          "name": "_tokenId",
          "type": "uint256"
        },
        {
          "indexed": false,
          "internalType": "address",
          "name": "owner",
          "type": "address"
        },
        {
          "indexed": false,
          "internalType": "bool",
          "name": "_isPublic",
          "type": "bool"
        }
      ],
      "name": "TokenPublicityUpdated",
      "type": "event"
    },
    {
      "anonymous": false,
      "inputs": [
        {
          "indexed": true,
          "internalType": "uint256",
          "name": "_tokenId",
          "type": "uint256"
        },
        {
          "indexed": false,
          "internalType": "address",
          "name": "owner",
          "type": "address"
        },
        {
          "indexed": false,
          "internalType": "string",
          "name": "_uri",
          "type": "string"
        }
      ],
      "name": "TokenURIUpdated",
      "type": "event"
    },
    {
      "anonymous": false,
      "inputs": [
        {
          "indexed": true,
          "internalType": "address",
          "name": "from",
          "type": "address"
        },
        {
          "indexed": true,
          "internalType": "address",
          "name": "to",
          "type": "address"
        },
        {
          "indexed": true,
          "internalType": "uint256",
          "name": "tokenId",
          "type": "uint256"
        }
      ],
      "name": "Transfer",
      "type": "event"
    },
    {
      "inputs": [
        {
          "internalType": "uint256",
          "name": "tokenId",
          "type": "uint256"
        },
        {
          "components": [
            {
              "internalType": "uint256",
              "name": "amount",
              "type": "uint256"
            },
            {
              "internalType": "address",
              "name": "currency",
              "type": "address"
            },
            {
              "internalType": "address",
              "name": "bidder",
              "type": "address"
            },
            {
              "internalType": "address",
              "name": "recipient",
              "type": "address"
            },
            {
              "components": [
                {
                  "internalType": "uint256",
                  "name": "value",
                  "type": "uint256"
                }
              ],
              "internalType": "struct Decimal.D256",
              "name": "sellOnShare",
              "type": "tuple"
            }
          ],
          "internalType": "struct ISpaceExchange.Bid",
          "name": "bid",
          "type": "tuple"
        }
      ],
      "name": "acceptBid",
      "outputs": [],
      "stateMutability": "nonpayable",
      "type": "function"
    },
    {
      "inputs": [
        {
          "internalType": "address",
          "name": "to",
          "type": "address"
        },
        {
          "internalType": "uint256",
          "name": "tokenId",
          "type": "uint256"
        }
      ],
      "name": "approve",
      "outputs": [],
      "stateMutability": "nonpayable",
      "type": "function"
    },
    {
      "inputs": [
        {
          "internalType": "address",
          "name": "owner",
          "type": "address"
        }
      ],
      "name": "balanceOf",
      "outputs": [
        {
          "internalType": "uint256",
          "name": "",
          "type": "uint256"
        }
      ],
      "stateMutability": "view",
      "type": "function"
    },
    {
      "inputs": [],
      "name": "baseURI",
      "outputs": [
        {
          "internalType": "string",
          "name": "",
          "type": "string"
        }
      ],
      "stateMutability": "view",
      "type": "function"
    },
    {
      "inputs": [
        {
          "internalType": "uint256",
          "name": "tokenId",
          "type": "uint256"
        }
      ],
      "name": "burn",
      "outputs": [],
      "stateMutability": "nonpayable",
      "type": "function"
    },
    {
      "inputs": [
        {
          "internalType": "uint256",
          "name": "tokenId",
          "type": "uint256"
        },
        {
          "internalType": "address",
          "name": "sender",
          "type": "address"
        }
      ],
      "name": "checkLandAttach",
      "outputs": [
        {
          "internalType": "bool",
          "name": "",
          "type": "bool"
        }
      ],
      "stateMutability": "view",
      "type": "function"
    },
    {
      "inputs": [
        {
          "internalType": "uint256",
          "name": "tokenId",
          "type": "uint256"
        }
      ],
      "name": "getApproved",
      "outputs": [
        {
          "internalType": "address",
          "name": "",
          "type": "address"
        }
      ],
      "stateMutability": "view",
      "type": "function"
    },
    {
      "inputs": [
        {
          "internalType": "address",
          "name": "_landContract",
          "type": "address"
        }
      ],
      "name": "initialize",
      "outputs": [],
      "stateMutability": "nonpayable",
      "type": "function"
    },
    {
      "inputs": [
        {
          "internalType": "address",
          "name": "owner",
          "type": "address"
        },
        {
          "internalType": "address",
          "name": "operator",
          "type": "address"
        }
      ],
      "name": "isApprovedForAll",
      "outputs": [
        {
          "internalType": "bool",
          "name": "",
          "type": "bool"
        }
      ],
      "stateMutability": "view",
      "type": "function"
    },
    {
      "inputs": [],
      "name": "landContract",
      "outputs": [
        {
          "internalType": "address",
          "name": "",
          "type": "address"
        }
      ],
      "stateMutability": "view",
      "type": "function"
    },
    {
      "inputs": [
        {
          "internalType": "uint256",
          "name": "tokenId",
          "type": "uint256"
        },
        {
          "internalType": "address",
          "name": "recipient",
          "type": "address"
        }
      ],
      "name": "listTransfer",
      "outputs": [],
      "stateMutability": "nonpayable",
      "type": "function"
    },
    {
      "inputs": [],
      "name": "maxSupply",
      "outputs": [
        {
          "internalType": "uint256",
          "name": "",
          "type": "uint256"
        }
      ],
      "stateMutability": "view",
      "type": "function"
    },
    {
      "inputs": [
        {
          "components": [
            {
              "internalType": "string",
              "name": "tokenURI",
              "type": "string"
            },
            {
              "internalType": "string",
              "name": "metadataURI",
              "type": "string"
            },
            {
              "internalType": "bytes32",
              "name": "contentHash",
              "type": "bytes32"
            },
            {
              "internalType": "bytes32",
              "name": "metadataHash",
              "type": "bytes32"
            },
            {
              "internalType": "bool",
              "name": "isPublic",
              "type": "bool"
            },
            {
              "internalType": "uint256[]",
              "name": "lands",
              "type": "uint256[]"
            },
            {
              "internalType": "string",
              "name": "pin",
              "type": "string"
            }
          ],
          "internalType": "struct ISpace.SpaceData",
          "name": "data",
          "type": "tuple"
        },
        {
          "components": [
            {
              "components": [
                {
                  "internalType": "uint256",
                  "name": "value",
                  "type": "uint256"
                }
              ],
              "internalType": "struct Decimal.D256",
              "name": "prevOwner",
              "type": "tuple"
            },
            {
              "components": [
                {
                  "internalType": "uint256",
                  "name": "value",
                  "type": "uint256"
                }
              ],
              "internalType": "struct Decimal.D256",
              "name": "creator",
              "type": "tuple"
            },
            {
              "components": [
                {
                  "internalType": "uint256",
                  "name": "value",
                  "type": "uint256"
                }
              ],
              "internalType": "struct Decimal.D256",
              "name": "owner",
              "type": "tuple"
            }
          ],
          "internalType": "struct ISpaceExchange.BidShares",
          "name": "bidShares",
          "type": "tuple"
        }
      ],
      "name": "mint",
      "outputs": [],
      "stateMutability": "nonpayable",
      "type": "function"
    },
    {
      "inputs": [],
      "name": "name",
      "outputs": [
        {
          "internalType": "string",
          "name": "",
          "type": "string"
        }
      ],
      "stateMutability": "view",
      "type": "function"
    },
    {
      "inputs": [
        {
          "internalType": "uint256",
          "name": "tokenId",
          "type": "uint256"
        }
      ],
      "name": "ownerOf",
      "outputs": [
        {
          "internalType": "address",
          "name": "",
          "type": "address"
        }
      ],
      "stateMutability": "view",
      "type": "function"
    },
    {
      "inputs": [
        {
          "internalType": "uint256",
          "name": "",
          "type": "uint256"
        }
      ],
      "name": "previousTokenOwners",
      "outputs": [
        {
          "internalType": "address",
          "name": "",
          "type": "address"
        }
      ],
      "stateMutability": "view",
      "type": "function"
    },
    {
      "inputs": [
        {
          "internalType": "uint256",
          "name": "tokenId",
          "type": "uint256"
        }
      ],
      "name": "removeAsk",
      "outputs": [],
      "stateMutability": "nonpayable",
      "type": "function"
    },
    {
      "inputs": [
        {
          "internalType": "uint256",
          "name": "tokenId",
          "type": "uint256"
        }
      ],
      "name": "removeBid",
      "outputs": [],
      "stateMutability": "nonpayable",
      "type": "function"
    },
    {
      "inputs": [
        {
          "internalType": "uint256",
          "name": "tokenId",
          "type": "uint256"
        }
      ],
      "name": "revokeApproval",
      "outputs": [],
      "stateMutability": "nonpayable",
      "type": "function"
    },
    {
      "inputs": [
        {
          "internalType": "address",
          "name": "from",
          "type": "address"
        },
        {
          "internalType": "address",
          "name": "to",
          "type": "address"
        },
        {
          "internalType": "uint256",
          "name": "tokenId",
          "type": "uint256"
        }
      ],
      "name": "safeTransferFrom",
      "outputs": [],
      "stateMutability": "nonpayable",
      "type": "function"
    },
    {
      "inputs": [
        {
          "internalType": "address",
          "name": "from",
          "type": "address"
        },
        {
          "internalType": "address",
          "name": "to",
          "type": "address"
        },
        {
          "internalType": "uint256",
          "name": "tokenId",
          "type": "uint256"
        },
        {
          "internalType": "bytes",
          "name": "_data",
          "type": "bytes"
        }
      ],
      "name": "safeTransferFrom",
      "outputs": [],
      "stateMutability": "nonpayable",
      "type": "function"
    },
    {
      "inputs": [
        {
          "internalType": "address",
          "name": "operator",
          "type": "address"
        },
        {
          "internalType": "bool",
          "name": "approved",
          "type": "bool"
        }
      ],
      "name": "setApprovalForAll",
      "outputs": [],
      "stateMutability": "nonpayable",
      "type": "function"
    },
    {
      "inputs": [
        {
          "internalType": "uint256",
          "name": "tokenId",
          "type": "uint256"
        },
        {
          "components": [
            {
              "internalType": "uint256",
              "name": "amount",
              "type": "uint256"
            },
            {
              "internalType": "address",
              "name": "currency",
              "type": "address"
            }
          ],
          "internalType": "struct ISpaceExchange.Ask",
          "name": "ask",
          "type": "tuple"
        }
      ],
      "name": "setAsk",
      "outputs": [],
      "stateMutability": "nonpayable",
      "type": "function"
    },
    {
      "inputs": [
        {
          "internalType": "uint256",
          "name": "tokenId",
          "type": "uint256"
        },
        {
          "components": [
            {
              "internalType": "uint256",
              "name": "amount",
              "type": "uint256"
            },
            {
              "internalType": "address",
              "name": "currency",
              "type": "address"
            },
            {
              "internalType": "address",
              "name": "bidder",
              "type": "address"
            },
            {
              "internalType": "address",
              "name": "recipient",
              "type": "address"
            },
            {
              "components": [
                {
                  "internalType": "uint256",
                  "name": "value",
                  "type": "uint256"
                }
              ],
              "internalType": "struct Decimal.D256",
              "name": "sellOnShare",
              "type": "tuple"
            }
          ],
          "internalType": "struct ISpaceExchange.Bid",
          "name": "bid",
          "type": "tuple"
        }
      ],
      "name": "setBid",
      "outputs": [],
      "stateMutability": "nonpayable",
      "type": "function"
    },
    {
      "inputs": [],
      "name": "spaceExchangeContract",
      "outputs": [
        {
          "internalType": "address",
          "name": "",
          "type": "address"
        }
      ],
      "stateMutability": "view",
      "type": "function"
    },
    {
      "inputs": [
        {
          "internalType": "bytes4",
          "name": "interfaceId",
          "type": "bytes4"
        }
      ],
      "name": "supportsInterface",
      "outputs": [
        {
          "internalType": "bool",
          "name": "",
          "type": "bool"
        }
      ],
      "stateMutability": "view",
      "type": "function"
    },
    {
      "inputs": [],
      "name": "symbol",
      "outputs": [
        {
          "internalType": "string",
          "name": "",
          "type": "string"
        }
      ],
      "stateMutability": "view",
      "type": "function"
    },
    {
      "inputs": [
        {
          "internalType": "uint256",
          "name": "index",
          "type": "uint256"
        }
      ],
      "name": "tokenByIndex",
      "outputs": [
        {
          "internalType": "uint256",
          "name": "",
          "type": "uint256"
        }
      ],
      "stateMutability": "view",
      "type": "function"
    },
    {
      "inputs": [
        {
          "internalType": "uint256",
          "name": "",
          "type": "uint256"
        }
      ],
      "name": "tokenContentHashes",
      "outputs": [
        {
          "internalType": "bytes32",
          "name": "",
          "type": "bytes32"
        }
      ],
      "stateMutability": "view",
      "type": "function"
    },
    {
      "inputs": [
        {
          "internalType": "uint256",
          "name": "",
          "type": "uint256"
        }
      ],
      "name": "tokenCreators",
      "outputs": [
        {
          "internalType": "address",
          "name": "",
          "type": "address"
        }
      ],
      "stateMutability": "view",
      "type": "function"
    },
    {
      "inputs": [
        {
          "internalType": "uint256",
          "name": "tokenId",
          "type": "uint256"
        }
      ],
      "name": "tokenIsPublic",
      "outputs": [
        {
          "internalType": "bool",
          "name": "",
          "type": "bool"
        }
      ],
      "stateMutability": "view",
      "type": "function"
    },
    {
      "inputs": [
        {
          "internalType": "uint256",
          "name": "",
          "type": "uint256"
        }
      ],
      "name": "tokenIsPublicRecord",
      "outputs": [
        {
          "internalType": "bool",
          "name": "",
          "type": "bool"
        }
      ],
      "stateMutability": "view",
      "type": "function"
    },
    {
      "inputs": [
        {
          "internalType": "uint256",
          "name": "tokenId",
          "type": "uint256"
        }
      ],
      "name": "tokenLandDetails",
      "outputs": [
        {
          "internalType": "uint256[]",
          "name": "",
          "type": "uint256[]"
        }
      ],
      "stateMutability": "view",
      "type": "function"
    },
    {
      "inputs": [
        {
          "internalType": "uint256",
          "name": "",
          "type": "uint256"
        },
        {
          "internalType": "uint256",
          "name": "",
          "type": "uint256"
        }
      ],
      "name": "tokenLands",
      "outputs": [
        {
          "internalType": "uint256",
          "name": "",
          "type": "uint256"
        }
      ],
      "stateMutability": "view",
      "type": "function"
    },
    {
      "inputs": [
        {
          "internalType": "uint256",
          "name": "",
          "type": "uint256"
        }
      ],
      "name": "tokenMetadataHashes",
      "outputs": [
        {
          "internalType": "bytes32",
          "name": "",
          "type": "bytes32"
        }
      ],
      "stateMutability": "view",
      "type": "function"
    },
    {
      "inputs": [
        {
          "internalType": "uint256",
          "name": "tokenId",
          "type": "uint256"
        }
      ],
      "name": "tokenMetadataURI",
      "outputs": [
        {
          "internalType": "string",
          "name": "",
          "type": "string"
        }
      ],
      "stateMutability": "view",
      "type": "function"
    },
    {
      "inputs": [
        {
          "internalType": "address",
          "name": "owner",
          "type": "address"
        },
        {
          "internalType": "uint256",
          "name": "index",
          "type": "uint256"
        }
      ],
      "name": "tokenOfOwnerByIndex",
      "outputs": [
        {
          "internalType": "uint256",
          "name": "",
          "type": "uint256"
        }
      ],
      "stateMutability": "view",
      "type": "function"
    },
    {
      "inputs": [
        {
          "internalType": "uint256",
          "name": "tokenId",
          "type": "uint256"
        }
      ],
      "name": "tokenPin",
      "outputs": [
        {
          "internalType": "string",
          "name": "",
          "type": "string"
        }
      ],
      "stateMutability": "view",
      "type": "function"
    },
    {
      "inputs": [
        {
          "internalType": "uint256",
          "name": "",
          "type": "uint256"
        }
      ],
      "name": "tokenPinRecord",
      "outputs": [
        {
          "internalType": "string",
          "name": "",
          "type": "string"
        }
      ],
      "stateMutability": "view",
      "type": "function"
    },
    {
      "inputs": [
        {
          "internalType": "uint256",
          "name": "tokenId",
          "type": "uint256"
        }
      ],
      "name": "tokenURI",
      "outputs": [
        {
          "internalType": "string",
          "name": "",
          "type": "string"
        }
      ],
      "stateMutability": "view",
      "type": "function"
    },
    {
      "inputs": [],
      "name": "totalSupply",
      "outputs": [
        {
          "internalType": "uint256",
          "name": "",
          "type": "uint256"
        }
      ],
      "stateMutability": "view",
      "type": "function"
    },
    {
      "inputs": [
        {
          "internalType": "address",
          "name": "from",
          "type": "address"
        },
        {
          "internalType": "address",
          "name": "to",
          "type": "address"
        },
        {
          "internalType": "uint256",
          "name": "tokenId",
          "type": "uint256"
        }
      ],
      "name": "transferFrom",
      "outputs": [],
      "stateMutability": "nonpayable",
      "type": "function"
    },
    {
      "inputs": [
        {
          "internalType": "uint256",
          "name": "tokenId",
          "type": "uint256"
        },
        {
          "internalType": "uint256[]",
          "name": "lands",
          "type": "uint256[]"
        }
      ],
      "name": "updateTokenLands",
      "outputs": [],
      "stateMutability": "nonpayable",
      "type": "function"
    },
    {
      "inputs": [
        {
          "internalType": "uint256",
          "name": "tokenId",
          "type": "uint256"
        },
        {
          "internalType": "string",
          "name": "metadataURI",
          "type": "string"
        }
      ],
      "name": "updateTokenMetadataURI",
      "outputs": [],
      "stateMutability": "nonpayable",
      "type": "function"
    },
    {
      "inputs": [
        {
          "internalType": "uint256",
          "name": "tokenId",
          "type": "uint256"
        },
        {
          "internalType": "bool",
          "name": "isPublic",
          "type": "bool"
        }
      ],
      "name": "updateTokenPublicity",
      "outputs": [],
      "stateMutability": "nonpayable",
      "type": "function"
    },
    {
      "inputs": [
        {
          "internalType": "uint256",
          "name": "tokenId",
          "type": "uint256"
        },
        {
          "internalType": "string",
          "name": "tokenURI",
          "type": "string"
        }
      ],
      "name": "updateTokenURI",
      "outputs": [],
      "stateMutability": "nonpayable",
      "type": "function"
    }
  ],
  "bytecode": "0x6080604052600c805460ff60a01b19169055620186a0600d553480156200002557600080fd5b506040516200476b3803806200476b83398101604081905262000048916200023f565b604080518082018252600b81526a4d6f74696620537061636560a81b60208083019190915282518084019093526005835264535041434560d81b9083015290620000a26301ffc9a760e01b6001600160e01b036200013f16565b8151620000b79060069060208501906200019a565b508051620000cd9060079060208401906200019a565b50620000e96380ac58cd60e01b6001600160e01b036200013f16565b6200010463780e9d6360e01b6001600160e01b036200013f16565b50506001600a55600b80546001600160a01b0319166001600160a01b0383161790556200013863a990b5e560e01b6200013f565b50620002a6565b6001600160e01b03198082161415620001755760405162461bcd60e51b81526004016200016c906200026f565b60405180910390fd5b6001600160e01b0319166000908152602081905260409020805460ff19166001179055565b828054600181600116156101000203166002900490600052602060002090601f016020900481019282601f10620001dd57805160ff19168380011785556200020d565b828001600101855582156200020d579182015b828111156200020d578251825591602001919060010190620001f0565b506200021b9291506200021f565b5090565b6200023c91905b808211156200021b576000815560010162000226565b90565b60006020828403121562000251578081fd5b81516001600160a01b038116811462000268578182fd5b9392505050565b6020808252601c908201527f4552433136353a20696e76616c696420696e7465726661636520696400000000604082015260600190565b6144b580620002b66000396000f3fe608060405234801561001057600080fd5b506004361061030a5760003560e01c806362f24b701161019c578063a22cb465116100ee578063c87b56dd11610097578063e985e9c511610071578063e985e9c51461063f578063f93b85d714610652578063fad32197146106655761030a565b8063c87b56dd14610611578063d5abeb0114610624578063e0fd045f1461062c5761030a565b8063b88d4fde116100c8578063b88d4fde146105d8578063ba339399146105eb578063c4d66de8146105fe5761030a565b8063a22cb4651461059f578063b1e130fc146105b2578063b320f459146105c55761030a565b806372d27398116101505780638fbf2d831161012a5780638fbf2d831461057157806395d89b41146105845780639d8e72601461058c5761030a565b806372d273981461054357806375682e791461054b57806381de64e71461055e5761030a565b80636c0360eb116101815780636c0360eb146105155780636eac9ab51461051d57806370a08231146105305761030a565b806362f24b70146104ef5780636352211e146105025761030a565b806328220f351161026057806342842e0e116102095780634c893023116101e35780634c893023146104b65780634f6ccce7146104c95780635bf62422146104dc5761030a565b806342842e0e1461047057806342966c6814610483578063496689ae146104965761030a565b806332f44aa91161023a57806332f44aa9146104375780633d1dc5c41461044a5780633e528cae1461045d5761030a565b806328220f35146103fe5780632bbf9a32146104115780632f745c59146104245761030a565b8063095ea7b3116102c257806318e97fd11161029c57806318e97fd1146103c55780631a11af1e146103d857806323b872dd146103eb5761030a565b8063095ea7b314610395578063157c3df9146103aa57806318160ddd146103bd5761030a565b806303d07340116102f357806303d073401461035857806306fdde031461036d578063081812fc146103825761030a565b806301ddc3b51461030f57806301ffc9a714610338575b600080fd5b61032261031d36600461328e565b610678565b60405161032f91906136b3565b60405180910390f35b61034b610346366004613150565b61068a565b60405161032f91906136a8565b6103606106c1565b60405161032f9190613557565b6103756106d0565b60405161032f91906136bc565b61036061039036600461328e565b610767565b6103a86103a336600461310a565b6107b3565b005b6103756103b836600461328e565b61084b565b610322610916565b6103a86103d3366004613364565b610927565b6103a86103e6366004613340565b610a86565b6103a86103f936600461302b565b610b55565b6103a861040c36600461328e565b610b8d565b6103a861041f366004613188565b610c49565b61032261043236600461310a565b610c85565b6103a86104453660046132a6565b610cb6565b6103226104583660046134ac565b610d3c565b61037561046b36600461328e565b610d6a565b6103a861047e36600461302b565b610e05565b6103a861049136600461328e565b610e20565b6104a96104a436600461328e565b610ef2565b60405161032f9190613664565b61034b6104c436600461328e565b610f7d565b6103226104d736600461328e565b610f92565b6103a86104ea36600461341f565b610fae565b6103a86104fd3660046133c8565b61107e565b61036061051036600461328e565b611156565b610375611184565b61037561052b36600461328e565b6111e5565b61032261053e366004612fdc565b6112b3565b6103606112fc565b6103a8610559366004613364565b61130b565b61034b61056c3660046132a6565b611454565b61034b61057f36600461328e565b6114c8565b61037561150a565b61036061059a36600461328e565b61156b565b6103a86105ad3660046130d3565b611586565b6103a86105c036600461328e565b611654565b6103a86105d336600461328e565b6116c8565b6103a86105e636600461306b565b61179f565b6103a86105f936600461341f565b6117de565b6103a861060c366004612fdc565b611879565b61037561061f36600461328e565b6118ef565b610322611984565b61036061063a36600461328e565b61198a565b61034b61064d366004612ff7565b6119a5565b6103a86106603660046132c9565b6119d3565b61032261067336600461328e565b611b76565b60126020526000908152604090205481565b7fffffffff000000000000000000000000000000000000000000000000000000001660009081526020819052604090205460ff1690565b600c546001600160a01b031681565b60068054604080516020601f600260001961010060018816150201909516949094049384018190048102820181019092528281526060939092909183018282801561075c5780601f106107315761010080835404028352916020019161075c565b820191906000526020600020905b81548152906001019060200180831161073f57829003601f168201915b505050505090505b90565b600061077282611b88565b6107975760405162461bcd60e51b815260040161078e90613d8f565b60405180910390fd5b506000908152600460205260409020546001600160a01b031690565b60006107be82611156565b9050806001600160a01b0316836001600160a01b031614156107f25760405162461bcd60e51b815260040161078e90613ff8565b806001600160a01b0316610804611b9b565b6001600160a01b0316148061082057506108208161064d611b9b565b61083c5760405162461bcd60e51b815260040161078e90613b47565b6108468383611b9f565b505050565b606081806108596018611c0d565b116108765760405162461bcd60e51b815260040161078e906137cb565b60008381526013602090815260409182902080548351601f6002600019610100600186161502019093169290920491820184900484028101840190945280845290918301828280156109095780601f106108de57610100808354040283529160200191610909565b820191906000526020600020905b8154815290600101906020018083116108ec57829003601f168201915b5050505050915050919050565b60006109226002611c11565b905090565b6002600a54141561094a5760405162461bcd60e51b815260040161078e90614237565b6002600a55338361095b8282611c1c565b6109775760405162461bcd60e51b815260040161078e90614146565b60008581526011602052604090205485906109a45760405162461bcd60e51b815260040161078e90613c5e565b84848080601f016020809104026020016040519081016040528093929190818152602001838380828437600092019190915250508251151591506109fc90505760405162461bcd60e51b815260040161078e90613f3e565b610a3c8787878080601f016020809104026020016040519081016040528093929190818152602001838380828437600092019190915250611ca192505050565b867f702fe2dc2dc0f68023540aa4a1e11811c0f29112f6ebf01e61b90538e4f29810338888604051610a7093929190613625565b60405180910390a250506001600a555050505050565b6002600a541415610aa95760405162461bcd60e51b815260040161078e90614237565b6002600a553382610aba8282611c1c565b610ad65760405162461bcd60e51b815260040161078e90614146565b82610b0657600084815260176020526040902054610b065760405162461bcd60e51b815260040161078e90613c01565b610b108484611ce5565b837f25403ab4a30be567b370b36d42179dbba4e2e8f7061eef921cf6152902729a413385604051610b4292919061360a565b60405180910390a250506001600a555050565b610b66610b60611b9b565b82611c1c565b610b825760405162461bcd60e51b815260040161078e906140b2565b610846838383611d2c565b6002600a541415610bb05760405162461bcd60e51b815260040161078e90614237565b6002600a553381610bc18282611c1c565b610bdd5760405162461bcd60e51b815260040161078e90614146565b600b546040516328220f3560e01b81526001600160a01b03909116906328220f3590610c0d9086906004016136b3565b600060405180830381600087803b158015610c2757600080fd5b505af1158015610c3b573d6000803e3d6000fd5b50506001600a555050505050565b6002600a541415610c6c5760405162461bcd60e51b815260040161078e90614237565b6002600a55610c7c338383611d99565b50506001600a55565b6001600160a01b0382166000908152600160205260408120610cad908363ffffffff61217316565b90505b92915050565b600b546001600160a01b03163314610ce05760405162461bcd60e51b815260040161078e90613e27565b610ce982611156565b6000838152600e6020526040902080546001600160a01b0319166001600160a01b0392909216919091179055610d38610d2183611156565b82846040518060200160405280600081525061217f565b5050565b60176020528160005260406000208181548110610d5557fe5b90600052602060002001600091509150505481565b60166020908152600091825260409182902080548351601f600260001961010060018616150201909316929092049182018490048402810184019094528084529091830182828015610dfd5780601f10610dd257610100808354040283529160200191610dfd565b820191906000526020600020905b815481529060010190602001808311610de057829003601f168201915b505050505081565b6108468383836040518060200160405280600081525061179f565b6002600a541415610e435760405162461bcd60e51b815260040161078e90614237565b6002600a5580610e5281611b88565b610e6e5760405162461bcd60e51b815260040161078e90613919565b3382610e7a8282611c1c565b610e965760405162461bcd60e51b815260040161078e90614146565b6000610ea185611156565b6000868152600f60205260409020549091506001600160a01b03808316911614610edd5760405162461bcd60e51b815260040161078e90613711565b610ee6856121b2565b50506001600a55505050565b60608180610f006018611c0d565b11610f1d5760405162461bcd60e51b815260040161078e906137cb565b6000838152601760209081526040918290208054835181840281018401909452808452909183018282801561090957602002820191906000526020600020905b815481526020019060010190808311610f5d575050505050915050919050565b60156020526000908152604090205460ff1681565b600080610fa660028463ffffffff61229e16565b509392505050565b6002600a541415610fd15760405162461bcd60e51b815260040161078e90614237565b6002600a5581610fe081611b88565b610ffc5760405162461bcd60e51b815260040161078e90613919565b81604001516001600160a01b0316336001600160a01b0316146110315760405162461bcd60e51b815260040161078e9061417d565b600b546040517fbdb586980000000000000000000000000000000000000000000000000000000081526001600160a01b039091169063bdb5869890610c0d90869086903390600401614355565b6002600a5414156110a15760405162461bcd60e51b815260040161078e90614237565b6002600a5533826110b28282611c1c565b6110ce5760405162461bcd60e51b815260040161078e90614146565b600b546040517f62f24b700000000000000000000000000000000000000000000000000000000081526001600160a01b03909116906362f24b709061111990879087906004016142f3565b600060405180830381600087803b15801561113357600080fd5b505af1158015611147573d6000803e3d6000fd5b50506001600a55505050505050565b6000610cb082604051806060016040528060298152602001614457602991396002919063ffffffff6122ba16565b60098054604080516020601f600260001961010060018816150201909516949094049384018190048102820181019092528281526060939092909183018282801561075c5780601f106107315761010080835404028352916020019161075c565b606081806111f36018611c0d565b116112105760405162461bcd60e51b815260040161078e906137cb565b60008381526016602090815260409182902080548351601f60026000196101006001861615020190931692909204918201849004840281018401909452808452606093928301828280156112a55780601f1061127a576101008083540402835291602001916112a5565b820191906000526020600020905b81548152906001019060200180831161128857829003601f168201915b509398975050505050505050565b60006001600160a01b0382166112db5760405162461bcd60e51b815260040161078e90613ba4565b6001600160a01b0382166000908152600160205260409020610cb090611c11565b600b546001600160a01b031681565b6002600a54141561132e5760405162461bcd60e51b815260040161078e90614237565b6002600a55338361133f8282611c1c565b61135b5760405162461bcd60e51b815260040161078e90614146565b60008581526012602052604090205485906113885760405162461bcd60e51b815260040161078e90613ee1565b84848080601f016020809104026020016040519081016040528093929190818152602001838380828437600092019190915250508251151591506113e090505760405162461bcd60e51b815260040161078e90613f3e565b6114208787878080601f0160208091040260200160405190810160405280939291908181526020018383808284376000920191909152506122d192505050565b867fe3df41127db820c79e5b8d541a63e40e3e97b9af96f7a50bded13091b70df9ae338888604051610a7093929190613625565b600082806114626018611c0d565b1161147f5760405162461bcd60e51b815260040161078e906137cb565b600061148a85611156565b9050836001600160a01b0316816001600160a01b0316146114bd5760405162461bcd60e51b815260040161078e906138bc565b506001949350505050565b600081806114d66018611c0d565b116114f35760405162461bcd60e51b815260040161078e906137cb565b505060009081526015602052604090205460ff1690565b60078054604080516020601f600260001961010060018816150201909516949094049384018190048102820181019092528281526060939092909183018282801561075c5780601f106107315761010080835404028352916020019161075c565b600e602052600090815260409020546001600160a01b031681565b61158e611b9b565b6001600160a01b0316826001600160a01b031614156115bf5760405162461bcd60e51b815260040161078e90613a67565b80600560006115cc611b9b565b6001600160a01b03908116825260208083019390935260409182016000908120918716808252919093529120805460ff191692151592909217909155611610611b9b565b6001600160a01b03167f17307eab39ab6107e8899845ad3d59bd9653f200f220920489ca2b5937696c318360405161164891906136a8565b60405180910390a35050565b6002600a5414156116775760405162461bcd60e51b815260040161078e90614237565b6002600a5561168581610767565b6001600160a01b0316336001600160a01b0316146116b55760405162461bcd60e51b815260040161078e90613a0a565b6116c0600082611b9f565b506001600a55565b6002600a5414156116eb5760405162461bcd60e51b815260040161078e90614237565b6002600a5580806116fc6018611c0d565b116117195760405162461bcd60e51b815260040161078e906137cb565b600b546040517f776a08350000000000000000000000000000000000000000000000000000000081526001600160a01b039091169063776a08359061176490859033906004016142dc565b600060405180830381600087803b15801561177e57600080fd5b505af1158015611792573d6000803e3d6000fd5b50506001600a5550505050565b6117b06117aa611b9b565b83611c1c565b6117cc5760405162461bcd60e51b815260040161078e906140b2565b6117d88484848461217f565b50505050565b6002600a5414156118015760405162461bcd60e51b815260040161078e90614237565b6002600a5533826118128282611c1c565b61182e5760405162461bcd60e51b815260040161078e90614146565b600b546040517fba3393990000000000000000000000000000000000000000000000000000000081526001600160a01b039091169063ba339399906111199087908790600401614341565b600c54600160a01b900460ff16156118a35760405162461bcd60e51b815260040161078e9061385f565b600c8054600160a01b7fffffffffffffffffffffff00ffffffffffffffffffffffffffffffffffffffff909116176001600160a01b0319166001600160a01b0392909216919091179055565b606081806118fd6018611c0d565b1161191a5760405162461bcd60e51b815260040161078e906137cb565b60008381526008602090815260409182902080548351601f60026000196101006001861615020190931692909204918201849004840281018401909452808452606093928301828280156112a55780601f1061127a576101008083540402835291602001916112a5565b600d5481565b600f602052600090815260409020546001600160a01b031681565b6001600160a01b03918216600090815260056020908152604080832093909416825291909152205460ff1690565b6002600a5414156119f65760405162461bcd60e51b815260040161078e90614237565b6002600a553383611a078282611c1c565b611a235760405162461bcd60e51b815260040161078e90614146565b60005b83811015611af057600c546000906001600160a01b031663309cf8d2878785818110611a4e57fe5b90506020020135336040518363ffffffff1660e01b8152600401611a739291906142dc565b60206040518083038186803b158015611a8b57600080fd5b505afa158015611a9f573d6000803e3d6000fd5b505050506040513d601f19601f82011682018060405250810190611ac39190613134565b9050600181151514611ae75760405162461bcd60e51b815260040161078e90614055565b50600101611a26565b50611b2e8585858080602002602001604051908101604052809392919081815260200183836020028082843760009201919091525061231692505050565b847f4be8131fcc22c12003ac879a07e7678724c47d36ce311c584ee27a57e867b7d4338686604051611b62939291906135a7565b60405180910390a250506001600a55505050565b60116020526000908152604090205481565b6000610cb060028363ffffffff61235b16565b3390565b600081815260046020526040902080546001600160a01b0319166001600160a01b0384169081179091558190611bd482611156565b6001600160a01b03167f8c5be1e5ebec7d5bd14f71427d1e84f3dd0314c0f7b2291e5b200ac8c7c3b92560405160405180910390a45050565b5490565b6000610cb082611c0d565b6000611c2782611b88565b611c435760405162461bcd60e51b815260040161078e90613afb565b6000611c4e83611156565b9050806001600160a01b0316846001600160a01b03161480611c895750836001600160a01b0316611c7e84610767565b6001600160a01b0316145b80611c995750611c9981856119a5565b949350505050565b611caa82611b88565b611cc65760405162461bcd60e51b815260040161078e90613ddb565b6000828152600860209081526040909120825161084692840190612d40565b81611cef81611b88565b611d0b5760405162461bcd60e51b815260040161078e90613919565b50600091825260156020526040909120805460ff1916911515919091179055565b600b546040516328220f3560e01b81526001600160a01b03909116906328220f3590611d5c9084906004016136b3565b600060405180830381600087803b158015611d7657600080fd5b505af1158015611d8a573d6000803e3d6000fd5b50505050610846838383612367565b81518051611db95760405162461bcd60e51b815260040161078e90613f3e565b60208301518051611ddc5760405162461bcd60e51b815260040161078e90613f3e565b600d54611de7610916565b10611e045760405162461bcd60e51b815260040161078e9061426e565b6040840151611e255760405162461bcd60e51b815260040161078e906141da565b60408085015160009081526014602052205460ff1615611e575760405162461bcd60e51b815260040161078e90613f9b565b6060840151611e785760405162461bcd60e51b815260040161078e90613d32565b60c084015151611e9a5760405162461bcd60e51b815260040161078e906142a5565b6080840151151560011480611eb157506080840151155b611ecd5760405162461bcd60e51b815260040161078e90613950565b8360800151611efb5760008460a001515111611efb5760405162461bcd60e51b815260040161078e90613c01565b6000611f076018611c0d565b60a0860151519091501561200d5760005b8560a0015151811015611fef57600c5460a087015180516000926001600160a01b03169163309cf8d29185908110611f4c57fe5b6020026020010151336040518363ffffffff1660e01b8152600401611f729291906142dc565b60206040518083038186803b158015611f8a57600080fd5b505afa158015611f9e573d6000803e3d6000fd5b505050506040513d601f19601f82011682018060405250810190611fc29190613134565b9050600181151514611fe65760405162461bcd60e51b815260040161078e90614055565b50600101611f18565b50611ffa8682612487565b612008818660a00151612316565b612017565b6120178682612487565b61202160186124a1565b61202f8186604001516124aa565b61203d8186606001516124e3565b61204b8186602001516122d1565b612059818660000151611ca1565b612067818660800151611ce5565b612075818660c0015161251c565b6001600160a01b038616600090815260106020526040902061209d908263ffffffff61256116565b50604080860151600090815260146020908152828220805460ff19166001179055838252600f815282822080546001600160a01b03808c166001600160a01b03199283168117909355600e90935292849020805490931617909155600b5491517feb55683a00000000000000000000000000000000000000000000000000000000815291169063eb55683a906121399084908890600401614317565b600060405180830381600087803b15801561215357600080fd5b505af1158015612167573d6000803e3d6000fd5b50505050505050505050565b6000610cad838361256d565b61218a848484611d2c565b612196848484846125b2565b6117d85760405162461bcd60e51b815260040161078e9061376e565b60008181526008602090815260409182902080548351601f60026000196101006001861615020190931692909204918201849004840281018401909452808452606093928301828280156122475780601f1061221c57610100808354040283529160200191612247565b820191906000526020600020905b81548152906001019060200180831161222a57829003601f168201915b50505050509050612257826126d9565b80511561227f576000828152600860209081526040909120825161227d92840190612d40565b505b506000908152600e6020526040902080546001600160a01b0319169055565b60008080806122ad86866127b2565b9097909650945050505050565b60006122c784848461280e565b90505b9392505050565b816122db81611b88565b6122f75760405162461bcd60e51b815260040161078e90613919565b600083815260136020908152604090912083516117d892850190612d40565b8161232081611b88565b61233c5760405162461bcd60e51b815260040161078e90613919565b600083815260176020908152604090912083516117d892850190612dbe565b6000610cad838361286d565b826001600160a01b031661237a82611156565b6001600160a01b0316146123a05760405162461bcd60e51b815260040161078e90613e84565b6001600160a01b0382166123c65760405162461bcd60e51b815260040161078e906139ad565b6123d1838383610846565b6123dc600082611b9f565b6001600160a01b0383166000908152600160205260409020612404908263ffffffff61288516565b506001600160a01b038216600090815260016020526040902061242d908263ffffffff61256116565b506124406002828463ffffffff61289116565b5080826001600160a01b0316846001600160a01b03167fddf252ad1be2c89b69c2b068fc378daa952ba7f163c4a11628f55a4df523b3ef60405160405180910390a4505050565b610d388282604051806020016040528060008152506128a7565b80546001019055565b816124b481611b88565b6124d05760405162461bcd60e51b815260040161078e90613919565b5060009182526011602052604090912055565b816124ed81611b88565b6125095760405162461bcd60e51b815260040161078e90613919565b5060009182526012602052604090912055565b8161252681611b88565b6125425760405162461bcd60e51b815260040161078e90613919565b600083815260166020908152604090912083516117d892850190612d40565b6000610cad83836128da565b815460009082106125905760405162461bcd60e51b815260040161078e906136cf565b82600001828154811061259f57fe5b9060005260206000200154905092915050565b60006125c6846001600160a01b0316612924565b6125d257506001611c99565b606061268a630a85bd0160e11b6125e7611b9b565b8887876040516024016125fd949392919061356b565b604051602081830303815290604052907bffffffffffffffffffffffffffffffffffffffffffffffffffffffff19166020820180517bffffffffffffffffffffffffffffffffffffffffffffffffffffffff8381831617835250505050604051806060016040528060328152602001614425603291396001600160a01b038816919063ffffffff61292a16565b90506000818060200190518101906126a2919061316c565b7fffffffff0000000000000000000000000000000000000000000000000000000016630a85bd0160e11b1492505050949350505050565b60006126e482611156565b90506126f281600084610846565b6126fd600083611b9f565b600082815260086020526040902054600260001961010060018416150201909116041561273b57600082815260086020526040812061273b91612df8565b6001600160a01b0381166000908152600160205260409020612763908363ffffffff61288516565b5061277560028363ffffffff61293916565b5060405182906000906001600160a01b038416907fddf252ad1be2c89b69c2b068fc378daa952ba7f163c4a11628f55a4df523b3ef908390a45050565b8154600090819083106127d75760405162461bcd60e51b815260040161078e90613cbb565b60008460000184815481106127e857fe5b906000526020600020906002020190508060000154816001015492509250509250929050565b6000828152600184016020526040812054828161283e5760405162461bcd60e51b815260040161078e91906136bc565b5084600001600182038154811061285157fe5b9060005260206000209060020201600101549150509392505050565b60009081526001919091016020526040902054151590565b6000610cad8383612945565b60006122c784846001600160a01b038516612a0b565b6128b18383612aa2565b6128be60008484846125b2565b6108465760405162461bcd60e51b815260040161078e9061376e565b60006128e6838361286d565b61291c57508154600181810184556000848152602080822090930184905584548482528286019093526040902091909155610cb0565b506000610cb0565b3b151590565b60606122c78484600085612b72565b6000610cad8383612c33565b60008181526001830160205260408120548015612a01578354600019808301919081019060009087908390811061297857fe5b906000526020600020015490508087600001848154811061299557fe5b6000918252602080832090910192909255828152600189810190925260409020908401905586548790806129c557fe5b60019003818190600052602060002001600090559055866001016000878152602001908152602001600020600090556001945050505050610cb0565b6000915050610cb0565b600082815260018401602052604081205480612a705750506040805180820182528381526020808201848152865460018181018955600089815284812095516002909302909501918255915190820155865486845281880190925292909120556122ca565b82856000016001830381548110612a8357fe5b90600052602060002090600202016001018190555060009150506122ca565b6001600160a01b038216612ac85760405162461bcd60e51b815260040161078e90613cfd565b612ad181611b88565b15612aee5760405162461bcd60e51b815260040161078e90613828565b612afa60008383610846565b6001600160a01b0382166000908152600160205260409020612b22908263ffffffff61256116565b50612b356002828463ffffffff61289116565b5060405181906001600160a01b038416906000907fddf252ad1be2c89b69c2b068fc378daa952ba7f163c4a11628f55a4df523b3ef908290a45050565b606082471015612b945760405162461bcd60e51b815260040161078e90613a9e565b612b9d85612924565b612bb95760405162461bcd60e51b815260040161078e9061410f565b60006060866001600160a01b03168587604051612bd6919061353b565b60006040518083038185875af1925050503d8060008114612c13576040519150601f19603f3d011682016040523d82523d6000602084013e612c18565b606091505b5091509150612c28828286612d07565b979650505050505050565b60008181526001830160205260408120548015612a015783546000198083019190810190600090879083908110612c6657fe5b9060005260206000209060020201905080876000018481548110612c8657fe5b600091825260208083208454600290930201918255600193840154918401919091558354825289830190526040902090840190558654879080612cc557fe5b6000828152602080822060026000199094019384020182815560019081018390559290935588815289820190925260408220919091559450610cb09350505050565b60608315612d165750816122ca565b825115612d265782518084602001fd5b8160405162461bcd60e51b815260040161078e91906136bc565b828054600181600116156101000203166002900490600052602060002090601f016020900481019282601f10612d8157805160ff1916838001178555612dae565b82800160010185558215612dae579182015b82811115612dae578251825591602001919060010190612d93565b50612dba929150612e3f565b5090565b828054828255906000526020600020908101928215612dae5791602002820182811115612dae578251825591602001919060010190612d93565b50805460018160011615610100020316600290046000825580601f10612e1e5750612e3c565b601f016020900490600052602060002090810190612e3c9190612e3f565b50565b61076491905b80821115612dba5760008155600101612e45565b80356001600160a01b0381168114610cb057600080fd5b600082601f830112612e80578081fd5b813567ffffffffffffffff811115612e96578182fd5b6020808202612ea6828201614380565b83815293508184018583018287018401881015612ec257600080fd5b600092505b84831015612ee5578035825260019290920191908301908301612ec7565b505050505092915050565b8035610cb0816143e8565b600082601f830112612f0b578081fd5b813567ffffffffffffffff811115612f21578182fd5b612f34601f8201601f1916602001614380565b9150808252836020828501011115612f4b57600080fd5b8060208401602084013760009082016020015292915050565b600060608284031215612f75578081fd5b612f7f6060614380565b9050612f8b8383612fb7565b8152612f9a8360208401612fb7565b6020820152612fac8360408401612fb7565b604082015292915050565b600060208284031215612fc8578081fd5b612fd26020614380565b9135825250919050565b600060208284031215612fed578081fd5b610cad8383612e59565b60008060408385031215613009578081fd5b6130138484612e59565b91506130228460208501612e59565b90509250929050565b60008060006060848603121561303f578081fd5b833561304a816143d3565b9250602084013561305a816143d3565b929592945050506040919091013590565b60008060008060808587031215613080578081fd5b61308a8686612e59565b93506130998660208701612e59565b925060408501359150606085013567ffffffffffffffff8111156130bb578182fd5b6130c787828801612efb565b91505092959194509250565b600080604083850312156130e5578182fd5b6130ef8484612e59565b915060208301356130ff816143e8565b809150509250929050565b6000806040838503121561311c578182fd5b6131268484612e59565b946020939093013593505050565b600060208284031215613145578081fd5b81516122ca816143e8565b600060208284031215613161578081fd5b81356122ca816143f6565b60006020828403121561317d578081fd5b81516122ca816143f6565b6000806080838503121561319a578182fd5b823567ffffffffffffffff808211156131b1578384fd5b81850160e081880312156131c3578485fd5b6131cd60e0614380565b92508035828111156131dd578586fd5b6131e988828401612efb565b8452506020810135828111156131fd578586fd5b61320988828401612efb565b60208501525060408101356040840152606081013560608401526132308760808301612ef0565b608084015260a081013582811115613246578586fd5b61325288828401612e70565b60a08501525060c081013582811115613269578586fd5b61327588828401612efb565b60c0850152505050809250506130228460208501612f64565b60006020828403121561329f578081fd5b5035919050565b600080604083850312156132b8578182fd5b823591506130228460208501612e59565b6000806000604084860312156132dd578081fd5b83359250602084013567ffffffffffffffff808211156132fb578283fd5b81860187601f82011261330c578384fd5b803592508183111561331c578384fd5b876020808502830101111561332f578384fd5b949760209095019650909450505050565b60008060408385031215613352578182fd5b8235915060208301356130ff816143e8565b600080600060408486031215613378578081fd5b83359250602084013567ffffffffffffffff80821115613396578283fd5b81860187601f8201126133a7578384fd5b80359250818311156133b7578384fd5b87602084830101111561332f578384fd5b60008082840360608112156133db578283fd5b833592506040601f19820112156133f0578182fd5b506133fb6040614380565b6020840135815261340f8560408601612e59565b6020820152809150509250929050565b60008082840360c0811215613432578283fd5b8335925060a0601f1982011215613447578182fd5b5061345260a0614380565b602084013581526134668560408601612e59565b60208201526134788560608601612e59565b604082015261348a8560808601612e59565b606082015261349c8560a08601612fb7565b6080820152809150509250929050565b600080604083850312156134be578182fd5b50508035926020909101359150565b600081518084526134e58160208601602086016143a7565b601f01601f19169290920160200192915050565b8051825260208101516001600160a01b038082166020850152806040840151166040850152806060840151166060850152505060808101515160808301525050565b6000825161354d8184602087016143a7565b9190910192915050565b6001600160a01b0391909116815260200190565b60006001600160a01b0380871683528086166020840152508360408301526080606083015261359d60808301846134cd565b9695505050505050565b60006001600160a01b0385168252604060208301528260408301527f07ffffffffffffffffffffffffffffffffffffffffffffffffffffffffffffff8311156135ee578081fd5b6020830280856060850137919091016060019081529392505050565b6001600160a01b039290921682521515602082015260400190565b60006001600160a01b03851682526040602083015282604083015282846060840137818301606090810191909152601f909201601f1916010192915050565b6020808252825182820181905260009190848201906040850190845b8181101561369c57835183529284019291840191600101613680565b50909695505050505050565b901515815260200190565b90815260200190565b600060208252610cad60208301846134cd565b60208082526022908201527f456e756d657261626c655365743a20696e646578206f7574206f6620626f756e604082015261647360f01b606082015260800190565b60208082526024908201527f53706163653a206f776e6572206973206e6f742063726561746f72206f66207360408201527f7061636500000000000000000000000000000000000000000000000000000000606082015260800190565b60208082526032908201527f4552433732313a207472616e7366657220746f206e6f6e20455243373231526560408201527f63656976657220696d706c656d656e7465720000000000000000000000000000606082015260800190565b60208082526028908201527f53706163653a20746f6b656e2077697468207468617420696420646f6573206e60408201527f6f74206578697374000000000000000000000000000000000000000000000000606082015260800190565b6020808252601c908201527f4552433732313a20746f6b656e20616c7265616479206d696e74656400000000604082015260600190565b60208082526027908201527f53706163653a20636f6e747261637420697320616c726561647920696e69746960408201527f616c697a65642100000000000000000000000000000000000000000000000000606082015260800190565b6020808252602e908201527f53706163653a206f776e6572206f66207370616365206973206e6f742074686560408201527f206f776e6572206f66206c616e64000000000000000000000000000000000000606082015260800190565b60208082526018908201527f53706163653a206e6f6e6578697374656e7420746f6b656e0000000000000000604082015260600190565b60208082526023908201527f53706163653a207370616365206163636573732063616e6e6f7420626520656d60408201527f7074790000000000000000000000000000000000000000000000000000000000606082015260800190565b60208082526024908201527f4552433732313a207472616e7366657220746f20746865207a65726f2061646460408201527f7265737300000000000000000000000000000000000000000000000000000000606082015260800190565b60208082526022908201527f53706163653a2063616c6c6572206e6f7420617070726f76656420616464726560408201527f7373000000000000000000000000000000000000000000000000000000000000606082015260800190565b60208082526019908201527f4552433732313a20617070726f766520746f2063616c6c657200000000000000604082015260600190565b60208082526026908201527f416464726573733a20696e73756666696369656e742062616c616e636520666f60408201527f722063616c6c0000000000000000000000000000000000000000000000000000606082015260800190565b6020808252602c908201527f4552433732313a206f70657261746f7220717565727920666f72206e6f6e657860408201526b34b9ba32b73a103a37b5b2b760a11b606082015260800190565b60208082526038908201527f4552433732313a20617070726f76652063616c6c6572206973206e6f74206f7760408201527f6e6572206e6f7220617070726f76656420666f7220616c6c0000000000000000606082015260800190565b6020808252602a908201527f4552433732313a2062616c616e636520717565727920666f7220746865207a6560408201527f726f206164647265737300000000000000000000000000000000000000000000606082015260800190565b60208082526023908201527f53706163653a2070726976617465207370616365206d7573742068617665206c60408201527f616e640000000000000000000000000000000000000000000000000000000000606082015260800190565b60208082526032908201527f53706163653a20746f6b656e20646f6573206e6f74206861766520686173682060408201527f6f66206372656174656420636f6e74656e740000000000000000000000000000606082015260800190565b60208082526022908201527f456e756d657261626c654d61703a20696e646578206f7574206f6620626f756e604082015261647360f01b606082015260800190565b6020808252818101527f4552433732313a206d696e7420746f20746865207a65726f2061646472657373604082015260600190565b60208082526025908201527f53706163653a206d657461646174612068617368206d757374206265206e6f6e60408201527f2d7a65726f000000000000000000000000000000000000000000000000000000606082015260800190565b6020808252602c908201527f4552433732313a20617070726f76656420717565727920666f72206e6f6e657860408201526b34b9ba32b73a103a37b5b2b760a11b606082015260800190565b6020808252602c908201527f4552433732314d657461646174613a2055524920736574206f66206e6f6e657860408201526b34b9ba32b73a103a37b5b2b760a11b606082015260800190565b60208082526022908201527f53706163653a206f6e6c7920737061636545786368616e676520636f6e74726160408201527f6374000000000000000000000000000000000000000000000000000000000000606082015260800190565b60208082526029908201527f4552433732313a207472616e73666572206f6620746f6b656e2074686174206960408201527f73206e6f74206f776e0000000000000000000000000000000000000000000000606082015260800190565b6020808252602f908201527f53706163653a20746f6b656e20646f6573206e6f74206861766520686173682060408201527f6f6620697473206d657461646174610000000000000000000000000000000000606082015260800190565b60208082526026908201527f53706163653a2073706563696669656420757269206d757374206265206e6f6e60408201527f2d656d7074790000000000000000000000000000000000000000000000000000606082015260800190565b6020808252603e908201527f53706163653a206120746f6b656e2068617320616c7265616479206265656e2060408201527f637265617465642077697468207468697320636f6e74656e7420686173680000606082015260800190565b60208082526021908201527f4552433732313a20617070726f76616c20746f2063757272656e74206f776e6560408201527f7200000000000000000000000000000000000000000000000000000000000000606082015260800190565b6020808252602e908201527f4c616e643a2073656e64657220646f65736e2774206f776e206c616e64206f7260408201527f206c616e64206f63637570696564000000000000000000000000000000000000606082015260800190565b60208082526031908201527f4552433732313a207472616e736665722063616c6c6572206973206e6f74206f60408201527f776e6572206e6f7220617070726f766564000000000000000000000000000000606082015260800190565b6020808252601d908201527f416464726573733a2063616c6c20746f206e6f6e2d636f6e7472616374000000604082015260600190565b6020808252601d908201527f53706163653a204f6e6c7920617070726f766564206f72206f776e6572000000604082015260600190565b60208082526028908201527f537061636545786368616e67653a20426964646572206d757374206265206d7360408201527f672073656e646572000000000000000000000000000000000000000000000000606082015260800190565b60208082526024908201527f53706163653a20636f6e74656e742068617368206d757374206265206e6f6e2d60408201527f7a65726f00000000000000000000000000000000000000000000000000000000606082015260800190565b6020808252601f908201527f5265656e7472616e637947756172643a207265656e7472616e742063616c6c00604082015260600190565b60208082526016908201527f53706163653a20737570706c79206465706c6574656400000000000000000000604082015260600190565b6020808252601c908201527f53706163653a2070696e206d757374206e6f7420626520656d70747900000000604082015260600190565b9182526001600160a01b0316602082015260400190565b918252805160208084019190915201516001600160a01b0316604082015260600190565b91825280515160208084019190915281015151604080840191909152015151606082015260800190565b82815260c081016122ca60208301846134f9565b83815260e0810161436960208301856134f9565b6001600160a01b03831660c0830152949350505050565b60405181810167ffffffffffffffff8111828210171561439f57600080fd5b604052919050565b60005b838110156143c25781810151838201526020016143aa565b838111156117d85750506000910152565b6001600160a01b0381168114612e3c57600080fd5b8015158114612e3c57600080fd5b7fffffffff0000000000000000000000000000000000000000000000000000000081168114612e3c57600080fdfe4552433732313a207472616e7366657220746f206e6f6e20455243373231526563656976657220696d706c656d656e7465724552433732313a206f776e657220717565727920666f72206e6f6e6578697374656e7420746f6b656ea26469706673582212202741f4ed2535a72b036e52cb35b82de62d81f98a675c18b79616a53efb6c36b464736f6c63430006080033",
  "linkReferences": {},
  "deployedLinkReferences": {}
}