{
  "_format": "hh-sol-artifact-1",
  "contractName": "Space",
  "sourceName": "contracts/Space.sol",
  "abi": [
    {
      "inputs": [
        {
          "internalType": "address",
          "name": "spaceExchangeContractAddr",
          "type": "address"
        }
      ],
      "stateMutability": "nonpayable",
      "type": "constructor"
    },
    {
      "anonymous": false,
      "inputs": [
        {
          "indexed": true,
          "internalType": "address",
          "name": "owner",
          "type": "address"
        },
        {
          "indexed": true,
          "internalType": "address",
          "name": "approved",
          "type": "address"
        },
        {
          "indexed": true,
          "internalType": "uint256",
          "name": "tokenId",
          "type": "uint256"
        }
      ],
      "name": "Approval",
      "type": "event"
    },
    {
      "anonymous": false,
      "inputs": [
        {
          "indexed": true,
          "internalType": "address",
          "name": "owner",
          "type": "address"
        },
        {
          "indexed": true,
          "internalType": "address",
          "name": "operator",
          "type": "address"
        },
        {
          "indexed": false,
          "internalType": "bool",
          "name": "approved",
          "type": "bool"
        }
      ],
      "name": "ApprovalForAll",
      "type": "event"
    },
    {
      "anonymous": false,
      "inputs": [
        {
          "indexed": true,
          "internalType": "address",
          "name": "previousOwner",
          "type": "address"
        },
        {
          "indexed": true,
          "internalType": "address",
          "name": "newOwner",
          "type": "address"
        }
      ],
      "name": "OwnershipTransferred",
      "type": "event"
    },
    {
      "anonymous": false,
      "inputs": [
        {
          "indexed": true,
          "internalType": "uint256",
          "name": "_tokenId",
          "type": "uint256"
        },
        {
          "indexed": false,
          "internalType": "address",
          "name": "owner",
          "type": "address"
        },
        {
          "indexed": false,
          "internalType": "uint256[]",
          "name": "lands",
          "type": "uint256[]"
        }
      ],
      "name": "TokenLandsUpdated",
      "type": "event"
    },
    {
      "anonymous": false,
      "inputs": [
        {
          "indexed": true,
          "internalType": "uint256",
          "name": "_tokenId",
          "type": "uint256"
        },
        {
          "indexed": false,
          "internalType": "address",
          "name": "owner",
          "type": "address"
        },
        {
          "indexed": false,
          "internalType": "string",
          "name": "_uri",
          "type": "string"
        }
      ],
      "name": "TokenMetadataURIUpdated",
      "type": "event"
    },
    {
      "anonymous": false,
      "inputs": [
        {
          "indexed": true,
          "internalType": "uint256",
          "name": "_tokenId",
          "type": "uint256"
        },
        {
          "indexed": false,
          "internalType": "address",
          "name": "owner",
          "type": "address"
        },
        {
          "indexed": false,
          "internalType": "string",
          "name": "_uri",
          "type": "string"
        }
      ],
      "name": "TokenURIUpdated",
      "type": "event"
    },
    {
      "anonymous": false,
      "inputs": [
        {
          "indexed": true,
          "internalType": "address",
          "name": "from",
          "type": "address"
        },
        {
          "indexed": true,
          "internalType": "address",
          "name": "to",
          "type": "address"
        },
        {
          "indexed": true,
          "internalType": "uint256",
          "name": "tokenId",
          "type": "uint256"
        }
      ],
      "name": "Transfer",
      "type": "event"
    },
    {
      "inputs": [],
      "name": "MINT_WITH_SIG_TYPEHASH",
      "outputs": [
        {
          "internalType": "bytes32",
          "name": "",
          "type": "bytes32"
        }
      ],
      "stateMutability": "view",
      "type": "function"
    },
    {
      "inputs": [],
      "name": "PERMIT_TYPEHASH",
      "outputs": [
        {
          "internalType": "bytes32",
          "name": "",
          "type": "bytes32"
        }
      ],
      "stateMutability": "view",
      "type": "function"
    },
    {
      "inputs": [
        {
          "internalType": "uint256",
          "name": "tokenId",
          "type": "uint256"
        },
        {
          "components": [
            {
              "internalType": "uint256",
              "name": "amount",
              "type": "uint256"
            },
            {
              "internalType": "address",
              "name": "currency",
              "type": "address"
            },
            {
              "internalType": "address",
              "name": "bidder",
              "type": "address"
            },
            {
              "internalType": "address",
              "name": "recipient",
              "type": "address"
            },
            {
              "components": [
                {
                  "internalType": "uint256",
                  "name": "value",
                  "type": "uint256"
                }
              ],
              "internalType": "struct Decimal.D256",
              "name": "sellOnShare",
              "type": "tuple"
            }
          ],
          "internalType": "struct ISpaceExchange.Bid",
          "name": "bid",
          "type": "tuple"
        }
      ],
      "name": "acceptBid",
      "outputs": [],
      "stateMutability": "nonpayable",
      "type": "function"
    },
    {
      "inputs": [
        {
          "internalType": "address",
          "name": "to",
          "type": "address"
        },
        {
          "internalType": "uint256",
          "name": "tokenId",
          "type": "uint256"
        }
      ],
      "name": "approve",
      "outputs": [],
      "stateMutability": "nonpayable",
      "type": "function"
    },
    {
      "inputs": [
        {
          "internalType": "address",
          "name": "owner",
          "type": "address"
        }
      ],
      "name": "balanceOf",
      "outputs": [
        {
          "internalType": "uint256",
          "name": "",
          "type": "uint256"
        }
      ],
      "stateMutability": "view",
      "type": "function"
    },
    {
      "inputs": [],
      "name": "baseURI",
      "outputs": [
        {
          "internalType": "string",
          "name": "",
          "type": "string"
        }
      ],
      "stateMutability": "view",
      "type": "function"
    },
    {
      "inputs": [
        {
          "internalType": "uint256",
          "name": "tokenId",
          "type": "uint256"
        }
      ],
      "name": "burn",
      "outputs": [],
      "stateMutability": "nonpayable",
      "type": "function"
    },
    {
      "inputs": [
        {
          "internalType": "uint256",
          "name": "tokenId",
          "type": "uint256"
        },
        {
          "internalType": "address",
          "name": "sender",
          "type": "address"
        }
      ],
      "name": "checkLandAttach",
      "outputs": [
        {
          "internalType": "bool",
          "name": "",
          "type": "bool"
        }
      ],
      "stateMutability": "view",
      "type": "function"
    },
    {
      "inputs": [
        {
          "internalType": "uint256",
          "name": "tokenId",
          "type": "uint256"
        }
      ],
      "name": "getApproved",
      "outputs": [
        {
          "internalType": "address",
          "name": "",
          "type": "address"
        }
      ],
      "stateMutability": "view",
      "type": "function"
    },
    {
      "inputs": [
        {
          "internalType": "address",
          "name": "_landContract",
          "type": "address"
        }
      ],
      "name": "initialize",
      "outputs": [],
      "stateMutability": "nonpayable",
      "type": "function"
    },
    {
      "inputs": [
        {
          "internalType": "address",
          "name": "owner",
          "type": "address"
        },
        {
          "internalType": "address",
          "name": "operator",
          "type": "address"
        }
      ],
      "name": "isApprovedForAll",
      "outputs": [
        {
          "internalType": "bool",
          "name": "",
          "type": "bool"
        }
      ],
      "stateMutability": "view",
      "type": "function"
    },
    {
      "inputs": [],
      "name": "landContract",
      "outputs": [
        {
          "internalType": "address",
          "name": "",
          "type": "address"
        }
      ],
      "stateMutability": "view",
      "type": "function"
    },
    {
      "inputs": [
        {
          "internalType": "uint256",
          "name": "tokenId",
          "type": "uint256"
        },
        {
          "internalType": "address",
          "name": "recipient",
          "type": "address"
        }
      ],
      "name": "listTransfer",
      "outputs": [],
      "stateMutability": "nonpayable",
      "type": "function"
    },
    {
      "inputs": [
        {
          "components": [
            {
              "internalType": "string",
              "name": "tokenURI",
              "type": "string"
            },
            {
              "internalType": "string",
              "name": "metadataURI",
              "type": "string"
            },
            {
              "internalType": "bytes32",
              "name": "contentHash",
              "type": "bytes32"
            },
            {
              "internalType": "bytes32",
              "name": "metadataHash",
              "type": "bytes32"
            },
            {
              "internalType": "bool",
              "name": "isPublic",
              "type": "bool"
            },
            {
              "internalType": "uint256[]",
              "name": "lands",
              "type": "uint256[]"
            }
          ],
          "internalType": "struct ISpace.SpaceData",
          "name": "data",
          "type": "tuple"
        },
        {
          "components": [
            {
              "components": [
                {
                  "internalType": "uint256",
                  "name": "value",
                  "type": "uint256"
                }
              ],
              "internalType": "struct Decimal.D256",
              "name": "prevOwner",
              "type": "tuple"
            },
            {
              "components": [
                {
                  "internalType": "uint256",
                  "name": "value",
                  "type": "uint256"
                }
              ],
              "internalType": "struct Decimal.D256",
              "name": "creator",
              "type": "tuple"
            },
            {
              "components": [
                {
                  "internalType": "uint256",
                  "name": "value",
                  "type": "uint256"
                }
              ],
              "internalType": "struct Decimal.D256",
              "name": "owner",
              "type": "tuple"
            }
          ],
          "internalType": "struct ISpaceExchange.BidShares",
          "name": "bidShares",
          "type": "tuple"
        }
      ],
      "name": "mint",
      "outputs": [],
      "stateMutability": "nonpayable",
      "type": "function"
    },
    {
      "inputs": [
        {
          "internalType": "address",
          "name": "",
          "type": "address"
        }
      ],
      "name": "mintWithSigNonces",
      "outputs": [
        {
          "internalType": "uint256",
          "name": "",
          "type": "uint256"
        }
      ],
      "stateMutability": "view",
      "type": "function"
    },
    {
      "inputs": [],
      "name": "name",
      "outputs": [
        {
          "internalType": "string",
          "name": "",
          "type": "string"
        }
      ],
      "stateMutability": "view",
      "type": "function"
    },
    {
      "inputs": [],
      "name": "owner",
      "outputs": [
        {
          "internalType": "address",
          "name": "",
          "type": "address"
        }
      ],
      "stateMutability": "view",
      "type": "function"
    },
    {
      "inputs": [
        {
          "internalType": "uint256",
          "name": "tokenId",
          "type": "uint256"
        }
      ],
      "name": "ownerOf",
      "outputs": [
        {
          "internalType": "address",
          "name": "",
          "type": "address"
        }
      ],
      "stateMutability": "view",
      "type": "function"
    },
    {
      "inputs": [
        {
          "internalType": "address",
          "name": "spender",
          "type": "address"
        },
        {
          "internalType": "uint256",
          "name": "tokenId",
          "type": "uint256"
        },
        {
          "components": [
            {
              "internalType": "uint256",
              "name": "deadline",
              "type": "uint256"
            },
            {
              "internalType": "uint8",
              "name": "v",
              "type": "uint8"
            },
            {
              "internalType": "bytes32",
              "name": "r",
              "type": "bytes32"
            },
            {
              "internalType": "bytes32",
              "name": "s",
              "type": "bytes32"
            }
          ],
          "internalType": "struct ISpace.EIP712Signature",
          "name": "sig",
          "type": "tuple"
        }
      ],
      "name": "permit",
      "outputs": [],
      "stateMutability": "nonpayable",
      "type": "function"
    },
    {
      "inputs": [
        {
          "internalType": "address",
          "name": "",
          "type": "address"
        },
        {
          "internalType": "uint256",
          "name": "",
          "type": "uint256"
        }
      ],
      "name": "permitNonces",
      "outputs": [
        {
          "internalType": "uint256",
          "name": "",
          "type": "uint256"
        }
      ],
      "stateMutability": "view",
      "type": "function"
    },
    {
      "inputs": [
        {
          "internalType": "uint256",
          "name": "",
          "type": "uint256"
        }
      ],
      "name": "previousTokenOwners",
      "outputs": [
        {
          "internalType": "address",
          "name": "",
          "type": "address"
        }
      ],
      "stateMutability": "view",
      "type": "function"
    },
    {
      "inputs": [
        {
          "internalType": "uint256",
          "name": "tokenId",
          "type": "uint256"
        }
      ],
      "name": "removeAsk",
      "outputs": [],
      "stateMutability": "nonpayable",
      "type": "function"
    },
    {
      "inputs": [
        {
          "internalType": "uint256",
          "name": "tokenId",
          "type": "uint256"
        }
      ],
      "name": "removeBid",
      "outputs": [],
      "stateMutability": "nonpayable",
      "type": "function"
    },
    {
      "inputs": [],
      "name": "renounceOwnership",
      "outputs": [],
      "stateMutability": "nonpayable",
      "type": "function"
    },
    {
      "inputs": [
        {
          "internalType": "uint256",
          "name": "tokenId",
          "type": "uint256"
        }
      ],
      "name": "revokeApproval",
      "outputs": [],
      "stateMutability": "nonpayable",
      "type": "function"
    },
    {
      "inputs": [
        {
          "internalType": "address",
          "name": "from",
          "type": "address"
        },
        {
          "internalType": "address",
          "name": "to",
          "type": "address"
        },
        {
          "internalType": "uint256",
          "name": "tokenId",
          "type": "uint256"
        }
      ],
      "name": "safeTransferFrom",
      "outputs": [],
      "stateMutability": "nonpayable",
      "type": "function"
    },
    {
      "inputs": [
        {
          "internalType": "address",
          "name": "from",
          "type": "address"
        },
        {
          "internalType": "address",
          "name": "to",
          "type": "address"
        },
        {
          "internalType": "uint256",
          "name": "tokenId",
          "type": "uint256"
        },
        {
          "internalType": "bytes",
          "name": "_data",
          "type": "bytes"
        }
      ],
      "name": "safeTransferFrom",
      "outputs": [],
      "stateMutability": "nonpayable",
      "type": "function"
    },
    {
      "inputs": [
        {
          "internalType": "address",
          "name": "operator",
          "type": "address"
        },
        {
          "internalType": "bool",
          "name": "approved",
          "type": "bool"
        }
      ],
      "name": "setApprovalForAll",
      "outputs": [],
      "stateMutability": "nonpayable",
      "type": "function"
    },
    {
      "inputs": [
        {
          "internalType": "uint256",
          "name": "tokenId",
          "type": "uint256"
        },
        {
          "components": [
            {
              "internalType": "uint256",
              "name": "amount",
              "type": "uint256"
            },
            {
              "internalType": "address",
              "name": "currency",
              "type": "address"
            }
          ],
          "internalType": "struct ISpaceExchange.Ask",
          "name": "ask",
          "type": "tuple"
        }
      ],
      "name": "setAsk",
      "outputs": [],
      "stateMutability": "nonpayable",
      "type": "function"
    },
    {
      "inputs": [
        {
          "internalType": "uint256",
          "name": "tokenId",
          "type": "uint256"
        },
        {
          "components": [
            {
              "internalType": "uint256",
              "name": "amount",
              "type": "uint256"
            },
            {
              "internalType": "address",
              "name": "currency",
              "type": "address"
            },
            {
              "internalType": "address",
              "name": "bidder",
              "type": "address"
            },
            {
              "internalType": "address",
              "name": "recipient",
              "type": "address"
            },
            {
              "components": [
                {
                  "internalType": "uint256",
                  "name": "value",
                  "type": "uint256"
                }
              ],
              "internalType": "struct Decimal.D256",
              "name": "sellOnShare",
              "type": "tuple"
            }
          ],
          "internalType": "struct ISpaceExchange.Bid",
          "name": "bid",
          "type": "tuple"
        }
      ],
      "name": "setBid",
      "outputs": [],
      "stateMutability": "nonpayable",
      "type": "function"
    },
    {
      "inputs": [],
      "name": "spaceExchangeContract",
      "outputs": [
        {
          "internalType": "address",
          "name": "",
          "type": "address"
        }
      ],
      "stateMutability": "view",
      "type": "function"
    },
    {
      "inputs": [
        {
          "internalType": "bytes4",
          "name": "interfaceId",
          "type": "bytes4"
        }
      ],
      "name": "supportsInterface",
      "outputs": [
        {
          "internalType": "bool",
          "name": "",
          "type": "bool"
        }
      ],
      "stateMutability": "view",
      "type": "function"
    },
    {
      "inputs": [],
      "name": "symbol",
      "outputs": [
        {
          "internalType": "string",
          "name": "",
          "type": "string"
        }
      ],
      "stateMutability": "view",
      "type": "function"
    },
    {
      "inputs": [
        {
          "internalType": "uint256",
          "name": "index",
          "type": "uint256"
        }
      ],
      "name": "tokenByIndex",
      "outputs": [
        {
          "internalType": "uint256",
          "name": "",
          "type": "uint256"
        }
      ],
      "stateMutability": "view",
      "type": "function"
    },
    {
      "inputs": [
        {
          "internalType": "uint256",
          "name": "",
          "type": "uint256"
        }
      ],
      "name": "tokenContentHashes",
      "outputs": [
        {
          "internalType": "bytes32",
          "name": "",
          "type": "bytes32"
        }
      ],
      "stateMutability": "view",
      "type": "function"
    },
    {
      "inputs": [
        {
          "internalType": "uint256",
          "name": "",
          "type": "uint256"
        }
      ],
      "name": "tokenCreators",
      "outputs": [
        {
          "internalType": "address",
          "name": "",
          "type": "address"
        }
      ],
      "stateMutability": "view",
      "type": "function"
    },
    {
      "inputs": [
        {
          "internalType": "uint256",
          "name": "",
          "type": "uint256"
        }
      ],
      "name": "tokenIsPublicRecord",
      "outputs": [
        {
          "internalType": "bool",
          "name": "",
          "type": "bool"
        }
      ],
      "stateMutability": "view",
      "type": "function"
    },
    {
      "inputs": [
        {
          "internalType": "uint256",
          "name": "",
          "type": "uint256"
        },
        {
          "internalType": "uint256",
          "name": "",
          "type": "uint256"
        }
      ],
      "name": "tokenLands",
      "outputs": [
        {
          "internalType": "uint256",
          "name": "",
          "type": "uint256"
        }
      ],
      "stateMutability": "view",
      "type": "function"
    },
    {
      "inputs": [
        {
          "internalType": "uint256",
          "name": "",
          "type": "uint256"
        }
      ],
      "name": "tokenMetadataHashes",
      "outputs": [
        {
          "internalType": "bytes32",
          "name": "",
          "type": "bytes32"
        }
      ],
      "stateMutability": "view",
      "type": "function"
    },
    {
      "inputs": [
        {
          "internalType": "uint256",
          "name": "tokenId",
          "type": "uint256"
        }
      ],
      "name": "tokenMetadataURI",
      "outputs": [
        {
          "internalType": "string",
          "name": "",
          "type": "string"
        }
      ],
      "stateMutability": "view",
      "type": "function"
    },
    {
      "inputs": [
        {
          "internalType": "address",
          "name": "owner",
          "type": "address"
        },
        {
          "internalType": "uint256",
          "name": "index",
          "type": "uint256"
        }
      ],
      "name": "tokenOfOwnerByIndex",
      "outputs": [
        {
          "internalType": "uint256",
          "name": "",
          "type": "uint256"
        }
      ],
      "stateMutability": "view",
      "type": "function"
    },
    {
      "inputs": [
        {
          "internalType": "uint256",
          "name": "tokenId",
          "type": "uint256"
        }
      ],
      "name": "tokenURI",
      "outputs": [
        {
          "internalType": "string",
          "name": "",
          "type": "string"
        }
      ],
      "stateMutability": "view",
      "type": "function"
    },
    {
      "inputs": [],
      "name": "totalSupply",
      "outputs": [
        {
          "internalType": "uint256",
          "name": "",
          "type": "uint256"
        }
      ],
      "stateMutability": "view",
      "type": "function"
    },
    {
      "inputs": [
        {
          "internalType": "address",
          "name": "from",
          "type": "address"
        },
        {
          "internalType": "address",
          "name": "to",
          "type": "address"
        },
        {
          "internalType": "uint256",
          "name": "tokenId",
          "type": "uint256"
        }
      ],
      "name": "transferFrom",
      "outputs": [],
      "stateMutability": "nonpayable",
      "type": "function"
    },
    {
      "inputs": [
        {
          "internalType": "address",
          "name": "newOwner",
          "type": "address"
        }
      ],
      "name": "transferOwnership",
      "outputs": [],
      "stateMutability": "nonpayable",
      "type": "function"
    },
    {
      "inputs": [
        {
          "internalType": "uint256",
          "name": "tokenId",
          "type": "uint256"
        },
        {
          "internalType": "uint256[]",
          "name": "lands",
          "type": "uint256[]"
        }
      ],
      "name": "updateTokenLands",
      "outputs": [],
      "stateMutability": "nonpayable",
      "type": "function"
    },
    {
      "inputs": [
        {
          "internalType": "uint256",
          "name": "tokenId",
          "type": "uint256"
        },
        {
          "internalType": "string",
          "name": "metadataURI",
          "type": "string"
        }
      ],
      "name": "updateTokenMetadataURI",
      "outputs": [],
      "stateMutability": "nonpayable",
      "type": "function"
    },
    {
      "inputs": [
        {
          "internalType": "uint256",
          "name": "tokenId",
          "type": "uint256"
        },
        {
          "internalType": "string",
          "name": "tokenURI",
          "type": "string"
        }
      ],
      "name": "updateTokenURI",
      "outputs": [],
      "stateMutability": "nonpayable",
      "type": "function"
    }
  ],
  "bytecode": "0x6080604052600d805460ff60a01b191690553480156200001e57600080fd5b506040516200473c3803806200473c83398101604081905262000041916200029d565b604080518082018252600b81526a4d6f74696620535041434560a81b60208083019190915282518084019093526005835264535041434560d81b90830152906200009b6301ffc9a760e01b6001600160e01b036200019b16565b8151620000b0906006906020850190620001fb565b508051620000c6906007906020840190620001fb565b50620000e2631306bf1f60e11b6001600160e01b036200019b16565b620000fd6309ea9c9360e01b6001600160e01b036200019b16565b50506001600a556000620001196001600160e01b03620001f616565b600b80546001600160a01b0319166001600160a01b038316908117909155604051919250906000907f8be0079c531659141344cd1fd0a4f28419497f9722a3daafe3b4186f6b6457e0908290a350600c80546001600160a01b0319166001600160a01b0383161790556200019463a990b5e560e01b6200019b565b5062000304565b6001600160e01b03198082161415620001d15760405162461bcd60e51b8152600401620001c890620002cd565b60405180910390fd5b6001600160e01b0319166000908152602081905260409020805460ff19166001179055565b335b90565b828054600181600116156101000203166002900490600052602060002090601f016020900481019282601f106200023e57805160ff19168380011785556200026e565b828001600101855582156200026e579182015b828111156200026e57825182559160200191906001019062000251565b506200027c92915062000280565b5090565b620001f891905b808211156200027c576000815560010162000287565b600060208284031215620002af578081fd5b81516001600160a01b0381168114620002c6578182fd5b9392505050565b6020808252601c908201527f4552433136353a20696e76616c696420696e7465726661636520696400000000604082015260600190565b61442880620003146000396000f3fe608060405234801561001057600080fd5b50600436106102a05760003560e01c806366449b7111610167578063b320f459116100ce578063e0fd045f11610087578063e0fd045f14610594578063e985e9c5146105a7578063f2fde38b146105ba578063f8ccd5de146105cd578063f93b85d7146105e0578063fad32197146105f3576102a0565b8063b320f4591461052d578063b88d4fde14610540578063ba33939914610553578063c4d66de814610566578063c87b56dd14610579578063de5236fb1461058c576102a0565b806381de64e71161012057806381de64e7146104d15780638da5cb5b146104e457806395d89b41146104ec5780639d8e7260146104f4578063a22cb46514610507578063b1e130fc1461051a576102a0565b806366449b71146104805780636c0360eb1461049357806370a082311461049b578063715018a6146104ae57806372d27398146104b657806375682e79146104be576102a0565b806328220f351161020b57806342966c68116101c457806342966c681461040e5780634c893023146104215780634f6ccce7146104345780635bf624221461044757806362f24b701461045a5780636352211e1461046d576102a0565b806328220f35146103a75780632f745c59146103ba57806330adf81f146103cd57806332f44aa9146103d55780633d1dc5c4146103e857806342842e0e146103fb576102a0565b80630bcd899b1161025d5780630bcd899b146103405780630e2a177814610353578063157c3df91461036657806318160ddd1461037957806318e97fd11461038157806323b872dd14610394576102a0565b806301ddc3b5146102a557806301ffc9a7146102ce57806303d07340146102ee57806306fdde0314610303578063081812fc14610318578063095ea7b31461032b575b600080fd5b6102b86102b33660046132d9565b610606565b6040516102c591906136e9565b60405180910390f35b6102e16102dc3660046131be565b610618565b6040516102c591906136de565b6102f6610637565b6040516102c59190613602565b61030b610646565b6040516102c59190613768565b6102f66103263660046132d9565b6106dd565b61033e6103393660046130f7565b610729565b005b6102b861034e366004612fc9565b6107c1565b61033e610361366004613121565b6107d3565b61030b6103743660046132d9565b6109f7565b6102b8610ac2565b61033e61038f36600461338b565b610ad3565b61033e6103a2366004613018565b610c32565b61033e6103b53660046132d9565b610c6a565b6102b86103c83660046130f7565b610d18565b6102b8610d49565b61033e6103e33660046132f1565b610d6d565b6102b86103f63660046134d3565b610df3565b61033e610409366004613018565b610e21565b61033e61041c3660046132d9565b610e3c565b6102e161042f3660046132d9565b610f0e565b6102b86104423660046132d9565b610f23565b61033e610455366004613446565b610f3f565b61033e6104683660046133ef565b610ff6565b6102f661047b3660046132d9565b6110b5565b61033e61048e3660046131f6565b6110e3565b61030b61111f565b6102b86104a9366004612fc9565b611180565b61033e6111c9565b6102f6611252565b61033e6104cc36600461338b565b611261565b6102e16104df3660046132f1565b6113aa565b6102f661141e565b61030b61142d565b6102f66105023660046132d9565b61148e565b61033e6105153660046130c0565b6114a9565b61033e6105283660046132d9565b611577565b61033e61053b3660046132d9565b6115eb565b61033e61054e366004613058565b6116a9565b61033e610561366004613446565b6116e8565b61033e610574366004612fc9565b61176a565b61030b6105873660046132d9565b6117c5565b6102b8611893565b6102f66105a23660046132d9565b6118b7565b6102e16105b5366004612fe4565b6118d2565b61033e6105c8366004612fc9565b611900565b6102b86105db3660046130f7565b6119c1565b61033e6105ee366004613314565b6119de565b6102b86106013660046132d9565b611baf565b60116020526000908152604090205481565b6001600160e01b03191660009081526020819052604090205460ff1690565b600d546001600160a01b031681565b60068054604080516020601f60026000196101006001881615020190951694909404938401819004810282018101909252828152606093909290918301828280156106d25780601f106106a7576101008083540402835291602001916106d2565b820191906000526020600020905b8154815290600101906020018083116106b557829003601f168201915b505050505090505b90565b60006106e882611bc1565b61070d5760405162461bcd60e51b815260040161070490613da4565b60405180910390fd5b506000908152600460205260409020546001600160a01b031690565b6000610734826110b5565b9050806001600160a01b0316836001600160a01b031614156107685760405162461bcd60e51b815260040161070490614054565b806001600160a01b031661077a611bd4565b6001600160a01b031614806107965750610796816105b5611bd4565b6107b25760405162461bcd60e51b815260040161070490613bef565b6107bc8383611bd8565b505050565b60186020526000908152604090205481565b6002600a5414156107f65760405162461bcd60e51b81526004016107049061422e565b6002600a558161080581611bc1565b6108215760405162461bcd60e51b8152600401610704906139ef565b81511580610830575081514211155b61084c5760405162461bcd60e51b815260040161070490613e3c565b6001600160a01b0384166108725760405162461bcd60e51b815260040161070490613a69565b600061087c611c46565b90506000817f34affa94dc608ee96643ec06338a5186ca883810367f0f85ed2240b40cca33d987876017856108b0836110b5565b6001600160a01b03168152602080820192909252604090810160009081208c825283528190208054600181019091558a5191516108f396959493919291016136f2565b6040516020818303038152906040528051906020012060405160200161091a92919061357d565b604051602081830303815290604052805190602001209050600060018286602001518760400151886060015160405160008152602001604052604051610963949392919061374a565b6020604051602081039080840390855afa158015610985573d6000803e3d6000fd5b5050604051601f1901519150506001600160a01b038116158015906109c35750806001600160a01b03166109b8876110b5565b6001600160a01b0316145b6109df5760405162461bcd60e51b815260040161070490613ee2565b6109e98787611bd8565b50506001600a555050505050565b60608180610a056019611cfd565b11610a225760405162461bcd60e51b815260040161070490613899565b60008381526015602090815260409182902080548351601f600260001961010060018616150201909316929092049182018490048402810184019094528084529091830182828015610ab55780601f10610a8a57610100808354040283529160200191610ab5565b820191906000526020600020905b815481529060010190602001808311610a9857829003601f168201915b5050505050915050919050565b6000610ace6002611d01565b905090565b6002600a541415610af65760405162461bcd60e51b81526004016107049061422e565b6002600a553383610b078282611d0c565b610b235760405162461bcd60e51b81526004016107049061416b565b6000858152601060205260409020548590610b505760405162461bcd60e51b815260040161070490613c96565b84848080601f01602080910402602001604051908101604052809392919081815260200183838082843760009201919091525050825115159150610ba890505760405162461bcd60e51b815260040161070490613fb1565b610be88787878080601f016020809104026020016040519081016040528093929190818152602001838380828437600092019190915250611d9192505050565b867f702fe2dc2dc0f68023540aa4a1e11811c0f29112f6ebf01e61b90538e4f29810338888604051610c1c9392919061369e565b60405180910390a250506001600a555050505050565b610c43610c3d611bd4565b82611d0c565b610c5f5760405162461bcd60e51b8152600401610704906140e3565b6107bc838383611dd5565b6002600a541415610c8d5760405162461bcd60e51b81526004016107049061422e565b6002600a553381610c9e8282611d0c565b610cba5760405162461bcd60e51b81526004016107049061416b565b600c546040516328220f3560e01b81526001600160a01b03909116906328220f3590610cea9086906004016136e9565b600060405180830381600087803b158015610d0457600080fd5b505af11580156109e9573d6000803e3d6000fd5b6001600160a01b0382166000908152600160205260408120610d40908363ffffffff611e4216565b90505b92915050565b7f34affa94dc608ee96643ec06338a5186ca883810367f0f85ed2240b40cca33d981565b600c546001600160a01b03163314610d975760405162461bcd60e51b815260040161070490613ea0565b610da0826110b5565b6000838152600e6020526040902080546001600160a01b0319166001600160a01b0392909216919091179055610def610dd8836110b5565b828460405180602001604052806000815250611e4e565b5050565b60136020528160005260406000208181548110610e0c57fe5b90600052602060002001600091509150505481565b6107bc838383604051806020016040528060008152506116a9565b6002600a541415610e5f5760405162461bcd60e51b81526004016107049061422e565b6002600a5580610e6e81611bc1565b610e8a5760405162461bcd60e51b8152600401610704906139ef565b3382610e968282611d0c565b610eb25760405162461bcd60e51b81526004016107049061416b565b6000610ebd856110b5565b6000868152600f60205260409020549091506001600160a01b03808316911614610ef95760405162461bcd60e51b8152600401610704906137bd565b610f0285611e81565b50506001600a55505050565b60126020526000908152604090205460ff1681565b600080610f3760028463ffffffff611f6d16565b509392505050565b6002600a541415610f625760405162461bcd60e51b81526004016107049061422e565b6002600a5581610f7181611bc1565b610f8d5760405162461bcd60e51b8152600401610704906139ef565b81604001516001600160a01b0316336001600160a01b031614610fc25760405162461bcd60e51b8152600401610704906141a2565b600c546040516317b6b0d360e31b81526001600160a01b039091169063bdb5869890610cea908690869033906004016142de565b6002600a5414156110195760405162461bcd60e51b81526004016107049061422e565b6002600a55338261102a8282611d0c565b6110465760405162461bcd60e51b81526004016107049061416b565b600c5460405163062f24b760e41b81526001600160a01b03909116906362f24b7090611078908790879060040161427c565b600060405180830381600087803b15801561109257600080fd5b505af11580156110a6573d6000803e3d6000fd5b50506001600a55505050505050565b6000610d43826040518060600160405280602981526020016143ca602991396002919063ffffffff611f8916565b6002600a5414156111065760405162461bcd60e51b81526004016107049061422e565b6002600a55611116338383611fa0565b50506001600a55565b60098054604080516020601f60026000196101006001881615020190951694909404938401819004810282018101909252828152606093909290918301828280156106d25780601f106106a7576101008083540402835291602001916106d2565b60006001600160a01b0382166111a85760405162461bcd60e51b815260040161070490613c4c565b6001600160a01b0382166000908152600160205260409020610d4390611d01565b6111d1611bd4565b6001600160a01b03166111e261141e565b6001600160a01b0316146112085760405162461bcd60e51b815260040161070490613e6b565b600b546040516000916001600160a01b0316907f8be0079c531659141344cd1fd0a4f28419497f9722a3daafe3b4186f6b6457e0908390a3600b80546001600160a01b0319169055565b600c546001600160a01b031681565b6002600a5414156112845760405162461bcd60e51b81526004016107049061422e565b6002600a5533836112958282611d0c565b6112b15760405162461bcd60e51b81526004016107049061416b565b60008581526011602052604090205485906112de5760405162461bcd60e51b815260040161070490613f62565b84848080601f0160208091040260200160405190810160405280939291908181526020018383808284376000920191909152505082511515915061133690505760405162461bcd60e51b815260040161070490613fb1565b6113768787878080601f0160208091040260200160405190810160405280939291908181526020018383808284376000920191909152506122fe92505050565b867fe3df41127db820c79e5b8d541a63e40e3e97b9af96f7a50bded13091b70df9ae338888604051610c1c9392919061369e565b600082806113b86019611cfd565b116113d55760405162461bcd60e51b815260040161070490613899565b60006113e0856110b5565b9050836001600160a01b0316816001600160a01b0316146114135760405162461bcd60e51b8152600401610704906139a1565b506001949350505050565b600b546001600160a01b031690565b60078054604080516020601f60026000196101006001881615020190951694909404938401819004810282018101909252828152606093909290918301828280156106d25780601f106106a7576101008083540402835291602001916106d2565b600e602052600090815260409020546001600160a01b031681565b6114b1611bd4565b6001600160a01b0316826001600160a01b031614156114e25760405162461bcd60e51b815260040161070490613b26565b80600560006114ef611bd4565b6001600160a01b03908116825260208083019390935260409182016000908120918716808252919093529120805460ff191692151592909217909155611533611bd4565b6001600160a01b03167f17307eab39ab6107e8899845ad3d59bd9653f200f220920489ca2b5937696c318360405161156b91906136de565b60405180910390a35050565b6002600a54141561159a5760405162461bcd60e51b81526004016107049061422e565b6002600a556115a8816106dd565b6001600160a01b0316336001600160a01b0316146115d85760405162461bcd60e51b815260040161070490613ae4565b6115e3600082611bd8565b506001600a55565b6002600a54141561160e5760405162461bcd60e51b81526004016107049061422e565b6002600a55808061161f6019611cfd565b1161163c5760405162461bcd60e51b815260040161070490613899565b600c5460405163776a083560e01b81526001600160a01b039091169063776a08359061166e9085903390600401614265565b600060405180830381600087803b15801561168857600080fd5b505af115801561169c573d6000803e3d6000fd5b50506001600a5550505050565b6116ba6116b4611bd4565b83611d0c565b6116d65760405162461bcd60e51b8152600401610704906140e3565b6116e284848484611e4e565b50505050565b6002600a54141561170b5760405162461bcd60e51b81526004016107049061422e565b6002600a55338261171c8282611d0c565b6117385760405162461bcd60e51b81526004016107049061416b565b600c5460405163ba33939960e01b81526001600160a01b039091169063ba3393999061107890879087906004016142ca565b600d54600160a01b900460ff16156117945760405162461bcd60e51b81526004016107049061395a565b600d8054600160a01b60ff60a01b19909116176001600160a01b0319166001600160a01b0392909216919091179055565b606081806117d36019611cfd565b116117f05760405162461bcd60e51b815260040161070490613899565b60008381526008602090815260409182902080548351601f60026000196101006001861615020190931692909204918201849004840281018401909452808452606093928301828280156118855780601f1061185a57610100808354040283529160200191611885565b820191906000526020600020905b81548152906001019060200180831161186857829003601f168201915b509398975050505050505050565b7f5ae980181c7f59319783a0c62e5cb9edb3bf2d76b8c10bae46e4e3f8dbed8fb581565b600f602052600090815260409020546001600160a01b031681565b6001600160a01b03918216600090815260056020908152604080832093909416825291909152205460ff1690565b611908611bd4565b6001600160a01b031661191961141e565b6001600160a01b03161461193f5760405162461bcd60e51b815260040161070490613e6b565b6001600160a01b0381166119655760405162461bcd60e51b815260040161070490613853565b600b546040516001600160a01b038084169216907f8be0079c531659141344cd1fd0a4f28419497f9722a3daafe3b4186f6b6457e090600090a3600b80546001600160a01b0319166001600160a01b0392909216919091179055565b601760209081526000928352604080842090915290825290205481565b6002600a541415611a015760405162461bcd60e51b81526004016107049061422e565b6002600a553383611a128282611d0c565b611a2e5760405162461bcd60e51b81526004016107049061416b565b6000858152601160205260409020548590611a5b5760405162461bcd60e51b815260040161070490613f62565b60005b84811015611b2857600d546000906001600160a01b031663309cf8d2888885818110611a8657fe5b90506020020135336040518363ffffffff1660e01b8152600401611aab929190614265565b60206040518083038186803b158015611ac357600080fd5b505afa158015611ad7573d6000803e3d6000fd5b505050506040513d601f19601f82011682018060405250810190611afb91906131a2565b9050600181151514611b1f5760405162461bcd60e51b815260040161070490614095565b50600101611a5e565b50611b668686868080602002602001604051908101604052809392919081815260200183836020028082843760009201919091525061234392505050565b857f4be8131fcc22c12003ac879a07e7678724c47d36ce311c584ee27a57e867b7d4338787604051611b9a93929190613653565b60405180910390a250506001600a5550505050565b60106020526000908152604090205481565b6000610d4360028363ffffffff61238816565b3390565b600081815260046020526040902080546001600160a01b0319166001600160a01b0384169081179091558190611c0d826110b5565b6001600160a01b03167f8c5be1e5ebec7d5bd14f71427d1e84f3dd0314c0f7b2291e5b200ac8c7c3b92560405160405180910390a45050565b6040516000904690611c5790613598565b604080519182900382208282018252600583526426b7ba34b360d91b6020938401528151808301835260018152603160f81b908401529051611ce1927f995ec625e9d0f4c4f4cb6358dd33c33e4a452bb37d2246dee597ee07e579fcb3917fc89efdaa54c0f20c7adf612882df0950f5a951637e0307cdcb4c672f298b8bc691869130910161371e565b6040516020818303038152906040528051906020012091505090565b5490565b6000610d4382611cfd565b6000611d1782611bc1565b611d335760405162461bcd60e51b815260040161070490613ba3565b6000611d3e836110b5565b9050806001600160a01b0316846001600160a01b03161480611d795750836001600160a01b0316611d6e846106dd565b6001600160a01b0316145b80611d895750611d8981856118d2565b949350505050565b611d9a82611bc1565b611db65760405162461bcd60e51b815260040161070490613df0565b600082815260086020908152604090912082516107bc92840190612d2d565b600c546040516328220f3560e01b81526001600160a01b03909116906328220f3590611e059084906004016136e9565b600060405180830381600087803b158015611e1f57600080fd5b505af1158015611e33573d6000803e3d6000fd5b505050506107bc838383612394565b6000610d4083836124b4565b611e59848484611dd5565b611e65848484846124f9565b6116e25760405162461bcd60e51b815260040161070490613801565b60008181526008602090815260409182902080548351601f6002600019610100600186161502019093169290920491820184900484028101840190945280845260609392830182828015611f165780601f10611eeb57610100808354040283529160200191611f16565b820191906000526020600020905b815481529060010190602001808311611ef957829003601f168201915b50505050509050611f26826125de565b805115611f4e5760008281526008602090815260409091208251611f4c92840190612d2d565b505b506000908152600e6020526040902080546001600160a01b0319169055565b6000808080611f7c86866126b7565b9097909650945050505050565b6000611f96848484612713565b90505b9392505050565b81518051611fc05760405162461bcd60e51b815260040161070490613fb1565b60208301518051611fe35760405162461bcd60e51b815260040161070490613fb1565b60408401516120045760405162461bcd60e51b8152600401610704906141ea565b60408085015160009081526016602052205460ff16156120365760405162461bcd60e51b815260040161070490613ff7565b60608401516120575760405162461bcd60e51b815260040161070490613d5f565b608084015115156001148061206e57506080840151155b61208a5760405162461bcd60e51b815260040161070490613a26565b60006120966019611cfd565b90508460800151156121bf5760008560a0015151116120c75760405162461bcd60e51b815260040161070490613918565b60005b8560a00151518110156121a157600d5460a087015180516000926001600160a01b03169163309cf8d291859081106120fe57fe5b6020026020010151336040518363ffffffff1660e01b8152600401612124929190614265565b60206040518083038186803b15801561213c57600080fd5b505afa158015612150573d6000803e3d6000fd5b505050506040513d601f19601f8201168201806040525081019061217491906131a2565b90506001811515146121985760405162461bcd60e51b815260040161070490614095565b506001016120ca565b506121ac8682612772565b6121ba818660a00151612343565b6121c9565b6121c98682612772565b6121d3601961278c565b6121e1818660400151612795565b6121ef8186606001516127ce565b6121fd8186602001516122fe565b61220b818660000151611d91565b612219818660800151612807565b6001600160a01b0386166000908152601460205260409020612241908263ffffffff61284e16565b50604080860151600090815260166020908152828220805460ff19166001179055838252600f815282822080546001600160a01b03808c166001600160a01b03199283168117909355600e90935292849020805490931617909155600c5491516375aab41d60e11b815291169063eb55683a906122c490849088906004016142a0565b600060405180830381600087803b1580156122de57600080fd5b505af11580156122f2573d6000803e3d6000fd5b50505050505050505050565b8161230881611bc1565b6123245760405162461bcd60e51b8152600401610704906139ef565b600083815260156020908152604090912083516116e292850190612d2d565b8161234d81611bc1565b6123695760405162461bcd60e51b8152600401610704906139ef565b600083815260136020908152604090912083516116e292850190612dab565b6000610d40838361285a565b826001600160a01b03166123a7826110b5565b6001600160a01b0316146123cd5760405162461bcd60e51b815260040161070490613f19565b6001600160a01b0382166123f35760405162461bcd60e51b815260040161070490613aa0565b6123fe8383836107bc565b612409600082611bd8565b6001600160a01b0383166000908152600160205260409020612431908263ffffffff61287216565b506001600160a01b038216600090815260016020526040902061245a908263ffffffff61284e16565b5061246d6002828463ffffffff61287e16565b5080826001600160a01b0316846001600160a01b03167fddf252ad1be2c89b69c2b068fc378daa952ba7f163c4a11628f55a4df523b3ef60405160405180910390a4505050565b815460009082106124d75760405162461bcd60e51b81526004016107049061377b565b8260000182815481106124e657fe5b9060005260206000200154905092915050565b600061250d846001600160a01b0316612894565b61251957506001611d89565b60606125a7630a85bd0160e11b61252e611bd4565b8887876040516024016125449493929190613616565b604051602081830303815290604052906001600160e01b0319166020820180516001600160e01b038381831617835250505050604051806060016040528060328152602001614398603291396001600160a01b038816919063ffffffff61289a16565b90506000818060200190518101906125bf91906131da565b6001600160e01b0319166323a4fc7760e21b1492505050949350505050565b60006125e9826110b5565b90506125f7816000846107bc565b612602600083611bd8565b600082815260086020526040902054600260001961010060018416150201909116041561264057600082815260086020526040812061264091612de5565b6001600160a01b0381166000908152600160205260409020612668908363ffffffff61287216565b5061267a60028363ffffffff6128a916565b5060405182906000906001600160a01b038416907fddf252ad1be2c89b69c2b068fc378daa952ba7f163c4a11628f55a4df523b3ef908390a45050565b8154600090819083106126dc5760405162461bcd60e51b815260040161070490613ce8565b60008460000184815481106126ed57fe5b906000526020600020906002020190508060000154816001015492509250509250929050565b600082815260018401602052604081205482816127435760405162461bcd60e51b81526004016107049190613768565b5084600001600182038154811061275657fe5b9060005260206000209060020201600101549150509392505050565b610def8282604051806020016040528060008152506128b5565b80546001019055565b8161279f81611bc1565b6127bb5760405162461bcd60e51b8152600401610704906139ef565b5060009182526010602052604090912055565b816127d881611bc1565b6127f45760405162461bcd60e51b8152600401610704906139ef565b5060009182526011602052604090912055565b8161281181611bc1565b61282d5760405162461bcd60e51b8152600401610704906139ef565b50600091825260126020526040909120805460ff1916911515919091179055565b6000610d4083836128e8565b60009081526001919091016020526040902054151590565b6000610d408383612932565b6000611f9684846001600160a01b0385166129f8565b3b151590565b6060611f968484600085612a8f565b6000610d408383612b50565b6128bf8383612c24565b6128cc60008484846124f9565b6107bc5760405162461bcd60e51b815260040161070490613801565b60006128f4838361285a565b61292a57508154600181810184556000848152602080822090930184905584548482528286019093526040902091909155610d43565b506000610d43565b600081815260018301602052604081205480156129ee578354600019808301919081019060009087908390811061296557fe5b906000526020600020015490508087600001848154811061298257fe5b6000918252602080832090910192909255828152600189810190925260409020908401905586548790806129b257fe5b60019003818190600052602060002001600090559055866001016000878152602001908152602001600020600090556001945050505050610d43565b6000915050610d43565b600082815260018401602052604081205480612a5d575050604080518082018252838152602080820184815286546001818101895560008981528481209551600290930290950191825591519082015586548684528188019092529290912055611f99565b82856000016001830381548110612a7057fe5b9060005260206000209060020201600101819055506000915050611f99565b606082471015612ab15760405162461bcd60e51b815260040161070490613b5d565b612aba85612894565b612ad65760405162461bcd60e51b815260040161070490614134565b60006060866001600160a01b03168587604051612af39190613561565b60006040518083038185875af1925050503d8060008114612b30576040519150601f19603f3d011682016040523d82523d6000602084013e612b35565b606091505b5091509150612b45828286612cf4565b979650505050505050565b600081815260018301602052604081205480156129ee5783546000198083019190810190600090879083908110612b8357fe5b9060005260206000209060020201905080876000018481548110612ba357fe5b600091825260208083208454600290930201918255600193840154918401919091558354825289830190526040902090840190558654879080612be257fe5b6000828152602080822060026000199094019384020182815560019081018390559290935588815289820190925260408220919091559450610d439350505050565b6001600160a01b038216612c4a5760405162461bcd60e51b815260040161070490613d2a565b612c5381611bc1565b15612c705760405162461bcd60e51b8152600401610704906138e1565b612c7c600083836107bc565b6001600160a01b0382166000908152600160205260409020612ca4908263ffffffff61284e16565b50612cb76002828463ffffffff61287e16565b5060405181906001600160a01b038416906000907fddf252ad1be2c89b69c2b068fc378daa952ba7f163c4a11628f55a4df523b3ef908290a45050565b60608315612d03575081611f99565b825115612d135782518084602001fd5b8160405162461bcd60e51b81526004016107049190613768565b828054600181600116156101000203166002900490600052602060002090601f016020900481019282601f10612d6e57805160ff1916838001178555612d9b565b82800160010185558215612d9b579182015b82811115612d9b578251825591602001919060010190612d80565b50612da7929150612e2c565b5090565b828054828255906000526020600020908101928215612d9b5791602002820182811115612d9b578251825591602001919060010190612d80565b50805460018160011615610100020316600290046000825580601f10612e0b5750612e29565b601f016020900490600052602060002090810190612e299190612e2c565b50565b6106da91905b80821115612da75760008155600101612e32565b80356001600160a01b0381168114610d4357600080fd5b600082601f830112612e6d578081fd5b813567ffffffffffffffff811115612e83578182fd5b6020808202612e9382820161430b565b83815293508184018583018287018401881015612eaf57600080fd5b600092505b84831015612ed2578035825260019290920191908301908301612eb4565b505050505092915050565b8035610d4381614373565b600082601f830112612ef8578081fd5b813567ffffffffffffffff811115612f0e578182fd5b612f21601f8201601f191660200161430b565b9150808252836020828501011115612f3857600080fd5b8060208401602084013760009082016020015292915050565b600060608284031215612f62578081fd5b612f6c606061430b565b9050612f788383612fa4565b8152612f878360208401612fa4565b6020820152612f998360408401612fa4565b604082015292915050565b600060208284031215612fb5578081fd5b612fbf602061430b565b9135825250919050565b600060208284031215612fda578081fd5b610d408383612e46565b60008060408385031215612ff6578081fd5b6130008484612e46565b915061300f8460208501612e46565b90509250929050565b60008060006060848603121561302c578081fd5b83356130378161435e565b925060208401356130478161435e565b929592945050506040919091013590565b6000806000806080858703121561306d578081fd5b6130778686612e46565b93506130868660208701612e46565b925060408501359150606085013567ffffffffffffffff8111156130a8578182fd5b6130b487828801612ee8565b91505092959194509250565b600080604083850312156130d2578182fd5b6130dc8484612e46565b915060208301356130ec81614373565b809150509250929050565b60008060408385031215613109578182fd5b6131138484612e46565b946020939093013593505050565b600080600083850360c0811215613136578182fd5b84356131418161435e565b9350602085013592506080603f198201121561315b578182fd5b50613166608061430b565b60408501358152606085013560ff81168114613180578283fd5b60208201526080850135604082015260a0909401356060850152509093909250565b6000602082840312156131b3578081fd5b8151611f9981614373565b6000602082840312156131cf578081fd5b8135611f9981614381565b6000602082840312156131eb578081fd5b8151611f9981614381565b60008060808385031215613208578182fd5b823567ffffffffffffffff8082111561321f578384fd5b81850160c08188031215613231578485fd5b61323b60c061430b565b925080358281111561324b578586fd5b61325788828401612ee8565b84525060208101358281111561326b578586fd5b61327788828401612ee8565b602085015250604081013560408401526060810135606084015261329e8760808301612edd565b608084015260a0810135828111156132b4578586fd5b6132c088828401612e5d565b60a08501525050508092505061300f8460208501612f51565b6000602082840312156132ea578081fd5b5035919050565b60008060408385031215613303578182fd5b8235915061300f8460208501612e46565b600080600060408486031215613328578081fd5b83359250602084013567ffffffffffffffff80821115613346578283fd5b81860187601f820112613357578384fd5b8035925081831115613367578384fd5b876020808502830101111561337a578384fd5b949760209095019650909450505050565b60008060006040848603121561339f578081fd5b83359250602084013567ffffffffffffffff808211156133bd578283fd5b81860187601f8201126133ce578384fd5b80359250818311156133de578384fd5b87602084830101111561337a578384fd5b6000808284036060811215613402578283fd5b833592506040601f1982011215613417578182fd5b50613422604061430b565b602084013581526134368560408601612e46565b6020820152809150509250929050565b60008082840360c0811215613459578283fd5b8335925060a0601f198201121561346e578182fd5b5061347960a061430b565b6020840135815261348d8560408601612e46565b602082015261349f8560608601612e46565b60408201526134b18560808601612e46565b60608201526134c38560a08601612fa4565b6080820152809150509250929050565b600080604083850312156134e5578182fd5b50508035926020909101359150565b6000815180845261350c816020860160208601614332565b601f01601f19169290920160200192915050565b805182526020808201516001600160a01b03908116918401919091526040808301518216908401526060808301519091169083015260809081015151910152565b60008251613573818460208701614332565b9190910192915050565b61190160f01b81526002810192909252602282015260420190565b7f454950373132446f6d61696e28737472696e67206e616d652c737472696e672081527f76657273696f6e2c75696e7432353620636861696e49642c6164647265737320602082015271766572696679696e67436f6e74726163742960701b604082015260520190565b6001600160a01b0391909116815260200190565b6001600160a01b0385811682528416602082015260408101839052608060608201819052600090613649908301846134f4565b9695505050505050565b6001600160a01b0384168152604060208201819052810182905260006001600160fb1b03831115613682578081fd5b6020830280856060850137919091016060019081529392505050565b6001600160a01b03841681526040602082018190528101829052600082846060840137818301606090810191909152601f909201601f1916010192915050565b901515815260200190565b90815260200190565b9485526001600160a01b0393909316602085015260408401919091526060830152608082015260a00190565b9485526020850193909352604084019190915260608301526001600160a01b0316608082015260a00190565b93845260ff9290921660208401526040830152606082015260800190565b600060208252610d4060208301846134f4565b60208082526022908201527f456e756d657261626c655365743a20696e646578206f7574206f6620626f756e604082015261647360f01b606082015260800190565b60208082526024908201527f53706163653a206f776e6572206973206e6f742063726561746f72206f6620736040820152637061636560e01b606082015260800190565b60208082526032908201527f4552433732313a207472616e7366657220746f206e6f6e20455243373231526560408201527131b2b4bb32b91034b6b83632b6b2b73a32b960711b606082015260800190565b60208082526026908201527f4f776e61626c653a206e6577206f776e657220697320746865207a65726f206160408201526564647265737360d01b606082015260800190565b60208082526028908201527f53706163653a20746f6b656e2077697468207468617420696420646f6573206e6040820152671bdd08195e1a5cdd60c21b606082015260800190565b6020808252601c908201527f4552433732313a20746f6b656e20616c7265616479206d696e74656400000000604082015260600190565b60208082526022908201527f53706163653a207075626c6963207370616365206d7573742068617665206c616040820152611b9960f21b606082015260800190565b60208082526027908201527f53706163653a20636f6e747261637420697320616c726561647920696e697469604082015266616c697a65642160c81b606082015260800190565b6020808252602e908201527f53706163653a206f776e6572206f66207370616365206973206e6f742074686560408201526d081bdddb995c881bd9881b185b9960921b606082015260800190565b60208082526018908201527f53706163653a206e6f6e6578697374656e7420746f6b656e0000000000000000604082015260600190565b60208082526023908201527f53706163653a207370616365206163636573732063616e6e6f7420626520656d60408201526270747960e81b606082015260800190565b6020808252601c908201527f53706163653a207370656e6465722063616e6e6f742062652030783000000000604082015260600190565b60208082526024908201527f4552433732313a207472616e7366657220746f20746865207a65726f206164646040820152637265737360e01b606082015260800190565b60208082526022908201527f53706163653a2063616c6c6572206e6f7420617070726f766564206164647265604082015261737360f01b606082015260800190565b60208082526019908201527f4552433732313a20617070726f766520746f2063616c6c657200000000000000604082015260600190565b60208082526026908201527f416464726573733a20696e73756666696369656e742062616c616e636520666f6040820152651c8818d85b1b60d21b606082015260800190565b6020808252602c908201527f4552433732313a206f70657261746f7220717565727920666f72206e6f6e657860408201526b34b9ba32b73a103a37b5b2b760a11b606082015260800190565b60208082526038908201527f4552433732313a20617070726f76652063616c6c6572206973206e6f74206f7760408201527f6e6572206e6f7220617070726f76656420666f7220616c6c0000000000000000606082015260800190565b6020808252602a908201527f4552433732313a2062616c616e636520717565727920666f7220746865207a65604082015269726f206164647265737360b01b606082015260800190565b60208082526032908201527f53706163653a20746f6b656e20646f6573206e6f7420686176652068617368206040820152711bd98818dc99585d19590818dbdb9d195b9d60721b606082015260800190565b60208082526022908201527f456e756d657261626c654d61703a20696e646578206f7574206f6620626f756e604082015261647360f01b606082015260800190565b6020808252818101527f4552433732313a206d696e7420746f20746865207a65726f2061646472657373604082015260600190565b60208082526025908201527f53706163653a206d657461646174612068617368206d757374206265206e6f6e6040820152642d7a65726f60d81b606082015260800190565b6020808252602c908201527f4552433732313a20617070726f76656420717565727920666f72206e6f6e657860408201526b34b9ba32b73a103a37b5b2b760a11b606082015260800190565b6020808252602c908201527f4552433732314d657461646174613a2055524920736574206f66206e6f6e657860408201526b34b9ba32b73a103a37b5b2b760a11b606082015260800190565b60208082526015908201527414dc1858d94e8814195c9b5a5d08195e1c1a5c9959605a1b604082015260600190565b6020808252818101527f4f776e61626c653a2063616c6c6572206973206e6f7420746865206f776e6572604082015260600190565b60208082526022908201527f53706163653a206f6e6c7920737061636545786368616e676520636f6e74726160408201526118dd60f21b606082015260800190565b60208082526018908201527f53706163653a205369676e617475726520696e76616c69640000000000000000604082015260600190565b60208082526029908201527f4552433732313a207472616e73666572206f6620746f6b656e2074686174206960408201526839903737ba1037bbb760b91b606082015260800190565b6020808252602f908201527f53706163653a20746f6b656e20646f6573206e6f74206861766520686173682060408201526e6f6620697473206d6574616461746160881b606082015260800190565b60208082526026908201527f53706163653a2073706563696669656420757269206d757374206265206e6f6e6040820152652d656d70747960d01b606082015260800190565b6020808252603e908201527f53706163653a206120746f6b656e2068617320616c7265616479206265656e2060408201527f637265617465642077697468207468697320636f6e74656e7420686173680000606082015260800190565b60208082526021908201527f4552433732313a20617070726f76616c20746f2063757272656e74206f776e656040820152603960f91b606082015260800190565b6020808252602e908201527f4c616e643a2073656e64657220646f65736e2774206f776e206c616e64206f7260408201526d081b185b99081bd8d8dd5c1a595960921b606082015260800190565b60208082526031908201527f4552433732313a207472616e736665722063616c6c6572206973206e6f74206f6040820152701ddb995c881b9bdc88185c1c1c9bdd9959607a1b606082015260800190565b6020808252601d908201527f416464726573733a2063616c6c20746f206e6f6e2d636f6e7472616374000000604082015260600190565b6020808252601d908201527f53706163653a204f6e6c7920617070726f766564206f72206f776e6572000000604082015260600190565b60208082526028908201527f537061636545786368616e67653a20426964646572206d757374206265206d73604082015267339039b2b73232b960c11b606082015260800190565b60208082526024908201527f53706163653a20636f6e74656e742068617368206d757374206265206e6f6e2d6040820152637a65726f60e01b606082015260800190565b6020808252601f908201527f5265656e7472616e637947756172643a207265656e7472616e742063616c6c00604082015260600190565b9182526001600160a01b0316602082015260400190565b918252805160208084019190915201516001600160a01b0316604082015260600190565b91825280515160208084019190915281015151604080840191909152015151606082015260800190565b82815260c08101611f996020830184613520565b83815260e081016142f26020830185613520565b6001600160a01b039290921660c0919091015292915050565b60405181810167ffffffffffffffff8111828210171561432a57600080fd5b604052919050565b60005b8381101561434d578181015183820152602001614335565b838111156116e25750506000910152565b6001600160a01b0381168114612e2957600080fd5b8015158114612e2957600080fd5b6001600160e01b031981168114612e2957600080fdfe4552433732313a207472616e7366657220746f206e6f6e20455243373231526563656976657220696d706c656d656e7465724552433732313a206f776e657220717565727920666f72206e6f6e6578697374656e7420746f6b656ea26469706673582212201276a2432eb9cbb69ada72b9788ff47300aad4ae08249dcf99bb1a5ca1dff31464736f6c63430006080033",
  "linkReferences": {},
  "deployedLinkReferences": {}
}