{
  "_format": "hh-sol-artifact-1",
  "contractName": "Space",
  "sourceName": "contracts/Space.sol",
  "abi": [
    {
      "inputs": [
        {
          "internalType": "address",
          "name": "spaceExchangeContractAddr",
          "type": "address"
        }
      ],
      "stateMutability": "nonpayable",
      "type": "constructor"
    },
    {
      "anonymous": false,
      "inputs": [
        {
          "indexed": true,
          "internalType": "address",
          "name": "owner",
          "type": "address"
        },
        {
          "indexed": true,
          "internalType": "address",
          "name": "approved",
          "type": "address"
        },
        {
          "indexed": true,
          "internalType": "uint256",
          "name": "tokenId",
          "type": "uint256"
        }
      ],
      "name": "Approval",
      "type": "event"
    },
    {
      "anonymous": false,
      "inputs": [
        {
          "indexed": true,
          "internalType": "address",
          "name": "owner",
          "type": "address"
        },
        {
          "indexed": true,
          "internalType": "address",
          "name": "operator",
          "type": "address"
        },
        {
          "indexed": false,
          "internalType": "bool",
          "name": "approved",
          "type": "bool"
        }
      ],
      "name": "ApprovalForAll",
      "type": "event"
    },
    {
      "anonymous": false,
      "inputs": [
        {
          "indexed": true,
          "internalType": "uint256",
          "name": "_tokenId",
          "type": "uint256"
        },
        {
          "indexed": false,
          "internalType": "address",
          "name": "owner",
          "type": "address"
        },
        {
          "indexed": false,
          "internalType": "uint256[]",
          "name": "lands",
          "type": "uint256[]"
        }
      ],
      "name": "TokenLandsUpdated",
      "type": "event"
    },
    {
      "anonymous": false,
      "inputs": [
        {
          "indexed": true,
          "internalType": "uint256",
          "name": "_tokenId",
          "type": "uint256"
        },
        {
          "indexed": false,
          "internalType": "address",
          "name": "owner",
          "type": "address"
        },
        {
          "indexed": false,
          "internalType": "string",
          "name": "_uri",
          "type": "string"
        }
      ],
      "name": "TokenMetadataURIUpdated",
      "type": "event"
    },
    {
      "anonymous": false,
      "inputs": [
        {
          "indexed": true,
          "internalType": "uint256",
          "name": "_tokenId",
          "type": "uint256"
        },
        {
          "indexed": false,
          "internalType": "address",
          "name": "owner",
          "type": "address"
        },
        {
          "indexed": false,
          "internalType": "string",
          "name": "_uri",
          "type": "string"
        }
      ],
      "name": "TokenURIUpdated",
      "type": "event"
    },
    {
      "anonymous": false,
      "inputs": [
        {
          "indexed": true,
          "internalType": "address",
          "name": "from",
          "type": "address"
        },
        {
          "indexed": true,
          "internalType": "address",
          "name": "to",
          "type": "address"
        },
        {
          "indexed": true,
          "internalType": "uint256",
          "name": "tokenId",
          "type": "uint256"
        }
      ],
      "name": "Transfer",
      "type": "event"
    },
    {
      "inputs": [
        {
          "internalType": "uint256",
          "name": "tokenId",
          "type": "uint256"
        },
        {
          "components": [
            {
              "internalType": "uint256",
              "name": "amount",
              "type": "uint256"
            },
            {
              "internalType": "address",
              "name": "currency",
              "type": "address"
            },
            {
              "internalType": "address",
              "name": "bidder",
              "type": "address"
            },
            {
              "internalType": "address",
              "name": "recipient",
              "type": "address"
            },
            {
              "components": [
                {
                  "internalType": "uint256",
                  "name": "value",
                  "type": "uint256"
                }
              ],
              "internalType": "struct Decimal.D256",
              "name": "sellOnShare",
              "type": "tuple"
            }
          ],
          "internalType": "struct ISpaceExchange.Bid",
          "name": "bid",
          "type": "tuple"
        }
      ],
      "name": "acceptBid",
      "outputs": [],
      "stateMutability": "nonpayable",
      "type": "function"
    },
    {
      "inputs": [
        {
          "internalType": "address",
          "name": "to",
          "type": "address"
        },
        {
          "internalType": "uint256",
          "name": "tokenId",
          "type": "uint256"
        }
      ],
      "name": "approve",
      "outputs": [],
      "stateMutability": "nonpayable",
      "type": "function"
    },
    {
      "inputs": [
        {
          "internalType": "address",
          "name": "owner",
          "type": "address"
        }
      ],
      "name": "balanceOf",
      "outputs": [
        {
          "internalType": "uint256",
          "name": "",
          "type": "uint256"
        }
      ],
      "stateMutability": "view",
      "type": "function"
    },
    {
      "inputs": [],
      "name": "baseURI",
      "outputs": [
        {
          "internalType": "string",
          "name": "",
          "type": "string"
        }
      ],
      "stateMutability": "view",
      "type": "function"
    },
    {
      "inputs": [
        {
          "internalType": "uint256",
          "name": "tokenId",
          "type": "uint256"
        }
      ],
      "name": "burn",
      "outputs": [],
      "stateMutability": "nonpayable",
      "type": "function"
    },
    {
      "inputs": [
        {
          "internalType": "uint256",
          "name": "tokenId",
          "type": "uint256"
        },
        {
          "internalType": "address",
          "name": "sender",
          "type": "address"
        }
      ],
      "name": "checkLandAttach",
      "outputs": [
        {
          "internalType": "bool",
          "name": "",
          "type": "bool"
        }
      ],
      "stateMutability": "view",
      "type": "function"
    },
    {
      "inputs": [
        {
          "internalType": "uint256",
          "name": "tokenId",
          "type": "uint256"
        }
      ],
      "name": "getApproved",
      "outputs": [
        {
          "internalType": "address",
          "name": "",
          "type": "address"
        }
      ],
      "stateMutability": "view",
      "type": "function"
    },
    {
      "inputs": [
        {
          "internalType": "address",
          "name": "_landContract",
          "type": "address"
        }
      ],
      "name": "initialize",
      "outputs": [],
      "stateMutability": "nonpayable",
      "type": "function"
    },
    {
      "inputs": [
        {
          "internalType": "address",
          "name": "owner",
          "type": "address"
        },
        {
          "internalType": "address",
          "name": "operator",
          "type": "address"
        }
      ],
      "name": "isApprovedForAll",
      "outputs": [
        {
          "internalType": "bool",
          "name": "",
          "type": "bool"
        }
      ],
      "stateMutability": "view",
      "type": "function"
    },
    {
      "inputs": [],
      "name": "landContract",
      "outputs": [
        {
          "internalType": "address",
          "name": "",
          "type": "address"
        }
      ],
      "stateMutability": "view",
      "type": "function"
    },
    {
      "inputs": [
        {
          "internalType": "uint256",
          "name": "tokenId",
          "type": "uint256"
        },
        {
          "internalType": "address",
          "name": "recipient",
          "type": "address"
        }
      ],
      "name": "listTransfer",
      "outputs": [],
      "stateMutability": "nonpayable",
      "type": "function"
    },
    {
      "inputs": [],
      "name": "maxSupply",
      "outputs": [
        {
          "internalType": "uint256",
          "name": "",
          "type": "uint256"
        }
      ],
      "stateMutability": "view",
      "type": "function"
    },
    {
      "inputs": [
        {
          "components": [
            {
              "internalType": "string",
              "name": "tokenURI",
              "type": "string"
            },
            {
              "internalType": "string",
              "name": "metadataURI",
              "type": "string"
            },
            {
              "internalType": "bytes32",
              "name": "contentHash",
              "type": "bytes32"
            },
            {
              "internalType": "bytes32",
              "name": "metadataHash",
              "type": "bytes32"
            },
            {
              "internalType": "bool",
              "name": "isPublic",
              "type": "bool"
            },
            {
              "internalType": "uint256[]",
              "name": "lands",
              "type": "uint256[]"
            }
          ],
          "internalType": "struct ISpace.SpaceData",
          "name": "data",
          "type": "tuple"
        },
        {
          "components": [
            {
              "components": [
                {
                  "internalType": "uint256",
                  "name": "value",
                  "type": "uint256"
                }
              ],
              "internalType": "struct Decimal.D256",
              "name": "prevOwner",
              "type": "tuple"
            },
            {
              "components": [
                {
                  "internalType": "uint256",
                  "name": "value",
                  "type": "uint256"
                }
              ],
              "internalType": "struct Decimal.D256",
              "name": "creator",
              "type": "tuple"
            },
            {
              "components": [
                {
                  "internalType": "uint256",
                  "name": "value",
                  "type": "uint256"
                }
              ],
              "internalType": "struct Decimal.D256",
              "name": "owner",
              "type": "tuple"
            }
          ],
          "internalType": "struct ISpaceExchange.BidShares",
          "name": "bidShares",
          "type": "tuple"
        }
      ],
      "name": "mint",
      "outputs": [],
      "stateMutability": "nonpayable",
      "type": "function"
    },
    {
      "inputs": [],
      "name": "name",
      "outputs": [
        {
          "internalType": "string",
          "name": "",
          "type": "string"
        }
      ],
      "stateMutability": "view",
      "type": "function"
    },
    {
      "inputs": [
        {
          "internalType": "uint256",
          "name": "tokenId",
          "type": "uint256"
        }
      ],
      "name": "ownerOf",
      "outputs": [
        {
          "internalType": "address",
          "name": "",
          "type": "address"
        }
      ],
      "stateMutability": "view",
      "type": "function"
    },
    {
      "inputs": [
        {
          "internalType": "uint256",
          "name": "",
          "type": "uint256"
        }
      ],
      "name": "previousTokenOwners",
      "outputs": [
        {
          "internalType": "address",
          "name": "",
          "type": "address"
        }
      ],
      "stateMutability": "view",
      "type": "function"
    },
    {
      "inputs": [
        {
          "internalType": "uint256",
          "name": "tokenId",
          "type": "uint256"
        }
      ],
      "name": "removeAsk",
      "outputs": [],
      "stateMutability": "nonpayable",
      "type": "function"
    },
    {
      "inputs": [
        {
          "internalType": "uint256",
          "name": "tokenId",
          "type": "uint256"
        }
      ],
      "name": "removeBid",
      "outputs": [],
      "stateMutability": "nonpayable",
      "type": "function"
    },
    {
      "inputs": [
        {
          "internalType": "uint256",
          "name": "tokenId",
          "type": "uint256"
        }
      ],
      "name": "revokeApproval",
      "outputs": [],
      "stateMutability": "nonpayable",
      "type": "function"
    },
    {
      "inputs": [
        {
          "internalType": "address",
          "name": "from",
          "type": "address"
        },
        {
          "internalType": "address",
          "name": "to",
          "type": "address"
        },
        {
          "internalType": "uint256",
          "name": "tokenId",
          "type": "uint256"
        }
      ],
      "name": "safeTransferFrom",
      "outputs": [],
      "stateMutability": "nonpayable",
      "type": "function"
    },
    {
      "inputs": [
        {
          "internalType": "address",
          "name": "from",
          "type": "address"
        },
        {
          "internalType": "address",
          "name": "to",
          "type": "address"
        },
        {
          "internalType": "uint256",
          "name": "tokenId",
          "type": "uint256"
        },
        {
          "internalType": "bytes",
          "name": "_data",
          "type": "bytes"
        }
      ],
      "name": "safeTransferFrom",
      "outputs": [],
      "stateMutability": "nonpayable",
      "type": "function"
    },
    {
      "inputs": [
        {
          "internalType": "address",
          "name": "operator",
          "type": "address"
        },
        {
          "internalType": "bool",
          "name": "approved",
          "type": "bool"
        }
      ],
      "name": "setApprovalForAll",
      "outputs": [],
      "stateMutability": "nonpayable",
      "type": "function"
    },
    {
      "inputs": [
        {
          "internalType": "uint256",
          "name": "tokenId",
          "type": "uint256"
        },
        {
          "components": [
            {
              "internalType": "uint256",
              "name": "amount",
              "type": "uint256"
            },
            {
              "internalType": "address",
              "name": "currency",
              "type": "address"
            }
          ],
          "internalType": "struct ISpaceExchange.Ask",
          "name": "ask",
          "type": "tuple"
        }
      ],
      "name": "setAsk",
      "outputs": [],
      "stateMutability": "nonpayable",
      "type": "function"
    },
    {
      "inputs": [
        {
          "internalType": "uint256",
          "name": "tokenId",
          "type": "uint256"
        },
        {
          "components": [
            {
              "internalType": "uint256",
              "name": "amount",
              "type": "uint256"
            },
            {
              "internalType": "address",
              "name": "currency",
              "type": "address"
            },
            {
              "internalType": "address",
              "name": "bidder",
              "type": "address"
            },
            {
              "internalType": "address",
              "name": "recipient",
              "type": "address"
            },
            {
              "components": [
                {
                  "internalType": "uint256",
                  "name": "value",
                  "type": "uint256"
                }
              ],
              "internalType": "struct Decimal.D256",
              "name": "sellOnShare",
              "type": "tuple"
            }
          ],
          "internalType": "struct ISpaceExchange.Bid",
          "name": "bid",
          "type": "tuple"
        }
      ],
      "name": "setBid",
      "outputs": [],
      "stateMutability": "nonpayable",
      "type": "function"
    },
    {
      "inputs": [],
      "name": "spaceExchangeContract",
      "outputs": [
        {
          "internalType": "address",
          "name": "",
          "type": "address"
        }
      ],
      "stateMutability": "view",
      "type": "function"
    },
    {
      "inputs": [
        {
          "internalType": "bytes4",
          "name": "interfaceId",
          "type": "bytes4"
        }
      ],
      "name": "supportsInterface",
      "outputs": [
        {
          "internalType": "bool",
          "name": "",
          "type": "bool"
        }
      ],
      "stateMutability": "view",
      "type": "function"
    },
    {
      "inputs": [],
      "name": "symbol",
      "outputs": [
        {
          "internalType": "string",
          "name": "",
          "type": "string"
        }
      ],
      "stateMutability": "view",
      "type": "function"
    },
    {
      "inputs": [
        {
          "internalType": "uint256",
          "name": "index",
          "type": "uint256"
        }
      ],
      "name": "tokenByIndex",
      "outputs": [
        {
          "internalType": "uint256",
          "name": "",
          "type": "uint256"
        }
      ],
      "stateMutability": "view",
      "type": "function"
    },
    {
      "inputs": [
        {
          "internalType": "uint256",
          "name": "",
          "type": "uint256"
        }
      ],
      "name": "tokenContentHashes",
      "outputs": [
        {
          "internalType": "bytes32",
          "name": "",
          "type": "bytes32"
        }
      ],
      "stateMutability": "view",
      "type": "function"
    },
    {
      "inputs": [
        {
          "internalType": "uint256",
          "name": "",
          "type": "uint256"
        }
      ],
      "name": "tokenCreators",
      "outputs": [
        {
          "internalType": "address",
          "name": "",
          "type": "address"
        }
      ],
      "stateMutability": "view",
      "type": "function"
    },
    {
      "inputs": [
        {
          "internalType": "uint256",
          "name": "",
          "type": "uint256"
        }
      ],
      "name": "tokenIsPublicRecord",
      "outputs": [
        {
          "internalType": "bool",
          "name": "",
          "type": "bool"
        }
      ],
      "stateMutability": "view",
      "type": "function"
    },
    {
      "inputs": [
        {
          "internalType": "uint256",
          "name": "",
          "type": "uint256"
        },
        {
          "internalType": "uint256",
          "name": "",
          "type": "uint256"
        }
      ],
      "name": "tokenLands",
      "outputs": [
        {
          "internalType": "uint256",
          "name": "",
          "type": "uint256"
        }
      ],
      "stateMutability": "view",
      "type": "function"
    },
    {
      "inputs": [
        {
          "internalType": "uint256",
          "name": "",
          "type": "uint256"
        }
      ],
      "name": "tokenMetadataHashes",
      "outputs": [
        {
          "internalType": "bytes32",
          "name": "",
          "type": "bytes32"
        }
      ],
      "stateMutability": "view",
      "type": "function"
    },
    {
      "inputs": [
        {
          "internalType": "uint256",
          "name": "tokenId",
          "type": "uint256"
        }
      ],
      "name": "tokenMetadataURI",
      "outputs": [
        {
          "internalType": "string",
          "name": "",
          "type": "string"
        }
      ],
      "stateMutability": "view",
      "type": "function"
    },
    {
      "inputs": [
        {
          "internalType": "address",
          "name": "owner",
          "type": "address"
        },
        {
          "internalType": "uint256",
          "name": "index",
          "type": "uint256"
        }
      ],
      "name": "tokenOfOwnerByIndex",
      "outputs": [
        {
          "internalType": "uint256",
          "name": "",
          "type": "uint256"
        }
      ],
      "stateMutability": "view",
      "type": "function"
    },
    {
      "inputs": [
        {
          "internalType": "uint256",
          "name": "tokenId",
          "type": "uint256"
        }
      ],
      "name": "tokenURI",
      "outputs": [
        {
          "internalType": "string",
          "name": "",
          "type": "string"
        }
      ],
      "stateMutability": "view",
      "type": "function"
    },
    {
      "inputs": [],
      "name": "totalSupply",
      "outputs": [
        {
          "internalType": "uint256",
          "name": "",
          "type": "uint256"
        }
      ],
      "stateMutability": "view",
      "type": "function"
    },
    {
      "inputs": [
        {
          "internalType": "address",
          "name": "from",
          "type": "address"
        },
        {
          "internalType": "address",
          "name": "to",
          "type": "address"
        },
        {
          "internalType": "uint256",
          "name": "tokenId",
          "type": "uint256"
        }
      ],
      "name": "transferFrom",
      "outputs": [],
      "stateMutability": "nonpayable",
      "type": "function"
    },
    {
      "inputs": [
        {
          "internalType": "uint256",
          "name": "tokenId",
          "type": "uint256"
        },
        {
          "internalType": "uint256[]",
          "name": "lands",
          "type": "uint256[]"
        }
      ],
      "name": "updateTokenLands",
      "outputs": [],
      "stateMutability": "nonpayable",
      "type": "function"
    },
    {
      "inputs": [
        {
          "internalType": "uint256",
          "name": "tokenId",
          "type": "uint256"
        },
        {
          "internalType": "string",
          "name": "metadataURI",
          "type": "string"
        }
      ],
      "name": "updateTokenMetadataURI",
      "outputs": [],
      "stateMutability": "nonpayable",
      "type": "function"
    },
    {
      "inputs": [
        {
          "internalType": "uint256",
          "name": "tokenId",
          "type": "uint256"
        },
        {
          "internalType": "string",
          "name": "tokenURI",
          "type": "string"
        }
      ],
      "name": "updateTokenURI",
      "outputs": [],
      "stateMutability": "nonpayable",
      "type": "function"
    }
  ],
  "bytecode": "0x6080604052600c805460ff60a01b19169055620186a0600d553480156200002557600080fd5b50604051620042d0380380620042d083398101604081905262000048916200023f565b604080518082018252600b81526a4d6f74696620537061636560a81b60208083019190915282518084019093526005835264535041434560d81b9083015290620000a26301ffc9a760e01b6001600160e01b036200013f16565b8151620000b79060069060208501906200019a565b508051620000cd9060079060208401906200019a565b50620000e96380ac58cd60e01b6001600160e01b036200013f16565b6200010463780e9d6360e01b6001600160e01b036200013f16565b50506001600a55600b80546001600160a01b0319166001600160a01b0383161790556200013863a990b5e560e01b6200013f565b50620002a6565b6001600160e01b03198082161415620001755760405162461bcd60e51b81526004016200016c906200026f565b60405180910390fd5b6001600160e01b0319166000908152602081905260409020805460ff19166001179055565b828054600181600116156101000203166002900490600052602060002090601f016020900481019282601f10620001dd57805160ff19168380011785556200020d565b828001600101855582156200020d579182015b828111156200020d578251825591602001919060010190620001f0565b506200021b9291506200021f565b5090565b6200023c91905b808211156200021b576000815560010162000226565b90565b60006020828403121562000251578081fd5b81516001600160a01b038116811462000268578182fd5b9392505050565b6020808252601c908201527f4552433136353a20696e76616c696420696e7465726661636520696400000000604082015260600190565b61401a80620002b66000396000f3fe608060405234801561001057600080fd5b50600436106102d35760003560e01c80636352211e11610186578063b1e130fc116100e3578063c87b56dd11610097578063e985e9c511610071578063e985e9c51461059c578063f93b85d7146105af578063fad32197146105c2576102d3565b8063c87b56dd1461056e578063d5abeb0114610581578063e0fd045f14610589576102d3565b8063b88d4fde116100c8578063b88d4fde14610535578063ba33939914610548578063c4d66de81461055b576102d3565b8063b1e130fc1461050f578063b320f45914610522576102d3565b806375682e791161013a57806395d89b411161011f57806395d89b41146104e15780639d8e7260146104e9578063a22cb465146104fc576102d3565b806375682e79146104bb57806381de64e7146104ce576102d3565b80636c0360eb1161016b5780636c0360eb1461049857806370a08231146104a057806372d27398146104b3576102d3565b80636352211e1461047257806366449b7114610485576102d3565b806328220f351161023457806342966c68116101e85780634f6ccce7116101cd5780634f6ccce7146104395780635bf624221461044c57806362f24b701461045f576102d3565b806342966c68146104135780634c89302314610426576102d3565b806332f44aa91161021957806332f44aa9146103da5780633d1dc5c4146103ed57806342842e0e14610400576102d3565b806328220f35146103b45780632f745c59146103c7576102d3565b8063095ea7b31161028b57806318160ddd1161027057806318160ddd1461038657806318e97fd11461038e57806323b872dd146103a1576102d3565b8063095ea7b31461035e578063157c3df914610373576102d3565b806303d07340116102bc57806303d073401461032157806306fdde0314610336578063081812fc1461034b576102d3565b806301ddc3b5146102d857806301ffc9a714610301575b600080fd5b6102eb6102e6366004612eaa565b6105d5565b6040516102f8919061324f565b60405180910390f35b61031461030f366004612d8f565b6105e7565b6040516102f89190613244565b61032961061e565b6040516102f89190613152565b61033e61062d565b6040516102f89190613258565b610329610359366004612eaa565b6106c4565b61037161036c366004612d49565b610710565b005b61033e610381366004612eaa565b6107a8565b6102eb610873565b61037161039c366004612f5c565b610884565b6103716103af366004612c6a565b6109e3565b6103716103c2366004612eaa565b610a1b565b6102eb6103d5366004612d49565b610ad7565b6103716103e8366004612ec2565b610b08565b6102eb6103fb3660046130a7565b610b8e565b61037161040e366004612c6a565b610bbc565b610371610421366004612eaa565b610bd7565b610314610434366004612eaa565b610ca9565b6102eb610447366004612eaa565b610cbe565b61037161045a366004613017565b610cda565b61037161046d366004612fc0565b610daa565b610329610480366004612eaa565b610e82565b610371610493366004612dc7565b610eb0565b61033e610eec565b6102eb6104ae366004612c1b565b610f4d565b610329610f96565b6103716104c9366004612f5c565b610fa5565b6103146104dc366004612ec2565b6110ee565b61033e611162565b6103296104f7366004612eaa565b6111c3565b61037161050a366004612d12565b6111de565b61037161051d366004612eaa565b6112ac565b610371610530366004612eaa565b611320565b610371610543366004612caa565b6113f7565b610371610556366004613017565b611436565b610371610569366004612c1b565b6114d1565b61033e61057c366004612eaa565b611547565b6102eb611615565b610329610597366004612eaa565b61161b565b6103146105aa366004612c36565b611636565b6103716105bd366004612ee5565b611664565b6102eb6105d0366004612eaa565b611835565b60126020526000908152604090205481565b7fffffffff000000000000000000000000000000000000000000000000000000001660009081526020819052604090205460ff1690565b600c546001600160a01b031681565b60068054604080516020601f60026000196101006001881615020190951694909404938401819004810282018101909252828152606093909290918301828280156106b95780601f1061068e576101008083540402835291602001916106b9565b820191906000526020600020905b81548152906001019060200180831161069c57829003601f168201915b505050505090505b90565b60006106cf82611847565b6106f45760405162461bcd60e51b81526004016106eb9061392b565b60405180910390fd5b506000908152600460205260409020546001600160a01b031690565b600061071b82610e82565b9050806001600160a01b0316836001600160a01b0316141561074f5760405162461bcd60e51b81526004016106eb90613b94565b806001600160a01b031661076161185a565b6001600160a01b0316148061077d575061077d816105aa61185a565b6107995760405162461bcd60e51b81526004016106eb90613740565b6107a3838361185e565b505050565b606081806107b660176118cc565b116107d35760405162461bcd60e51b81526004016106eb90613367565b60008381526013602090815260409182902080548351601f6002600019610100600186161502019093169290920491820184900484028101840190945280845290918301828280156108665780601f1061083b57610100808354040283529160200191610866565b820191906000526020600020905b81548152906001019060200180831161084957829003601f168201915b5050505050915050919050565b600061087f60026118d0565b905090565b6002600a5414156108a75760405162461bcd60e51b81526004016106eb90613dd3565b6002600a5533836108b882826118db565b6108d45760405162461bcd60e51b81526004016106eb90613ce2565b60008581526011602052604090205485906109015760405162461bcd60e51b81526004016106eb906137fa565b84848080601f0160208091040260200160405190810160405280939291908181526020018383808284376000920191909152505082511515915061095990505760405162461bcd60e51b81526004016106eb90613ada565b6109998787878080601f01602080910402602001604051908101604052809392919081815260200183838082843760009201919091525061196092505050565b867f702fe2dc2dc0f68023540aa4a1e11811c0f29112f6ebf01e61b90538e4f298103388886040516109cd93929190613205565b60405180910390a250506001600a555050505050565b6109f46109ee61185a565b826118db565b610a105760405162461bcd60e51b81526004016106eb90613c4e565b6107a38383836119a4565b6002600a541415610a3e5760405162461bcd60e51b81526004016106eb90613dd3565b6002600a553381610a4f82826118db565b610a6b5760405162461bcd60e51b81526004016106eb90613ce2565b600b546040516328220f3560e01b81526001600160a01b03909116906328220f3590610a9b90869060040161324f565b600060405180830381600087803b158015610ab557600080fd5b505af1158015610ac9573d6000803e3d6000fd5b50506001600a555050505050565b6001600160a01b0382166000908152600160205260408120610aff908363ffffffff611a1116565b90505b92915050565b600b546001600160a01b03163314610b325760405162461bcd60e51b81526004016106eb906139c3565b610b3b82610e82565b6000838152600e6020526040902080546001600160a01b0319166001600160a01b0392909216919091179055610b8a610b7383610e82565b828460405180602001604052806000815250611a1d565b5050565b60166020528160005260406000208181548110610ba757fe5b90600052602060002001600091509150505481565b6107a3838383604051806020016040528060008152506113f7565b6002600a541415610bfa5760405162461bcd60e51b81526004016106eb90613dd3565b6002600a5580610c0981611847565b610c255760405162461bcd60e51b81526004016106eb90613512565b3382610c3182826118db565b610c4d5760405162461bcd60e51b81526004016106eb90613ce2565b6000610c5885610e82565b6000868152600f60205260409020549091506001600160a01b03808316911614610c945760405162461bcd60e51b81526004016106eb906132ad565b610c9d85611a50565b50506001600a55505050565b60156020526000908152604090205460ff1681565b600080610cd260028463ffffffff611b3c16565b509392505050565b6002600a541415610cfd5760405162461bcd60e51b81526004016106eb90613dd3565b6002600a5581610d0c81611847565b610d285760405162461bcd60e51b81526004016106eb90613512565b81604001516001600160a01b0316336001600160a01b031614610d5d5760405162461bcd60e51b81526004016106eb90613d19565b600b546040517fbdb586980000000000000000000000000000000000000000000000000000000081526001600160a01b039091169063bdb5869890610a9b90869086903390600401613eba565b6002600a541415610dcd5760405162461bcd60e51b81526004016106eb90613dd3565b6002600a553382610dde82826118db565b610dfa5760405162461bcd60e51b81526004016106eb90613ce2565b600b546040517f62f24b700000000000000000000000000000000000000000000000000000000081526001600160a01b03909116906362f24b7090610e459087908790600401613e58565b600060405180830381600087803b158015610e5f57600080fd5b505af1158015610e73573d6000803e3d6000fd5b50506001600a55505050505050565b6000610b0282604051806060016040528060298152602001613fbc602991396002919063ffffffff611b5816565b6002600a541415610ed35760405162461bcd60e51b81526004016106eb90613dd3565b6002600a55610ee3338383611b6f565b50506001600a55565b60098054604080516020601f60026000196101006001881615020190951694909404938401819004810282018101909252828152606093909290918301828280156106b95780601f1061068e576101008083540402835291602001916106b9565b60006001600160a01b038216610f755760405162461bcd60e51b81526004016106eb9061379d565b6001600160a01b0382166000908152600160205260409020610b02906118d0565b600b546001600160a01b031681565b6002600a541415610fc85760405162461bcd60e51b81526004016106eb90613dd3565b6002600a553383610fd982826118db565b610ff55760405162461bcd60e51b81526004016106eb90613ce2565b60008581526012602052604090205485906110225760405162461bcd60e51b81526004016106eb90613a7d565b84848080601f0160208091040260200160405190810160405280939291908181526020018383808284376000920191909152505082511515915061107a90505760405162461bcd60e51b81526004016106eb90613ada565b6110ba8787878080601f016020809104026020016040519081016040528093929190818152602001838380828437600092019190915250611f0e92505050565b867fe3df41127db820c79e5b8d541a63e40e3e97b9af96f7a50bded13091b70df9ae3388886040516109cd93929190613205565b600082806110fc60176118cc565b116111195760405162461bcd60e51b81526004016106eb90613367565b600061112485610e82565b9050836001600160a01b0316816001600160a01b0316146111575760405162461bcd60e51b81526004016106eb906134b5565b506001949350505050565b60078054604080516020601f60026000196101006001881615020190951694909404938401819004810282018101909252828152606093909290918301828280156106b95780601f1061068e576101008083540402835291602001916106b9565b600e602052600090815260409020546001600160a01b031681565b6111e661185a565b6001600160a01b0316826001600160a01b031614156112175760405162461bcd60e51b81526004016106eb90613660565b806005600061122461185a565b6001600160a01b03908116825260208083019390935260409182016000908120918716808252919093529120805460ff19169215159290921790915561126861185a565b6001600160a01b03167f17307eab39ab6107e8899845ad3d59bd9653f200f220920489ca2b5937696c31836040516112a09190613244565b60405180910390a35050565b6002600a5414156112cf5760405162461bcd60e51b81526004016106eb90613dd3565b6002600a556112dd816106c4565b6001600160a01b0316336001600160a01b03161461130d5760405162461bcd60e51b81526004016106eb90613603565b61131860008261185e565b506001600a55565b6002600a5414156113435760405162461bcd60e51b81526004016106eb90613dd3565b6002600a55808061135460176118cc565b116113715760405162461bcd60e51b81526004016106eb90613367565b600b546040517f776a08350000000000000000000000000000000000000000000000000000000081526001600160a01b039091169063776a0835906113bc9085903390600401613e41565b600060405180830381600087803b1580156113d657600080fd5b505af11580156113ea573d6000803e3d6000fd5b50506001600a5550505050565b61140861140261185a565b836118db565b6114245760405162461bcd60e51b81526004016106eb90613c4e565b61143084848484611a1d565b50505050565b6002600a5414156114595760405162461bcd60e51b81526004016106eb90613dd3565b6002600a55338261146a82826118db565b6114865760405162461bcd60e51b81526004016106eb90613ce2565b600b546040517fba3393990000000000000000000000000000000000000000000000000000000081526001600160a01b039091169063ba33939990610e459087908790600401613ea6565b600c54600160a01b900460ff16156114fb5760405162461bcd60e51b81526004016106eb90613458565b600c8054600160a01b7fffffffffffffffffffffff00ffffffffffffffffffffffffffffffffffffffff909116176001600160a01b0319166001600160a01b0392909216919091179055565b6060818061155560176118cc565b116115725760405162461bcd60e51b81526004016106eb90613367565b60008381526008602090815260409182902080548351601f60026000196101006001861615020190931692909204918201849004840281018401909452808452606093928301828280156116075780601f106115dc57610100808354040283529160200191611607565b820191906000526020600020905b8154815290600101906020018083116115ea57829003601f168201915b509398975050505050505050565b600d5481565b600f602052600090815260409020546001600160a01b031681565b6001600160a01b03918216600090815260056020908152604080832093909416825291909152205460ff1690565b6002600a5414156116875760405162461bcd60e51b81526004016106eb90613dd3565b6002600a55338361169882826118db565b6116b45760405162461bcd60e51b81526004016106eb90613ce2565b60008581526012602052604090205485906116e15760405162461bcd60e51b81526004016106eb90613a7d565b60005b848110156117ae57600c546000906001600160a01b031663309cf8d288888581811061170c57fe5b90506020020135336040518363ffffffff1660e01b8152600401611731929190613e41565b60206040518083038186803b15801561174957600080fd5b505afa15801561175d573d6000803e3d6000fd5b505050506040513d601f19601f820116820180604052508101906117819190612d73565b90506001811515146117a55760405162461bcd60e51b81526004016106eb90613bf1565b506001016116e4565b506117ec86868680806020026020016040519081016040528093929190818152602001838360200280828437600092019190915250611f5392505050565b857f4be8131fcc22c12003ac879a07e7678724c47d36ce311c584ee27a57e867b7d4338787604051611820939291906131a2565b60405180910390a250506001600a5550505050565b60116020526000908152604090205481565b6000610b0260028363ffffffff611f9816565b3390565b600081815260046020526040902080546001600160a01b0319166001600160a01b038416908117909155819061189382610e82565b6001600160a01b03167f8c5be1e5ebec7d5bd14f71427d1e84f3dd0314c0f7b2291e5b200ac8c7c3b92560405160405180910390a45050565b5490565b6000610b02826118cc565b60006118e682611847565b6119025760405162461bcd60e51b81526004016106eb906136f4565b600061190d83610e82565b9050806001600160a01b0316846001600160a01b031614806119485750836001600160a01b031661193d846106c4565b6001600160a01b0316145b8061195857506119588185611636565b949350505050565b61196982611847565b6119855760405162461bcd60e51b81526004016106eb90613977565b600082815260086020908152604090912082516107a39284019061297f565b600b546040516328220f3560e01b81526001600160a01b03909116906328220f35906119d490849060040161324f565b600060405180830381600087803b1580156119ee57600080fd5b505af1158015611a02573d6000803e3d6000fd5b505050506107a3838383611fa4565b6000610aff83836120c4565b611a288484846119a4565b611a3484848484612109565b6114305760405162461bcd60e51b81526004016106eb9061330a565b60008181526008602090815260409182902080548351601f6002600019610100600186161502019093169290920491820184900484028101840190945280845260609392830182828015611ae55780601f10611aba57610100808354040283529160200191611ae5565b820191906000526020600020905b815481529060010190602001808311611ac857829003601f168201915b50505050509050611af582612230565b805115611b1d5760008281526008602090815260409091208251611b1b9284019061297f565b505b506000908152600e6020526040902080546001600160a01b0319169055565b6000808080611b4b8686612309565b9097909650945050505050565b6000611b65848484612365565b90505b9392505050565b81518051611b8f5760405162461bcd60e51b81526004016106eb90613ada565b60208301518051611bb25760405162461bcd60e51b81526004016106eb90613ada565b600d54611bbd610873565b10611bda5760405162461bcd60e51b81526004016106eb90613e0a565b6040840151611bfb5760405162461bcd60e51b81526004016106eb90613d76565b60408085015160009081526014602052205460ff1615611c2d5760405162461bcd60e51b81526004016106eb90613b37565b6060840151611c4e5760405162461bcd60e51b81526004016106eb906138ce565b6080840151151560011480611c6557506080840151155b611c815760405162461bcd60e51b81526004016106eb90613549565b6000611c8d60176118cc565b9050846080015115611db65760008560a001515111611cbe5760405162461bcd60e51b81526004016106eb906133fb565b60005b8560a0015151811015611d9857600c5460a087015180516000926001600160a01b03169163309cf8d29185908110611cf557fe5b6020026020010151336040518363ffffffff1660e01b8152600401611d1b929190613e41565b60206040518083038186803b158015611d3357600080fd5b505afa158015611d47573d6000803e3d6000fd5b505050506040513d601f19601f82011682018060405250810190611d6b9190612d73565b9050600181151514611d8f5760405162461bcd60e51b81526004016106eb90613bf1565b50600101611cc1565b50611da386826123c4565b611db1818660a00151611f53565b611dc0565b611dc086826123c4565b611dca60176123de565b611dd88186604001516123e7565b611de6818660600151612420565b611df4818660200151611f0e565b611e02818660000151611960565b611e10818660800151612459565b6001600160a01b0386166000908152601060205260409020611e38908263ffffffff6124a016565b50604080860151600090815260146020908152828220805460ff19166001179055838252600f815282822080546001600160a01b03808c166001600160a01b03199283168117909355600e90935292849020805490931617909155600b5491517feb55683a00000000000000000000000000000000000000000000000000000000815291169063eb55683a90611ed49084908890600401613e7c565b600060405180830381600087803b158015611eee57600080fd5b505af1158015611f02573d6000803e3d6000fd5b50505050505050505050565b81611f1881611847565b611f345760405162461bcd60e51b81526004016106eb90613512565b600083815260136020908152604090912083516114309285019061297f565b81611f5d81611847565b611f795760405162461bcd60e51b81526004016106eb90613512565b60008381526016602090815260409091208351611430928501906129fd565b6000610aff83836124ac565b826001600160a01b0316611fb782610e82565b6001600160a01b031614611fdd5760405162461bcd60e51b81526004016106eb90613a20565b6001600160a01b0382166120035760405162461bcd60e51b81526004016106eb906135a6565b61200e8383836107a3565b61201960008261185e565b6001600160a01b0383166000908152600160205260409020612041908263ffffffff6124c416565b506001600160a01b038216600090815260016020526040902061206a908263ffffffff6124a016565b5061207d6002828463ffffffff6124d016565b5080826001600160a01b0316846001600160a01b03167fddf252ad1be2c89b69c2b068fc378daa952ba7f163c4a11628f55a4df523b3ef60405160405180910390a4505050565b815460009082106120e75760405162461bcd60e51b81526004016106eb9061326b565b8260000182815481106120f657fe5b9060005260206000200154905092915050565b600061211d846001600160a01b03166124e6565b61212957506001611958565b60606121e1630a85bd0160e11b61213e61185a565b8887876040516024016121549493929190613166565b604051602081830303815290604052907bffffffffffffffffffffffffffffffffffffffffffffffffffffffff19166020820180517bffffffffffffffffffffffffffffffffffffffffffffffffffffffff8381831617835250505050604051806060016040528060328152602001613f8a603291396001600160a01b038816919063ffffffff6124ec16565b90506000818060200190518101906121f99190612dab565b7fffffffff0000000000000000000000000000000000000000000000000000000016630a85bd0160e11b1492505050949350505050565b600061223b82610e82565b9050612249816000846107a3565b61225460008361185e565b600082815260086020526040902054600260001961010060018416150201909116041561229257600082815260086020526040812061229291612a37565b6001600160a01b03811660009081526001602052604090206122ba908363ffffffff6124c416565b506122cc60028363ffffffff6124fb16565b5060405182906000906001600160a01b038416907fddf252ad1be2c89b69c2b068fc378daa952ba7f163c4a11628f55a4df523b3ef908390a45050565b81546000908190831061232e5760405162461bcd60e51b81526004016106eb90613857565b600084600001848154811061233f57fe5b906000526020600020906002020190508060000154816001015492509250509250929050565b600082815260018401602052604081205482816123955760405162461bcd60e51b81526004016106eb9190613258565b508460000160018203815481106123a857fe5b9060005260206000209060020201600101549150509392505050565b610b8a828260405180602001604052806000815250612507565b80546001019055565b816123f181611847565b61240d5760405162461bcd60e51b81526004016106eb90613512565b5060009182526011602052604090912055565b8161242a81611847565b6124465760405162461bcd60e51b81526004016106eb90613512565b5060009182526012602052604090912055565b8161246381611847565b61247f5760405162461bcd60e51b81526004016106eb90613512565b50600091825260156020526040909120805460ff1916911515919091179055565b6000610aff838361253a565b60009081526001919091016020526040902054151590565b6000610aff8383612584565b6000611b6584846001600160a01b03851661264a565b3b151590565b6060611b6584846000856126e1565b6000610aff83836127a2565b6125118383612876565b61251e6000848484612109565b6107a35760405162461bcd60e51b81526004016106eb9061330a565b600061254683836124ac565b61257c57508154600181810184556000848152602080822090930184905584548482528286019093526040902091909155610b02565b506000610b02565b6000818152600183016020526040812054801561264057835460001980830191908101906000908790839081106125b757fe5b90600052602060002001549050808760000184815481106125d457fe5b60009182526020808320909101929092558281526001898101909252604090209084019055865487908061260457fe5b60019003818190600052602060002001600090559055866001016000878152602001908152602001600020600090556001945050505050610b02565b6000915050610b02565b6000828152600184016020526040812054806126af575050604080518082018252838152602080820184815286546001818101895560008981528481209551600290930290950191825591519082015586548684528188019092529290912055611b68565b828560000160018303815481106126c257fe5b9060005260206000209060020201600101819055506000915050611b68565b6060824710156127035760405162461bcd60e51b81526004016106eb90613697565b61270c856124e6565b6127285760405162461bcd60e51b81526004016106eb90613cab565b60006060866001600160a01b031685876040516127459190613136565b60006040518083038185875af1925050503d8060008114612782576040519150601f19603f3d011682016040523d82523d6000602084013e612787565b606091505b5091509150612797828286612946565b979650505050505050565b6000818152600183016020526040812054801561264057835460001980830191908101906000908790839081106127d557fe5b90600052602060002090600202019050808760000184815481106127f557fe5b60009182526020808320845460029093020191825560019384015491840191909155835482528983019052604090209084019055865487908061283457fe5b6000828152602080822060026000199094019384020182815560019081018390559290935588815289820190925260408220919091559450610b029350505050565b6001600160a01b03821661289c5760405162461bcd60e51b81526004016106eb90613899565b6128a581611847565b156128c25760405162461bcd60e51b81526004016106eb906133c4565b6128ce600083836107a3565b6001600160a01b03821660009081526001602052604090206128f6908263ffffffff6124a016565b506129096002828463ffffffff6124d016565b5060405181906001600160a01b038416906000907fddf252ad1be2c89b69c2b068fc378daa952ba7f163c4a11628f55a4df523b3ef908290a45050565b60608315612955575081611b68565b8251156129655782518084602001fd5b8160405162461bcd60e51b81526004016106eb9190613258565b828054600181600116156101000203166002900490600052602060002090601f016020900481019282601f106129c057805160ff19168380011785556129ed565b828001600101855582156129ed579182015b828111156129ed5782518255916020019190600101906129d2565b506129f9929150612a7e565b5090565b8280548282559060005260206000209081019282156129ed57916020028201828111156129ed5782518255916020019190600101906129d2565b50805460018160011615610100020316600290046000825580601f10612a5d5750612a7b565b601f016020900490600052602060002090810190612a7b9190612a7e565b50565b6106c191905b808211156129f95760008155600101612a84565b80356001600160a01b0381168114610b0257600080fd5b600082601f830112612abf578081fd5b813567ffffffffffffffff811115612ad5578182fd5b6020808202612ae5828201613ee5565b83815293508184018583018287018401881015612b0157600080fd5b600092505b84831015612b24578035825260019290920191908301908301612b06565b505050505092915050565b8035610b0281613f4d565b600082601f830112612b4a578081fd5b813567ffffffffffffffff811115612b60578182fd5b612b73601f8201601f1916602001613ee5565b9150808252836020828501011115612b8a57600080fd5b8060208401602084013760009082016020015292915050565b600060608284031215612bb4578081fd5b612bbe6060613ee5565b9050612bca8383612bf6565b8152612bd98360208401612bf6565b6020820152612beb8360408401612bf6565b604082015292915050565b600060208284031215612c07578081fd5b612c116020613ee5565b9135825250919050565b600060208284031215612c2c578081fd5b610aff8383612a98565b60008060408385031215612c48578081fd5b612c528484612a98565b9150612c618460208501612a98565b90509250929050565b600080600060608486031215612c7e578081fd5b8335612c8981613f38565b92506020840135612c9981613f38565b929592945050506040919091013590565b60008060008060808587031215612cbf578081fd5b612cc98686612a98565b9350612cd88660208701612a98565b925060408501359150606085013567ffffffffffffffff811115612cfa578182fd5b612d0687828801612b3a565b91505092959194509250565b60008060408385031215612d24578182fd5b612d2e8484612a98565b91506020830135612d3e81613f4d565b809150509250929050565b60008060408385031215612d5b578182fd5b612d658484612a98565b946020939093013593505050565b600060208284031215612d84578081fd5b8151611b6881613f4d565b600060208284031215612da0578081fd5b8135611b6881613f5b565b600060208284031215612dbc578081fd5b8151611b6881613f5b565b60008060808385031215612dd9578182fd5b823567ffffffffffffffff80821115612df0578384fd5b81850160c08188031215612e02578485fd5b612e0c60c0613ee5565b9250803582811115612e1c578586fd5b612e2888828401612b3a565b845250602081013582811115612e3c578586fd5b612e4888828401612b3a565b6020850152506040810135604084015260608101356060840152612e6f8760808301612b2f565b608084015260a081013582811115612e85578586fd5b612e9188828401612aaf565b60a085015250505080925050612c618460208501612ba3565b600060208284031215612ebb578081fd5b5035919050565b60008060408385031215612ed4578182fd5b82359150612c618460208501612a98565b600080600060408486031215612ef9578081fd5b83359250602084013567ffffffffffffffff80821115612f17578283fd5b81860187601f820112612f28578384fd5b8035925081831115612f38578384fd5b8760208085028301011115612f4b578384fd5b949760209095019650909450505050565b600080600060408486031215612f70578081fd5b83359250602084013567ffffffffffffffff80821115612f8e578283fd5b81860187601f820112612f9f578384fd5b8035925081831115612faf578384fd5b876020848301011115612f4b578384fd5b6000808284036060811215612fd3578283fd5b833592506040601f1982011215612fe8578182fd5b50612ff36040613ee5565b602084013581526130078560408601612a98565b6020820152809150509250929050565b60008082840360c081121561302a578283fd5b8335925060a0601f198201121561303f578182fd5b5061304a60a0613ee5565b60208401358152604084013561305f81613f38565b6020820152606084013561307281613f38565b6040820152608084013561308581613f38565b60608201526130978560a08601612bf6565b6080820152809150509250929050565b600080604083850312156130b9578182fd5b50508035926020909101359150565b600081518084526130e0816020860160208601613f0c565b601f01601f19169290920160200192915050565b8051825260208101516001600160a01b038082166020850152806040840151166040850152806060840151166060850152505060808101515160808301525050565b60008251613148818460208701613f0c565b9190910192915050565b6001600160a01b0391909116815260200190565b60006001600160a01b0380871683528086166020840152508360408301526080606083015261319860808301846130c8565b9695505050505050565b60006001600160a01b0385168252604060208301528260408301527f07ffffffffffffffffffffffffffffffffffffffffffffffffffffffffffffff8311156131e9578081fd5b6020830280856060850137919091016060019081529392505050565b60006001600160a01b03851682526040602083015282604083015282846060840137818301606090810191909152601f909201601f1916010192915050565b901515815260200190565b90815260200190565b600060208252610aff60208301846130c8565b60208082526022908201527f456e756d657261626c655365743a20696e646578206f7574206f6620626f756e604082015261647360f01b606082015260800190565b60208082526024908201527f53706163653a206f776e6572206973206e6f742063726561746f72206f66207360408201527f7061636500000000000000000000000000000000000000000000000000000000606082015260800190565b60208082526032908201527f4552433732313a207472616e7366657220746f206e6f6e20455243373231526560408201527f63656976657220696d706c656d656e7465720000000000000000000000000000606082015260800190565b60208082526028908201527f53706163653a20746f6b656e2077697468207468617420696420646f6573206e60408201527f6f74206578697374000000000000000000000000000000000000000000000000606082015260800190565b6020808252601c908201527f4552433732313a20746f6b656e20616c7265616479206d696e74656400000000604082015260600190565b60208082526022908201527f53706163653a207075626c6963207370616365206d7573742068617665206c6160408201527f6e64000000000000000000000000000000000000000000000000000000000000606082015260800190565b60208082526027908201527f53706163653a20636f6e747261637420697320616c726561647920696e69746960408201527f616c697a65642100000000000000000000000000000000000000000000000000606082015260800190565b6020808252602e908201527f53706163653a206f776e6572206f66207370616365206973206e6f742074686560408201527f206f776e6572206f66206c616e64000000000000000000000000000000000000606082015260800190565b60208082526018908201527f53706163653a206e6f6e6578697374656e7420746f6b656e0000000000000000604082015260600190565b60208082526023908201527f53706163653a207370616365206163636573732063616e6e6f7420626520656d60408201527f7074790000000000000000000000000000000000000000000000000000000000606082015260800190565b60208082526024908201527f4552433732313a207472616e7366657220746f20746865207a65726f2061646460408201527f7265737300000000000000000000000000000000000000000000000000000000606082015260800190565b60208082526022908201527f53706163653a2063616c6c6572206e6f7420617070726f76656420616464726560408201527f7373000000000000000000000000000000000000000000000000000000000000606082015260800190565b60208082526019908201527f4552433732313a20617070726f766520746f2063616c6c657200000000000000604082015260600190565b60208082526026908201527f416464726573733a20696e73756666696369656e742062616c616e636520666f60408201527f722063616c6c0000000000000000000000000000000000000000000000000000606082015260800190565b6020808252602c908201527f4552433732313a206f70657261746f7220717565727920666f72206e6f6e657860408201526b34b9ba32b73a103a37b5b2b760a11b606082015260800190565b60208082526038908201527f4552433732313a20617070726f76652063616c6c6572206973206e6f74206f7760408201527f6e6572206e6f7220617070726f76656420666f7220616c6c0000000000000000606082015260800190565b6020808252602a908201527f4552433732313a2062616c616e636520717565727920666f7220746865207a6560408201527f726f206164647265737300000000000000000000000000000000000000000000606082015260800190565b60208082526032908201527f53706163653a20746f6b656e20646f6573206e6f74206861766520686173682060408201527f6f66206372656174656420636f6e74656e740000000000000000000000000000606082015260800190565b60208082526022908201527f456e756d657261626c654d61703a20696e646578206f7574206f6620626f756e604082015261647360f01b606082015260800190565b6020808252818101527f4552433732313a206d696e7420746f20746865207a65726f2061646472657373604082015260600190565b60208082526025908201527f53706163653a206d657461646174612068617368206d757374206265206e6f6e60408201527f2d7a65726f000000000000000000000000000000000000000000000000000000606082015260800190565b6020808252602c908201527f4552433732313a20617070726f76656420717565727920666f72206e6f6e657860408201526b34b9ba32b73a103a37b5b2b760a11b606082015260800190565b6020808252602c908201527f4552433732314d657461646174613a2055524920736574206f66206e6f6e657860408201526b34b9ba32b73a103a37b5b2b760a11b606082015260800190565b60208082526022908201527f53706163653a206f6e6c7920737061636545786368616e676520636f6e74726160408201527f6374000000000000000000000000000000000000000000000000000000000000606082015260800190565b60208082526029908201527f4552433732313a207472616e73666572206f6620746f6b656e2074686174206960408201527f73206e6f74206f776e0000000000000000000000000000000000000000000000606082015260800190565b6020808252602f908201527f53706163653a20746f6b656e20646f6573206e6f74206861766520686173682060408201527f6f6620697473206d657461646174610000000000000000000000000000000000606082015260800190565b60208082526026908201527f53706163653a2073706563696669656420757269206d757374206265206e6f6e60408201527f2d656d7074790000000000000000000000000000000000000000000000000000606082015260800190565b6020808252603e908201527f53706163653a206120746f6b656e2068617320616c7265616479206265656e2060408201527f637265617465642077697468207468697320636f6e74656e7420686173680000606082015260800190565b60208082526021908201527f4552433732313a20617070726f76616c20746f2063757272656e74206f776e6560408201527f7200000000000000000000000000000000000000000000000000000000000000606082015260800190565b6020808252602e908201527f4c616e643a2073656e64657220646f65736e2774206f776e206c616e64206f7260408201527f206c616e64206f63637570696564000000000000000000000000000000000000606082015260800190565b60208082526031908201527f4552433732313a207472616e736665722063616c6c6572206973206e6f74206f60408201527f776e6572206e6f7220617070726f766564000000000000000000000000000000606082015260800190565b6020808252601d908201527f416464726573733a2063616c6c20746f206e6f6e2d636f6e7472616374000000604082015260600190565b6020808252601d908201527f53706163653a204f6e6c7920617070726f766564206f72206f776e6572000000604082015260600190565b60208082526028908201527f537061636545786368616e67653a20426964646572206d757374206265206d7360408201527f672073656e646572000000000000000000000000000000000000000000000000606082015260800190565b60208082526024908201527f53706163653a20636f6e74656e742068617368206d757374206265206e6f6e2d60408201527f7a65726f00000000000000000000000000000000000000000000000000000000606082015260800190565b6020808252601f908201527f5265656e7472616e637947756172643a207265656e7472616e742063616c6c00604082015260600190565b60208082526016908201527f53706163653a20737570706c79206465706c6574656400000000000000000000604082015260600190565b9182526001600160a01b0316602082015260400190565b918252805160208084019190915201516001600160a01b0316604082015260600190565b91825280515160208084019190915281015151604080840191909152015151606082015260800190565b82815260c08101611b6860208301846130f4565b83815260e08101613ece60208301856130f4565b6001600160a01b03831660c0830152949350505050565b60405181810167ffffffffffffffff81118282101715613f0457600080fd5b604052919050565b60005b83811015613f27578181015183820152602001613f0f565b838111156114305750506000910152565b6001600160a01b0381168114612a7b57600080fd5b8015158114612a7b57600080fd5b7fffffffff0000000000000000000000000000000000000000000000000000000081168114612a7b57600080fdfe4552433732313a207472616e7366657220746f206e6f6e20455243373231526563656976657220696d706c656d656e7465724552433732313a206f776e657220717565727920666f72206e6f6e6578697374656e7420746f6b656ea26469706673582212206b3140bbf222b78bccccd0abfe3c7f9bfe7510c728170d05c38cf13f748a435864736f6c63430006080033",
  "linkReferences": {},
  "deployedLinkReferences": {}
}