{
  "_format": "hh-sol-artifact-1",
  "contractName": "Space",
  "sourceName": "contracts/Space.sol",
  "abi": [
    {
      "inputs": [
        {
          "internalType": "address",
          "name": "spaceExchangeContractAddr",
          "type": "address"
        }
      ],
      "stateMutability": "nonpayable",
      "type": "constructor"
    },
    {
      "anonymous": false,
      "inputs": [
        {
          "indexed": true,
          "internalType": "address",
          "name": "owner",
          "type": "address"
        },
        {
          "indexed": true,
          "internalType": "address",
          "name": "approved",
          "type": "address"
        },
        {
          "indexed": true,
          "internalType": "uint256",
          "name": "tokenId",
          "type": "uint256"
        }
      ],
      "name": "Approval",
      "type": "event"
    },
    {
      "anonymous": false,
      "inputs": [
        {
          "indexed": true,
          "internalType": "address",
          "name": "owner",
          "type": "address"
        },
        {
          "indexed": true,
          "internalType": "address",
          "name": "operator",
          "type": "address"
        },
        {
          "indexed": false,
          "internalType": "bool",
          "name": "approved",
          "type": "bool"
        }
      ],
      "name": "ApprovalForAll",
      "type": "event"
    },
    {
      "anonymous": false,
      "inputs": [
        {
          "indexed": true,
          "internalType": "uint256",
          "name": "_tokenId",
          "type": "uint256"
        },
        {
          "indexed": false,
          "internalType": "address",
          "name": "owner",
          "type": "address"
        },
        {
          "indexed": false,
          "internalType": "uint256[]",
          "name": "lands",
          "type": "uint256[]"
        }
      ],
      "name": "TokenLandsUpdated",
      "type": "event"
    },
    {
      "anonymous": false,
      "inputs": [
        {
          "indexed": true,
          "internalType": "uint256",
          "name": "_tokenId",
          "type": "uint256"
        },
        {
          "indexed": false,
          "internalType": "address",
          "name": "owner",
          "type": "address"
        },
        {
          "indexed": false,
          "internalType": "string",
          "name": "_uri",
          "type": "string"
        }
      ],
      "name": "TokenMetadataURIUpdated",
      "type": "event"
    },
    {
      "anonymous": false,
      "inputs": [
        {
          "indexed": true,
          "internalType": "uint256",
          "name": "_tokenId",
          "type": "uint256"
        },
        {
          "indexed": false,
          "internalType": "address",
          "name": "owner",
          "type": "address"
        },
        {
          "indexed": false,
          "internalType": "string",
          "name": "_uri",
          "type": "string"
        }
      ],
      "name": "TokenURIUpdated",
      "type": "event"
    },
    {
      "anonymous": false,
      "inputs": [
        {
          "indexed": true,
          "internalType": "address",
          "name": "from",
          "type": "address"
        },
        {
          "indexed": true,
          "internalType": "address",
          "name": "to",
          "type": "address"
        },
        {
          "indexed": true,
          "internalType": "uint256",
          "name": "tokenId",
          "type": "uint256"
        }
      ],
      "name": "Transfer",
      "type": "event"
    },
    {
      "inputs": [
        {
          "internalType": "uint256",
          "name": "tokenId",
          "type": "uint256"
        },
        {
          "components": [
            {
              "internalType": "uint256",
              "name": "amount",
              "type": "uint256"
            },
            {
              "internalType": "address",
              "name": "currency",
              "type": "address"
            },
            {
              "internalType": "address",
              "name": "bidder",
              "type": "address"
            },
            {
              "internalType": "address",
              "name": "recipient",
              "type": "address"
            },
            {
              "components": [
                {
                  "internalType": "uint256",
                  "name": "value",
                  "type": "uint256"
                }
              ],
              "internalType": "struct Decimal.D256",
              "name": "sellOnShare",
              "type": "tuple"
            }
          ],
          "internalType": "struct ISpaceExchange.Bid",
          "name": "bid",
          "type": "tuple"
        }
      ],
      "name": "acceptBid",
      "outputs": [],
      "stateMutability": "nonpayable",
      "type": "function"
    },
    {
      "inputs": [
        {
          "internalType": "address",
          "name": "to",
          "type": "address"
        },
        {
          "internalType": "uint256",
          "name": "tokenId",
          "type": "uint256"
        }
      ],
      "name": "approve",
      "outputs": [],
      "stateMutability": "nonpayable",
      "type": "function"
    },
    {
      "inputs": [
        {
          "internalType": "address",
          "name": "owner",
          "type": "address"
        }
      ],
      "name": "balanceOf",
      "outputs": [
        {
          "internalType": "uint256",
          "name": "",
          "type": "uint256"
        }
      ],
      "stateMutability": "view",
      "type": "function"
    },
    {
      "inputs": [],
      "name": "baseURI",
      "outputs": [
        {
          "internalType": "string",
          "name": "",
          "type": "string"
        }
      ],
      "stateMutability": "view",
      "type": "function"
    },
    {
      "inputs": [
        {
          "internalType": "uint256",
          "name": "tokenId",
          "type": "uint256"
        }
      ],
      "name": "burn",
      "outputs": [],
      "stateMutability": "nonpayable",
      "type": "function"
    },
    {
      "inputs": [
        {
          "internalType": "uint256",
          "name": "tokenId",
          "type": "uint256"
        },
        {
          "internalType": "address",
          "name": "sender",
          "type": "address"
        }
      ],
      "name": "checkLandAttach",
      "outputs": [
        {
          "internalType": "bool",
          "name": "",
          "type": "bool"
        }
      ],
      "stateMutability": "view",
      "type": "function"
    },
    {
      "inputs": [
        {
          "internalType": "uint256",
          "name": "tokenId",
          "type": "uint256"
        }
      ],
      "name": "getApproved",
      "outputs": [
        {
          "internalType": "address",
          "name": "",
          "type": "address"
        }
      ],
      "stateMutability": "view",
      "type": "function"
    },
    {
      "inputs": [
        {
          "internalType": "address",
          "name": "_landContract",
          "type": "address"
        }
      ],
      "name": "initialize",
      "outputs": [],
      "stateMutability": "nonpayable",
      "type": "function"
    },
    {
      "inputs": [
        {
          "internalType": "address",
          "name": "owner",
          "type": "address"
        },
        {
          "internalType": "address",
          "name": "operator",
          "type": "address"
        }
      ],
      "name": "isApprovedForAll",
      "outputs": [
        {
          "internalType": "bool",
          "name": "",
          "type": "bool"
        }
      ],
      "stateMutability": "view",
      "type": "function"
    },
    {
      "inputs": [],
      "name": "landContract",
      "outputs": [
        {
          "internalType": "address",
          "name": "",
          "type": "address"
        }
      ],
      "stateMutability": "view",
      "type": "function"
    },
    {
      "inputs": [
        {
          "internalType": "uint256",
          "name": "tokenId",
          "type": "uint256"
        },
        {
          "internalType": "address",
          "name": "recipient",
          "type": "address"
        }
      ],
      "name": "listTransfer",
      "outputs": [],
      "stateMutability": "nonpayable",
      "type": "function"
    },
    {
      "inputs": [],
      "name": "maxSupply",
      "outputs": [
        {
          "internalType": "uint256",
          "name": "",
          "type": "uint256"
        }
      ],
      "stateMutability": "view",
      "type": "function"
    },
    {
      "inputs": [
        {
          "components": [
            {
              "internalType": "string",
              "name": "tokenURI",
              "type": "string"
            },
            {
              "internalType": "string",
              "name": "metadataURI",
              "type": "string"
            },
            {
              "internalType": "bytes32",
              "name": "contentHash",
              "type": "bytes32"
            },
            {
              "internalType": "bytes32",
              "name": "metadataHash",
              "type": "bytes32"
            },
            {
              "internalType": "uint256[]",
              "name": "lands",
              "type": "uint256[]"
            },
            {
              "internalType": "string",
              "name": "pin",
              "type": "string"
            }
          ],
          "internalType": "struct ISpace.SpaceData",
          "name": "data",
          "type": "tuple"
        },
        {
          "components": [
            {
              "components": [
                {
                  "internalType": "uint256",
                  "name": "value",
                  "type": "uint256"
                }
              ],
              "internalType": "struct Decimal.D256",
              "name": "prevOwner",
              "type": "tuple"
            },
            {
              "components": [
                {
                  "internalType": "uint256",
                  "name": "value",
                  "type": "uint256"
                }
              ],
              "internalType": "struct Decimal.D256",
              "name": "creator",
              "type": "tuple"
            },
            {
              "components": [
                {
                  "internalType": "uint256",
                  "name": "value",
                  "type": "uint256"
                }
              ],
              "internalType": "struct Decimal.D256",
              "name": "owner",
              "type": "tuple"
            }
          ],
          "internalType": "struct ISpaceExchange.BidShares",
          "name": "bidShares",
          "type": "tuple"
        }
      ],
      "name": "mint",
      "outputs": [],
      "stateMutability": "nonpayable",
      "type": "function"
    },
    {
      "inputs": [],
      "name": "name",
      "outputs": [
        {
          "internalType": "string",
          "name": "",
          "type": "string"
        }
      ],
      "stateMutability": "view",
      "type": "function"
    },
    {
      "inputs": [
        {
          "internalType": "uint256",
          "name": "tokenId",
          "type": "uint256"
        }
      ],
      "name": "ownerOf",
      "outputs": [
        {
          "internalType": "address",
          "name": "",
          "type": "address"
        }
      ],
      "stateMutability": "view",
      "type": "function"
    },
    {
      "inputs": [
        {
          "internalType": "uint256",
          "name": "",
          "type": "uint256"
        }
      ],
      "name": "previousTokenOwners",
      "outputs": [
        {
          "internalType": "address",
          "name": "",
          "type": "address"
        }
      ],
      "stateMutability": "view",
      "type": "function"
    },
    {
      "inputs": [
        {
          "internalType": "uint256",
          "name": "tokenId",
          "type": "uint256"
        }
      ],
      "name": "removeAsk",
      "outputs": [],
      "stateMutability": "nonpayable",
      "type": "function"
    },
    {
      "inputs": [
        {
          "internalType": "uint256",
          "name": "tokenId",
          "type": "uint256"
        }
      ],
      "name": "removeBid",
      "outputs": [],
      "stateMutability": "nonpayable",
      "type": "function"
    },
    {
      "inputs": [
        {
          "internalType": "uint256",
          "name": "tokenId",
          "type": "uint256"
        }
      ],
      "name": "revokeApproval",
      "outputs": [],
      "stateMutability": "nonpayable",
      "type": "function"
    },
    {
      "inputs": [
        {
          "internalType": "address",
          "name": "from",
          "type": "address"
        },
        {
          "internalType": "address",
          "name": "to",
          "type": "address"
        },
        {
          "internalType": "uint256",
          "name": "tokenId",
          "type": "uint256"
        }
      ],
      "name": "safeTransferFrom",
      "outputs": [],
      "stateMutability": "nonpayable",
      "type": "function"
    },
    {
      "inputs": [
        {
          "internalType": "address",
          "name": "from",
          "type": "address"
        },
        {
          "internalType": "address",
          "name": "to",
          "type": "address"
        },
        {
          "internalType": "uint256",
          "name": "tokenId",
          "type": "uint256"
        },
        {
          "internalType": "bytes",
          "name": "_data",
          "type": "bytes"
        }
      ],
      "name": "safeTransferFrom",
      "outputs": [],
      "stateMutability": "nonpayable",
      "type": "function"
    },
    {
      "inputs": [
        {
          "internalType": "address",
          "name": "operator",
          "type": "address"
        },
        {
          "internalType": "bool",
          "name": "approved",
          "type": "bool"
        }
      ],
      "name": "setApprovalForAll",
      "outputs": [],
      "stateMutability": "nonpayable",
      "type": "function"
    },
    {
      "inputs": [
        {
          "internalType": "uint256",
          "name": "tokenId",
          "type": "uint256"
        },
        {
          "components": [
            {
              "internalType": "uint256",
              "name": "amount",
              "type": "uint256"
            },
            {
              "internalType": "address",
              "name": "currency",
              "type": "address"
            }
          ],
          "internalType": "struct ISpaceExchange.Ask",
          "name": "ask",
          "type": "tuple"
        }
      ],
      "name": "setAsk",
      "outputs": [],
      "stateMutability": "nonpayable",
      "type": "function"
    },
    {
      "inputs": [
        {
          "internalType": "uint256",
          "name": "tokenId",
          "type": "uint256"
        },
        {
          "components": [
            {
              "internalType": "uint256",
              "name": "amount",
              "type": "uint256"
            },
            {
              "internalType": "address",
              "name": "currency",
              "type": "address"
            },
            {
              "internalType": "address",
              "name": "bidder",
              "type": "address"
            },
            {
              "internalType": "address",
              "name": "recipient",
              "type": "address"
            },
            {
              "components": [
                {
                  "internalType": "uint256",
                  "name": "value",
                  "type": "uint256"
                }
              ],
              "internalType": "struct Decimal.D256",
              "name": "sellOnShare",
              "type": "tuple"
            }
          ],
          "internalType": "struct ISpaceExchange.Bid",
          "name": "bid",
          "type": "tuple"
        }
      ],
      "name": "setBid",
      "outputs": [],
      "stateMutability": "nonpayable",
      "type": "function"
    },
    {
      "inputs": [],
      "name": "spaceExchangeContract",
      "outputs": [
        {
          "internalType": "address",
          "name": "",
          "type": "address"
        }
      ],
      "stateMutability": "view",
      "type": "function"
    },
    {
      "inputs": [
        {
          "internalType": "bytes4",
          "name": "interfaceId",
          "type": "bytes4"
        }
      ],
      "name": "supportsInterface",
      "outputs": [
        {
          "internalType": "bool",
          "name": "",
          "type": "bool"
        }
      ],
      "stateMutability": "view",
      "type": "function"
    },
    {
      "inputs": [],
      "name": "symbol",
      "outputs": [
        {
          "internalType": "string",
          "name": "",
          "type": "string"
        }
      ],
      "stateMutability": "view",
      "type": "function"
    },
    {
      "inputs": [
        {
          "internalType": "uint256",
          "name": "index",
          "type": "uint256"
        }
      ],
      "name": "tokenByIndex",
      "outputs": [
        {
          "internalType": "uint256",
          "name": "",
          "type": "uint256"
        }
      ],
      "stateMutability": "view",
      "type": "function"
    },
    {
      "inputs": [
        {
          "internalType": "uint256",
          "name": "",
          "type": "uint256"
        }
      ],
      "name": "tokenContentHashes",
      "outputs": [
        {
          "internalType": "bytes32",
          "name": "",
          "type": "bytes32"
        }
      ],
      "stateMutability": "view",
      "type": "function"
    },
    {
      "inputs": [
        {
          "internalType": "uint256",
          "name": "",
          "type": "uint256"
        }
      ],
      "name": "tokenCreators",
      "outputs": [
        {
          "internalType": "address",
          "name": "",
          "type": "address"
        }
      ],
      "stateMutability": "view",
      "type": "function"
    },
    {
      "inputs": [
        {
          "internalType": "uint256",
          "name": "tokenId",
          "type": "uint256"
        }
      ],
      "name": "tokenLandDetails",
      "outputs": [
        {
          "internalType": "uint256[]",
          "name": "",
          "type": "uint256[]"
        }
      ],
      "stateMutability": "view",
      "type": "function"
    },
    {
      "inputs": [
        {
          "internalType": "uint256",
          "name": "",
          "type": "uint256"
        },
        {
          "internalType": "uint256",
          "name": "",
          "type": "uint256"
        }
      ],
      "name": "tokenLands",
      "outputs": [
        {
          "internalType": "uint256",
          "name": "",
          "type": "uint256"
        }
      ],
      "stateMutability": "view",
      "type": "function"
    },
    {
      "inputs": [
        {
          "internalType": "uint256",
          "name": "",
          "type": "uint256"
        }
      ],
      "name": "tokenMetadataHashes",
      "outputs": [
        {
          "internalType": "bytes32",
          "name": "",
          "type": "bytes32"
        }
      ],
      "stateMutability": "view",
      "type": "function"
    },
    {
      "inputs": [
        {
          "internalType": "uint256",
          "name": "tokenId",
          "type": "uint256"
        }
      ],
      "name": "tokenMetadataURI",
      "outputs": [
        {
          "internalType": "string",
          "name": "",
          "type": "string"
        }
      ],
      "stateMutability": "view",
      "type": "function"
    },
    {
      "inputs": [
        {
          "internalType": "address",
          "name": "owner",
          "type": "address"
        },
        {
          "internalType": "uint256",
          "name": "index",
          "type": "uint256"
        }
      ],
      "name": "tokenOfOwnerByIndex",
      "outputs": [
        {
          "internalType": "uint256",
          "name": "",
          "type": "uint256"
        }
      ],
      "stateMutability": "view",
      "type": "function"
    },
    {
      "inputs": [
        {
          "internalType": "uint256",
          "name": "tokenId",
          "type": "uint256"
        }
      ],
      "name": "tokenPin",
      "outputs": [
        {
          "internalType": "string",
          "name": "",
          "type": "string"
        }
      ],
      "stateMutability": "view",
      "type": "function"
    },
    {
      "inputs": [
        {
          "internalType": "uint256",
          "name": "",
          "type": "uint256"
        }
      ],
      "name": "tokenPinRecord",
      "outputs": [
        {
          "internalType": "string",
          "name": "",
          "type": "string"
        }
      ],
      "stateMutability": "view",
      "type": "function"
    },
    {
      "inputs": [
        {
          "internalType": "uint256",
          "name": "tokenId",
          "type": "uint256"
        }
      ],
      "name": "tokenURI",
      "outputs": [
        {
          "internalType": "string",
          "name": "",
          "type": "string"
        }
      ],
      "stateMutability": "view",
      "type": "function"
    },
    {
      "inputs": [],
      "name": "totalSupply",
      "outputs": [
        {
          "internalType": "uint256",
          "name": "",
          "type": "uint256"
        }
      ],
      "stateMutability": "view",
      "type": "function"
    },
    {
      "inputs": [
        {
          "internalType": "address",
          "name": "from",
          "type": "address"
        },
        {
          "internalType": "address",
          "name": "to",
          "type": "address"
        },
        {
          "internalType": "uint256",
          "name": "tokenId",
          "type": "uint256"
        }
      ],
      "name": "transferFrom",
      "outputs": [],
      "stateMutability": "nonpayable",
      "type": "function"
    },
    {
      "inputs": [
        {
          "internalType": "uint256",
          "name": "tokenId",
          "type": "uint256"
        },
        {
          "internalType": "uint256[]",
          "name": "lands",
          "type": "uint256[]"
        }
      ],
      "name": "updateTokenLands",
      "outputs": [],
      "stateMutability": "nonpayable",
      "type": "function"
    },
    {
      "inputs": [
        {
          "internalType": "uint256",
          "name": "tokenId",
          "type": "uint256"
        },
        {
          "internalType": "string",
          "name": "metadataURI",
          "type": "string"
        }
      ],
      "name": "updateTokenMetadataURI",
      "outputs": [],
      "stateMutability": "nonpayable",
      "type": "function"
    },
    {
      "inputs": [
        {
          "internalType": "uint256",
          "name": "tokenId",
          "type": "uint256"
        },
        {
          "internalType": "string",
          "name": "tokenURI",
          "type": "string"
        }
      ],
      "name": "updateTokenURI",
      "outputs": [],
      "stateMutability": "nonpayable",
      "type": "function"
    }
  ],
  "bytecode": "0x6080604052600c805460ff60a01b19169055620186a0600d553480156200002557600080fd5b50604051620044223803806200442283398101604081905262000048916200023f565b604080518082018252600b81526a4d6f74696620537061636560a81b60208083019190915282518084019093526005835264535041434560d81b9083015290620000a26301ffc9a760e01b6001600160e01b036200013f16565b8151620000b79060069060208501906200019a565b508051620000cd9060079060208401906200019a565b50620000e96380ac58cd60e01b6001600160e01b036200013f16565b6200010463780e9d6360e01b6001600160e01b036200013f16565b50506001600a55600b80546001600160a01b0319166001600160a01b0383161790556200013863a990b5e560e01b6200013f565b50620002a6565b6001600160e01b03198082161415620001755760405162461bcd60e51b81526004016200016c906200026f565b60405180910390fd5b6001600160e01b0319166000908152602081905260409020805460ff19166001179055565b828054600181600116156101000203166002900490600052602060002090601f016020900481019282601f10620001dd57805160ff19168380011785556200020d565b828001600101855582156200020d579182015b828111156200020d578251825591602001919060010190620001f0565b506200021b9291506200021f565b5090565b6200023c91905b808211156200021b576000815560010162000226565b90565b60006020828403121562000251578081fd5b81516001600160a01b038116811462000268578182fd5b9392505050565b6020808252601c908201527f4552433136353a20696e76616c696420696e7465726661636520696400000000604082015260600190565b61416c80620002b66000396000f3fe608060405234801561001057600080fd5b50600436106102e95760003560e01c806362f24b7011610191578063b1e130fc116100e3578063c87b56dd11610097578063e985e9c511610071578063e985e9c5146105e5578063f93b85d7146105f8578063fad321971461060b576102e9565b8063c87b56dd146105b7578063d5abeb01146105ca578063e0fd045f146105d2576102e9565b8063b88d4fde116100c8578063b88d4fde1461057e578063ba33939914610591578063c4d66de8146105a4576102e9565b8063b1e130fc14610558578063b320f4591461056b576102e9565b806372d273981161014557806395d89b411161011f57806395d89b411461052a5780639d8e726014610532578063a22cb46514610545576102e9565b806372d27398146104fc57806375682e791461050457806381de64e714610517576102e9565b80636c0360eb116101765780636c0360eb146104ce5780636eac9ab5146104d657806370a08231146104e9576102e9565b806362f24b70146104a85780636352211e146104bb576102e9565b806323b872dd1161024a5780633e528cae116101fe578063496689ae116101d8578063496689ae146104625780634f6ccce7146104825780635bf6242214610495576102e9565b80633e528cae1461042957806342842e0e1461043c57806342966c681461044f576102e9565b80632f745c591161022f5780632f745c59146103f057806332f44aa9146104035780633d1dc5c414610416576102e9565b806323b872dd146103ca57806328220f35146103dd576102e9565b8063095ea7b3116102a1578063157c3df911610286578063157c3df91461039c57806318160ddd146103af57806318e97fd1146103b7576102e9565b8063095ea7b3146103745780630a2468e814610389576102e9565b806303d07340116102d257806303d073401461033757806306fdde031461034c578063081812fc14610361576102e9565b806301ddc3b5146102ee57806301ffc9a714610317575b600080fd5b6103016102fc36600461303b565b61061e565b60405161030e9190613424565b60405180910390f35b61032a610325366004612f0f565b610630565b60405161030e9190613419565b61033f610667565b60405161030e91906132e3565b610354610676565b60405161030e919061342d565b61033f61036f36600461303b565b61070d565b610387610382366004612ec9565b610759565b005b610387610397366004612f47565b6107f1565b6103546103aa36600461303b565b61082d565b6103016108f8565b6103876103c53660046130ed565b610909565b6103876103d8366004612dea565b610a68565b6103876103eb36600461303b565b610aa0565b6103016103fe366004612ec9565b610b5c565b610387610411366004613053565b610b8d565b610301610424366004613238565b610c13565b61035461043736600461303b565b610c41565b61038761044a366004612dea565b610cdc565b61038761045d36600461303b565b610cf7565b61047561047036600461303b565b610dc9565b60405161030e91906133d5565b61030161049036600461303b565b610e54565b6103876104a33660046131a8565b610e70565b6103876104b6366004613151565b610f40565b61033f6104c936600461303b565b611018565b610354611046565b6103546104e436600461303b565b6110a7565b6103016104f7366004612d9b565b611175565b61033f6111be565b6103876105123660046130ed565b6111cd565b61032a610525366004613053565b611316565b61035461138a565b61033f61054036600461303b565b6113eb565b610387610553366004612e92565b611406565b61038761056636600461303b565b6114d4565b61038761057936600461303b565b611548565b61038761058c366004612e2a565b61161f565b61038761059f3660046131a8565b61165e565b6103876105b2366004612d9b565b6116f9565b6103546105c536600461303b565b61176f565b610301611804565b61033f6105e036600461303b565b61180a565b61032a6105f3366004612db6565b611825565b610387610606366004613076565b611853565b61030161061936600461303b565b6119f6565b60126020526000908152604090205481565b7fffffffff000000000000000000000000000000000000000000000000000000001660009081526020819052604090205460ff1690565b600c546001600160a01b031681565b60068054604080516020601f60026000196101006001881615020190951694909404938401819004810282018101909252828152606093909290918301828280156107025780601f106106d757610100808354040283529160200191610702565b820191906000526020600020905b8154815290600101906020018083116106e557829003601f168201915b505050505090505b90565b600061071882611a08565b61073d5760405162461bcd60e51b815260040161073490613a46565b60405180910390fd5b506000908152600460205260409020546001600160a01b031690565b600061076482611018565b9050806001600160a01b0316836001600160a01b031614156107985760405162461bcd60e51b815260040161073490613caf565b806001600160a01b03166107aa611a1b565b6001600160a01b031614806107c657506107c6816105f3611a1b565b6107e25760405162461bcd60e51b81526004016107349061385b565b6107ec8383611a1f565b505050565b6002600a5414156108145760405162461bcd60e51b815260040161073490613eee565b6002600a55610824338383611a8d565b50506001600a55565b6060818061083b6017611df8565b116108585760405162461bcd60e51b81526004016107349061353c565b60008381526013602090815260409182902080548351601f6002600019610100600186161502019093169290920491820184900484028101840190945280845290918301828280156108eb5780601f106108c0576101008083540402835291602001916108eb565b820191906000526020600020905b8154815290600101906020018083116108ce57829003601f168201915b5050505050915050919050565b60006109046002611dfc565b905090565b6002600a54141561092c5760405162461bcd60e51b815260040161073490613eee565b6002600a55338361093d8282611e07565b6109595760405162461bcd60e51b815260040161073490613dfd565b60008581526011602052604090205485906109865760405162461bcd60e51b815260040161073490613915565b84848080601f016020809104026020016040519081016040528093929190818152602001838380828437600092019190915250508251151591506109de90505760405162461bcd60e51b815260040161073490613bf5565b610a1e8787878080601f016020809104026020016040519081016040528093929190818152602001838380828437600092019190915250611e8c92505050565b867f702fe2dc2dc0f68023540aa4a1e11811c0f29112f6ebf01e61b90538e4f29810338888604051610a5293929190613396565b60405180910390a250506001600a555050505050565b610a79610a73611a1b565b82611e07565b610a955760405162461bcd60e51b815260040161073490613d69565b6107ec838383611ed0565b6002600a541415610ac35760405162461bcd60e51b815260040161073490613eee565b6002600a553381610ad48282611e07565b610af05760405162461bcd60e51b815260040161073490613dfd565b600b546040516328220f3560e01b81526001600160a01b03909116906328220f3590610b20908690600401613424565b600060405180830381600087803b158015610b3a57600080fd5b505af1158015610b4e573d6000803e3d6000fd5b50506001600a555050505050565b6001600160a01b0382166000908152600160205260408120610b84908363ffffffff611f3d16565b90505b92915050565b600b546001600160a01b03163314610bb75760405162461bcd60e51b815260040161073490613ade565b610bc082611018565b6000838152600e6020526040902080546001600160a01b0319166001600160a01b0392909216919091179055610c0f610bf883611018565b828460405180602001604052806000815250611f49565b5050565b60166020528160005260406000208181548110610c2c57fe5b90600052602060002001600091509150505481565b60156020908152600091825260409182902080548351601f600260001961010060018616150201909316929092049182018490048402810184019094528084529091830182828015610cd45780601f10610ca957610100808354040283529160200191610cd4565b820191906000526020600020905b815481529060010190602001808311610cb757829003601f168201915b505050505081565b6107ec8383836040518060200160405280600081525061161f565b6002600a541415610d1a5760405162461bcd60e51b815260040161073490613eee565b6002600a5580610d2981611a08565b610d455760405162461bcd60e51b81526004016107349061368a565b3382610d518282611e07565b610d6d5760405162461bcd60e51b815260040161073490613dfd565b6000610d7885611018565b6000868152600f60205260409020549091506001600160a01b03808316911614610db45760405162461bcd60e51b815260040161073490613482565b610dbd85611f7c565b50506001600a55505050565b60608180610dd76017611df8565b11610df45760405162461bcd60e51b81526004016107349061353c565b600083815260166020908152604091829020805483518184028101840190945280845290918301828280156108eb57602002820191906000526020600020905b815481526020019060010190808311610e34575050505050915050919050565b600080610e6860028463ffffffff61206816565b509392505050565b6002600a541415610e935760405162461bcd60e51b815260040161073490613eee565b6002600a5581610ea281611a08565b610ebe5760405162461bcd60e51b81526004016107349061368a565b81604001516001600160a01b0316336001600160a01b031614610ef35760405162461bcd60e51b815260040161073490613e34565b600b546040517fbdb586980000000000000000000000000000000000000000000000000000000081526001600160a01b039091169063bdb5869890610b209086908690339060040161400c565b6002600a541415610f635760405162461bcd60e51b815260040161073490613eee565b6002600a553382610f748282611e07565b610f905760405162461bcd60e51b815260040161073490613dfd565b600b546040517f62f24b700000000000000000000000000000000000000000000000000000000081526001600160a01b03909116906362f24b7090610fdb9087908790600401613faa565b600060405180830381600087803b158015610ff557600080fd5b505af1158015611009573d6000803e3d6000fd5b50506001600a55505050505050565b6000610b878260405180606001604052806029815260200161410e602991396002919063ffffffff61208416565b60098054604080516020601f60026000196101006001881615020190951694909404938401819004810282018101909252828152606093909290918301828280156107025780601f106106d757610100808354040283529160200191610702565b606081806110b56017611df8565b116110d25760405162461bcd60e51b81526004016107349061353c565b60008381526015602090815260409182902080548351601f60026000196101006001861615020190931692909204918201849004840281018401909452808452606093928301828280156111675780601f1061113c57610100808354040283529160200191611167565b820191906000526020600020905b81548152906001019060200180831161114a57829003601f168201915b509398975050505050505050565b60006001600160a01b03821661119d5760405162461bcd60e51b8152600401610734906138b8565b6001600160a01b0382166000908152600160205260409020610b8790611dfc565b600b546001600160a01b031681565b6002600a5414156111f05760405162461bcd60e51b815260040161073490613eee565b6002600a5533836112018282611e07565b61121d5760405162461bcd60e51b815260040161073490613dfd565b600085815260126020526040902054859061124a5760405162461bcd60e51b815260040161073490613b98565b84848080601f016020809104026020016040519081016040528093929190818152602001838380828437600092019190915250508251151591506112a290505760405162461bcd60e51b815260040161073490613bf5565b6112e28787878080601f01602080910402602001604051908101604052809392919081815260200183838082843760009201919091525061209b92505050565b867fe3df41127db820c79e5b8d541a63e40e3e97b9af96f7a50bded13091b70df9ae338888604051610a5293929190613396565b600082806113246017611df8565b116113415760405162461bcd60e51b81526004016107349061353c565b600061134c85611018565b9050836001600160a01b0316816001600160a01b03161461137f5760405162461bcd60e51b81526004016107349061362d565b506001949350505050565b60078054604080516020601f60026000196101006001881615020190951694909404938401819004810282018101909252828152606093909290918301828280156107025780601f106106d757610100808354040283529160200191610702565b600e602052600090815260409020546001600160a01b031681565b61140e611a1b565b6001600160a01b0316826001600160a01b0316141561143f5760405162461bcd60e51b81526004016107349061377b565b806005600061144c611a1b565b6001600160a01b03908116825260208083019390935260409182016000908120918716808252919093529120805460ff191692151592909217909155611490611a1b565b6001600160a01b03167f17307eab39ab6107e8899845ad3d59bd9653f200f220920489ca2b5937696c31836040516114c89190613419565b60405180910390a35050565b6002600a5414156114f75760405162461bcd60e51b815260040161073490613eee565b6002600a556115058161070d565b6001600160a01b0316336001600160a01b0316146115355760405162461bcd60e51b81526004016107349061371e565b611540600082611a1f565b506001600a55565b6002600a54141561156b5760405162461bcd60e51b815260040161073490613eee565b6002600a55808061157c6017611df8565b116115995760405162461bcd60e51b81526004016107349061353c565b600b546040517f776a08350000000000000000000000000000000000000000000000000000000081526001600160a01b039091169063776a0835906115e49085903390600401613f93565b600060405180830381600087803b1580156115fe57600080fd5b505af1158015611612573d6000803e3d6000fd5b50506001600a5550505050565b61163061162a611a1b565b83611e07565b61164c5760405162461bcd60e51b815260040161073490613d69565b61165884848484611f49565b50505050565b6002600a5414156116815760405162461bcd60e51b815260040161073490613eee565b6002600a5533826116928282611e07565b6116ae5760405162461bcd60e51b815260040161073490613dfd565b600b546040517fba3393990000000000000000000000000000000000000000000000000000000081526001600160a01b039091169063ba33939990610fdb9087908790600401613ff8565b600c54600160a01b900460ff16156117235760405162461bcd60e51b8152600401610734906135d0565b600c8054600160a01b7fffffffffffffffffffffff00ffffffffffffffffffffffffffffffffffffffff909116176001600160a01b0319166001600160a01b0392909216919091179055565b6060818061177d6017611df8565b1161179a5760405162461bcd60e51b81526004016107349061353c565b60008381526008602090815260409182902080548351601f60026000196101006001861615020190931692909204918201849004840281018401909452808452606093928301828280156111675780601f1061113c57610100808354040283529160200191611167565b600d5481565b600f602052600090815260409020546001600160a01b031681565b6001600160a01b03918216600090815260056020908152604080832093909416825291909152205460ff1690565b6002600a5414156118765760405162461bcd60e51b815260040161073490613eee565b6002600a5533836118878282611e07565b6118a35760405162461bcd60e51b815260040161073490613dfd565b60005b8381101561197057600c546000906001600160a01b031663309cf8d28787858181106118ce57fe5b90506020020135336040518363ffffffff1660e01b81526004016118f3929190613f93565b60206040518083038186803b15801561190b57600080fd5b505afa15801561191f573d6000803e3d6000fd5b505050506040513d601f19601f820116820180604052508101906119439190612ef3565b90506001811515146119675760405162461bcd60e51b815260040161073490613d0c565b506001016118a6565b506119ae858585808060200260200160405190810160405280939291908181526020018383602002808284376000920191909152506120e092505050565b847f4be8131fcc22c12003ac879a07e7678724c47d36ce311c584ee27a57e867b7d43386866040516119e293929190613333565b60405180910390a250506001600a55505050565b60116020526000908152604090205481565b6000610b8760028363ffffffff61212516565b3390565b600081815260046020526040902080546001600160a01b0319166001600160a01b0384169081179091558190611a5482611018565b6001600160a01b03167f8c5be1e5ebec7d5bd14f71427d1e84f3dd0314c0f7b2291e5b200ac8c7c3b92560405160405180910390a45050565b81518051611aad5760405162461bcd60e51b815260040161073490613bf5565b60208301518051611ad05760405162461bcd60e51b815260040161073490613bf5565b600d54611adb6108f8565b10611af85760405162461bcd60e51b815260040161073490613f25565b6040840151611b195760405162461bcd60e51b815260040161073490613e91565b60408085015160009081526014602052205460ff1615611b4b5760405162461bcd60e51b815260040161073490613c52565b6060840151611b6c5760405162461bcd60e51b8152600401610734906139e9565b60a084015151611b8e5760405162461bcd60e51b815260040161073490613f5c565b6000611b9a6017611df8565b60808601515190915015611ca05760005b856080015151811015611c8257600c54608087015180516000926001600160a01b03169163309cf8d29185908110611bdf57fe5b6020026020010151336040518363ffffffff1660e01b8152600401611c05929190613f93565b60206040518083038186803b158015611c1d57600080fd5b505afa158015611c31573d6000803e3d6000fd5b505050506040513d601f19601f82011682018060405250810190611c559190612ef3565b9050600181151514611c795760405162461bcd60e51b815260040161073490613d0c565b50600101611bab565b50611c8d8682612131565b611c9b8186608001516120e0565b611caa565b611caa8682612131565b611cb4601761214b565b611cc2818660400151612154565b611cd081866060015161218d565b611cde81866020015161209b565b611cec818660000151611e8c565b611cfa818660a001516121c6565b6001600160a01b0386166000908152601060205260409020611d22908263ffffffff61220b16565b50604080860151600090815260146020908152828220805460ff19166001179055838252600f815282822080546001600160a01b03808c166001600160a01b03199283168117909355600e90935292849020805490931617909155600b5491517feb55683a00000000000000000000000000000000000000000000000000000000815291169063eb55683a90611dbe9084908890600401613fce565b600060405180830381600087803b158015611dd857600080fd5b505af1158015611dec573d6000803e3d6000fd5b50505050505050505050565b5490565b6000610b8782611df8565b6000611e1282611a08565b611e2e5760405162461bcd60e51b81526004016107349061380f565b6000611e3983611018565b9050806001600160a01b0316846001600160a01b03161480611e745750836001600160a01b0316611e698461070d565b6001600160a01b0316145b80611e845750611e848185611825565b949350505050565b611e9582611a08565b611eb15760405162461bcd60e51b815260040161073490613a92565b600082815260086020908152604090912082516107ec92840190612b0a565b600b546040516328220f3560e01b81526001600160a01b03909116906328220f3590611f00908490600401613424565b600060405180830381600087803b158015611f1a57600080fd5b505af1158015611f2e573d6000803e3d6000fd5b505050506107ec838383612217565b6000610b848383612337565b611f54848484611ed0565b611f608484848461237c565b6116585760405162461bcd60e51b8152600401610734906134df565b60008181526008602090815260409182902080548351601f60026000196101006001861615020190931692909204918201849004840281018401909452808452606093928301828280156120115780601f10611fe657610100808354040283529160200191612011565b820191906000526020600020905b815481529060010190602001808311611ff457829003601f168201915b50505050509050612021826124a3565b805115612049576000828152600860209081526040909120825161204792840190612b0a565b505b506000908152600e6020526040902080546001600160a01b0319169055565b6000808080612077868661257c565b9097909650945050505050565b60006120918484846125d8565b90505b9392505050565b816120a581611a08565b6120c15760405162461bcd60e51b81526004016107349061368a565b6000838152601360209081526040909120835161165892850190612b0a565b816120ea81611a08565b6121065760405162461bcd60e51b81526004016107349061368a565b6000838152601660209081526040909120835161165892850190612b88565b6000610b848383612637565b610c0f82826040518060200160405280600081525061264f565b80546001019055565b8161215e81611a08565b61217a5760405162461bcd60e51b81526004016107349061368a565b5060009182526011602052604090912055565b8161219781611a08565b6121b35760405162461bcd60e51b81526004016107349061368a565b5060009182526012602052604090912055565b816121d081611a08565b6121ec5760405162461bcd60e51b81526004016107349061368a565b6000838152601560209081526040909120835161165892850190612b0a565b6000610b848383612682565b826001600160a01b031661222a82611018565b6001600160a01b0316146122505760405162461bcd60e51b815260040161073490613b3b565b6001600160a01b0382166122765760405162461bcd60e51b8152600401610734906136c1565b6122818383836107ec565b61228c600082611a1f565b6001600160a01b03831660009081526001602052604090206122b4908263ffffffff6126cc16565b506001600160a01b03821660009081526001602052604090206122dd908263ffffffff61220b16565b506122f06002828463ffffffff6126d816565b5080826001600160a01b0316846001600160a01b03167fddf252ad1be2c89b69c2b068fc378daa952ba7f163c4a11628f55a4df523b3ef60405160405180910390a4505050565b8154600090821061235a5760405162461bcd60e51b815260040161073490613440565b82600001828154811061236957fe5b9060005260206000200154905092915050565b6000612390846001600160a01b03166126ee565b61239c57506001611e84565b6060612454630a85bd0160e11b6123b1611a1b565b8887876040516024016123c794939291906132f7565b604051602081830303815290604052907bffffffffffffffffffffffffffffffffffffffffffffffffffffffff19166020820180517bffffffffffffffffffffffffffffffffffffffffffffffffffffffff83818316178352505050506040518060600160405280603281526020016140dc603291396001600160a01b038816919063ffffffff6126f416565b905060008180602001905181019061246c9190612f2b565b7fffffffff0000000000000000000000000000000000000000000000000000000016630a85bd0160e11b1492505050949350505050565b60006124ae82611018565b90506124bc816000846107ec565b6124c7600083611a1f565b600082815260086020526040902054600260001961010060018416150201909116041561250557600082815260086020526040812061250591612bc2565b6001600160a01b038116600090815260016020526040902061252d908363ffffffff6126cc16565b5061253f60028363ffffffff61270316565b5060405182906000906001600160a01b038416907fddf252ad1be2c89b69c2b068fc378daa952ba7f163c4a11628f55a4df523b3ef908390a45050565b8154600090819083106125a15760405162461bcd60e51b815260040161073490613972565b60008460000184815481106125b257fe5b906000526020600020906002020190508060000154816001015492509250509250929050565b600082815260018401602052604081205482816126085760405162461bcd60e51b8152600401610734919061342d565b5084600001600182038154811061261b57fe5b9060005260206000209060020201600101549150509392505050565b60009081526001919091016020526040902054151590565b612659838361270f565b612666600084848461237c565b6107ec5760405162461bcd60e51b8152600401610734906134df565b600061268e8383612637565b6126c457508154600181810184556000848152602080822090930184905584548482528286019093526040902091909155610b87565b506000610b87565b6000610b8483836127df565b600061209184846001600160a01b0385166128a5565b3b151590565b6060612091848460008561293c565b6000610b8483836129fd565b6001600160a01b0382166127355760405162461bcd60e51b8152600401610734906139b4565b61273e81611a08565b1561275b5760405162461bcd60e51b815260040161073490613599565b612767600083836107ec565b6001600160a01b038216600090815260016020526040902061278f908263ffffffff61220b16565b506127a26002828463ffffffff6126d816565b5060405181906001600160a01b038416906000907fddf252ad1be2c89b69c2b068fc378daa952ba7f163c4a11628f55a4df523b3ef908290a45050565b6000818152600183016020526040812054801561289b578354600019808301919081019060009087908390811061281257fe5b906000526020600020015490508087600001848154811061282f57fe5b60009182526020808320909101929092558281526001898101909252604090209084019055865487908061285f57fe5b60019003818190600052602060002001600090559055866001016000878152602001908152602001600020600090556001945050505050610b87565b6000915050610b87565b60008281526001840160205260408120548061290a575050604080518082018252838152602080820184815286546001818101895560008981528481209551600290930290950191825591519082015586548684528188019092529290912055612094565b8285600001600183038154811061291d57fe5b9060005260206000209060020201600101819055506000915050612094565b60608247101561295e5760405162461bcd60e51b8152600401610734906137b2565b612967856126ee565b6129835760405162461bcd60e51b815260040161073490613dc6565b60006060866001600160a01b031685876040516129a091906132c7565b60006040518083038185875af1925050503d80600081146129dd576040519150601f19603f3d011682016040523d82523d6000602084013e6129e2565b606091505b50915091506129f2828286612ad1565b979650505050505050565b6000818152600183016020526040812054801561289b5783546000198083019190810190600090879083908110612a3057fe5b9060005260206000209060020201905080876000018481548110612a5057fe5b600091825260208083208454600290930201918255600193840154918401919091558354825289830190526040902090840190558654879080612a8f57fe5b6000828152602080822060026000199094019384020182815560019081018390559290935588815289820190925260408220919091559450610b879350505050565b60608315612ae0575081612094565b825115612af05782518084602001fd5b8160405162461bcd60e51b8152600401610734919061342d565b828054600181600116156101000203166002900490600052602060002090601f016020900481019282601f10612b4b57805160ff1916838001178555612b78565b82800160010185558215612b78579182015b82811115612b78578251825591602001919060010190612b5d565b50612b84929150612c09565b5090565b828054828255906000526020600020908101928215612b785791602002820182811115612b78578251825591602001919060010190612b5d565b50805460018160011615610100020316600290046000825580601f10612be85750612c06565b601f016020900490600052602060002090810190612c069190612c09565b50565b61070a91905b80821115612b845760008155600101612c0f565b80356001600160a01b0381168114610b8757600080fd5b600082601f830112612c4a578081fd5b813567ffffffffffffffff811115612c60578182fd5b6020808202612c70828201614037565b83815293508184018583018287018401881015612c8c57600080fd5b600092505b84831015612caf578035825260019290920191908301908301612c91565b505050505092915050565b600082601f830112612cca578081fd5b813567ffffffffffffffff811115612ce0578182fd5b612cf3601f8201601f1916602001614037565b9150808252836020828501011115612d0a57600080fd5b8060208401602084013760009082016020015292915050565b600060608284031215612d34578081fd5b612d3e6060614037565b9050612d4a8383612d76565b8152612d598360208401612d76565b6020820152612d6b8360408401612d76565b604082015292915050565b600060208284031215612d87578081fd5b612d916020614037565b9135825250919050565b600060208284031215612dac578081fd5b610b848383612c23565b60008060408385031215612dc8578081fd5b612dd28484612c23565b9150612de18460208501612c23565b90509250929050565b600080600060608486031215612dfe578081fd5b8335612e098161408a565b92506020840135612e198161408a565b929592945050506040919091013590565b60008060008060808587031215612e3f578081fd5b612e498686612c23565b9350612e588660208701612c23565b925060408501359150606085013567ffffffffffffffff811115612e7a578182fd5b612e8687828801612cba565b91505092959194509250565b60008060408385031215612ea4578182fd5b612eae8484612c23565b91506020830135612ebe8161409f565b809150509250929050565b60008060408385031215612edb578182fd5b612ee58484612c23565b946020939093013593505050565b600060208284031215612f04578081fd5b81516120948161409f565b600060208284031215612f20578081fd5b8135612094816140ad565b600060208284031215612f3c578081fd5b8151612094816140ad565b60008060808385031215612f59578182fd5b823567ffffffffffffffff80821115612f70578384fd5b81850160c08188031215612f82578485fd5b612f8c60c0614037565b9250803582811115612f9c578586fd5b612fa888828401612cba565b845250602081013582811115612fbc578586fd5b612fc888828401612cba565b6020850152506040810135604084015260608101356060840152608081013582811115612ff3578586fd5b612fff88828401612c3a565b60808501525060a081013582811115613016578586fd5b61302288828401612cba565b60a085015250505080925050612de18460208501612d23565b60006020828403121561304c578081fd5b5035919050565b60008060408385031215613065578182fd5b82359150612de18460208501612c23565b60008060006040848603121561308a578081fd5b83359250602084013567ffffffffffffffff808211156130a8578283fd5b81860187601f8201126130b9578384fd5b80359250818311156130c9578384fd5b87602080850283010111156130dc578384fd5b949760209095019650909450505050565b600080600060408486031215613101578081fd5b83359250602084013567ffffffffffffffff8082111561311f578283fd5b81860187601f820112613130578384fd5b8035925081831115613140578384fd5b8760208483010111156130dc578384fd5b6000808284036060811215613164578283fd5b833592506040601f1982011215613179578182fd5b506131846040614037565b602084013581526131988560408601612c23565b6020820152809150509250929050565b60008082840360c08112156131bb578283fd5b8335925060a0601f19820112156131d0578182fd5b506131db60a0614037565b6020840135815260408401356131f08161408a565b602082015260608401356132038161408a565b604082015260808401356132168161408a565b60608201526132288560a08601612d76565b6080820152809150509250929050565b6000806040838503121561324a578182fd5b50508035926020909101359150565b6000815180845261327181602086016020860161405e565b601f01601f19169290920160200192915050565b8051825260208101516001600160a01b038082166020850152806040840151166040850152806060840151166060850152505060808101515160808301525050565b600082516132d981846020870161405e565b9190910192915050565b6001600160a01b0391909116815260200190565b60006001600160a01b038087168352808616602084015250836040830152608060608301526133296080830184613259565b9695505050505050565b60006001600160a01b0385168252604060208301528260408301527f07ffffffffffffffffffffffffffffffffffffffffffffffffffffffffffffff83111561337a578081fd5b6020830280856060850137919091016060019081529392505050565b60006001600160a01b03851682526040602083015282604083015282846060840137818301606090810191909152601f909201601f1916010192915050565b6020808252825182820181905260009190848201906040850190845b8181101561340d578351835292840192918401916001016133f1565b50909695505050505050565b901515815260200190565b90815260200190565b600060208252610b846020830184613259565b60208082526022908201527f456e756d657261626c655365743a20696e646578206f7574206f6620626f756e604082015261647360f01b606082015260800190565b60208082526024908201527f53706163653a206f776e6572206973206e6f742063726561746f72206f66207360408201527f7061636500000000000000000000000000000000000000000000000000000000606082015260800190565b60208082526032908201527f4552433732313a207472616e7366657220746f206e6f6e20455243373231526560408201527f63656976657220696d706c656d656e7465720000000000000000000000000000606082015260800190565b60208082526028908201527f53706163653a20746f6b656e2077697468207468617420696420646f6573206e60408201527f6f74206578697374000000000000000000000000000000000000000000000000606082015260800190565b6020808252601c908201527f4552433732313a20746f6b656e20616c7265616479206d696e74656400000000604082015260600190565b60208082526027908201527f53706163653a20636f6e747261637420697320616c726561647920696e69746960408201527f616c697a65642100000000000000000000000000000000000000000000000000606082015260800190565b6020808252602e908201527f53706163653a206f776e6572206f66207370616365206973206e6f742074686560408201527f206f776e6572206f66206c616e64000000000000000000000000000000000000606082015260800190565b60208082526018908201527f53706163653a206e6f6e6578697374656e7420746f6b656e0000000000000000604082015260600190565b60208082526024908201527f4552433732313a207472616e7366657220746f20746865207a65726f2061646460408201527f7265737300000000000000000000000000000000000000000000000000000000606082015260800190565b60208082526022908201527f53706163653a2063616c6c6572206e6f7420617070726f76656420616464726560408201527f7373000000000000000000000000000000000000000000000000000000000000606082015260800190565b60208082526019908201527f4552433732313a20617070726f766520746f2063616c6c657200000000000000604082015260600190565b60208082526026908201527f416464726573733a20696e73756666696369656e742062616c616e636520666f60408201527f722063616c6c0000000000000000000000000000000000000000000000000000606082015260800190565b6020808252602c908201527f4552433732313a206f70657261746f7220717565727920666f72206e6f6e657860408201526b34b9ba32b73a103a37b5b2b760a11b606082015260800190565b60208082526038908201527f4552433732313a20617070726f76652063616c6c6572206973206e6f74206f7760408201527f6e6572206e6f7220617070726f76656420666f7220616c6c0000000000000000606082015260800190565b6020808252602a908201527f4552433732313a2062616c616e636520717565727920666f7220746865207a6560408201527f726f206164647265737300000000000000000000000000000000000000000000606082015260800190565b60208082526032908201527f53706163653a20746f6b656e20646f6573206e6f74206861766520686173682060408201527f6f66206372656174656420636f6e74656e740000000000000000000000000000606082015260800190565b60208082526022908201527f456e756d657261626c654d61703a20696e646578206f7574206f6620626f756e604082015261647360f01b606082015260800190565b6020808252818101527f4552433732313a206d696e7420746f20746865207a65726f2061646472657373604082015260600190565b60208082526025908201527f53706163653a206d657461646174612068617368206d757374206265206e6f6e60408201527f2d7a65726f000000000000000000000000000000000000000000000000000000606082015260800190565b6020808252602c908201527f4552433732313a20617070726f76656420717565727920666f72206e6f6e657860408201526b34b9ba32b73a103a37b5b2b760a11b606082015260800190565b6020808252602c908201527f4552433732314d657461646174613a2055524920736574206f66206e6f6e657860408201526b34b9ba32b73a103a37b5b2b760a11b606082015260800190565b60208082526022908201527f53706163653a206f6e6c7920737061636545786368616e676520636f6e74726160408201527f6374000000000000000000000000000000000000000000000000000000000000606082015260800190565b60208082526029908201527f4552433732313a207472616e73666572206f6620746f6b656e2074686174206960408201527f73206e6f74206f776e0000000000000000000000000000000000000000000000606082015260800190565b6020808252602f908201527f53706163653a20746f6b656e20646f6573206e6f74206861766520686173682060408201527f6f6620697473206d657461646174610000000000000000000000000000000000606082015260800190565b60208082526026908201527f53706163653a2073706563696669656420757269206d757374206265206e6f6e60408201527f2d656d7074790000000000000000000000000000000000000000000000000000606082015260800190565b6020808252603e908201527f53706163653a206120746f6b656e2068617320616c7265616479206265656e2060408201527f637265617465642077697468207468697320636f6e74656e7420686173680000606082015260800190565b60208082526021908201527f4552433732313a20617070726f76616c20746f2063757272656e74206f776e6560408201527f7200000000000000000000000000000000000000000000000000000000000000606082015260800190565b6020808252602e908201527f4c616e643a2073656e64657220646f65736e2774206f776e206c616e64206f7260408201527f206c616e64206f63637570696564000000000000000000000000000000000000606082015260800190565b60208082526031908201527f4552433732313a207472616e736665722063616c6c6572206973206e6f74206f60408201527f776e6572206e6f7220617070726f766564000000000000000000000000000000606082015260800190565b6020808252601d908201527f416464726573733a2063616c6c20746f206e6f6e2d636f6e7472616374000000604082015260600190565b6020808252601d908201527f53706163653a204f6e6c7920617070726f766564206f72206f776e6572000000604082015260600190565b60208082526028908201527f537061636545786368616e67653a20426964646572206d757374206265206d7360408201527f672073656e646572000000000000000000000000000000000000000000000000606082015260800190565b60208082526024908201527f53706163653a20636f6e74656e742068617368206d757374206265206e6f6e2d60408201527f7a65726f00000000000000000000000000000000000000000000000000000000606082015260800190565b6020808252601f908201527f5265656e7472616e637947756172643a207265656e7472616e742063616c6c00604082015260600190565b60208082526016908201527f53706163653a20737570706c79206465706c6574656400000000000000000000604082015260600190565b6020808252601c908201527f53706163653a2070696e206d757374206e6f7420626520656d70747900000000604082015260600190565b9182526001600160a01b0316602082015260400190565b918252805160208084019190915201516001600160a01b0316604082015260600190565b91825280515160208084019190915281015151604080840191909152015151606082015260800190565b82815260c081016120946020830184613285565b83815260e081016140206020830185613285565b6001600160a01b03831660c0830152949350505050565b60405181810167ffffffffffffffff8111828210171561405657600080fd5b604052919050565b60005b83811015614079578181015183820152602001614061565b838111156116585750506000910152565b6001600160a01b0381168114612c0657600080fd5b8015158114612c0657600080fd5b7fffffffff0000000000000000000000000000000000000000000000000000000081168114612c0657600080fdfe4552433732313a207472616e7366657220746f206e6f6e20455243373231526563656976657220696d706c656d656e7465724552433732313a206f776e657220717565727920666f72206e6f6e6578697374656e7420746f6b656ea26469706673582212201121628e61c23f500f0a8faa8f0599dab299732f006a5838bf370b35b5a57c2b64736f6c63430006080033",
  "linkReferences": {},
  "deployedLinkReferences": {}
}