{
  "_format": "hh-sol-artifact-1",
  "contractName": "Space",
  "sourceName": "contracts/Space.sol",
  "abi": [
    {
      "inputs": [
        {
          "internalType": "address",
          "name": "spaceExchangeContractAddr",
          "type": "address"
        }
      ],
      "stateMutability": "nonpayable",
      "type": "constructor"
    },
    {
      "anonymous": false,
      "inputs": [
        {
          "indexed": true,
          "internalType": "address",
          "name": "owner",
          "type": "address"
        },
        {
          "indexed": true,
          "internalType": "address",
          "name": "approved",
          "type": "address"
        },
        {
          "indexed": true,
          "internalType": "uint256",
          "name": "tokenId",
          "type": "uint256"
        }
      ],
      "name": "Approval",
      "type": "event"
    },
    {
      "anonymous": false,
      "inputs": [
        {
          "indexed": true,
          "internalType": "address",
          "name": "owner",
          "type": "address"
        },
        {
          "indexed": true,
          "internalType": "address",
          "name": "operator",
          "type": "address"
        },
        {
          "indexed": false,
          "internalType": "bool",
          "name": "approved",
          "type": "bool"
        }
      ],
      "name": "ApprovalForAll",
      "type": "event"
    },
    {
      "anonymous": false,
      "inputs": [
        {
          "indexed": true,
          "internalType": "uint256",
          "name": "_tokenId",
          "type": "uint256"
        },
        {
          "indexed": false,
          "internalType": "address",
          "name": "owner",
          "type": "address"
        },
        {
          "indexed": false,
          "internalType": "uint256[]",
          "name": "lands",
          "type": "uint256[]"
        }
      ],
      "name": "TokenLandsUpdated",
      "type": "event"
    },
    {
      "anonymous": false,
      "inputs": [
        {
          "indexed": true,
          "internalType": "uint256",
          "name": "_tokenId",
          "type": "uint256"
        },
        {
          "indexed": false,
          "internalType": "address",
          "name": "owner",
          "type": "address"
        },
        {
          "indexed": false,
          "internalType": "string",
          "name": "_uri",
          "type": "string"
        }
      ],
      "name": "TokenMetadataURIUpdated",
      "type": "event"
    },
    {
      "anonymous": false,
      "inputs": [
        {
          "indexed": true,
          "internalType": "uint256",
          "name": "_tokenId",
          "type": "uint256"
        },
        {
          "indexed": false,
          "internalType": "address",
          "name": "owner",
          "type": "address"
        },
        {
          "indexed": false,
          "internalType": "string",
          "name": "_uri",
          "type": "string"
        }
      ],
      "name": "TokenURIUpdated",
      "type": "event"
    },
    {
      "anonymous": false,
      "inputs": [
        {
          "indexed": true,
          "internalType": "address",
          "name": "from",
          "type": "address"
        },
        {
          "indexed": true,
          "internalType": "address",
          "name": "to",
          "type": "address"
        },
        {
          "indexed": true,
          "internalType": "uint256",
          "name": "tokenId",
          "type": "uint256"
        }
      ],
      "name": "Transfer",
      "type": "event"
    },
    {
      "inputs": [
        {
          "internalType": "uint256",
          "name": "tokenId",
          "type": "uint256"
        },
        {
          "components": [
            {
              "internalType": "uint256",
              "name": "amount",
              "type": "uint256"
            },
            {
              "internalType": "address",
              "name": "currency",
              "type": "address"
            },
            {
              "internalType": "address",
              "name": "bidder",
              "type": "address"
            },
            {
              "internalType": "address",
              "name": "recipient",
              "type": "address"
            },
            {
              "components": [
                {
                  "internalType": "uint256",
                  "name": "value",
                  "type": "uint256"
                }
              ],
              "internalType": "struct Decimal.D256",
              "name": "sellOnShare",
              "type": "tuple"
            }
          ],
          "internalType": "struct ISpaceExchange.Bid",
          "name": "bid",
          "type": "tuple"
        }
      ],
      "name": "acceptBid",
      "outputs": [],
      "stateMutability": "nonpayable",
      "type": "function"
    },
    {
      "inputs": [
        {
          "internalType": "address",
          "name": "to",
          "type": "address"
        },
        {
          "internalType": "uint256",
          "name": "tokenId",
          "type": "uint256"
        }
      ],
      "name": "approve",
      "outputs": [],
      "stateMutability": "nonpayable",
      "type": "function"
    },
    {
      "inputs": [
        {
          "internalType": "address",
          "name": "owner",
          "type": "address"
        }
      ],
      "name": "balanceOf",
      "outputs": [
        {
          "internalType": "uint256",
          "name": "",
          "type": "uint256"
        }
      ],
      "stateMutability": "view",
      "type": "function"
    },
    {
      "inputs": [],
      "name": "baseURI",
      "outputs": [
        {
          "internalType": "string",
          "name": "",
          "type": "string"
        }
      ],
      "stateMutability": "view",
      "type": "function"
    },
    {
      "inputs": [
        {
          "internalType": "uint256",
          "name": "tokenId",
          "type": "uint256"
        }
      ],
      "name": "burn",
      "outputs": [],
      "stateMutability": "nonpayable",
      "type": "function"
    },
    {
      "inputs": [
        {
          "internalType": "uint256",
          "name": "tokenId",
          "type": "uint256"
        },
        {
          "internalType": "address",
          "name": "sender",
          "type": "address"
        }
      ],
      "name": "checkLandAttach",
      "outputs": [
        {
          "internalType": "bool",
          "name": "",
          "type": "bool"
        }
      ],
      "stateMutability": "view",
      "type": "function"
    },
    {
      "inputs": [
        {
          "internalType": "uint256",
          "name": "tokenId",
          "type": "uint256"
        }
      ],
      "name": "getApproved",
      "outputs": [
        {
          "internalType": "address",
          "name": "",
          "type": "address"
        }
      ],
      "stateMutability": "view",
      "type": "function"
    },
    {
      "inputs": [
        {
          "internalType": "address",
          "name": "_landContract",
          "type": "address"
        }
      ],
      "name": "initialize",
      "outputs": [],
      "stateMutability": "nonpayable",
      "type": "function"
    },
    {
      "inputs": [
        {
          "internalType": "address",
          "name": "owner",
          "type": "address"
        },
        {
          "internalType": "address",
          "name": "operator",
          "type": "address"
        }
      ],
      "name": "isApprovedForAll",
      "outputs": [
        {
          "internalType": "bool",
          "name": "",
          "type": "bool"
        }
      ],
      "stateMutability": "view",
      "type": "function"
    },
    {
      "inputs": [],
      "name": "landContract",
      "outputs": [
        {
          "internalType": "address",
          "name": "",
          "type": "address"
        }
      ],
      "stateMutability": "view",
      "type": "function"
    },
    {
      "inputs": [
        {
          "internalType": "uint256",
          "name": "tokenId",
          "type": "uint256"
        },
        {
          "internalType": "address",
          "name": "recipient",
          "type": "address"
        }
      ],
      "name": "listTransfer",
      "outputs": [],
      "stateMutability": "nonpayable",
      "type": "function"
    },
    {
      "inputs": [],
      "name": "maxSupply",
      "outputs": [
        {
          "internalType": "uint256",
          "name": "",
          "type": "uint256"
        }
      ],
      "stateMutability": "view",
      "type": "function"
    },
    {
      "inputs": [
        {
          "components": [
            {
              "internalType": "string",
              "name": "tokenURI",
              "type": "string"
            },
            {
              "internalType": "string",
              "name": "metadataURI",
              "type": "string"
            },
            {
              "internalType": "bytes32",
              "name": "contentHash",
              "type": "bytes32"
            },
            {
              "internalType": "bytes32",
              "name": "metadataHash",
              "type": "bytes32"
            },
            {
              "internalType": "bool",
              "name": "isPublic",
              "type": "bool"
            },
            {
              "internalType": "uint256[]",
              "name": "lands",
              "type": "uint256[]"
            }
          ],
          "internalType": "struct ISpace.SpaceData",
          "name": "data",
          "type": "tuple"
        },
        {
          "components": [
            {
              "components": [
                {
                  "internalType": "uint256",
                  "name": "value",
                  "type": "uint256"
                }
              ],
              "internalType": "struct Decimal.D256",
              "name": "prevOwner",
              "type": "tuple"
            },
            {
              "components": [
                {
                  "internalType": "uint256",
                  "name": "value",
                  "type": "uint256"
                }
              ],
              "internalType": "struct Decimal.D256",
              "name": "creator",
              "type": "tuple"
            },
            {
              "components": [
                {
                  "internalType": "uint256",
                  "name": "value",
                  "type": "uint256"
                }
              ],
              "internalType": "struct Decimal.D256",
              "name": "owner",
              "type": "tuple"
            }
          ],
          "internalType": "struct ISpaceExchange.BidShares",
          "name": "bidShares",
          "type": "tuple"
        }
      ],
      "name": "mint",
      "outputs": [],
      "stateMutability": "nonpayable",
      "type": "function"
    },
    {
      "inputs": [],
      "name": "name",
      "outputs": [
        {
          "internalType": "string",
          "name": "",
          "type": "string"
        }
      ],
      "stateMutability": "view",
      "type": "function"
    },
    {
      "inputs": [
        {
          "internalType": "uint256",
          "name": "tokenId",
          "type": "uint256"
        }
      ],
      "name": "ownerOf",
      "outputs": [
        {
          "internalType": "address",
          "name": "",
          "type": "address"
        }
      ],
      "stateMutability": "view",
      "type": "function"
    },
    {
      "inputs": [
        {
          "internalType": "uint256",
          "name": "",
          "type": "uint256"
        }
      ],
      "name": "previousTokenOwners",
      "outputs": [
        {
          "internalType": "address",
          "name": "",
          "type": "address"
        }
      ],
      "stateMutability": "view",
      "type": "function"
    },
    {
      "inputs": [
        {
          "internalType": "uint256",
          "name": "tokenId",
          "type": "uint256"
        }
      ],
      "name": "removeAsk",
      "outputs": [],
      "stateMutability": "nonpayable",
      "type": "function"
    },
    {
      "inputs": [
        {
          "internalType": "uint256",
          "name": "tokenId",
          "type": "uint256"
        }
      ],
      "name": "removeBid",
      "outputs": [],
      "stateMutability": "nonpayable",
      "type": "function"
    },
    {
      "inputs": [
        {
          "internalType": "uint256",
          "name": "tokenId",
          "type": "uint256"
        }
      ],
      "name": "revokeApproval",
      "outputs": [],
      "stateMutability": "nonpayable",
      "type": "function"
    },
    {
      "inputs": [
        {
          "internalType": "address",
          "name": "from",
          "type": "address"
        },
        {
          "internalType": "address",
          "name": "to",
          "type": "address"
        },
        {
          "internalType": "uint256",
          "name": "tokenId",
          "type": "uint256"
        }
      ],
      "name": "safeTransferFrom",
      "outputs": [],
      "stateMutability": "nonpayable",
      "type": "function"
    },
    {
      "inputs": [
        {
          "internalType": "address",
          "name": "from",
          "type": "address"
        },
        {
          "internalType": "address",
          "name": "to",
          "type": "address"
        },
        {
          "internalType": "uint256",
          "name": "tokenId",
          "type": "uint256"
        },
        {
          "internalType": "bytes",
          "name": "_data",
          "type": "bytes"
        }
      ],
      "name": "safeTransferFrom",
      "outputs": [],
      "stateMutability": "nonpayable",
      "type": "function"
    },
    {
      "inputs": [
        {
          "internalType": "address",
          "name": "operator",
          "type": "address"
        },
        {
          "internalType": "bool",
          "name": "approved",
          "type": "bool"
        }
      ],
      "name": "setApprovalForAll",
      "outputs": [],
      "stateMutability": "nonpayable",
      "type": "function"
    },
    {
      "inputs": [
        {
          "internalType": "uint256",
          "name": "tokenId",
          "type": "uint256"
        },
        {
          "components": [
            {
              "internalType": "uint256",
              "name": "amount",
              "type": "uint256"
            },
            {
              "internalType": "address",
              "name": "currency",
              "type": "address"
            }
          ],
          "internalType": "struct ISpaceExchange.Ask",
          "name": "ask",
          "type": "tuple"
        }
      ],
      "name": "setAsk",
      "outputs": [],
      "stateMutability": "nonpayable",
      "type": "function"
    },
    {
      "inputs": [
        {
          "internalType": "uint256",
          "name": "tokenId",
          "type": "uint256"
        },
        {
          "components": [
            {
              "internalType": "uint256",
              "name": "amount",
              "type": "uint256"
            },
            {
              "internalType": "address",
              "name": "currency",
              "type": "address"
            },
            {
              "internalType": "address",
              "name": "bidder",
              "type": "address"
            },
            {
              "internalType": "address",
              "name": "recipient",
              "type": "address"
            },
            {
              "components": [
                {
                  "internalType": "uint256",
                  "name": "value",
                  "type": "uint256"
                }
              ],
              "internalType": "struct Decimal.D256",
              "name": "sellOnShare",
              "type": "tuple"
            }
          ],
          "internalType": "struct ISpaceExchange.Bid",
          "name": "bid",
          "type": "tuple"
        }
      ],
      "name": "setBid",
      "outputs": [],
      "stateMutability": "nonpayable",
      "type": "function"
    },
    {
      "inputs": [],
      "name": "spaceExchangeContract",
      "outputs": [
        {
          "internalType": "address",
          "name": "",
          "type": "address"
        }
      ],
      "stateMutability": "view",
      "type": "function"
    },
    {
      "inputs": [
        {
          "internalType": "bytes4",
          "name": "interfaceId",
          "type": "bytes4"
        }
      ],
      "name": "supportsInterface",
      "outputs": [
        {
          "internalType": "bool",
          "name": "",
          "type": "bool"
        }
      ],
      "stateMutability": "view",
      "type": "function"
    },
    {
      "inputs": [],
      "name": "symbol",
      "outputs": [
        {
          "internalType": "string",
          "name": "",
          "type": "string"
        }
      ],
      "stateMutability": "view",
      "type": "function"
    },
    {
      "inputs": [
        {
          "internalType": "uint256",
          "name": "index",
          "type": "uint256"
        }
      ],
      "name": "tokenByIndex",
      "outputs": [
        {
          "internalType": "uint256",
          "name": "",
          "type": "uint256"
        }
      ],
      "stateMutability": "view",
      "type": "function"
    },
    {
      "inputs": [
        {
          "internalType": "uint256",
          "name": "",
          "type": "uint256"
        }
      ],
      "name": "tokenContentHashes",
      "outputs": [
        {
          "internalType": "bytes32",
          "name": "",
          "type": "bytes32"
        }
      ],
      "stateMutability": "view",
      "type": "function"
    },
    {
      "inputs": [
        {
          "internalType": "uint256",
          "name": "",
          "type": "uint256"
        }
      ],
      "name": "tokenCreators",
      "outputs": [
        {
          "internalType": "address",
          "name": "",
          "type": "address"
        }
      ],
      "stateMutability": "view",
      "type": "function"
    },
    {
      "inputs": [
        {
          "internalType": "uint256",
          "name": "",
          "type": "uint256"
        }
      ],
      "name": "tokenIsPublicRecord",
      "outputs": [
        {
          "internalType": "bool",
          "name": "",
          "type": "bool"
        }
      ],
      "stateMutability": "view",
      "type": "function"
    },
    {
      "inputs": [
        {
          "internalType": "uint256",
          "name": "tokenId",
          "type": "uint256"
        }
      ],
      "name": "tokenLandDetails",
      "outputs": [
        {
          "internalType": "uint256[]",
          "name": "",
          "type": "uint256[]"
        }
      ],
      "stateMutability": "view",
      "type": "function"
    },
    {
      "inputs": [
        {
          "internalType": "uint256",
          "name": "",
          "type": "uint256"
        },
        {
          "internalType": "uint256",
          "name": "",
          "type": "uint256"
        }
      ],
      "name": "tokenLands",
      "outputs": [
        {
          "internalType": "uint256",
          "name": "",
          "type": "uint256"
        }
      ],
      "stateMutability": "view",
      "type": "function"
    },
    {
      "inputs": [
        {
          "internalType": "uint256",
          "name": "",
          "type": "uint256"
        }
      ],
      "name": "tokenMetadataHashes",
      "outputs": [
        {
          "internalType": "bytes32",
          "name": "",
          "type": "bytes32"
        }
      ],
      "stateMutability": "view",
      "type": "function"
    },
    {
      "inputs": [
        {
          "internalType": "uint256",
          "name": "tokenId",
          "type": "uint256"
        }
      ],
      "name": "tokenMetadataURI",
      "outputs": [
        {
          "internalType": "string",
          "name": "",
          "type": "string"
        }
      ],
      "stateMutability": "view",
      "type": "function"
    },
    {
      "inputs": [
        {
          "internalType": "address",
          "name": "owner",
          "type": "address"
        },
        {
          "internalType": "uint256",
          "name": "index",
          "type": "uint256"
        }
      ],
      "name": "tokenOfOwnerByIndex",
      "outputs": [
        {
          "internalType": "uint256",
          "name": "",
          "type": "uint256"
        }
      ],
      "stateMutability": "view",
      "type": "function"
    },
    {
      "inputs": [
        {
          "internalType": "uint256",
          "name": "tokenId",
          "type": "uint256"
        }
      ],
      "name": "tokenURI",
      "outputs": [
        {
          "internalType": "string",
          "name": "",
          "type": "string"
        }
      ],
      "stateMutability": "view",
      "type": "function"
    },
    {
      "inputs": [],
      "name": "totalSupply",
      "outputs": [
        {
          "internalType": "uint256",
          "name": "",
          "type": "uint256"
        }
      ],
      "stateMutability": "view",
      "type": "function"
    },
    {
      "inputs": [
        {
          "internalType": "address",
          "name": "from",
          "type": "address"
        },
        {
          "internalType": "address",
          "name": "to",
          "type": "address"
        },
        {
          "internalType": "uint256",
          "name": "tokenId",
          "type": "uint256"
        }
      ],
      "name": "transferFrom",
      "outputs": [],
      "stateMutability": "nonpayable",
      "type": "function"
    },
    {
      "inputs": [
        {
          "internalType": "uint256",
          "name": "tokenId",
          "type": "uint256"
        },
        {
          "internalType": "uint256[]",
          "name": "lands",
          "type": "uint256[]"
        }
      ],
      "name": "updateTokenLands",
      "outputs": [],
      "stateMutability": "nonpayable",
      "type": "function"
    },
    {
      "inputs": [
        {
          "internalType": "uint256",
          "name": "tokenId",
          "type": "uint256"
        },
        {
          "internalType": "string",
          "name": "metadataURI",
          "type": "string"
        }
      ],
      "name": "updateTokenMetadataURI",
      "outputs": [],
      "stateMutability": "nonpayable",
      "type": "function"
    },
    {
      "inputs": [
        {
          "internalType": "uint256",
          "name": "tokenId",
          "type": "uint256"
        },
        {
          "internalType": "string",
          "name": "tokenURI",
          "type": "string"
        }
      ],
      "name": "updateTokenURI",
      "outputs": [],
      "stateMutability": "nonpayable",
      "type": "function"
    }
  ],
  "bytecode": "0x6080604052600c805460ff60a01b19169055620186a0600d553480156200002557600080fd5b50604051620043ca380380620043ca83398101604081905262000048916200023f565b604080518082018252600b81526a4d6f74696620537061636560a81b60208083019190915282518084019093526005835264535041434560d81b9083015290620000a26301ffc9a760e01b6001600160e01b036200013f16565b8151620000b79060069060208501906200019a565b508051620000cd9060079060208401906200019a565b50620000e96380ac58cd60e01b6001600160e01b036200013f16565b6200010463780e9d6360e01b6001600160e01b036200013f16565b50506001600a55600b80546001600160a01b0319166001600160a01b0383161790556200013863a990b5e560e01b6200013f565b50620002a6565b6001600160e01b03198082161415620001755760405162461bcd60e51b81526004016200016c906200026f565b60405180910390fd5b6001600160e01b0319166000908152602081905260409020805460ff19166001179055565b828054600181600116156101000203166002900490600052602060002090601f016020900481019282601f10620001dd57805160ff19168380011785556200020d565b828001600101855582156200020d579182015b828111156200020d578251825591602001919060010190620001f0565b506200021b9291506200021f565b5090565b6200023c91905b808211156200021b576000815560010162000226565b90565b60006020828403121562000251578081fd5b81516001600160a01b038116811462000268578182fd5b9392505050565b6020808252601c908201527f4552433136353a20696e76616c696420696e7465726661636520696400000000604082015260600190565b61411480620002b66000396000f3fe608060405234801561001057600080fd5b50600436106102de5760003560e01c80636352211e11610186578063b1e130fc116100e3578063c87b56dd11610097578063e985e9c511610071578063e985e9c5146105c7578063f93b85d7146105da578063fad32197146105ed576102de565b8063c87b56dd14610599578063d5abeb01146105ac578063e0fd045f146105b4576102de565b8063b88d4fde116100c8578063b88d4fde14610560578063ba33939914610573578063c4d66de814610586576102de565b8063b1e130fc1461053a578063b320f4591461054d576102de565b806375682e791161013a57806395d89b411161011f57806395d89b411461050c5780639d8e726014610514578063a22cb46514610527576102de565b806375682e79146104e657806381de64e7146104f9576102de565b80636c0360eb1161016b5780636c0360eb146104c357806370a08231146104cb57806372d27398146104de576102de565b80636352211e1461049d57806366449b71146104b0576102de565b806328220f351161023f57806342966c68116101f35780634f6ccce7116101cd5780634f6ccce7146104645780635bf624221461047757806362f24b701461048a576102de565b806342966c681461041e578063496689ae146104315780634c89302314610451576102de565b806332f44aa91161022457806332f44aa9146103e55780633d1dc5c4146103f857806342842e0e1461040b576102de565b806328220f35146103bf5780632f745c59146103d2576102de565b8063095ea7b31161029657806318160ddd1161027b57806318160ddd1461039157806318e97fd11461039957806323b872dd146103ac576102de565b8063095ea7b314610369578063157c3df91461037e576102de565b806303d07340116102c757806303d073401461032c57806306fdde0314610341578063081812fc14610356576102de565b806301ddc3b5146102e357806301ffc9a71461030c575b600080fd5b6102f66102f1366004612f60565b610600565b6040516103039190613349565b60405180910390f35b61031f61031a366004612e45565b610612565b604051610303919061333e565b610334610649565b6040516103039190613208565b610349610658565b6040516103039190613352565b610334610364366004612f60565b6106ef565b61037c610377366004612dff565b61073b565b005b61034961038c366004612f60565b6107d3565b6102f661089e565b61037c6103a7366004613012565b6108af565b61037c6103ba366004612d20565b610a0e565b61037c6103cd366004612f60565b610a46565b6102f66103e0366004612dff565b610b02565b61037c6103f3366004612f78565b610b33565b6102f661040636600461315d565b610bb9565b61037c610419366004612d20565b610be7565b61037c61042c366004612f60565b610c02565b61044461043f366004612f60565b610cd4565b60405161030391906132fa565b61031f61045f366004612f60565b610d5f565b6102f6610472366004612f60565b610d74565b61037c6104853660046130cd565b610d90565b61037c610498366004613076565b610e60565b6103346104ab366004612f60565b610f38565b61037c6104be366004612e7d565b610f66565b610349610fa2565b6102f66104d9366004612cd1565b611003565b61033461104c565b61037c6104f4366004613012565b61105b565b61031f610507366004612f78565b6111a4565b610349611218565b610334610522366004612f60565b611279565b61037c610535366004612dc8565b611294565b61037c610548366004612f60565b611362565b61037c61055b366004612f60565b6113d6565b61037c61056e366004612d60565b6114ad565b61037c6105813660046130cd565b6114ec565b61037c610594366004612cd1565b611587565b6103496105a7366004612f60565b6115fd565b6102f66116cb565b6103346105c2366004612f60565b6116d1565b61031f6105d5366004612cec565b6116ec565b61037c6105e8366004612f9b565b61171a565b6102f66105fb366004612f60565b6118eb565b60126020526000908152604090205481565b7fffffffff000000000000000000000000000000000000000000000000000000001660009081526020819052604090205460ff1690565b600c546001600160a01b031681565b60068054604080516020601f60026000196101006001881615020190951694909404938401819004810282018101909252828152606093909290918301828280156106e45780601f106106b9576101008083540402835291602001916106e4565b820191906000526020600020905b8154815290600101906020018083116106c757829003601f168201915b505050505090505b90565b60006106fa826118fd565b61071f5760405162461bcd60e51b815260040161071690613a25565b60405180910390fd5b506000908152600460205260409020546001600160a01b031690565b600061074682610f38565b9050806001600160a01b0316836001600160a01b0316141561077a5760405162461bcd60e51b815260040161071690613c8e565b806001600160a01b031661078c611910565b6001600160a01b031614806107a857506107a8816105d5611910565b6107c45760405162461bcd60e51b81526004016107169061383a565b6107ce8383611914565b505050565b606081806107e16017611982565b116107fe5760405162461bcd60e51b815260040161071690613461565b60008381526013602090815260409182902080548351601f6002600019610100600186161502019093169290920491820184900484028101840190945280845290918301828280156108915780601f1061086657610100808354040283529160200191610891565b820191906000526020600020905b81548152906001019060200180831161087457829003601f168201915b5050505050915050919050565b60006108aa6002611986565b905090565b6002600a5414156108d25760405162461bcd60e51b815260040161071690613ecd565b6002600a5533836108e38282611991565b6108ff5760405162461bcd60e51b815260040161071690613ddc565b600085815260116020526040902054859061092c5760405162461bcd60e51b8152600401610716906138f4565b84848080601f0160208091040260200160405190810160405280939291908181526020018383808284376000920191909152505082511515915061098490505760405162461bcd60e51b815260040161071690613bd4565b6109c48787878080601f016020809104026020016040519081016040528093929190818152602001838380828437600092019190915250611a1692505050565b867f702fe2dc2dc0f68023540aa4a1e11811c0f29112f6ebf01e61b90538e4f298103388886040516109f8939291906132bb565b60405180910390a250506001600a555050505050565b610a1f610a19611910565b82611991565b610a3b5760405162461bcd60e51b815260040161071690613d48565b6107ce838383611a5a565b6002600a541415610a695760405162461bcd60e51b815260040161071690613ecd565b6002600a553381610a7a8282611991565b610a965760405162461bcd60e51b815260040161071690613ddc565b600b546040516328220f3560e01b81526001600160a01b03909116906328220f3590610ac6908690600401613349565b600060405180830381600087803b158015610ae057600080fd5b505af1158015610af4573d6000803e3d6000fd5b50506001600a555050505050565b6001600160a01b0382166000908152600160205260408120610b2a908363ffffffff611ac716565b90505b92915050565b600b546001600160a01b03163314610b5d5760405162461bcd60e51b815260040161071690613abd565b610b6682610f38565b6000838152600e6020526040902080546001600160a01b0319166001600160a01b0392909216919091179055610bb5610b9e83610f38565b828460405180602001604052806000815250611ad3565b5050565b60166020528160005260406000208181548110610bd257fe5b90600052602060002001600091509150505481565b6107ce838383604051806020016040528060008152506114ad565b6002600a541415610c255760405162461bcd60e51b815260040161071690613ecd565b6002600a5580610c34816118fd565b610c505760405162461bcd60e51b81526004016107169061360c565b3382610c5c8282611991565b610c785760405162461bcd60e51b815260040161071690613ddc565b6000610c8385610f38565b6000868152600f60205260409020549091506001600160a01b03808316911614610cbf5760405162461bcd60e51b8152600401610716906133a7565b610cc885611b06565b50506001600a55505050565b60608180610ce26017611982565b11610cff5760405162461bcd60e51b815260040161071690613461565b6000838152601660209081526040918290208054835181840281018401909452808452909183018282801561089157602002820191906000526020600020905b815481526020019060010190808311610d3f575050505050915050919050565b60156020526000908152604090205460ff1681565b600080610d8860028463ffffffff611bf216565b509392505050565b6002600a541415610db35760405162461bcd60e51b815260040161071690613ecd565b6002600a5581610dc2816118fd565b610dde5760405162461bcd60e51b81526004016107169061360c565b81604001516001600160a01b0316336001600160a01b031614610e135760405162461bcd60e51b815260040161071690613e13565b600b546040517fbdb586980000000000000000000000000000000000000000000000000000000081526001600160a01b039091169063bdb5869890610ac690869086903390600401613fb4565b6002600a541415610e835760405162461bcd60e51b815260040161071690613ecd565b6002600a553382610e948282611991565b610eb05760405162461bcd60e51b815260040161071690613ddc565b600b546040517f62f24b700000000000000000000000000000000000000000000000000000000081526001600160a01b03909116906362f24b7090610efb9087908790600401613f52565b600060405180830381600087803b158015610f1557600080fd5b505af1158015610f29573d6000803e3d6000fd5b50506001600a55505050505050565b6000610b2d826040518060600160405280602981526020016140b6602991396002919063ffffffff611c0e16565b6002600a541415610f895760405162461bcd60e51b815260040161071690613ecd565b6002600a55610f99338383611c25565b50506001600a55565b60098054604080516020601f60026000196101006001881615020190951694909404938401819004810282018101909252828152606093909290918301828280156106e45780601f106106b9576101008083540402835291602001916106e4565b60006001600160a01b03821661102b5760405162461bcd60e51b815260040161071690613897565b6001600160a01b0382166000908152600160205260409020610b2d90611986565b600b546001600160a01b031681565b6002600a54141561107e5760405162461bcd60e51b815260040161071690613ecd565b6002600a55338361108f8282611991565b6110ab5760405162461bcd60e51b815260040161071690613ddc565b60008581526012602052604090205485906110d85760405162461bcd60e51b815260040161071690613b77565b84848080601f0160208091040260200160405190810160405280939291908181526020018383808284376000920191909152505082511515915061113090505760405162461bcd60e51b815260040161071690613bd4565b6111708787878080601f016020809104026020016040519081016040528093929190818152602001838380828437600092019190915250611fc492505050565b867fe3df41127db820c79e5b8d541a63e40e3e97b9af96f7a50bded13091b70df9ae3388886040516109f8939291906132bb565b600082806111b26017611982565b116111cf5760405162461bcd60e51b815260040161071690613461565b60006111da85610f38565b9050836001600160a01b0316816001600160a01b03161461120d5760405162461bcd60e51b8152600401610716906135af565b506001949350505050565b60078054604080516020601f60026000196101006001881615020190951694909404938401819004810282018101909252828152606093909290918301828280156106e45780601f106106b9576101008083540402835291602001916106e4565b600e602052600090815260409020546001600160a01b031681565b61129c611910565b6001600160a01b0316826001600160a01b031614156112cd5760405162461bcd60e51b81526004016107169061375a565b80600560006112da611910565b6001600160a01b03908116825260208083019390935260409182016000908120918716808252919093529120805460ff19169215159290921790915561131e611910565b6001600160a01b03167f17307eab39ab6107e8899845ad3d59bd9653f200f220920489ca2b5937696c3183604051611356919061333e565b60405180910390a35050565b6002600a5414156113855760405162461bcd60e51b815260040161071690613ecd565b6002600a55611393816106ef565b6001600160a01b0316336001600160a01b0316146113c35760405162461bcd60e51b8152600401610716906136fd565b6113ce600082611914565b506001600a55565b6002600a5414156113f95760405162461bcd60e51b815260040161071690613ecd565b6002600a55808061140a6017611982565b116114275760405162461bcd60e51b815260040161071690613461565b600b546040517f776a08350000000000000000000000000000000000000000000000000000000081526001600160a01b039091169063776a0835906114729085903390600401613f3b565b600060405180830381600087803b15801561148c57600080fd5b505af11580156114a0573d6000803e3d6000fd5b50506001600a5550505050565b6114be6114b8611910565b83611991565b6114da5760405162461bcd60e51b815260040161071690613d48565b6114e684848484611ad3565b50505050565b6002600a54141561150f5760405162461bcd60e51b815260040161071690613ecd565b6002600a5533826115208282611991565b61153c5760405162461bcd60e51b815260040161071690613ddc565b600b546040517fba3393990000000000000000000000000000000000000000000000000000000081526001600160a01b039091169063ba33939990610efb9087908790600401613fa0565b600c54600160a01b900460ff16156115b15760405162461bcd60e51b815260040161071690613552565b600c8054600160a01b7fffffffffffffffffffffff00ffffffffffffffffffffffffffffffffffffffff909116176001600160a01b0319166001600160a01b0392909216919091179055565b6060818061160b6017611982565b116116285760405162461bcd60e51b815260040161071690613461565b60008381526008602090815260409182902080548351601f60026000196101006001861615020190931692909204918201849004840281018401909452808452606093928301828280156116bd5780601f10611692576101008083540402835291602001916116bd565b820191906000526020600020905b8154815290600101906020018083116116a057829003601f168201915b509398975050505050505050565b600d5481565b600f602052600090815260409020546001600160a01b031681565b6001600160a01b03918216600090815260056020908152604080832093909416825291909152205460ff1690565b6002600a54141561173d5760405162461bcd60e51b815260040161071690613ecd565b6002600a55338361174e8282611991565b61176a5760405162461bcd60e51b815260040161071690613ddc565b60008581526012602052604090205485906117975760405162461bcd60e51b815260040161071690613b77565b60005b8481101561186457600c546000906001600160a01b031663309cf8d28888858181106117c257fe5b90506020020135336040518363ffffffff1660e01b81526004016117e7929190613f3b565b60206040518083038186803b1580156117ff57600080fd5b505afa158015611813573d6000803e3d6000fd5b505050506040513d601f19601f820116820180604052508101906118379190612e29565b905060018115151461185b5760405162461bcd60e51b815260040161071690613ceb565b5060010161179a565b506118a28686868080602002602001604051908101604052809392919081815260200183836020028082843760009201919091525061200992505050565b857f4be8131fcc22c12003ac879a07e7678724c47d36ce311c584ee27a57e867b7d43387876040516118d693929190613258565b60405180910390a250506001600a5550505050565b60116020526000908152604090205481565b6000610b2d60028363ffffffff61204e16565b3390565b600081815260046020526040902080546001600160a01b0319166001600160a01b038416908117909155819061194982610f38565b6001600160a01b03167f8c5be1e5ebec7d5bd14f71427d1e84f3dd0314c0f7b2291e5b200ac8c7c3b92560405160405180910390a45050565b5490565b6000610b2d82611982565b600061199c826118fd565b6119b85760405162461bcd60e51b8152600401610716906137ee565b60006119c383610f38565b9050806001600160a01b0316846001600160a01b031614806119fe5750836001600160a01b03166119f3846106ef565b6001600160a01b0316145b80611a0e5750611a0e81856116ec565b949350505050565b611a1f826118fd565b611a3b5760405162461bcd60e51b815260040161071690613a71565b600082815260086020908152604090912082516107ce92840190612a35565b600b546040516328220f3560e01b81526001600160a01b03909116906328220f3590611a8a908490600401613349565b600060405180830381600087803b158015611aa457600080fd5b505af1158015611ab8573d6000803e3d6000fd5b505050506107ce83838361205a565b6000610b2a838361217a565b611ade848484611a5a565b611aea848484846121bf565b6114e65760405162461bcd60e51b815260040161071690613404565b60008181526008602090815260409182902080548351601f6002600019610100600186161502019093169290920491820184900484028101840190945280845260609392830182828015611b9b5780601f10611b7057610100808354040283529160200191611b9b565b820191906000526020600020905b815481529060010190602001808311611b7e57829003601f168201915b50505050509050611bab826122e6565b805115611bd35760008281526008602090815260409091208251611bd192840190612a35565b505b506000908152600e6020526040902080546001600160a01b0319169055565b6000808080611c0186866123bf565b9097909650945050505050565b6000611c1b84848461241b565b90505b9392505050565b81518051611c455760405162461bcd60e51b815260040161071690613bd4565b60208301518051611c685760405162461bcd60e51b815260040161071690613bd4565b600d54611c7361089e565b10611c905760405162461bcd60e51b815260040161071690613f04565b6040840151611cb15760405162461bcd60e51b815260040161071690613e70565b60408085015160009081526014602052205460ff1615611ce35760405162461bcd60e51b815260040161071690613c31565b6060840151611d045760405162461bcd60e51b8152600401610716906139c8565b6080840151151560011480611d1b57506080840151155b611d375760405162461bcd60e51b815260040161071690613643565b6000611d436017611982565b9050846080015115611e6c5760008560a001515111611d745760405162461bcd60e51b8152600401610716906134f5565b60005b8560a0015151811015611e4e57600c5460a087015180516000926001600160a01b03169163309cf8d29185908110611dab57fe5b6020026020010151336040518363ffffffff1660e01b8152600401611dd1929190613f3b565b60206040518083038186803b158015611de957600080fd5b505afa158015611dfd573d6000803e3d6000fd5b505050506040513d601f19601f82011682018060405250810190611e219190612e29565b9050600181151514611e455760405162461bcd60e51b815260040161071690613ceb565b50600101611d77565b50611e59868261247a565b611e67818660a00151612009565b611e76565b611e76868261247a565b611e806017612494565b611e8e81866040015161249d565b611e9c8186606001516124d6565b611eaa818660200151611fc4565b611eb8818660000151611a16565b611ec681866080015161250f565b6001600160a01b0386166000908152601060205260409020611eee908263ffffffff61255616565b50604080860151600090815260146020908152828220805460ff19166001179055838252600f815282822080546001600160a01b03808c166001600160a01b03199283168117909355600e90935292849020805490931617909155600b5491517feb55683a00000000000000000000000000000000000000000000000000000000815291169063eb55683a90611f8a9084908890600401613f76565b600060405180830381600087803b158015611fa457600080fd5b505af1158015611fb8573d6000803e3d6000fd5b50505050505050505050565b81611fce816118fd565b611fea5760405162461bcd60e51b81526004016107169061360c565b600083815260136020908152604090912083516114e692850190612a35565b81612013816118fd565b61202f5760405162461bcd60e51b81526004016107169061360c565b600083815260166020908152604090912083516114e692850190612ab3565b6000610b2a8383612562565b826001600160a01b031661206d82610f38565b6001600160a01b0316146120935760405162461bcd60e51b815260040161071690613b1a565b6001600160a01b0382166120b95760405162461bcd60e51b8152600401610716906136a0565b6120c48383836107ce565b6120cf600082611914565b6001600160a01b03831660009081526001602052604090206120f7908263ffffffff61257a16565b506001600160a01b0382166000908152600160205260409020612120908263ffffffff61255616565b506121336002828463ffffffff61258616565b5080826001600160a01b0316846001600160a01b03167fddf252ad1be2c89b69c2b068fc378daa952ba7f163c4a11628f55a4df523b3ef60405160405180910390a4505050565b8154600090821061219d5760405162461bcd60e51b815260040161071690613365565b8260000182815481106121ac57fe5b9060005260206000200154905092915050565b60006121d3846001600160a01b031661259c565b6121df57506001611a0e565b6060612297630a85bd0160e11b6121f4611910565b88878760405160240161220a949392919061321c565b604051602081830303815290604052907bffffffffffffffffffffffffffffffffffffffffffffffffffffffff19166020820180517bffffffffffffffffffffffffffffffffffffffffffffffffffffffff8381831617835250505050604051806060016040528060328152602001614084603291396001600160a01b038816919063ffffffff6125a216565b90506000818060200190518101906122af9190612e61565b7fffffffff0000000000000000000000000000000000000000000000000000000016630a85bd0160e11b1492505050949350505050565b60006122f182610f38565b90506122ff816000846107ce565b61230a600083611914565b600082815260086020526040902054600260001961010060018416150201909116041561234857600082815260086020526040812061234891612aed565b6001600160a01b0381166000908152600160205260409020612370908363ffffffff61257a16565b5061238260028363ffffffff6125b116565b5060405182906000906001600160a01b038416907fddf252ad1be2c89b69c2b068fc378daa952ba7f163c4a11628f55a4df523b3ef908390a45050565b8154600090819083106123e45760405162461bcd60e51b815260040161071690613951565b60008460000184815481106123f557fe5b906000526020600020906002020190508060000154816001015492509250509250929050565b6000828152600184016020526040812054828161244b5760405162461bcd60e51b81526004016107169190613352565b5084600001600182038154811061245e57fe5b9060005260206000209060020201600101549150509392505050565b610bb58282604051806020016040528060008152506125bd565b80546001019055565b816124a7816118fd565b6124c35760405162461bcd60e51b81526004016107169061360c565b5060009182526011602052604090912055565b816124e0816118fd565b6124fc5760405162461bcd60e51b81526004016107169061360c565b5060009182526012602052604090912055565b81612519816118fd565b6125355760405162461bcd60e51b81526004016107169061360c565b50600091825260156020526040909120805460ff1916911515919091179055565b6000610b2a83836125f0565b60009081526001919091016020526040902054151590565b6000610b2a838361263a565b6000611c1b84846001600160a01b038516612700565b3b151590565b6060611c1b8484600085612797565b6000610b2a8383612858565b6125c7838361292c565b6125d460008484846121bf565b6107ce5760405162461bcd60e51b815260040161071690613404565b60006125fc8383612562565b61263257508154600181810184556000848152602080822090930184905584548482528286019093526040902091909155610b2d565b506000610b2d565b600081815260018301602052604081205480156126f6578354600019808301919081019060009087908390811061266d57fe5b906000526020600020015490508087600001848154811061268a57fe5b6000918252602080832090910192909255828152600189810190925260409020908401905586548790806126ba57fe5b60019003818190600052602060002001600090559055866001016000878152602001908152602001600020600090556001945050505050610b2d565b6000915050610b2d565b600082815260018401602052604081205480612765575050604080518082018252838152602080820184815286546001818101895560008981528481209551600290930290950191825591519082015586548684528188019092529290912055611c1e565b8285600001600183038154811061277857fe5b9060005260206000209060020201600101819055506000915050611c1e565b6060824710156127b95760405162461bcd60e51b815260040161071690613791565b6127c28561259c565b6127de5760405162461bcd60e51b815260040161071690613da5565b60006060866001600160a01b031685876040516127fb91906131ec565b60006040518083038185875af1925050503d8060008114612838576040519150601f19603f3d011682016040523d82523d6000602084013e61283d565b606091505b509150915061284d8282866129fc565b979650505050505050565b600081815260018301602052604081205480156126f6578354600019808301919081019060009087908390811061288b57fe5b90600052602060002090600202019050808760000184815481106128ab57fe5b6000918252602080832084546002909302019182556001938401549184019190915583548252898301905260409020908401905586548790806128ea57fe5b6000828152602080822060026000199094019384020182815560019081018390559290935588815289820190925260408220919091559450610b2d9350505050565b6001600160a01b0382166129525760405162461bcd60e51b815260040161071690613993565b61295b816118fd565b156129785760405162461bcd60e51b8152600401610716906134be565b612984600083836107ce565b6001600160a01b03821660009081526001602052604090206129ac908263ffffffff61255616565b506129bf6002828463ffffffff61258616565b5060405181906001600160a01b038416906000907fddf252ad1be2c89b69c2b068fc378daa952ba7f163c4a11628f55a4df523b3ef908290a45050565b60608315612a0b575081611c1e565b825115612a1b5782518084602001fd5b8160405162461bcd60e51b81526004016107169190613352565b828054600181600116156101000203166002900490600052602060002090601f016020900481019282601f10612a7657805160ff1916838001178555612aa3565b82800160010185558215612aa3579182015b82811115612aa3578251825591602001919060010190612a88565b50612aaf929150612b34565b5090565b828054828255906000526020600020908101928215612aa35791602002820182811115612aa3578251825591602001919060010190612a88565b50805460018160011615610100020316600290046000825580601f10612b135750612b31565b601f016020900490600052602060002090810190612b319190612b34565b50565b6106ec91905b80821115612aaf5760008155600101612b3a565b80356001600160a01b0381168114610b2d57600080fd5b600082601f830112612b75578081fd5b813567ffffffffffffffff811115612b8b578182fd5b6020808202612b9b828201613fdf565b83815293508184018583018287018401881015612bb757600080fd5b600092505b84831015612bda578035825260019290920191908301908301612bbc565b505050505092915050565b8035610b2d81614047565b600082601f830112612c00578081fd5b813567ffffffffffffffff811115612c16578182fd5b612c29601f8201601f1916602001613fdf565b9150808252836020828501011115612c4057600080fd5b8060208401602084013760009082016020015292915050565b600060608284031215612c6a578081fd5b612c746060613fdf565b9050612c808383612cac565b8152612c8f8360208401612cac565b6020820152612ca18360408401612cac565b604082015292915050565b600060208284031215612cbd578081fd5b612cc76020613fdf565b9135825250919050565b600060208284031215612ce2578081fd5b610b2a8383612b4e565b60008060408385031215612cfe578081fd5b612d088484612b4e565b9150612d178460208501612b4e565b90509250929050565b600080600060608486031215612d34578081fd5b8335612d3f81614032565b92506020840135612d4f81614032565b929592945050506040919091013590565b60008060008060808587031215612d75578081fd5b612d7f8686612b4e565b9350612d8e8660208701612b4e565b925060408501359150606085013567ffffffffffffffff811115612db0578182fd5b612dbc87828801612bf0565b91505092959194509250565b60008060408385031215612dda578182fd5b612de48484612b4e565b91506020830135612df481614047565b809150509250929050565b60008060408385031215612e11578182fd5b612e1b8484612b4e565b946020939093013593505050565b600060208284031215612e3a578081fd5b8151611c1e81614047565b600060208284031215612e56578081fd5b8135611c1e81614055565b600060208284031215612e72578081fd5b8151611c1e81614055565b60008060808385031215612e8f578182fd5b823567ffffffffffffffff80821115612ea6578384fd5b81850160c08188031215612eb8578485fd5b612ec260c0613fdf565b9250803582811115612ed2578586fd5b612ede88828401612bf0565b845250602081013582811115612ef2578586fd5b612efe88828401612bf0565b6020850152506040810135604084015260608101356060840152612f258760808301612be5565b608084015260a081013582811115612f3b578586fd5b612f4788828401612b65565b60a085015250505080925050612d178460208501612c59565b600060208284031215612f71578081fd5b5035919050565b60008060408385031215612f8a578182fd5b82359150612d178460208501612b4e565b600080600060408486031215612faf578081fd5b83359250602084013567ffffffffffffffff80821115612fcd578283fd5b81860187601f820112612fde578384fd5b8035925081831115612fee578384fd5b8760208085028301011115613001578384fd5b949760209095019650909450505050565b600080600060408486031215613026578081fd5b83359250602084013567ffffffffffffffff80821115613044578283fd5b81860187601f820112613055578384fd5b8035925081831115613065578384fd5b876020848301011115613001578384fd5b6000808284036060811215613089578283fd5b833592506040601f198201121561309e578182fd5b506130a96040613fdf565b602084013581526130bd8560408601612b4e565b6020820152809150509250929050565b60008082840360c08112156130e0578283fd5b8335925060a0601f19820112156130f5578182fd5b5061310060a0613fdf565b60208401358152604084013561311581614032565b6020820152606084013561312881614032565b6040820152608084013561313b81614032565b606082015261314d8560a08601612cac565b6080820152809150509250929050565b6000806040838503121561316f578182fd5b50508035926020909101359150565b60008151808452613196816020860160208601614006565b601f01601f19169290920160200192915050565b8051825260208101516001600160a01b038082166020850152806040840151166040850152806060840151166060850152505060808101515160808301525050565b600082516131fe818460208701614006565b9190910192915050565b6001600160a01b0391909116815260200190565b60006001600160a01b0380871683528086166020840152508360408301526080606083015261324e608083018461317e565b9695505050505050565b60006001600160a01b0385168252604060208301528260408301527f07ffffffffffffffffffffffffffffffffffffffffffffffffffffffffffffff83111561329f578081fd5b6020830280856060850137919091016060019081529392505050565b60006001600160a01b03851682526040602083015282604083015282846060840137818301606090810191909152601f909201601f1916010192915050565b6020808252825182820181905260009190848201906040850190845b8181101561333257835183529284019291840191600101613316565b50909695505050505050565b901515815260200190565b90815260200190565b600060208252610b2a602083018461317e565b60208082526022908201527f456e756d657261626c655365743a20696e646578206f7574206f6620626f756e604082015261647360f01b606082015260800190565b60208082526024908201527f53706163653a206f776e6572206973206e6f742063726561746f72206f66207360408201527f7061636500000000000000000000000000000000000000000000000000000000606082015260800190565b60208082526032908201527f4552433732313a207472616e7366657220746f206e6f6e20455243373231526560408201527f63656976657220696d706c656d656e7465720000000000000000000000000000606082015260800190565b60208082526028908201527f53706163653a20746f6b656e2077697468207468617420696420646f6573206e60408201527f6f74206578697374000000000000000000000000000000000000000000000000606082015260800190565b6020808252601c908201527f4552433732313a20746f6b656e20616c7265616479206d696e74656400000000604082015260600190565b60208082526022908201527f53706163653a207075626c6963207370616365206d7573742068617665206c6160408201527f6e64000000000000000000000000000000000000000000000000000000000000606082015260800190565b60208082526027908201527f53706163653a20636f6e747261637420697320616c726561647920696e69746960408201527f616c697a65642100000000000000000000000000000000000000000000000000606082015260800190565b6020808252602e908201527f53706163653a206f776e6572206f66207370616365206973206e6f742074686560408201527f206f776e6572206f66206c616e64000000000000000000000000000000000000606082015260800190565b60208082526018908201527f53706163653a206e6f6e6578697374656e7420746f6b656e0000000000000000604082015260600190565b60208082526023908201527f53706163653a207370616365206163636573732063616e6e6f7420626520656d60408201527f7074790000000000000000000000000000000000000000000000000000000000606082015260800190565b60208082526024908201527f4552433732313a207472616e7366657220746f20746865207a65726f2061646460408201527f7265737300000000000000000000000000000000000000000000000000000000606082015260800190565b60208082526022908201527f53706163653a2063616c6c6572206e6f7420617070726f76656420616464726560408201527f7373000000000000000000000000000000000000000000000000000000000000606082015260800190565b60208082526019908201527f4552433732313a20617070726f766520746f2063616c6c657200000000000000604082015260600190565b60208082526026908201527f416464726573733a20696e73756666696369656e742062616c616e636520666f60408201527f722063616c6c0000000000000000000000000000000000000000000000000000606082015260800190565b6020808252602c908201527f4552433732313a206f70657261746f7220717565727920666f72206e6f6e657860408201526b34b9ba32b73a103a37b5b2b760a11b606082015260800190565b60208082526038908201527f4552433732313a20617070726f76652063616c6c6572206973206e6f74206f7760408201527f6e6572206e6f7220617070726f76656420666f7220616c6c0000000000000000606082015260800190565b6020808252602a908201527f4552433732313a2062616c616e636520717565727920666f7220746865207a6560408201527f726f206164647265737300000000000000000000000000000000000000000000606082015260800190565b60208082526032908201527f53706163653a20746f6b656e20646f6573206e6f74206861766520686173682060408201527f6f66206372656174656420636f6e74656e740000000000000000000000000000606082015260800190565b60208082526022908201527f456e756d657261626c654d61703a20696e646578206f7574206f6620626f756e604082015261647360f01b606082015260800190565b6020808252818101527f4552433732313a206d696e7420746f20746865207a65726f2061646472657373604082015260600190565b60208082526025908201527f53706163653a206d657461646174612068617368206d757374206265206e6f6e60408201527f2d7a65726f000000000000000000000000000000000000000000000000000000606082015260800190565b6020808252602c908201527f4552433732313a20617070726f76656420717565727920666f72206e6f6e657860408201526b34b9ba32b73a103a37b5b2b760a11b606082015260800190565b6020808252602c908201527f4552433732314d657461646174613a2055524920736574206f66206e6f6e657860408201526b34b9ba32b73a103a37b5b2b760a11b606082015260800190565b60208082526022908201527f53706163653a206f6e6c7920737061636545786368616e676520636f6e74726160408201527f6374000000000000000000000000000000000000000000000000000000000000606082015260800190565b60208082526029908201527f4552433732313a207472616e73666572206f6620746f6b656e2074686174206960408201527f73206e6f74206f776e0000000000000000000000000000000000000000000000606082015260800190565b6020808252602f908201527f53706163653a20746f6b656e20646f6573206e6f74206861766520686173682060408201527f6f6620697473206d657461646174610000000000000000000000000000000000606082015260800190565b60208082526026908201527f53706163653a2073706563696669656420757269206d757374206265206e6f6e60408201527f2d656d7074790000000000000000000000000000000000000000000000000000606082015260800190565b6020808252603e908201527f53706163653a206120746f6b656e2068617320616c7265616479206265656e2060408201527f637265617465642077697468207468697320636f6e74656e7420686173680000606082015260800190565b60208082526021908201527f4552433732313a20617070726f76616c20746f2063757272656e74206f776e6560408201527f7200000000000000000000000000000000000000000000000000000000000000606082015260800190565b6020808252602e908201527f4c616e643a2073656e64657220646f65736e2774206f776e206c616e64206f7260408201527f206c616e64206f63637570696564000000000000000000000000000000000000606082015260800190565b60208082526031908201527f4552433732313a207472616e736665722063616c6c6572206973206e6f74206f60408201527f776e6572206e6f7220617070726f766564000000000000000000000000000000606082015260800190565b6020808252601d908201527f416464726573733a2063616c6c20746f206e6f6e2d636f6e7472616374000000604082015260600190565b6020808252601d908201527f53706163653a204f6e6c7920617070726f766564206f72206f776e6572000000604082015260600190565b60208082526028908201527f537061636545786368616e67653a20426964646572206d757374206265206d7360408201527f672073656e646572000000000000000000000000000000000000000000000000606082015260800190565b60208082526024908201527f53706163653a20636f6e74656e742068617368206d757374206265206e6f6e2d60408201527f7a65726f00000000000000000000000000000000000000000000000000000000606082015260800190565b6020808252601f908201527f5265656e7472616e637947756172643a207265656e7472616e742063616c6c00604082015260600190565b60208082526016908201527f53706163653a20737570706c79206465706c6574656400000000000000000000604082015260600190565b9182526001600160a01b0316602082015260400190565b918252805160208084019190915201516001600160a01b0316604082015260600190565b91825280515160208084019190915281015151604080840191909152015151606082015260800190565b82815260c08101611c1e60208301846131aa565b83815260e08101613fc860208301856131aa565b6001600160a01b03831660c0830152949350505050565b60405181810167ffffffffffffffff81118282101715613ffe57600080fd5b604052919050565b60005b83811015614021578181015183820152602001614009565b838111156114e65750506000910152565b6001600160a01b0381168114612b3157600080fd5b8015158114612b3157600080fd5b7fffffffff0000000000000000000000000000000000000000000000000000000081168114612b3157600080fdfe4552433732313a207472616e7366657220746f206e6f6e20455243373231526563656976657220696d706c656d656e7465724552433732313a206f776e657220717565727920666f72206e6f6e6578697374656e7420746f6b656ea264697066735822122079b01856d921e71a17c51701a90b6e56f4bde776bc532536c5d1f5549c56e50464736f6c63430006080033",
  "linkReferences": {},
  "deployedLinkReferences": {}
}