{
  "_format": "hh-sol-artifact-1",
  "contractName": "SpaceListing",
  "sourceName": "contracts/SpaceListing.sol",
  "abi": [
    {
      "inputs": [
        {
          "internalType": "address",
          "name": "_motif",
          "type": "address"
        },
        {
          "internalType": "address",
          "name": "_wmotif",
          "type": "address"
        }
      ],
      "stateMutability": "nonpayable",
      "type": "constructor"
    },
    {
      "anonymous": false,
      "inputs": [
        {
          "indexed": true,
          "internalType": "uint256",
          "name": "listingId",
          "type": "uint256"
        },
        {
          "indexed": true,
          "internalType": "uint256",
          "name": "tokenId",
          "type": "uint256"
        },
        {
          "indexed": true,
          "internalType": "address",
          "name": "tokenContract",
          "type": "address"
        },
        {
          "indexed": false,
          "internalType": "bool",
          "name": "approved",
          "type": "bool"
        }
      ],
      "name": "ListingApprovalUpdated",
      "type": "event"
    },
    {
      "anonymous": false,
      "inputs": [
        {
          "indexed": true,
          "internalType": "uint256",
          "name": "listingId",
          "type": "uint256"
        },
        {
          "indexed": true,
          "internalType": "uint256",
          "name": "tokenId",
          "type": "uint256"
        },
        {
          "indexed": true,
          "internalType": "address",
          "name": "tokenContract",
          "type": "address"
        },
        {
          "indexed": false,
          "internalType": "address",
          "name": "sender",
          "type": "address"
        },
        {
          "indexed": false,
          "internalType": "uint256",
          "name": "value",
          "type": "uint256"
        },
        {
          "indexed": false,
          "internalType": "bool",
          "name": "firstBid",
          "type": "bool"
        },
        {
          "indexed": false,
          "internalType": "bool",
          "name": "extended",
          "type": "bool"
        }
      ],
      "name": "ListingBid",
      "type": "event"
    },
    {
      "anonymous": false,
      "inputs": [
        {
          "indexed": true,
          "internalType": "uint256",
          "name": "listingId",
          "type": "uint256"
        },
        {
          "indexed": true,
          "internalType": "uint256",
          "name": "tokenId",
          "type": "uint256"
        },
        {
          "indexed": true,
          "internalType": "address",
          "name": "tokenContract",
          "type": "address"
        },
        {
          "indexed": false,
          "internalType": "address",
          "name": "tokenOwner",
          "type": "address"
        }
      ],
      "name": "ListingCanceled",
      "type": "event"
    },
    {
      "anonymous": false,
      "inputs": [
        {
          "indexed": true,
          "internalType": "uint256",
          "name": "listingId",
          "type": "uint256"
        },
        {
          "indexed": true,
          "internalType": "uint256",
          "name": "tokenId",
          "type": "uint256"
        },
        {
          "indexed": true,
          "internalType": "address",
          "name": "tokenContract",
          "type": "address"
        },
        {
          "indexed": false,
          "internalType": "uint256",
          "name": "startsAt",
          "type": "uint256"
        },
        {
          "indexed": false,
          "internalType": "uint256",
          "name": "duration",
          "type": "uint256"
        },
        {
          "indexed": false,
          "internalType": "uint256",
          "name": "listPrice",
          "type": "uint256"
        },
        {
          "indexed": false,
          "internalType": "uint8",
          "name": "listType",
          "type": "uint8"
        },
        {
          "indexed": false,
          "internalType": "address",
          "name": "tokenOwner",
          "type": "address"
        },
        {
          "indexed": false,
          "internalType": "address",
          "name": "intermediary",
          "type": "address"
        },
        {
          "indexed": false,
          "internalType": "uint8",
          "name": "intermediaryFeePercentage",
          "type": "uint8"
        },
        {
          "indexed": false,
          "internalType": "address",
          "name": "listCurrency",
          "type": "address"
        }
      ],
      "name": "ListingCreated",
      "type": "event"
    },
    {
      "anonymous": false,
      "inputs": [
        {
          "indexed": true,
          "internalType": "uint256",
          "name": "listingId",
          "type": "uint256"
        },
        {
          "indexed": true,
          "internalType": "uint256",
          "name": "tokenId",
          "type": "uint256"
        },
        {
          "indexed": true,
          "internalType": "address",
          "name": "tokenContract",
          "type": "address"
        },
        {
          "indexed": false,
          "internalType": "bool",
          "name": "approved",
          "type": "bool"
        },
        {
          "indexed": false,
          "internalType": "uint256",
          "name": "startsAt",
          "type": "uint256"
        }
      ],
      "name": "ListingDropApprovalUpdated",
      "type": "event"
    },
    {
      "anonymous": false,
      "inputs": [
        {
          "indexed": true,
          "internalType": "uint256",
          "name": "listingId",
          "type": "uint256"
        },
        {
          "indexed": true,
          "internalType": "uint256",
          "name": "tokenId",
          "type": "uint256"
        },
        {
          "indexed": true,
          "internalType": "address",
          "name": "tokenContract",
          "type": "address"
        },
        {
          "indexed": false,
          "internalType": "uint256",
          "name": "duration",
          "type": "uint256"
        }
      ],
      "name": "ListingDurationExtended",
      "type": "event"
    },
    {
      "anonymous": false,
      "inputs": [
        {
          "indexed": true,
          "internalType": "uint256",
          "name": "listingId",
          "type": "uint256"
        },
        {
          "indexed": true,
          "internalType": "uint256",
          "name": "tokenId",
          "type": "uint256"
        },
        {
          "indexed": true,
          "internalType": "address",
          "name": "tokenContract",
          "type": "address"
        },
        {
          "indexed": false,
          "internalType": "address",
          "name": "tokenOwner",
          "type": "address"
        },
        {
          "indexed": false,
          "internalType": "address",
          "name": "intermediary",
          "type": "address"
        },
        {
          "indexed": false,
          "internalType": "address",
          "name": "winner",
          "type": "address"
        },
        {
          "indexed": false,
          "internalType": "uint256",
          "name": "amount",
          "type": "uint256"
        },
        {
          "indexed": false,
          "internalType": "uint256",
          "name": "intermediaryFee",
          "type": "uint256"
        },
        {
          "indexed": false,
          "internalType": "address",
          "name": "listCurrency",
          "type": "address"
        }
      ],
      "name": "ListingEnded",
      "type": "event"
    },
    {
      "anonymous": false,
      "inputs": [
        {
          "indexed": true,
          "internalType": "uint256",
          "name": "listingId",
          "type": "uint256"
        },
        {
          "indexed": true,
          "internalType": "uint256",
          "name": "tokenId",
          "type": "uint256"
        },
        {
          "indexed": true,
          "internalType": "address",
          "name": "tokenContract",
          "type": "address"
        },
        {
          "indexed": false,
          "internalType": "uint256",
          "name": "listPrice",
          "type": "uint256"
        }
      ],
      "name": "ListingListPriceUpdated",
      "type": "event"
    },
    {
      "stateMutability": "payable",
      "type": "fallback"
    },
    {
      "inputs": [
        {
          "internalType": "uint256",
          "name": "listingId",
          "type": "uint256"
        }
      ],
      "name": "cancelListing",
      "outputs": [],
      "stateMutability": "nonpayable",
      "type": "function"
    },
    {
      "inputs": [
        {
          "internalType": "uint256",
          "name": "listingId",
          "type": "uint256"
        },
        {
          "internalType": "uint256",
          "name": "amount",
          "type": "uint256"
        }
      ],
      "name": "createBid",
      "outputs": [],
      "stateMutability": "payable",
      "type": "function"
    },
    {
      "inputs": [
        {
          "internalType": "uint256",
          "name": "tokenId",
          "type": "uint256"
        },
        {
          "internalType": "address",
          "name": "tokenContract",
          "type": "address"
        },
        {
          "internalType": "uint256",
          "name": "startsAt",
          "type": "uint256"
        },
        {
          "internalType": "uint256",
          "name": "duration",
          "type": "uint256"
        },
        {
          "internalType": "uint256",
          "name": "listPrice",
          "type": "uint256"
        },
        {
          "internalType": "uint8",
          "name": "listType",
          "type": "uint8"
        },
        {
          "internalType": "address payable",
          "name": "intermediary",
          "type": "address"
        },
        {
          "internalType": "uint8",
          "name": "intermediaryFeePercentage",
          "type": "uint8"
        },
        {
          "internalType": "address",
          "name": "listCurrency",
          "type": "address"
        }
      ],
      "name": "createListing",
      "outputs": [
        {
          "internalType": "uint256",
          "name": "",
          "type": "uint256"
        }
      ],
      "stateMutability": "nonpayable",
      "type": "function"
    },
    {
      "inputs": [
        {
          "internalType": "uint256",
          "name": "listingId",
          "type": "uint256"
        },
        {
          "internalType": "uint256",
          "name": "amount",
          "type": "uint256"
        }
      ],
      "name": "endFixedPriceListing",
      "outputs": [],
      "stateMutability": "payable",
      "type": "function"
    },
    {
      "inputs": [
        {
          "internalType": "uint256",
          "name": "listingId",
          "type": "uint256"
        }
      ],
      "name": "endListing",
      "outputs": [],
      "stateMutability": "nonpayable",
      "type": "function"
    },
    {
      "inputs": [
        {
          "internalType": "uint256",
          "name": "",
          "type": "uint256"
        }
      ],
      "name": "listings",
      "outputs": [
        {
          "internalType": "uint256",
          "name": "tokenId",
          "type": "uint256"
        },
        {
          "internalType": "address",
          "name": "tokenContract",
          "type": "address"
        },
        {
          "internalType": "bool",
          "name": "approved",
          "type": "bool"
        },
        {
          "internalType": "uint256",
          "name": "amount",
          "type": "uint256"
        },
        {
          "internalType": "uint256",
          "name": "startsAt",
          "type": "uint256"
        },
        {
          "internalType": "uint256",
          "name": "duration",
          "type": "uint256"
        },
        {
          "internalType": "uint256",
          "name": "firstBidTime",
          "type": "uint256"
        },
        {
          "internalType": "uint256",
          "name": "listPrice",
          "type": "uint256"
        },
        {
          "internalType": "uint8",
          "name": "listType",
          "type": "uint8"
        },
        {
          "internalType": "uint8",
          "name": "intermediaryFeePercentage",
          "type": "uint8"
        },
        {
          "internalType": "address",
          "name": "tokenOwner",
          "type": "address"
        },
        {
          "internalType": "address payable",
          "name": "bidder",
          "type": "address"
        },
        {
          "internalType": "address payable",
          "name": "intermediary",
          "type": "address"
        },
        {
          "internalType": "address",
          "name": "listCurrency",
          "type": "address"
        }
      ],
      "stateMutability": "view",
      "type": "function"
    },
    {
      "inputs": [],
      "name": "minBidIncrementPercentage",
      "outputs": [
        {
          "internalType": "uint8",
          "name": "",
          "type": "uint8"
        }
      ],
      "stateMutability": "view",
      "type": "function"
    },
    {
      "inputs": [],
      "name": "motif",
      "outputs": [
        {
          "internalType": "address",
          "name": "",
          "type": "address"
        }
      ],
      "stateMutability": "view",
      "type": "function"
    },
    {
      "inputs": [
        {
          "internalType": "uint256",
          "name": "listingId",
          "type": "uint256"
        },
        {
          "internalType": "bool",
          "name": "approved",
          "type": "bool"
        }
      ],
      "name": "setListingApproval",
      "outputs": [],
      "stateMutability": "nonpayable",
      "type": "function"
    },
    {
      "inputs": [
        {
          "internalType": "uint256",
          "name": "listingId",
          "type": "uint256"
        },
        {
          "internalType": "bool",
          "name": "approved",
          "type": "bool"
        },
        {
          "internalType": "uint256",
          "name": "startsAt",
          "type": "uint256"
        }
      ],
      "name": "setListingDropApproval",
      "outputs": [],
      "stateMutability": "nonpayable",
      "type": "function"
    },
    {
      "inputs": [
        {
          "internalType": "uint256",
          "name": "listingId",
          "type": "uint256"
        },
        {
          "internalType": "uint256",
          "name": "listPrice",
          "type": "uint256"
        }
      ],
      "name": "setListingListPrice",
      "outputs": [],
      "stateMutability": "nonpayable",
      "type": "function"
    },
    {
      "inputs": [],
      "name": "timeBuffer",
      "outputs": [
        {
          "internalType": "uint256",
          "name": "",
          "type": "uint256"
        }
      ],
      "stateMutability": "view",
      "type": "function"
    },
    {
      "inputs": [],
      "name": "wmotifAddress",
      "outputs": [
        {
          "internalType": "address",
          "name": "",
          "type": "address"
        }
      ],
      "stateMutability": "view",
      "type": "function"
    },
    {
      "stateMutability": "payable",
      "type": "receive"
    }
  ],
  "bytecode": "0x60806040523480156200001157600080fd5b506040516200371238038062003712833981016040819052620000349162000132565b60016000556040516301ffc9a760e01b8082526001600160a01b038416916301ffc9a791620000669160040162000199565b60206040518083038186803b1580156200007f57600080fd5b505afa15801562000094573d6000803e3d6000fd5b505050506040513d601f19601f82011682018060405250810190620000ba919062000170565b620000e25760405162461bcd60e51b8152600401620000d990620001ae565b60405180910390fd5b60028054600380546001600160a01b039485166001600160a01b03199091161790556104b060015560ff199290931661010002610100600160a81b031990931692909217166005179055620001fe565b6000806040838503121562000145578182fd5b82516200015281620001e5565b60208401519092506200016581620001e5565b809150509250929050565b60006020828403121562000182578081fd5b8151801515811462000192578182fd5b9392505050565b6001600160e01b031991909116815260200190565b6020808252601d908201527f446f65736e277420737570706f7274204e465420696e74657266616365000000604082015260600190565b6001600160a01b0381168114620001fb57600080fd5b50565b613504806200020e6000396000f3fe6080604052600436106100d65760003560e01c8063b7751c711161007f578063e273aece11610059578063e273aece14610226578063e57e10361461023b578063ec91f2a41461024e578063fac2e3d814610263576100dd565b8063b7751c71146101b9578063c89e0985146101cc578063de74e57b146101ec576100dd565b806350a14d73116100b057806350a14d731461014a57806383872bc11461016a578063b296024d14610197576100dd565b806312604245146100df5780631582f801146100ff578063305a67a81461012a576100dd565b366100dd57005b005b3480156100eb57600080fd5b506100dd6100fa3660046127d1565b610283565b34801561010b57600080fd5b50610114610329565b6040516101219190612888565b60405180910390f35b34801561013657600080fd5b506100dd61014536600461270c565b610338565b34801561015657600080fd5b506100dd610165366004612800565b61042a565b34801561017657600080fd5b5061018a61018536600461273c565b6104fd565b6040516101219190613317565b3480156101a357600080fd5b506101ac610ac6565b6040516101219190613471565b6100dd6101c7366004612837565b610acf565b3480156101d857600080fd5b506100dd6101e7366004612837565b611092565b3480156101f857600080fd5b5061020c61020736600461270c565b6111b3565b6040516101219e9d9c9b9a99989796959493929190613320565b34801561023257600080fd5b50610114611239565b6100dd610249366004612837565b61124d565b34801561025a57600080fd5b5061018a611400565b34801561026f57600080fd5b506100dd61027e36600461270c565b611406565b8161028d816114f9565b6102b25760405162461bcd60e51b81526004016102a990612ba9565b60405180910390fd5b6000838152600460205260409020600901546001600160a01b031633146102eb5760405162461bcd60e51b81526004016102a9906129b6565b6000838152600460205260409020600501541561031a5760405162461bcd60e51b81526004016102a990612c17565b610324838361151f565b505050565b6003546001600160a01b031681565b6002600054141561035b5760405162461bcd60e51b81526004016102a990613181565b60026000558061036a816114f9565b6103865760405162461bcd60e51b81526004016102a990612ba9565b6000828152600460205260409020600701546201000090046001600160a01b03163314806103cd57506000828152600460205260409020600901546001600160a01b031633145b6103e95760405162461bcd60e51b81526004016102a990612f68565b600082815260046020526040902060050154156104185760405162461bcd60e51b81526004016102a990612a92565b61042182611596565b50506001600055565b82610434816114f9565b6104505760405162461bcd60e51b81526004016102a990612ba9565b60008481526004602052604090206007015460ff166002146104845760405162461bcd60e51b81526004016102a9906131ef565b6000848152600460205260409020600901546001600160a01b031633146104bd5760405162461bcd60e51b81526004016102a990613226565b600084815260046020526040902060050154156104ec5760405162461bcd60e51b81526004016102a990612e68565b6104f7848484611744565b50505050565b6000600260005414156105225760405162461bcd60e51b81526004016102a990613181565b60026000556040517f01ffc9a7000000000000000000000000000000000000000000000000000000008082526001600160a01b038b16916301ffc9a79161056b91600401612956565b60206040518083038186803b15801561058357600080fd5b505afa158015610597573d6000803e3d6000fd5b505050506040513d601f19601f820116820180604052508101906105bb91906126f0565b6105d75760405162461bcd60e51b81526004016102a99061325d565b60648360ff16106105fa5760405162461bcd60e51b81526004016102a990613059565b6040517f6352211e0000000000000000000000000000000000000000000000000000000081526000906001600160a01b038b1690636352211e90610642908e90600401613317565b60206040518083038186803b15801561065a57600080fd5b505afa15801561066e573d6000803e3d6000fd5b505050506040513d601f19601f8201168201806040525081019061069291906126d4565b6040517f081812fc0000000000000000000000000000000000000000000000000000000081529091506001600160a01b038b169063081812fc906106da908e90600401613317565b60206040518083038186803b1580156106f257600080fd5b505afa158015610706573d6000803e3d6000fd5b505050506040513d601f19601f8201168201806040525081019061072a91906126d4565b6001600160a01b0316336001600160a01b031614806107515750336001600160a01b038216145b61076d5760405162461bcd60e51b81526004016102a9906130b6565b600061077960056117b8565b9050604051806101c001604052808d81526020018c6001600160a01b03168152602001600015158152602001600081526020018b81526020018a8152602001600081526020018981526020018860ff1681526020018660ff168152602001836001600160a01b0316815260200160006001600160a01b03168152602001876001600160a01b03168152602001856001600160a01b0316815250600460008381526020019081526020016000206000820151816000015560208201518160010160006101000a8154816001600160a01b0302191690836001600160a01b0316021790555060408201518160010160146101000a81548160ff021916908315150217905550606082015181600201556080820151816003015560a0820151816004015560c0820151816005015560e082015181600601556101008201518160070160006101000a81548160ff021916908360ff1602179055506101208201518160070160016101000a81548160ff021916908360ff1602179055506101408201518160070160026101000a8154816001600160a01b0302191690836001600160a01b031602179055506101608201518160080160006101000a8154816001600160a01b0302191690836001600160a01b031602179055506101808201518160090160006101000a8154816001600160a01b0302191690836001600160a01b031602179055506101a082015181600a0160006101000a8154816001600160a01b0302191690836001600160a01b031602179055509050508a6001600160a01b03166323b872dd83308f6040518463ffffffff1660e01b81526004016109dd9392919061289c565b600060405180830381600087803b1580156109f757600080fd5b505af1158015610a0b573d6000803e3d6000fd5b50505050610a1960056117bc565b8a6001600160a01b03168c827f804f18cb6eb2eeef9ae4bfec904ef4d2b03d3364418461d62d4919c3a746407a8d8d8d8d898e8e8e604051610a62989796959493929190613429565b60405180910390a46000818152600460205260409020600901546001600160a01b03161580610aa25750816001600160a01b0316866001600160a01b0316145b15610ab257610ab281600161151f565b60016000559b9a5050505050505050505050565b60025460ff1681565b81610ad9816114f9565b610af55760405162461bcd60e51b81526004016102a990612ba9565b60026000541415610b185760405162461bcd60e51b81526004016102a990613181565b6002600090815583815260046020526040902060088101546001909101546001600160a01b0390911690600160a01b900460ff16610b685760405162461bcd60e51b81526004016102a990612d19565b60008481526004602052604090206007015460ff1660011480610b9f575060008481526004602052604090206007015460ff166002145b610bbb5760405162461bcd60e51b81526004016102a990612e9f565b600084815260046020526040902060030154421015610bec5760405162461bcd60e51b81526004016102a990612a5b565b6000848152600460205260409020600501541580610c325750600084815260046020819052604090912090810154600590910154610c2f9163ffffffff6117c516565b42105b610c4e5760405162461bcd60e51b81526004016102a990613113565b600084815260046020526040902060060154831015610c7f5760405162461bcd60e51b81526004016102a990612a24565b60028054600086815260046020526040902090910154610cdd91610cbf91606491610cb3919060ff1663ffffffff6117f316565b9063ffffffff61182d16565b6000868152600460205260409020600201549063ffffffff6117c516565b831015610cfc5760405162461bcd60e51b81526004016102a990612dad565b600260019054906101000a90046001600160a01b03166001600160a01b03166372d273986040518163ffffffff1660e01b8152600401602060405180830381600087803b158015610d4c57600080fd5b505af1158015610d60573d6000803e3d6000fd5b505050506040513d601f19601f82011682018060405250810190610d8491906126d4565b6000858152600460208190526040918290205491517f02e8fe130000000000000000000000000000000000000000000000000000000081526001600160a01b0393909316926302e8fe1392610ddd92909188910161341b565b60206040518083038186803b158015610df557600080fd5b505afa158015610e09573d6000803e3d6000fd5b505050506040513d601f19601f82011682018060405250810190610e2d91906126f0565b610e495760405162461bcd60e51b81526004016102a990612f0b565b600084815260046020526040902060050154610e7957600084815260046020526040902042600590910155610eb5565b6001600160a01b03811615610eb55760008481526004602052604090206002810154600a90910154610eb59183916001600160a01b031661185f565b6000848152600460205260409020600a0154610edb9084906001600160a01b031661199d565b600084815260046020819052604082206002810186905560088101805473ffffffffffffffffffffffffffffffffffffffff19163317905560015491810154600590910154610f41914291610f359163ffffffff6117c516565b9063ffffffff611b8d16565b1015610fb557600085815260046020819052604090912090810154600590910154610f9c90610f8f90610f80904290610f35908663ffffffff6117c516565b6001549063ffffffff611b8d16565b829063ffffffff6117c516565b6000878152600460208190526040909120015550600190505b600085815260046020526040908190206001810154905491516001600160a01b03918216929188917fdf3c258fd5ebb54ac1a83c73feafacc466858d3badc3dda9c4034b0da1da54d9916110139133918b91908a16159089906128c0565b60405180910390a480156110865760008581526004602081905260409182902060018101548154919092015492516001600160a01b0390921692909188917f7c5d8b1980b451e2d8e5887c47bfdb1153d8b8de54ca953d110c9ec926dba3e39161107d9190613317565b60405180910390a45b50506001600055505050565b8161109c816114f9565b6110b85760405162461bcd60e51b81526004016102a990612ba9565b6000838152600460205260409020600901546001600160a01b03163314806110ff57506000838152600460205260409020600701546201000090046001600160a01b031633145b61111b5760405162461bcd60e51b81526004016102a990612aef565b6000838152600460205260409020600501541561114a5760405162461bcd60e51b81526004016102a990612c17565b60008381526004602052604090819020600681018490556001810154905491516001600160a01b03909116919085907f0409843698c80a52d5e9991fdf99f888ac3f2282b93ddd87bbb63df422907e94906111a6908790613317565b60405180910390a4505050565b600460208190526000918252604090912080546001820154600283015460038401549484015460058501546006860154600787015460088801546009890154600a9099015497996001600160a01b038089169a60ff600160a01b909a048a169a98999298858416956101008104909416946201000090940483169383169291821691168e565b60025461010090046001600160a01b031681565b81611257816114f9565b6112735760405162461bcd60e51b81526004016102a990612ba9565b600260005414156112965760405162461bcd60e51b81526004016102a990613181565b600260009081558381526004602052604090206007015460ff166003146112cf5760405162461bcd60e51b81526004016102a990612ed4565b600083815260046020526040902060010154600160a01b900460ff166113075760405162461bcd60e51b81526004016102a990612d19565b60008381526004602052604090206006015482146113375760405162461bcd60e51b81526004016102a9906129ed565b6000838152600460205260409020426005820155600a01546113639083906001600160a01b031661199d565b6000838152600460205260408082206002810185905560088101805473ffffffffffffffffffffffffffffffffffffffff191633908117909155600180830154925493516001600160a01b03939093169488937fdf3c258fd5ebb54ac1a83c73feafacc466858d3badc3dda9c4034b0da1da54d9936113e59390928a926128c0565b60405180910390a46113f683611bb5565b5050600160005550565b60015481565b80611410816114f9565b61142c5760405162461bcd60e51b81526004016102a990612ba9565b6002600054141561144f5760405162461bcd60e51b81526004016102a990613181565b600260009081558281526004602052604090206007015460ff166001148061148b575060008281526004602052604090206007015460ff166002145b6114a75760405162461bcd60e51b81526004016102a990612e9f565b6000828152600460208190526040909120908101546005909101546114d19163ffffffff6117c516565b4210156114f05760405162461bcd60e51b81526004016102a99061314a565b61042182611bb5565b6000908152600460205260409020600701546201000090046001600160a01b0316151590565b6000828152600460205260409081902060018101805460ff60a01b1916600160a01b851515021790819055905491516001600160a01b03909116919084907f301b3a878e4bfbb57bd5babb78545aff93752440eb359d65b3ad34de32d842fc9061158a90869061293b565b60405180910390a45050565b60008181526004602081905260409182902060078101546001820154915493517f42842e0e000000000000000000000000000000000000000000000000000000008152620100009091046001600160a01b03908116949216926342842e0e926116049230928792910161289c565b600060405180830381600087803b15801561161e57600080fd5b505af1158015611632573d6000803e3d6000fd5b505050600083815260046020526040908190206001810154905491516001600160a01b03909116925084907fd5074712d772916d5592447e134f0f148b438068d1cd2559a4b2ab8990c0fba09061168a908690612888565b60405180910390a4506000908152600460208190526040822082815560018101805474ffffffffffffffffffffffffffffffffffffffffff19169055600281018390556003810183905590810182905560058101829055600681019190915560078101805475ffffffffffffffffffffffffffffffffffffffffffff1916905560088101805473ffffffffffffffffffffffffffffffffffffffff1990811690915560098201805482169055600a90910180549091169055565b6000838152600460205260409081902060018101805460ff60a01b1916600160a01b86151502179081905560038201849055905491516001600160a01b03909116919085907f366ba2ff3ae87084a6b770c4ac0371bf0647243b3ab1a7f5c751d29322aa6161906111a69087908790612946565b5490565b80546001019055565b6000828201838110156117ea5760405162461bcd60e51b81526004016102a990612be0565b90505b92915050565b600082611802575060006117ed565b8282028284828161180f57fe5b04146117ea5760405162461bcd60e51b81526004016102a990612e0b565b600080821161184e5760405162461bcd60e51b81526004016102a990612ce2565b81838161185757fe5b049392505050565b6001600160a01b038116611983576003546040517f2e1a7d4d0000000000000000000000000000000000000000000000000000000081526001600160a01b0390911690632e1a7d4d906118b6908590600401613317565b600060405180830381600087803b1580156118d057600080fd5b505af11580156118e4573d6000803e3d6000fd5b505050506118f28383611edf565b61197e57600360009054906101000a90046001600160a01b03166001600160a01b031663d0e30db0836040518263ffffffff1660e01b81526004016000604051808303818588803b15801561194657600080fd5b505af115801561195a573d6000803e3d6000fd5b505060035461197e93506001600160a01b031691508590508463ffffffff611f5616565b610324565b6103246001600160a01b038216848463ffffffff611f5616565b6001600160a01b038116611a38578134146119ca5760405162461bcd60e51b81526004016102a990612b4c565b600360009054906101000a90046001600160a01b03166001600160a01b031663d0e30db0836040518263ffffffff1660e01b81526004016000604051808303818588803b158015611a1a57600080fd5b505af1158015611a2e573d6000803e3d6000fd5b5050505050611b89565b6040516370a0823160e01b815281906000906001600160a01b038316906370a0823190611a69903090600401612888565b60206040518083038186803b158015611a8157600080fd5b505afa158015611a95573d6000803e3d6000fd5b505050506040513d601f19601f82011682018060405250810190611ab99190612724565b9050611ad66001600160a01b03831633308763ffffffff611fd916565b6040516370a0823160e01b81526000906001600160a01b038416906370a0823190611b05903090600401612888565b60206040518083038186803b158015611b1d57600080fd5b505afa158015611b31573d6000803e3d6000fd5b505050506040513d601f19601f82011682018060405250810190611b559190612724565b905080611b68838763ffffffff6117c516565b14611b855760405162461bcd60e51b81526004016102a9906132ba565b5050505b5050565b600082821115611baf5760405162461bcd60e51b81526004016102a990612c4e565b50900390565b600081815260046020526040902060050154611be35760405162461bcd60e51b81526004016102a9906131b8565b600081815260046020526040902060030154421015611c145760405162461bcd60e51b81526004016102a990612d76565b6000818152600460205260408120600a01546001600160a01b031615611c54576000828152600460205260409020600a01546001600160a01b0316611c61565b6003546001600160a01b03165b600083815260046020526040812060020154919250908180611c8286611ffa565b93509150829050600182151514611cdc57600086815260046020526040902060088101546002820154600a90920154611cc9926001600160a01b039283169290911661185f565b611cd286611596565b5050505050611edc565b6000868152600460205260409020600901546001600160a01b031615611d6e57600086815260046020526040902060070154611d2890606490610cb3908690610100900460ff166117f3565b9350611d3a838563ffffffff611b8d16565b60008781526004602052604090206009810154600a90910154919450611d6e916001600160a01b039182169187911661185f565b60008681526004602052604090206007810154600a90910154611da5916001600160a01b036201000090910481169186911661185f565b60008681526004602052604090819020600181015481546007830154600984015460089094015494516001600160a01b039384169592948c947f334843dd102fb480fd982e331134a746cae45483f35aa91db449e96cb90cc5f194611e1f94620100009004821693928216929116908b908d908f906128ea565b60405180910390a45050506000838152600460208190526040822082815560018101805474ffffffffffffffffffffffffffffffffffffffffff19169055600281018390556003810183905590810182905560058101829055600681019190915560078101805475ffffffffffffffffffffffffffffffffffffffffffff1916905560088101805473ffffffffffffffffffffffffffffffffffffffff1990811690915560098201805482169055600a9091018054909116905550505b50565b60408051600080825260208201928390529182916001600160a01b038616918591611f099161286c565b60006040518083038185875af1925050503d8060008114611f46576040519150601f19603f3d011682016040523d82523d6000602084013e611f4b565b606091505b509095945050505050565b6103248363a9059cbb60e01b8484604051602401611f75929190612922565b60408051601f198184030181529190526020810180517bffffffffffffffffffffffffffffffffffffffffffffffffffffffff167fffffffff00000000000000000000000000000000000000000000000000000000909316929092179091526124b9565b6104f7846323b872dd60e01b858585604051602401611f759392919061289c565b6000818152600460205260408120600a0154819081906001600160a01b03161561203e576000848152600460205260409020600a01546001600160a01b031661204b565b6003546001600160a01b03165b9050612055612661565b506040805160a08101825260008681526004602081815284832060028082015486526001600160a01b0380891684880181905230888a01528c875285855260089093015481166060880152875180850189528681526080880152905487517f72d2739800000000000000000000000000000000000000000000000000000000815297519697929663095ea7b396610100909204909216946372d2739894848201949093929083900390910190829087803b15801561211257600080fd5b505af1158015612126573d6000803e3d6000fd5b505050506040513d601f19601f8201168201806040525081019061214a91906126d4565b83516040517fffffffff0000000000000000000000000000000000000000000000000000000060e085901b168152612186929190600401612922565b602060405180830381600087803b1580156121a057600080fd5b505af11580156121b4573d6000803e3d6000fd5b505050506040513d601f19601f820116820180604052508101906121d891906126f0565b506002546000868152600460208190526040918290205491517f5bf624220000000000000000000000000000000000000000000000000000000081526101009093046001600160a01b031692635bf62422926122389290918691016133c8565b600060405180830381600087803b15801561225257600080fd5b505af1158015612266573d6000803e3d6000fd5b50506040516370a0823160e01b8152600092506001600160a01b03851691506370a0823190612299903090600401612888565b60206040518083038186803b1580156122b157600080fd5b505afa1580156122c5573d6000803e3d6000fd5b505050506040513d601f19601f820116820180604052508101906122e99190612724565b6002546000888152600460208190526040918290205491517fba3393990000000000000000000000000000000000000000000000000000000081529394506101009092046001600160a01b03169263ba3393999261234a92918791016133c8565b600060405180830381600087803b15801561236457600080fd5b505af1925050508015612375575060015b612418576002546000878152600460208190526040918290205491517fb320f4590000000000000000000000000000000000000000000000000000000081526101009093046001600160a01b03169263b320f459926123d692909101613317565b600060405180830381600087803b1580156123f057600080fd5b505af1158015612404573d6000803e3d6000fd5b50600097508796506124b495505050505050565b6040516370a0823160e01b81526000906001600160a01b038516906370a0823190612447903090600401612888565b60206040518083038186803b15801561245f57600080fd5b505afa158015612473573d6000803e3d6000fd5b505050506040513d601f19601f820116820180604052508101906124979190612724565b905060016124ab828463ffffffff611b8d16565b95509550505050505b915091565b606061250e826040518060400160405280602081526020017f5361666545524332303a206c6f772d6c6576656c2063616c6c206661696c6564815250856001600160a01b03166125489092919063ffffffff16565b805190915015610324578080602001905181019061252c91906126f0565b6103245760405162461bcd60e51b81526004016102a990612ffc565b60606125578484600085612561565b90505b9392505050565b6060824710156125835760405162461bcd60e51b81526004016102a990612c85565b61258c85612622565b6125a85760405162461bcd60e51b81526004016102a990612fc5565b60006060866001600160a01b031685876040516125c5919061286c565b60006040518083038185875af1925050503d8060008114612602576040519150601f19603f3d011682016040523d82523d6000602084013e612607565b606091505b5091509150612617828286612628565b979650505050505050565b3b151590565b6060831561263757508161255a565b8251156126475782518084602001fd5b8160405162461bcd60e51b81526004016102a99190612983565b6040518060a001604052806000815260200160006001600160a01b0316815260200160006001600160a01b0316815260200160006001600160a01b031681526020016126ab6126b0565b905290565b6040518060200160405280600081525090565b803560ff811681146117ed57600080fd5b6000602082840312156126e5578081fd5b81516117ea816134ab565b600060208284031215612701578081fd5b81516117ea816134c0565b60006020828403121561271d578081fd5b5035919050565b600060208284031215612735578081fd5b5051919050565b60008060008060008060008060006101208a8c03121561275a578485fd5b8935985060208a013561276c816134ab565b975060408a0135965060608a0135955060808a013594506127908b60a08c016126c3565b935060c08a01356127a0816134ab565b92506127af8b60e08c016126c3565b91506101008a01356127c0816134ab565b809150509295985092959850929598565b600080604083850312156127e3578182fd5b8235915060208301356127f5816134c0565b809150509250929050565b600080600060608486031215612814578283fd5b833592506020840135612826816134c0565b929592945050506040919091013590565b60008060408385031215612849578182fd5b50508035926020909101359150565b6001600160a01b03169052565b60ff169052565b6000825161287e81846020870161347f565b9190910192915050565b6001600160a01b0391909116815260200190565b6001600160a01b039384168152919092166020820152604081019190915260600190565b6001600160a01b039490941684526020840192909252151560408301521515606082015260800190565b6001600160a01b039687168152948616602086015292851660408501526060840191909152608083015290911660a082015260c00190565b6001600160a01b03929092168252602082015260400190565b901515815260200190565b9115158252602082015260400190565b7fffffffff0000000000000000000000000000000000000000000000000000000091909116815260200190565b60006020825282518060208401526129a281604085016020870161347f565b601f01601f19169190910160400192915050565b6020808252601c908201527f4d757374206265206c697374696e6720696e7465726d65646961727900000000604082015260600190565b60208082526013908201527f4d7573742073656e64206c697374507269636500000000000000000000000000604082015260600190565b6020808252601c908201527f4d7573742073656e64206174206c65617374206c697374507269636500000000604082015260600190565b60208082526012908201527f4c697374206973206e6f74206163746976650000000000000000000000000000604082015260600190565b60208082526027908201527f43616e27742063616e63656c20616e206c697374696e67206f6e63652069742760408201527f7320626567756e00000000000000000000000000000000000000000000000000606082015260800190565b6020808252602b908201527f4d757374206265206c697374696e6720696e7465726d656469617279206f722060408201527f746f6b656e206f776e6572000000000000000000000000000000000000000000606082015260800190565b60208082526034908201527f53656e74204d4f5449462056616c756520646f6573206e6f74206d617463682060408201527f7370656369666965642062696420616d6f756e74000000000000000000000000606082015260800190565b60208082526015908201527f4c697374696e6720646f65736e27742065786973740000000000000000000000604082015260600190565b6020808252601b908201527f536166654d6174683a206164646974696f6e206f766572666c6f770000000000604082015260600190565b6020808252601b908201527f4c697374696e672068617320616c726561647920737461727465640000000000604082015260600190565b6020808252601e908201527f536166654d6174683a207375627472616374696f6e206f766572666c6f770000604082015260600190565b60208082526026908201527f416464726573733a20696e73756666696369656e742062616c616e636520666f60408201527f722063616c6c0000000000000000000000000000000000000000000000000000606082015260800190565b6020808252601a908201527f536166654d6174683a206469766973696f6e206279207a65726f000000000000604082015260600190565b60208082526028908201527f4c697374696e67206d75737420626520617070726f76656420627920696e746560408201527f726d656469617279000000000000000000000000000000000000000000000000606082015260800190565b60208082526015908201527f4c697374696e67206973206e6f74206163746976650000000000000000000000604082015260600190565b602080825260409082018190527f4d7573742073656e64206d6f7265207468616e206c6173742062696420627920908201527f6d696e426964496e6372656d656e7450657263656e7461676520616d6f756e74606082015260800190565b60208082526021908201527f536166654d6174683a206d756c7469706c69636174696f6e206f766572666c6f60408201527f7700000000000000000000000000000000000000000000000000000000000000606082015260800190565b60208082526018908201527f4c6973742068617320616c726561647920737461727465640000000000000000604082015260600190565b6020808252818101527f4d7573742062652062696464696e67206f722064726f70206c69737454797065604082015260600190565b6020808252601c908201527f4d757374206265206669786564207072696365206c6973745479706500000000604082015260600190565b6020808252603e908201527f436f6e7472616374206973206e6f74206d6f746966207370616365206f72204260408201527f696420696e76616c696420666f722073686172652073706c697474696e670000606082015260800190565b60208082526035908201527f43616e206f6e6c792062652063616c6c6564206279206c697374696e6720637260408201527f6561746f72206f7220696e7465726d6564696172790000000000000000000000606082015260800190565b6020808252601d908201527f416464726573733a2063616c6c20746f206e6f6e2d636f6e7472616374000000604082015260600190565b6020808252602a908201527f5361666545524332303a204552433230206f7065726174696f6e20646964206e60408201527f6f74207375636365656400000000000000000000000000000000000000000000606082015260800190565b6020808252602f908201527f696e7465726d65646961727946656550657263656e74616765206d757374206260408201527f65206c657373207468616e203130300000000000000000000000000000000000606082015260800190565b6020808252602d908201527f43616c6c6572206d75737420626520617070726f766564206f72206f776e657260408201527f20666f7220746f6b656e20696400000000000000000000000000000000000000606082015260800190565b6020808252600f908201527f4c697374696e6720657870697265640000000000000000000000000000000000604082015260600190565b60208082526018908201527f4c697374696e67206861736e277420636f6d706c657465640000000000000000604082015260600190565b6020808252601f908201527f5265656e7472616e637947756172643a207265656e7472616e742063616c6c00604082015260600190565b60208082526014908201527f4c697374696e67206861736e277420626567756e000000000000000000000000604082015260600190565b60208082526015908201527f4d7573742062652064726f70206c697374547970650000000000000000000000604082015260600190565b60208082526019908201527f4d757374206265206c69737420696e7465726d65646961727900000000000000604082015260600190565b6020808252602f908201527f746f6b656e436f6e747261637420646f6573206e6f7420737570706f7274204560408201527f524337323120696e746572666163650000000000000000000000000000000000606082015260800190565b60208082526034908201527f546f6b656e207472616e736665722063616c6c20646964206e6f74207472616e60408201527f7366657220657870656374656420616d6f756e74000000000000000000000000606082015260800190565b90815260200190565b60006101c0820190508f82526001600160a01b038f1660208301528d151560408301528c60608301528b60808301528a60a08301528960c08301528860e083015261336f610100830189612865565b61337d610120830188612865565b61338b610140830187612858565b613399610160830186612858565b6133a7610180830185612858565b6133b56101a0830184612858565b9f9e505050505050505050505050505050565b600060c0820190508382528251602083015260208301516001600160a01b038082166040850152806040860151166060850152806060860151166080850152505060808301515160a08301529392505050565b918252602082015260400190565b9788526020880196909652604087019490945260ff92831660608701526001600160a01b039182166080870152811660a0860152911660c08401521660e08201526101000190565b60ff91909116815260200190565b60005b8381101561349a578181015183820152602001613482565b838111156104f75750506000910152565b6001600160a01b0381168114611edc57600080fd5b8015158114611edc57600080fdfea26469706673582212201e6c2d8b0cfde6c7e9d70960c8e148061c877d55fbb4cf83fd6304304c827c8764736f6c63430006080033",
  "linkReferences": {},
  "deployedLinkReferences": {}
}