{
  "_format": "hh-sol-artifact-1",
  "contractName": "SpaceExchange",
  "sourceName": "contracts/SpaceExchange.sol",
  "abi": [
    {
      "inputs": [],
      "stateMutability": "nonpayable",
      "type": "constructor"
    },
    {
      "anonymous": false,
      "inputs": [
        {
          "indexed": true,
          "internalType": "uint256",
          "name": "tokenId",
          "type": "uint256"
        },
        {
          "components": [
            {
              "internalType": "uint256",
              "name": "amount",
              "type": "uint256"
            },
            {
              "internalType": "address",
              "name": "currency",
              "type": "address"
            }
          ],
          "indexed": false,
          "internalType": "struct ISpaceExchange.Ask",
          "name": "ask",
          "type": "tuple"
        }
      ],
      "name": "AskCreated",
      "type": "event"
    },
    {
      "anonymous": false,
      "inputs": [
        {
          "indexed": true,
          "internalType": "uint256",
          "name": "tokenId",
          "type": "uint256"
        },
        {
          "components": [
            {
              "internalType": "uint256",
              "name": "amount",
              "type": "uint256"
            },
            {
              "internalType": "address",
              "name": "currency",
              "type": "address"
            }
          ],
          "indexed": false,
          "internalType": "struct ISpaceExchange.Ask",
          "name": "ask",
          "type": "tuple"
        }
      ],
      "name": "AskRemoved",
      "type": "event"
    },
    {
      "anonymous": false,
      "inputs": [
        {
          "indexed": true,
          "internalType": "uint256",
          "name": "tokenId",
          "type": "uint256"
        },
        {
          "components": [
            {
              "internalType": "uint256",
              "name": "amount",
              "type": "uint256"
            },
            {
              "internalType": "address",
              "name": "currency",
              "type": "address"
            },
            {
              "internalType": "address",
              "name": "bidder",
              "type": "address"
            },
            {
              "internalType": "address",
              "name": "recipient",
              "type": "address"
            },
            {
              "components": [
                {
                  "internalType": "uint256",
                  "name": "value",
                  "type": "uint256"
                }
              ],
              "internalType": "struct Decimal.D256",
              "name": "sellOnShare",
              "type": "tuple"
            }
          ],
          "indexed": false,
          "internalType": "struct ISpaceExchange.Bid",
          "name": "bid",
          "type": "tuple"
        }
      ],
      "name": "BidCreated",
      "type": "event"
    },
    {
      "anonymous": false,
      "inputs": [
        {
          "indexed": true,
          "internalType": "uint256",
          "name": "tokenId",
          "type": "uint256"
        },
        {
          "components": [
            {
              "internalType": "uint256",
              "name": "amount",
              "type": "uint256"
            },
            {
              "internalType": "address",
              "name": "currency",
              "type": "address"
            },
            {
              "internalType": "address",
              "name": "bidder",
              "type": "address"
            },
            {
              "internalType": "address",
              "name": "recipient",
              "type": "address"
            },
            {
              "components": [
                {
                  "internalType": "uint256",
                  "name": "value",
                  "type": "uint256"
                }
              ],
              "internalType": "struct Decimal.D256",
              "name": "sellOnShare",
              "type": "tuple"
            }
          ],
          "indexed": false,
          "internalType": "struct ISpaceExchange.Bid",
          "name": "bid",
          "type": "tuple"
        }
      ],
      "name": "BidFinalized",
      "type": "event"
    },
    {
      "anonymous": false,
      "inputs": [
        {
          "indexed": true,
          "internalType": "uint256",
          "name": "tokenId",
          "type": "uint256"
        },
        {
          "components": [
            {
              "internalType": "uint256",
              "name": "amount",
              "type": "uint256"
            },
            {
              "internalType": "address",
              "name": "currency",
              "type": "address"
            },
            {
              "internalType": "address",
              "name": "bidder",
              "type": "address"
            },
            {
              "internalType": "address",
              "name": "recipient",
              "type": "address"
            },
            {
              "components": [
                {
                  "internalType": "uint256",
                  "name": "value",
                  "type": "uint256"
                }
              ],
              "internalType": "struct Decimal.D256",
              "name": "sellOnShare",
              "type": "tuple"
            }
          ],
          "indexed": false,
          "internalType": "struct ISpaceExchange.Bid",
          "name": "bid",
          "type": "tuple"
        }
      ],
      "name": "BidRemoved",
      "type": "event"
    },
    {
      "anonymous": false,
      "inputs": [
        {
          "indexed": true,
          "internalType": "uint256",
          "name": "tokenId",
          "type": "uint256"
        },
        {
          "components": [
            {
              "components": [
                {
                  "internalType": "uint256",
                  "name": "value",
                  "type": "uint256"
                }
              ],
              "internalType": "struct Decimal.D256",
              "name": "prevOwner",
              "type": "tuple"
            },
            {
              "components": [
                {
                  "internalType": "uint256",
                  "name": "value",
                  "type": "uint256"
                }
              ],
              "internalType": "struct Decimal.D256",
              "name": "creator",
              "type": "tuple"
            },
            {
              "components": [
                {
                  "internalType": "uint256",
                  "name": "value",
                  "type": "uint256"
                }
              ],
              "internalType": "struct Decimal.D256",
              "name": "owner",
              "type": "tuple"
            }
          ],
          "indexed": false,
          "internalType": "struct ISpaceExchange.BidShares",
          "name": "bidShares",
          "type": "tuple"
        }
      ],
      "name": "BidShareUpdated",
      "type": "event"
    },
    {
      "inputs": [
        {
          "internalType": "uint256",
          "name": "tokenId",
          "type": "uint256"
        },
        {
          "components": [
            {
              "internalType": "uint256",
              "name": "amount",
              "type": "uint256"
            },
            {
              "internalType": "address",
              "name": "currency",
              "type": "address"
            },
            {
              "internalType": "address",
              "name": "bidder",
              "type": "address"
            },
            {
              "internalType": "address",
              "name": "recipient",
              "type": "address"
            },
            {
              "components": [
                {
                  "internalType": "uint256",
                  "name": "value",
                  "type": "uint256"
                }
              ],
              "internalType": "struct Decimal.D256",
              "name": "sellOnShare",
              "type": "tuple"
            }
          ],
          "internalType": "struct ISpaceExchange.Bid",
          "name": "expectedBid",
          "type": "tuple"
        }
      ],
      "name": "acceptBid",
      "outputs": [],
      "stateMutability": "nonpayable",
      "type": "function"
    },
    {
      "inputs": [
        {
          "internalType": "uint256",
          "name": "tokenId",
          "type": "uint256"
        },
        {
          "internalType": "address",
          "name": "bidder",
          "type": "address"
        }
      ],
      "name": "bidForTokenBidder",
      "outputs": [
        {
          "components": [
            {
              "internalType": "uint256",
              "name": "amount",
              "type": "uint256"
            },
            {
              "internalType": "address",
              "name": "currency",
              "type": "address"
            },
            {
              "internalType": "address",
              "name": "bidder",
              "type": "address"
            },
            {
              "internalType": "address",
              "name": "recipient",
              "type": "address"
            },
            {
              "components": [
                {
                  "internalType": "uint256",
                  "name": "value",
                  "type": "uint256"
                }
              ],
              "internalType": "struct Decimal.D256",
              "name": "sellOnShare",
              "type": "tuple"
            }
          ],
          "internalType": "struct ISpaceExchange.Bid",
          "name": "",
          "type": "tuple"
        }
      ],
      "stateMutability": "view",
      "type": "function"
    },
    {
      "inputs": [
        {
          "internalType": "uint256",
          "name": "tokenId",
          "type": "uint256"
        }
      ],
      "name": "bidSharesForToken",
      "outputs": [
        {
          "components": [
            {
              "components": [
                {
                  "internalType": "uint256",
                  "name": "value",
                  "type": "uint256"
                }
              ],
              "internalType": "struct Decimal.D256",
              "name": "prevOwner",
              "type": "tuple"
            },
            {
              "components": [
                {
                  "internalType": "uint256",
                  "name": "value",
                  "type": "uint256"
                }
              ],
              "internalType": "struct Decimal.D256",
              "name": "creator",
              "type": "tuple"
            },
            {
              "components": [
                {
                  "internalType": "uint256",
                  "name": "value",
                  "type": "uint256"
                }
              ],
              "internalType": "struct Decimal.D256",
              "name": "owner",
              "type": "tuple"
            }
          ],
          "internalType": "struct ISpaceExchange.BidShares",
          "name": "",
          "type": "tuple"
        }
      ],
      "stateMutability": "view",
      "type": "function"
    },
    {
      "inputs": [
        {
          "internalType": "address",
          "name": "spaceContractAddress",
          "type": "address"
        }
      ],
      "name": "configure",
      "outputs": [],
      "stateMutability": "nonpayable",
      "type": "function"
    },
    {
      "inputs": [
        {
          "internalType": "uint256",
          "name": "tokenId",
          "type": "uint256"
        }
      ],
      "name": "currentAskForToken",
      "outputs": [
        {
          "components": [
            {
              "internalType": "uint256",
              "name": "amount",
              "type": "uint256"
            },
            {
              "internalType": "address",
              "name": "currency",
              "type": "address"
            }
          ],
          "internalType": "struct ISpaceExchange.Ask",
          "name": "",
          "type": "tuple"
        }
      ],
      "stateMutability": "view",
      "type": "function"
    },
    {
      "inputs": [
        {
          "internalType": "uint256",
          "name": "tokenId",
          "type": "uint256"
        },
        {
          "internalType": "uint256",
          "name": "bidAmount",
          "type": "uint256"
        }
      ],
      "name": "isValidBid",
      "outputs": [
        {
          "internalType": "bool",
          "name": "",
          "type": "bool"
        }
      ],
      "stateMutability": "view",
      "type": "function"
    },
    {
      "inputs": [
        {
          "components": [
            {
              "components": [
                {
                  "internalType": "uint256",
                  "name": "value",
                  "type": "uint256"
                }
              ],
              "internalType": "struct Decimal.D256",
              "name": "prevOwner",
              "type": "tuple"
            },
            {
              "components": [
                {
                  "internalType": "uint256",
                  "name": "value",
                  "type": "uint256"
                }
              ],
              "internalType": "struct Decimal.D256",
              "name": "creator",
              "type": "tuple"
            },
            {
              "components": [
                {
                  "internalType": "uint256",
                  "name": "value",
                  "type": "uint256"
                }
              ],
              "internalType": "struct Decimal.D256",
              "name": "owner",
              "type": "tuple"
            }
          ],
          "internalType": "struct ISpaceExchange.BidShares",
          "name": "bidShares",
          "type": "tuple"
        }
      ],
      "name": "isValidBidShares",
      "outputs": [
        {
          "internalType": "bool",
          "name": "",
          "type": "bool"
        }
      ],
      "stateMutability": "pure",
      "type": "function"
    },
    {
      "inputs": [
        {
          "internalType": "uint256",
          "name": "tokenId",
          "type": "uint256"
        }
      ],
      "name": "removeAsk",
      "outputs": [],
      "stateMutability": "nonpayable",
      "type": "function"
    },
    {
      "inputs": [
        {
          "internalType": "uint256",
          "name": "tokenId",
          "type": "uint256"
        },
        {
          "internalType": "address",
          "name": "bidder",
          "type": "address"
        }
      ],
      "name": "removeBid",
      "outputs": [],
      "stateMutability": "nonpayable",
      "type": "function"
    },
    {
      "inputs": [
        {
          "internalType": "uint256",
          "name": "tokenId",
          "type": "uint256"
        },
        {
          "components": [
            {
              "internalType": "uint256",
              "name": "amount",
              "type": "uint256"
            },
            {
              "internalType": "address",
              "name": "currency",
              "type": "address"
            }
          ],
          "internalType": "struct ISpaceExchange.Ask",
          "name": "ask",
          "type": "tuple"
        }
      ],
      "name": "setAsk",
      "outputs": [],
      "stateMutability": "nonpayable",
      "type": "function"
    },
    {
      "inputs": [
        {
          "internalType": "uint256",
          "name": "tokenId",
          "type": "uint256"
        },
        {
          "components": [
            {
              "internalType": "uint256",
              "name": "amount",
              "type": "uint256"
            },
            {
              "internalType": "address",
              "name": "currency",
              "type": "address"
            },
            {
              "internalType": "address",
              "name": "bidder",
              "type": "address"
            },
            {
              "internalType": "address",
              "name": "recipient",
              "type": "address"
            },
            {
              "components": [
                {
                  "internalType": "uint256",
                  "name": "value",
                  "type": "uint256"
                }
              ],
              "internalType": "struct Decimal.D256",
              "name": "sellOnShare",
              "type": "tuple"
            }
          ],
          "internalType": "struct ISpaceExchange.Bid",
          "name": "bid",
          "type": "tuple"
        },
        {
          "internalType": "address",
          "name": "spender",
          "type": "address"
        }
      ],
      "name": "setBid",
      "outputs": [],
      "stateMutability": "nonpayable",
      "type": "function"
    },
    {
      "inputs": [
        {
          "internalType": "uint256",
          "name": "tokenId",
          "type": "uint256"
        },
        {
          "components": [
            {
              "components": [
                {
                  "internalType": "uint256",
                  "name": "value",
                  "type": "uint256"
                }
              ],
              "internalType": "struct Decimal.D256",
              "name": "prevOwner",
              "type": "tuple"
            },
            {
              "components": [
                {
                  "internalType": "uint256",
                  "name": "value",
                  "type": "uint256"
                }
              ],
              "internalType": "struct Decimal.D256",
              "name": "creator",
              "type": "tuple"
            },
            {
              "components": [
                {
                  "internalType": "uint256",
                  "name": "value",
                  "type": "uint256"
                }
              ],
              "internalType": "struct Decimal.D256",
              "name": "owner",
              "type": "tuple"
            }
          ],
          "internalType": "struct ISpaceExchange.BidShares",
          "name": "bidShares",
          "type": "tuple"
        }
      ],
      "name": "setBidShares",
      "outputs": [],
      "stateMutability": "nonpayable",
      "type": "function"
    },
    {
      "inputs": [],
      "name": "spaceContract",
      "outputs": [
        {
          "internalType": "address",
          "name": "",
          "type": "address"
        }
      ],
      "stateMutability": "view",
      "type": "function"
    },
    {
      "inputs": [
        {
          "components": [
            {
              "internalType": "uint256",
              "name": "value",
              "type": "uint256"
            }
          ],
          "internalType": "struct Decimal.D256",
          "name": "sharePercentage",
          "type": "tuple"
        },
        {
          "internalType": "uint256",
          "name": "amount",
          "type": "uint256"
        }
      ],
      "name": "splitShare",
      "outputs": [
        {
          "internalType": "uint256",
          "name": "",
          "type": "uint256"
        }
      ],
      "stateMutability": "pure",
      "type": "function"
    }
  ],
  "bytecode": "0x608060405234801561001057600080fd5b50600180546001600160a01b031916331790556122bf806100326000396000f3fe608060405234801561001057600080fd5b50600436106100ea5760003560e01c8063776a08351161008c578063ba33939911610066578063ba339399146101ee578063bdb5869814610201578063eb55683a14610214578063f9ce058214610227576100ea565b8063776a08351461019b578063ad827dc4146101ae578063b920c123146101ce576100ea565b8063578064f6116100c8578063578064f61461014057806362f24b701461016057806373250c131461017357806375cb267214610188576100ea565b806302e8fe13146100ef57806328220f3514610118578063360636eb1461012d575b600080fd5b6101026100fd366004611914565b610247565b60405161010f91906119a2565b60405180910390f35b61012b610126366004611759565b6102dd565b005b61010261013b366004611714565b610375565b61015361014e366004611759565b6103bb565b60405161010f91906120f0565b61012b61016e3660046117b8565b6103f6565b61017b6104c2565b60405161010f9190611951565b61012b6101963660046116bc565b6104d1565b61012b6101a9366004611789565b61056c565b6101c16101bc366004611789565b610692565b60405161010f9190612171565b6101e16101dc36600461172f565b610708565b60405161010f91906121fe565b61012b6101fc36600461183c565b61072c565b61012b61020f366004611872565b6108d7565b61012b610222366004611810565b610d29565b61023a610235366004611759565b610dd4565b60405161010f919061212e565b60006102516115a2565b61025a84610dd4565b905061026581610375565b61028a5760405162461bcd60e51b8152600401610281906119e0565b60405180910390fd5b82158015906102d357506102d06102a5826040015185610708565b6102c46102b6846000015187610708565b6102c4856020015188610708565b9063ffffffff610e2a16565b83145b9150505b92915050565b6000546001600160a01b031633146103075760405162461bcd60e51b815260040161028190612093565b807fbf58f6d6c7d7c6efc69e7444efa93ed26d7cdc0e82e12a37df96f36a367561df600460008481526020019081526020016000206040516103499190612110565b60405180910390a2600090815260046020526040812090815560010180546001600160a01b0319169055565b60006103906064670de0b6b3a764000063ffffffff610e4f16565b8251516040840151516020850151516103b492916102c4919063ffffffff610e2a16565b1492915050565b6103c36115d4565b50600090815260046020908152604091829020825180840190935280548352600101546001600160a01b03169082015290565b6000546001600160a01b031633146104205760405162461bcd60e51b815260040161028190612093565b61042e828260000151610247565b61044a5760405162461bcd60e51b815260040161028190611e2e565b6000828152600460209081526040918290208351815590830151600190910180546001600160a01b0319166001600160a01b039092169190911790555182907ff7347cb9e91d8cbe995b51920ba5f92cbf84a9e09cbed3cd7a739fef4d1d07cf906104b69084906120f0565b60405180910390a25050565b6000546001600160a01b031681565b6001546001600160a01b031633146104fb5760405162461bcd60e51b815260040161028190611df7565b6000546001600160a01b0316156105245760405162461bcd60e51b815260040161028190611be1565b6001600160a01b03811661054a5760405162461bcd60e51b815260040161028190611d3d565b600080546001600160a01b0319166001600160a01b0392909216919091179055565b6000546001600160a01b031633146105965760405162461bcd60e51b815260040161028190612093565b60008281526002602090815260408083206001600160a01b0380861685529252909120805460018201549192909116816105e25760405162461bcd60e51b815260040161028190612036565b6000819050857fcbebd567b8a5c57f63ec61dc46746aab28daff6bdd1f4a6a0a305c17fa5465c98560405161061791906121bd565b60405180910390a260008681526002602081815260408084206001600160a01b03808b168652925283208381556001810180546001600160a01b031990811690915592810180548416905560038101805490931690925560049091019190915561068a908216868563ffffffff610e8916565b505050505050565b61069a6115eb565b5060009182526002602081815260408085206001600160a01b039485168652825293849020845160a081018652815481526001820154851681840152928101548416838601526003810154909316606083015283519081019093526004909101548252608081019190915290565b600061072560646107198486610f0c565b9063ffffffff610f2516565b9392505050565b6000546001600160a01b031633146107565760405162461bcd60e51b815260040161028190612093565b61075e6115eb565b600083815260026020526040808220919061077f90606086019086016116bc565b6001600160a01b0390811682526020808301939093526040918201600020825160a08101845281548152600182015483168186015260028201548316818501526003820154909216606083015282519384019092526004909101548252608081019190915280519091506108055760405162461bcd60e51b815260040161028190611cf8565b8051823514801561083a575061082160408301602084016116bc565b6001600160a01b031681602001516001600160a01b0316145b801561084e57506080818101515190830135145b801561087e575061086560808301606084016116bc565b6001600160a01b031681606001516001600160a01b0316145b61089a5760405162461bcd60e51b815260040161028190611d9a565b6108a8838260000151610247565b6108c45760405162461bcd60e51b815260040161028190611a3d565b6108d2838260400151610f57565b505050565b6000546001600160a01b031633146109015760405162461bcd60e51b815260040161028190612093565b6109096115a2565b50600083815260036020908152604091829020825160808101845281546060820190815281528351808401855260018301548152818401528351928301845260029091015482529182015261096d6064670de0b6b3a764000063ffffffff610e4f16565b6080840151516020830151516109889163ffffffff610e2a16565b11156109a65760405162461bcd60e51b815260040161028190611e8b565b60408301516001600160a01b03166109d05760405162461bcd60e51b815260040161028190611fd9565b82516109ee5760405162461bcd60e51b815260040161028190611b3f565b60208301516001600160a01b0316610a185760405162461bcd60e51b815260040161028190611b84565b60608301516001600160a01b0316610a425760405162461bcd60e51b815260040161028190611c3e565b6000848152600260209081526040808320868201516001600160a01b031684529091529020805415610a7c57610a7c85856040015161056c565b60208401516040516370a0823160e01b81526000906001600160a01b038316906370a0823190610ab0903090600401611951565b60206040518083038186803b158015610ac857600080fd5b505afa158015610adc573d6000803e3d6000fd5b505050506040513d601f19601f82011682018060405250810190610b009190611771565b8651909150610b23906001600160a01b038416908790309063ffffffff6113bd16565b6040516370a0823160e01b81526000906001600160a01b038416906370a0823190610b52903090600401611951565b60206040518083038186803b158015610b6a57600080fd5b505afa158015610b7e573d6000803e3d6000fd5b505050506040513d601f19601f82011682018060405250810190610ba29190611771565b90506040518060a00160405280610bc284846113e490919063ffffffff16565b81526020898101516001600160a01b03908116828401526040808c0180518316828601526060808e01518416818701526080808f01519681019690965260008f8152600280875284822093518616825292865283902087518155948701516001860180549186166001600160a01b031992831617905587840151928601805493861693821693909317909255860151600385018054919094169116179091559290910151516004909101555188907f327bc9021bfbee403a11b13dd6c819999006aff090cc129f07e9f2840af38dd590610c9d908a90612171565b60405180910390a26000888152600460205260409020600101546001600160a01b031615801590610cf15750600088815260046020908152604090912060010154908801516001600160a01b039081169116145b8015610d0c5750600088815260046020526040902054875110155b15610d1f57610d1f888860400151610f57565b5050505050505050565b6000546001600160a01b03163314610d535760405162461bcd60e51b815260040161028190612093565b610d5c81610375565b610d785760405162461bcd60e51b815260040161028190611f1f565b60008281526003602090815260409182902083515181559083015151600182015581830151516002909101555182907fdb88d4e96cb8697aaee5e575ee5f460817709a1dfcfbf7ba15192e90b5c86f9f906104b690849061212e565b610ddc6115a2565b50600090815260036020908152604091829020825160808101845281546060820190815281528351808401855260018301548152818401528351928301845260029091015482529182015290565b6000828201838110156107255760405162461bcd60e51b815260040161028190611a9a565b600082610e5e575060006102d7565b82820282848281610e6b57fe5b04146107255760405162461bcd60e51b815260040161028190611c9b565b6108d28363a9059cbb60e01b8484604051602401610ea8929190611989565b60408051601f198184030181529190526020810180517bffffffffffffffffffffffffffffffffffffffffffffffffffffffff167fffffffff000000000000000000000000000000000000000000000000000000009093169290921790915261140c565b8051600090610725908490670de0b6b3a764000061149b565b6000808211610f465760405162461bcd60e51b815260040161028190611b08565b818381610f4f57fe5b049392505050565b610f5f6115eb565b5060008281526002602081815260408084206001600160a01b038087168652908352818520825160a0810184528154815260018201548316818601908152958201548316818501526003808301548416606083015284518087018652600493840154815260808301528988529094528286209451955492517f6352211e00000000000000000000000000000000000000000000000000000000815293959361109c9390921691636352211e91611017918a91016121fe565b60206040518083038186803b15801561102f57600080fd5b505afa158015611043573d6000803e3d6000fd5b505050506040513d601f19601f8201168201806040525081019061106791906116d8565b60408051602081019091526002850154815285516110859190610708565b6001600160a01b038416919063ffffffff610e8916565b6000546040517fe0fd045f000000000000000000000000000000000000000000000000000000008152611155916001600160a01b03169063e0fd045f906110e79089906004016121fe565b60206040518083038186803b1580156110ff57600080fd5b505afa158015611113573d6000803e3d6000fd5b505050506040513d601f19601f8201168201806040525081019061113791906116d8565b60408051602081019091526001850154815285516110859190610708565b6000546040517f9d8e726000000000000000000000000000000000000000000000000000000000815261120b916001600160a01b031690639d8e7260906111a09089906004016121fe565b60206040518083038186803b1580156111b857600080fd5b505afa1580156111cc573d6000803e3d6000fd5b505050506040513d601f19601f820116820180604052508101906111f091906116d8565b60408051602081019091528454815285516110859190610708565b60005460608401516040517f32f44aa90000000000000000000000000000000000000000000000000000000081526001600160a01b03909216916332f44aa99161125a91899190600401612207565b600060405180830381600087803b15801561127457600080fd5b505af1158015611288573d6000803e3d6000fd5b5050604080516020808201835260808801515160008b81526003909252929020600101549093508392506112de91906112d290816064670de0b6b3a764000063ffffffff610e4f16565b9063ffffffff6113e416565b90525160028084019190915560808401515183556000868152602082815260408083206001600160a01b03891684529091528082208281556001810180546001600160a01b03199081169091559381018054851690556003810180549094169093556004909201555185907fdb88d4e96cb8697aaee5e575ee5f460817709a1dfcfbf7ba15192e90b5c86f9f90611376908590612152565b60405180910390a2847fb6ef177c7a6f32b283a49b5e0463a39240cdaa278028dfb219480d050e8ee54c846040516113ae9190612171565b60405180910390a25050505050565b6113de846323b872dd60e01b858585604051602401610ea893929190611965565b50505050565b6000828211156114065760405162461bcd60e51b815260040161028190611ad1565b50900390565b6060611461826040518060400160405280602081526020017f5361666545524332303a206c6f772d6c6576656c2063616c6c206661696c6564815250856001600160a01b03166114b99092919063ffffffff16565b8051909150156108d2578080602001905181019061147f91906116f4565b6108d25760405162461bcd60e51b815260040161028190611f7c565b60006114b182610719868663ffffffff610e4f16565b949350505050565b60606114b18484600085856114cd85611563565b6114e95760405162461bcd60e51b815260040161028190611ee8565b60006060866001600160a01b031685876040516115069190611935565b60006040518083038185875af1925050503d8060008114611543576040519150601f19603f3d011682016040523d82523d6000602084013e611548565b606091505b5091509150611558828286611569565b979650505050505050565b3b151590565b60608315611578575081610725565b8251156115885782518084602001fd5b8160405162461bcd60e51b815260040161028191906119ad565b60405180606001604052806115b5611631565b81526020016115c2611631565b81526020016115cf611631565b905290565b604080518082019091526000808252602082015290565b6040518060a001604052806000815260200160006001600160a01b0316815260200160006001600160a01b0316815260200160006001600160a01b031681526020016115cf5b6040518060200160405280600081525090565b600060608284031215611655578081fd5b61165f606061221e565b905061166b8383611697565b815261167a8360208401611697565b602082015261168c8360408401611697565b604082015292915050565b6000602082840312156116a8578081fd5b6116b2602061221e565b9135825250919050565b6000602082840312156116cd578081fd5b813561072581612271565b6000602082840312156116e9578081fd5b815161072581612271565b600060208284031215611705578081fd5b81518015158114610725578182fd5b600060608284031215611725578081fd5b6107258383611644565b60008060408385031215611741578081fd5b61174b8484611697565b946020939093013593505050565b60006020828403121561176a578081fd5b5035919050565b600060208284031215611782578081fd5b5051919050565b6000806040838503121561179b578182fd5b8235915060208301356117ad81612271565b809150509250929050565b60008082840360608112156117cb578283fd5b833592506040601f19820112156117e0578182fd5b506117eb604061221e565b60208401358152604084013561180081612271565b6020820152919491935090915050565b60008060808385031215611822578182fd5b823591506118338460208501611644565b90509250929050565b60008082840360c081121561184f578283fd5b8335925060a0601f1982011215611864578182fd5b506020830190509250929050565b600080600083850360e0811215611887578182fd5b8435935060a0601f198201121561189c578182fd5b506118a760a061221e565b6020850135815260408501356118bc81612271565b602082015260608501356118cf81612271565b604082015260808501356118e281612271565b60608201526118f48660a08701611697565b6080820152915060c084013561190981612271565b809150509250925092565b60008060408385031215611926578182fd5b50508035926020909101359150565b60008251611947818460208701612245565b9190910192915050565b6001600160a01b0391909116815260200190565b6001600160a01b039384168152919092166020820152604081019190915260600190565b6001600160a01b03929092168252602082015260400190565b901515815260200190565b60006020825282518060208401526119cc816040850160208701612245565b601f01601f19169190910160400192915050565b6020808252602b908201527f537061636545786368616e67653a20496e76616c69642062696420736861726560408201527f7320666f7220746f6b656e000000000000000000000000000000000000000000606082015260800190565b6020808252602e908201527f537061636545786368616e67653a2042696420696e76616c696420666f72207360408201527f686172652073706c697474696e67000000000000000000000000000000000000606082015260800190565b6020808252601b908201527f536166654d6174683a206164646974696f6e206f766572666c6f770000000000604082015260600190565b6020808252601e908201527f536166654d6174683a207375627472616374696f6e206f766572666c6f770000604082015260600190565b6020808252601a908201527f536166654d6174683a206469766973696f6e206279207a65726f000000000000604082015260600190565b60208082526025908201527f537061636545786368616e67653a2063616e6e6f742062696420616d6f756e746040820152640206f6620360dc1b606082015260800190565b6020808252602f908201527f537061636545786368616e67653a206269642063757272656e63792063616e6e60408201527f6f74206265203020616464726573730000000000000000000000000000000000606082015260800190565b60208082526021908201527f537061636545786368616e67653a20416c726561647920636f6e66696775726560408201527f6400000000000000000000000000000000000000000000000000000000000000606082015260800190565b60208082526030908201527f537061636545786368616e67653a2062696420726563697069656e742063616e60408201527f6e6f742062652030206164647265737300000000000000000000000000000000606082015260800190565b60208082526021908201527f536166654d6174683a206d756c7469706c69636174696f6e206f766572666c6f60408201527f7700000000000000000000000000000000000000000000000000000000000000606082015260800190565b60208082526025908201527f537061636545786368616e67653a2063616e6e6f7420616363657074206269646040820152640206f6620360dc1b606082015260800190565b60208082526038908201527f537061636545786368616e67653a2063616e6e6f74207365742073706163652060408201527f636f6e7472616374206173207a65726f20616464726573730000000000000000606082015260800190565b60208082526024908201527f537061636545786368616e67653a20556e65787065637465642062696420666f60408201527f756e642e00000000000000000000000000000000000000000000000000000000606082015260800190565b60208082526019908201527f537061636545786368616e67653a204f6e6c79206f776e657200000000000000604082015260600190565b6020808252602e908201527f537061636545786368616e67653a2041736b20696e76616c696420666f72207360408201527f686172652073706c697474696e67000000000000000000000000000000000000606082015260800190565b60208082526036908201527f537061636545786368616e67653a2053656c6c206f6e2066656520696e76616c60408201527f696420666f722073686172652073706c697474696e6700000000000000000000606082015260800190565b6020808252601d908201527f416464726573733a2063616c6c20746f206e6f6e2d636f6e7472616374000000604082015260600190565b60208082526032908201527f537061636545786368616e67653a20496e76616c69642062696420736861726560408201527f732c206d7573742073756d20746f203130300000000000000000000000000000606082015260800190565b6020808252602a908201527f5361666545524332303a204552433230206f7065726174696f6e20646964206e60408201527f6f74207375636365656400000000000000000000000000000000000000000000606082015260800190565b60208082526029908201527f537061636545786368616e67653a206269646465722063616e6e6f742062652060408201527f3020616464726573730000000000000000000000000000000000000000000000606082015260800190565b6020808252602c908201527f537061636545786368616e67653a2063616e6e6f742072656d6f76652062696460408201527f20616d6f756e74206f6620300000000000000000000000000000000000000000606082015260800190565b60208082526022908201527f537061636545786368616e67653a204f6e6c7920737061636520636f6e74726160408201527f6374000000000000000000000000000000000000000000000000000000000000606082015260800190565b815181526020918201516001600160a01b03169181019190915260400190565b815481526001909101546001600160a01b0316602082015260400190565b81515181526020808301515190820152604091820151519181019190915260600190565b8154815260018201546020820152600290910154604082015260600190565b600060a0820190508251825260208301516001600160a01b0380821660208501528060408601511660408501528060608601511660608501525050608083015151608083015292915050565b8154815260018201546001600160a01b0390811660208301526002830154811660408301526003830154166060820152600490910154608082015260a00190565b90815260200190565b9182526001600160a01b0316602082015260400190565b60405181810167ffffffffffffffff8111828210171561223d57600080fd5b604052919050565b60005b83811015612260578181015183820152602001612248565b838111156113de5750506000910152565b6001600160a01b038116811461228657600080fd5b5056fea26469706673582212206c2edc0d4c323d11fa5fe3c505e4c2ea51f410c30484e9039c28551f93c10cd864736f6c63430006080033",
  "linkReferences": {},
  "deployedLinkReferences": {}
}