{
  "_format": "hh-sol-artifact-1",
  "contractName": "SpaceListing",
  "sourceName": "contracts/SpaceListing.sol",
  "abi": [
    {
      "inputs": [
        {
          "internalType": "address",
          "name": "_motif",
          "type": "address"
        },
        {
          "internalType": "address",
          "name": "_wmotif",
          "type": "address"
        }
      ],
      "stateMutability": "nonpayable",
      "type": "constructor"
    },
    {
      "anonymous": false,
      "inputs": [
        {
          "indexed": true,
          "internalType": "uint256",
          "name": "listingId",
          "type": "uint256"
        },
        {
          "indexed": true,
          "internalType": "uint256",
          "name": "tokenId",
          "type": "uint256"
        },
        {
          "indexed": true,
          "internalType": "address",
          "name": "tokenContract",
          "type": "address"
        },
        {
          "indexed": false,
          "internalType": "bool",
          "name": "approved",
          "type": "bool"
        }
      ],
      "name": "ListingApprovalUpdated",
      "type": "event"
    },
    {
      "anonymous": false,
      "inputs": [
        {
          "indexed": true,
          "internalType": "uint256",
          "name": "listingId",
          "type": "uint256"
        },
        {
          "indexed": true,
          "internalType": "uint256",
          "name": "tokenId",
          "type": "uint256"
        },
        {
          "indexed": true,
          "internalType": "address",
          "name": "tokenContract",
          "type": "address"
        },
        {
          "indexed": false,
          "internalType": "address",
          "name": "sender",
          "type": "address"
        },
        {
          "indexed": false,
          "internalType": "uint256",
          "name": "value",
          "type": "uint256"
        },
        {
          "indexed": false,
          "internalType": "bool",
          "name": "firstBid",
          "type": "bool"
        },
        {
          "indexed": false,
          "internalType": "bool",
          "name": "extended",
          "type": "bool"
        }
      ],
      "name": "ListingBid",
      "type": "event"
    },
    {
      "anonymous": false,
      "inputs": [
        {
          "indexed": true,
          "internalType": "uint256",
          "name": "listingId",
          "type": "uint256"
        },
        {
          "indexed": true,
          "internalType": "uint256",
          "name": "tokenId",
          "type": "uint256"
        },
        {
          "indexed": true,
          "internalType": "address",
          "name": "tokenContract",
          "type": "address"
        },
        {
          "indexed": false,
          "internalType": "address",
          "name": "tokenOwner",
          "type": "address"
        }
      ],
      "name": "ListingCanceled",
      "type": "event"
    },
    {
      "anonymous": false,
      "inputs": [
        {
          "indexed": true,
          "internalType": "uint256",
          "name": "listingId",
          "type": "uint256"
        },
        {
          "indexed": true,
          "internalType": "uint256",
          "name": "tokenId",
          "type": "uint256"
        },
        {
          "indexed": true,
          "internalType": "address",
          "name": "tokenContract",
          "type": "address"
        },
        {
          "indexed": false,
          "internalType": "uint256",
          "name": "startsAt",
          "type": "uint256"
        },
        {
          "indexed": false,
          "internalType": "uint256",
          "name": "duration",
          "type": "uint256"
        },
        {
          "indexed": false,
          "internalType": "uint256",
          "name": "listPrice",
          "type": "uint256"
        },
        {
          "indexed": false,
          "internalType": "uint8",
          "name": "listType",
          "type": "uint8"
        },
        {
          "indexed": false,
          "internalType": "address",
          "name": "tokenOwner",
          "type": "address"
        },
        {
          "indexed": false,
          "internalType": "address",
          "name": "intermediary",
          "type": "address"
        },
        {
          "indexed": false,
          "internalType": "uint8",
          "name": "intermediaryFeePercentage",
          "type": "uint8"
        },
        {
          "indexed": false,
          "internalType": "address",
          "name": "listCurrency",
          "type": "address"
        }
      ],
      "name": "ListingCreated",
      "type": "event"
    },
    {
      "anonymous": false,
      "inputs": [
        {
          "indexed": true,
          "internalType": "uint256",
          "name": "listingId",
          "type": "uint256"
        },
        {
          "indexed": true,
          "internalType": "uint256",
          "name": "tokenId",
          "type": "uint256"
        },
        {
          "indexed": true,
          "internalType": "address",
          "name": "tokenContract",
          "type": "address"
        },
        {
          "indexed": false,
          "internalType": "bool",
          "name": "approved",
          "type": "bool"
        },
        {
          "indexed": false,
          "internalType": "uint256",
          "name": "startsAt",
          "type": "uint256"
        }
      ],
      "name": "ListingDropApprovalUpdated",
      "type": "event"
    },
    {
      "anonymous": false,
      "inputs": [
        {
          "indexed": true,
          "internalType": "uint256",
          "name": "listingId",
          "type": "uint256"
        },
        {
          "indexed": true,
          "internalType": "uint256",
          "name": "tokenId",
          "type": "uint256"
        },
        {
          "indexed": true,
          "internalType": "address",
          "name": "tokenContract",
          "type": "address"
        },
        {
          "indexed": false,
          "internalType": "uint256",
          "name": "duration",
          "type": "uint256"
        }
      ],
      "name": "ListingDurationExtended",
      "type": "event"
    },
    {
      "anonymous": false,
      "inputs": [
        {
          "indexed": true,
          "internalType": "uint256",
          "name": "listingId",
          "type": "uint256"
        },
        {
          "indexed": true,
          "internalType": "uint256",
          "name": "tokenId",
          "type": "uint256"
        },
        {
          "indexed": true,
          "internalType": "address",
          "name": "tokenContract",
          "type": "address"
        },
        {
          "indexed": false,
          "internalType": "address",
          "name": "tokenOwner",
          "type": "address"
        },
        {
          "indexed": false,
          "internalType": "address",
          "name": "intermediary",
          "type": "address"
        },
        {
          "indexed": false,
          "internalType": "address",
          "name": "winner",
          "type": "address"
        },
        {
          "indexed": false,
          "internalType": "uint256",
          "name": "amount",
          "type": "uint256"
        },
        {
          "indexed": false,
          "internalType": "uint256",
          "name": "intermediaryFee",
          "type": "uint256"
        },
        {
          "indexed": false,
          "internalType": "address",
          "name": "listCurrency",
          "type": "address"
        }
      ],
      "name": "ListingEnded",
      "type": "event"
    },
    {
      "anonymous": false,
      "inputs": [
        {
          "indexed": true,
          "internalType": "uint256",
          "name": "listingId",
          "type": "uint256"
        },
        {
          "indexed": true,
          "internalType": "uint256",
          "name": "tokenId",
          "type": "uint256"
        },
        {
          "indexed": true,
          "internalType": "address",
          "name": "tokenContract",
          "type": "address"
        },
        {
          "indexed": false,
          "internalType": "uint256",
          "name": "listPrice",
          "type": "uint256"
        }
      ],
      "name": "ListingListPriceUpdated",
      "type": "event"
    },
    {
      "stateMutability": "payable",
      "type": "fallback"
    },
    {
      "inputs": [
        {
          "internalType": "uint256",
          "name": "listingId",
          "type": "uint256"
        }
      ],
      "name": "cancelListing",
      "outputs": [],
      "stateMutability": "nonpayable",
      "type": "function"
    },
    {
      "inputs": [
        {
          "internalType": "uint256",
          "name": "listingId",
          "type": "uint256"
        },
        {
          "internalType": "uint256",
          "name": "amount",
          "type": "uint256"
        }
      ],
      "name": "createBid",
      "outputs": [],
      "stateMutability": "payable",
      "type": "function"
    },
    {
      "inputs": [
        {
          "internalType": "uint256",
          "name": "tokenId",
          "type": "uint256"
        },
        {
          "internalType": "address",
          "name": "tokenContract",
          "type": "address"
        },
        {
          "internalType": "uint256",
          "name": "startsAt",
          "type": "uint256"
        },
        {
          "internalType": "uint256",
          "name": "duration",
          "type": "uint256"
        },
        {
          "internalType": "uint256",
          "name": "listPrice",
          "type": "uint256"
        },
        {
          "internalType": "uint8",
          "name": "listType",
          "type": "uint8"
        },
        {
          "internalType": "address payable",
          "name": "intermediary",
          "type": "address"
        },
        {
          "internalType": "uint8",
          "name": "intermediaryFeePercentage",
          "type": "uint8"
        },
        {
          "internalType": "address",
          "name": "listCurrency",
          "type": "address"
        }
      ],
      "name": "createListing",
      "outputs": [
        {
          "internalType": "uint256",
          "name": "",
          "type": "uint256"
        }
      ],
      "stateMutability": "nonpayable",
      "type": "function"
    },
    {
      "inputs": [
        {
          "internalType": "uint256",
          "name": "listingId",
          "type": "uint256"
        },
        {
          "internalType": "uint256",
          "name": "amount",
          "type": "uint256"
        }
      ],
      "name": "endFixedPriceListing",
      "outputs": [],
      "stateMutability": "payable",
      "type": "function"
    },
    {
      "inputs": [
        {
          "internalType": "uint256",
          "name": "listingId",
          "type": "uint256"
        }
      ],
      "name": "endListing",
      "outputs": [],
      "stateMutability": "nonpayable",
      "type": "function"
    },
    {
      "inputs": [
        {
          "internalType": "uint256",
          "name": "",
          "type": "uint256"
        }
      ],
      "name": "listings",
      "outputs": [
        {
          "internalType": "uint256",
          "name": "tokenId",
          "type": "uint256"
        },
        {
          "internalType": "address",
          "name": "tokenContract",
          "type": "address"
        },
        {
          "internalType": "bool",
          "name": "approved",
          "type": "bool"
        },
        {
          "internalType": "uint256",
          "name": "amount",
          "type": "uint256"
        },
        {
          "internalType": "uint256",
          "name": "startsAt",
          "type": "uint256"
        },
        {
          "internalType": "uint256",
          "name": "duration",
          "type": "uint256"
        },
        {
          "internalType": "uint256",
          "name": "firstBidTime",
          "type": "uint256"
        },
        {
          "internalType": "uint256",
          "name": "listPrice",
          "type": "uint256"
        },
        {
          "internalType": "uint8",
          "name": "listType",
          "type": "uint8"
        },
        {
          "internalType": "uint8",
          "name": "intermediaryFeePercentage",
          "type": "uint8"
        },
        {
          "internalType": "address",
          "name": "tokenOwner",
          "type": "address"
        },
        {
          "internalType": "address payable",
          "name": "bidder",
          "type": "address"
        },
        {
          "internalType": "address payable",
          "name": "intermediary",
          "type": "address"
        },
        {
          "internalType": "address",
          "name": "listCurrency",
          "type": "address"
        }
      ],
      "stateMutability": "view",
      "type": "function"
    },
    {
      "inputs": [],
      "name": "minBidIncrementPercentage",
      "outputs": [
        {
          "internalType": "uint8",
          "name": "",
          "type": "uint8"
        }
      ],
      "stateMutability": "view",
      "type": "function"
    },
    {
      "inputs": [],
      "name": "motif",
      "outputs": [
        {
          "internalType": "address",
          "name": "",
          "type": "address"
        }
      ],
      "stateMutability": "view",
      "type": "function"
    },
    {
      "inputs": [
        {
          "internalType": "uint256",
          "name": "listingId",
          "type": "uint256"
        },
        {
          "internalType": "bool",
          "name": "approved",
          "type": "bool"
        }
      ],
      "name": "setListingApproval",
      "outputs": [],
      "stateMutability": "nonpayable",
      "type": "function"
    },
    {
      "inputs": [
        {
          "internalType": "uint256",
          "name": "listingId",
          "type": "uint256"
        },
        {
          "internalType": "bool",
          "name": "approved",
          "type": "bool"
        },
        {
          "internalType": "uint256",
          "name": "startsAt",
          "type": "uint256"
        }
      ],
      "name": "setListingDropApproval",
      "outputs": [],
      "stateMutability": "nonpayable",
      "type": "function"
    },
    {
      "inputs": [
        {
          "internalType": "uint256",
          "name": "listingId",
          "type": "uint256"
        },
        {
          "internalType": "uint256",
          "name": "listPrice",
          "type": "uint256"
        }
      ],
      "name": "setListingListPrice",
      "outputs": [],
      "stateMutability": "nonpayable",
      "type": "function"
    },
    {
      "inputs": [],
      "name": "timeBuffer",
      "outputs": [
        {
          "internalType": "uint256",
          "name": "",
          "type": "uint256"
        }
      ],
      "stateMutability": "view",
      "type": "function"
    },
    {
      "inputs": [],
      "name": "wmotifAddress",
      "outputs": [
        {
          "internalType": "address",
          "name": "",
          "type": "address"
        }
      ],
      "stateMutability": "view",
      "type": "function"
    },
    {
      "stateMutability": "payable",
      "type": "receive"
    }
  ],
  "bytecode": "0x60806040523480156200001157600080fd5b5060405162003ad438038062003ad4833981016040819052620000349162000132565b60016000556040516301ffc9a760e01b8082526001600160a01b038416916301ffc9a791620000669160040162000199565b60206040518083038186803b1580156200007f57600080fd5b505afa15801562000094573d6000803e3d6000fd5b505050506040513d601f19601f82011682018060405250810190620000ba919062000170565b620000e25760405162461bcd60e51b8152600401620000d990620001ae565b60405180910390fd5b60028054600380546001600160a01b039485166001600160a01b03199091161790556104b060015560ff199290931661010002610100600160a81b031990931692909217166005179055620001fe565b6000806040838503121562000145578182fd5b82516200015281620001e5565b60208401519092506200016581620001e5565b809150509250929050565b60006020828403121562000182578081fd5b8151801515811462000192578182fd5b9392505050565b6001600160e01b031991909116815260200190565b6020808252601d908201527f446f65736e277420737570706f7274204e465420696e74657266616365000000604082015260600190565b6001600160a01b0381168114620001fb57600080fd5b50565b6138c6806200020e6000396000f3fe6080604052600436106100d65760003560e01c8063b7751c711161007f578063e273aece11610059578063e273aece14610226578063e57e10361461023b578063ec91f2a41461024e578063fac2e3d814610263576100dd565b8063b7751c71146101b9578063c89e0985146101cc578063de74e57b146101ec576100dd565b806350a14d73116100b057806350a14d731461014a57806383872bc11461016a578063b296024d14610197576100dd565b806312604245146100df5780631582f801146100ff578063305a67a81461012a576100dd565b366100dd57005b005b3480156100eb57600080fd5b506100dd6100fa366004612bed565b610283565b34801561010b57600080fd5b50610114610329565b6040516101219190612ca4565b60405180910390f35b34801561013657600080fd5b506100dd610145366004612b28565b610338565b34801561015657600080fd5b506100dd610165366004612c1c565b61042a565b34801561017657600080fd5b5061018a610185366004612b58565b6104fd565b60405161012191906136d6565b3480156101a357600080fd5b506101ac610ac6565b6040516101219190613830565b6100dd6101c7366004612c53565b610acf565b3480156101d857600080fd5b506100dd6101e7366004612c53565b61106c565b3480156101f857600080fd5b5061020c610207366004612b28565b61118d565b6040516101219e9d9c9b9a999897969594939291906136df565b34801561023257600080fd5b50610114611213565b6100dd610249366004612c53565b611227565b34801561025a57600080fd5b5061018a611259565b34801561026f57600080fd5b506100dd61027e366004612b28565b61125f565b8161028d81611668565b6102b25760405162461bcd60e51b81526004016102a990612ffc565b60405180910390fd5b6000838152600460205260409020600901546001600160a01b031633146102eb5760405162461bcd60e51b81526004016102a990612dd2565b6000838152600460205260409020600501541561031a5760405162461bcd60e51b81526004016102a99061306a565b610324838361168e565b505050565b6003546001600160a01b031681565b6002600054141561035b5760405162461bcd60e51b81526004016102a990613540565b60026000558061036a81611668565b6103865760405162461bcd60e51b81526004016102a990612ffc565b6000828152600460205260409020600701546201000090046001600160a01b03163314806103cd57506000828152600460205260409020600901546001600160a01b031633145b6103e95760405162461bcd60e51b81526004016102a990613327565b600082815260046020526040902060050154156104185760405162461bcd60e51b81526004016102a990612ee5565b61042182611705565b50506001600055565b8261043481611668565b6104505760405162461bcd60e51b81526004016102a990612ffc565b60008481526004602052604090206007015460ff166002146104845760405162461bcd60e51b81526004016102a9906135ae565b6000848152600460205260409020600901546001600160a01b031633146104bd5760405162461bcd60e51b81526004016102a9906135e5565b600084815260046020526040902060050154156104ec5760405162461bcd60e51b81526004016102a990613284565b6104f78484846118a6565b50505050565b6000600260005414156105225760405162461bcd60e51b81526004016102a990613540565b60026000556040517f01ffc9a7000000000000000000000000000000000000000000000000000000008082526001600160a01b038b16916301ffc9a79161056b91600401612d72565b60206040518083038186803b15801561058357600080fd5b505afa158015610597573d6000803e3d6000fd5b505050506040513d601f19601f820116820180604052508101906105bb9190612b0c565b6105d75760405162461bcd60e51b81526004016102a99061361c565b60648360ff16106105fa5760405162461bcd60e51b81526004016102a990613418565b6040517f6352211e0000000000000000000000000000000000000000000000000000000081526000906001600160a01b038b1690636352211e90610642908e906004016136d6565b60206040518083038186803b15801561065a57600080fd5b505afa15801561066e573d6000803e3d6000fd5b505050506040513d601f19601f820116820180604052508101906106929190612af0565b6040517f081812fc0000000000000000000000000000000000000000000000000000000081529091506001600160a01b038b169063081812fc906106da908e906004016136d6565b60206040518083038186803b1580156106f257600080fd5b505afa158015610706573d6000803e3d6000fd5b505050506040513d601f19601f8201168201806040525081019061072a9190612af0565b6001600160a01b0316336001600160a01b031614806107515750336001600160a01b038216145b61076d5760405162461bcd60e51b81526004016102a990613475565b6000610779600561191a565b9050604051806101c001604052808d81526020018c6001600160a01b03168152602001600015158152602001600081526020018b81526020018a8152602001600081526020018981526020018860ff1681526020018660ff168152602001836001600160a01b0316815260200160006001600160a01b03168152602001876001600160a01b03168152602001856001600160a01b0316815250600460008381526020019081526020016000206000820151816000015560208201518160010160006101000a8154816001600160a01b0302191690836001600160a01b0316021790555060408201518160010160146101000a81548160ff021916908315150217905550606082015181600201556080820151816003015560a0820151816004015560c0820151816005015560e082015181600601556101008201518160070160006101000a81548160ff021916908360ff1602179055506101208201518160070160016101000a81548160ff021916908360ff1602179055506101408201518160070160026101000a8154816001600160a01b0302191690836001600160a01b031602179055506101608201518160080160006101000a8154816001600160a01b0302191690836001600160a01b031602179055506101808201518160090160006101000a8154816001600160a01b0302191690836001600160a01b031602179055506101a082015181600a0160006101000a8154816001600160a01b0302191690836001600160a01b031602179055509050508a6001600160a01b03166323b872dd83308f6040518463ffffffff1660e01b81526004016109dd93929190612cb8565b600060405180830381600087803b1580156109f757600080fd5b505af1158015610a0b573d6000803e3d6000fd5b50505050610a19600561191e565b8a6001600160a01b03168c827f804f18cb6eb2eeef9ae4bfec904ef4d2b03d3364418461d62d4919c3a746407a8d8d8d8d898e8e8e604051610a629897969594939291906137e8565b60405180910390a46000818152600460205260409020600901546001600160a01b03161580610aa25750816001600160a01b0316866001600160a01b0316145b15610ab257610ab281600161168e565b60016000559b9a5050505050505050505050565b60025460ff1681565b81610ad981611668565b610af55760405162461bcd60e51b81526004016102a990612ffc565b60026000541415610b185760405162461bcd60e51b81526004016102a990613540565b6002600090815583815260046020526040902060088101546001909101546001600160a01b0390911690600160a01b900460ff16610b685760405162461bcd60e51b81526004016102a99061316c565b60008481526004602052604090206007015460ff1660011480610b9f575060008481526004602052604090206007015460ff166002145b610bbb5760405162461bcd60e51b81526004016102a9906132bb565b600084815260046020526040902060030154421015610bec5760405162461bcd60e51b81526004016102a990612e77565b6000848152600460205260409020600501541580610c325750600084815260046020819052604090912090810154600590910154610c2f9163ffffffff61192716565b42105b610c4e5760405162461bcd60e51b81526004016102a9906134d2565b600084815260046020526040902060060154831015610c7f5760405162461bcd60e51b81526004016102a990612e40565b60028054600086815260046020526040902090910154610cdd91610cbf91606491610cb3919060ff1663ffffffff61195516565b9063ffffffff61198f16565b6000868152600460205260409020600201549063ffffffff61192716565b831015610cfc5760405162461bcd60e51b81526004016102a9906131c9565b600260019054906101000a90046001600160a01b03166001600160a01b03166372d273986040518163ffffffff1660e01b8152600401602060405180830381600087803b158015610d4c57600080fd5b505af1158015610d60573d6000803e3d6000fd5b505050506040513d601f19601f82011682018060405250810190610d849190612af0565b6000858152600460208190526040918290205491516302e8fe1360e01b81526001600160a01b0393909316926302e8fe1392610dc49290918891016137da565b60206040518083038186803b158015610ddc57600080fd5b505afa158015610df0573d6000803e3d6000fd5b505050506040513d601f19601f82011682018060405250810190610e149190612b0c565b610e305760405162461bcd60e51b81526004016102a990612eae565b600084815260046020526040902060050154610e6057600084815260046020526040902042600590910155610e9c565b6001600160a01b03811615610e9c5760008481526004602052604090206002810154600a90910154610e9c9183916001600160a01b03166119c1565b6000848152600460205260409020600a0154610ec29084906001600160a01b0316611aff565b60008481526004602081905260408220600281018690556008810180546001600160a01b0319163317905560015491810154600590910154610f1b914291610f0f9163ffffffff61192716565b9063ffffffff611cef16565b1015610f8f57600085815260046020819052604090912090810154600590910154610f7690610f6990610f5a904290610f0f908663ffffffff61192716565b6001549063ffffffff611cef16565b829063ffffffff61192716565b6000878152600460208190526040909120015550600190505b600085815260046020526040908190206001810154905491516001600160a01b03918216929188917fdf3c258fd5ebb54ac1a83c73feafacc466858d3badc3dda9c4034b0da1da54d991610fed9133918b91908a1615908990612cdc565b60405180910390a480156110605760008581526004602081905260409182902060018101548154919092015492516001600160a01b0390921692909188917f7c5d8b1980b451e2d8e5887c47bfdb1153d8b8de54ca953d110c9ec926dba3e39161105791906136d6565b60405180910390a45b50506001600055505050565b8161107681611668565b6110925760405162461bcd60e51b81526004016102a990612ffc565b6000838152600460205260409020600901546001600160a01b03163314806110d957506000838152600460205260409020600701546201000090046001600160a01b031633145b6110f55760405162461bcd60e51b81526004016102a990612f42565b600083815260046020526040902060050154156111245760405162461bcd60e51b81526004016102a99061306a565b60008381526004602052604090819020600681018490556001810154905491516001600160a01b03909116919085907f0409843698c80a52d5e9991fdf99f888ac3f2282b93ddd87bbb63df422907e94906111809087906136d6565b60405180910390a4505050565b600460208190526000918252604090912080546001820154600283015460038401549484015460058501546006860154600787015460088801546009890154600a9099015497996001600160a01b038089169a60ff600160a01b909a048a169a98999298858416956101008104909416946201000090940483169383169291821691168e565b60025461010090046001600160a01b031681565b6002600054141561124a5760405162461bcd60e51b81526004016102a990613540565b60026000556104218282611d17565b60015481565b8061126981611668565b6112855760405162461bcd60e51b81526004016102a990612ffc565b600260005414156112a85760405162461bcd60e51b81526004016102a990613540565b600260009081558281526004602052604090206007015460ff16600114806112e4575060008281526004602052604090206007015460ff166002145b6113005760405162461bcd60e51b81526004016102a9906132bb565b60008281526004602052604090206005015461132e5760405162461bcd60e51b81526004016102a990613577565b60008281526004602052604090206003015442101561135f5760405162461bcd60e51b81526004016102a990612e77565b6000828152600460208190526040909120908101546005909101546113899163ffffffff61192716565b4210156113a85760405162461bcd60e51b81526004016102a990613509565b6000828152600460205260408120600a01546001600160a01b0316156113e8576000838152600460205260409020600a01546001600160a01b03166113f5565b6003546001600160a01b03165b600084815260046020526040812060020154919250908180611416876122fb565b9350915082905060018215151461147057600087815260046020526040902060088101546002820154600a9092015461145d926001600160a01b03928316929091166119c1565b61146687611705565b5050505050610421565b6000878152600460205260409020600901546001600160a01b031615611502576000878152600460205260409020600701546114bc90606490610cb3908690610100900460ff16611955565b93506114ce838563ffffffff611cef16565b60008881526004602052604090206009810154600a90910154919450611502916001600160a01b03918216918791166119c1565b60008781526004602052604090206007810154600a90910154611539916001600160a01b03620100009091048116918691166119c1565b60008781526004602052604090819020600181015481546007830154600984015460089094015494516001600160a01b039384169592948d947f334843dd102fb480fd982e331134a746cae45483f35aa91db449e96cb90cc5f1946115b394620100009004821693928216929116908b908d908f90612d06565b60405180910390a45050506000938452505060046020819052604083208381556001808201805474ffffffffffffffffffffffffffffffffffffffffff191690556002820185905560038201859055918101849055600581018490556006810184905560078101805475ffffffffffffffffffffffffffffffffffffffffffff191690556008810180546001600160a01b031990811690915560098201805482169055600a9091018054909116905590915550565b6000908152600460205260409020600701546201000090046001600160a01b0316151590565b6000828152600460205260409081902060018101805460ff60a01b1916600160a01b851515021790819055905491516001600160a01b03909116919084907f301b3a878e4bfbb57bd5babb78545aff93752440eb359d65b3ad34de32d842fc906116f9908690612d57565b60405180910390a45050565b60008181526004602081905260409182902060078101546001820154915493517f42842e0e000000000000000000000000000000000000000000000000000000008152620100009091046001600160a01b03908116949216926342842e0e9261177392309287929101612cb8565b600060405180830381600087803b15801561178d57600080fd5b505af11580156117a1573d6000803e3d6000fd5b505050600083815260046020526040908190206001810154905491516001600160a01b03909116925084907fd5074712d772916d5592447e134f0f148b438068d1cd2559a4b2ab8990c0fba0906117f9908690612ca4565b60405180910390a4506000908152600460208190526040822082815560018101805474ffffffffffffffffffffffffffffffffffffffffff19169055600281018390556003810183905590810182905560058101829055600681019190915560078101805475ffffffffffffffffffffffffffffffffffffffffffff191690556008810180546001600160a01b031990811690915560098201805482169055600a90910180549091169055565b6000838152600460205260409081902060018101805460ff60a01b1916600160a01b86151502179081905560038201849055905491516001600160a01b03909116919085907f366ba2ff3ae87084a6b770c4ac0371bf0647243b3ab1a7f5c751d29322aa6161906111809087908790612d62565b5490565b80546001019055565b60008282018381101561194c5760405162461bcd60e51b81526004016102a990613033565b90505b92915050565b6000826119645750600061194f565b8282028284828161197157fe5b041461194c5760405162461bcd60e51b81526004016102a990613227565b60008082116119b05760405162461bcd60e51b81526004016102a990613135565b8183816119b957fe5b049392505050565b6001600160a01b038116611ae5576003546040517f2e1a7d4d0000000000000000000000000000000000000000000000000000000081526001600160a01b0390911690632e1a7d4d90611a189085906004016136d6565b600060405180830381600087803b158015611a3257600080fd5b505af1158015611a46573d6000803e3d6000fd5b50505050611a5483836127ba565b611ae057600360009054906101000a90046001600160a01b03166001600160a01b031663d0e30db0836040518263ffffffff1660e01b81526004016000604051808303818588803b158015611aa857600080fd5b505af1158015611abc573d6000803e3d6000fd5b5050600354611ae093506001600160a01b031691508590508463ffffffff61283116565b610324565b6103246001600160a01b038216848463ffffffff61283116565b6001600160a01b038116611b9a57813414611b2c5760405162461bcd60e51b81526004016102a990612f9f565b600360009054906101000a90046001600160a01b03166001600160a01b031663d0e30db0836040518263ffffffff1660e01b81526004016000604051808303818588803b158015611b7c57600080fd5b505af1158015611b90573d6000803e3d6000fd5b5050505050611ceb565b6040516370a0823160e01b815281906000906001600160a01b038316906370a0823190611bcb903090600401612ca4565b60206040518083038186803b158015611be357600080fd5b505afa158015611bf7573d6000803e3d6000fd5b505050506040513d601f19601f82011682018060405250810190611c1b9190612b40565b9050611c386001600160a01b03831633308763ffffffff6128b416565b6040516370a0823160e01b81526000906001600160a01b038416906370a0823190611c67903090600401612ca4565b60206040518083038186803b158015611c7f57600080fd5b505afa158015611c93573d6000803e3d6000fd5b505050506040513d601f19601f82011682018060405250810190611cb79190612b40565b905080611cca838763ffffffff61192716565b14611ce75760405162461bcd60e51b81526004016102a990613679565b5050505b5050565b600082821115611d115760405162461bcd60e51b81526004016102a9906130a1565b50900390565b611d2082611668565b611d3c5760405162461bcd60e51b81526004016102a990612ffc565b600082815260046020526040902060010154600160a01b900460ff16611d745760405162461bcd60e51b81526004016102a99061316c565b60008281526004602052604090206007015460ff16600314611da85760405162461bcd60e51b81526004016102a9906132f0565b600082815260046020526040902060030154421015611dd95760405162461bcd60e51b81526004016102a990612e77565b6000828152600460205260409020600501541580611e1f5750600082815260046020819052604090912090810154600590910154611e1c9163ffffffff61192716565b42105b611e3b5760405162461bcd60e51b81526004016102a9906134d2565b6000828152600460205260409020600601548114611e6b5760405162461bcd60e51b81526004016102a990612e09565b600260019054906101000a90046001600160a01b03166001600160a01b03166372d273986040518163ffffffff1660e01b8152600401602060405180830381600087803b158015611ebb57600080fd5b505af1158015611ecf573d6000803e3d6000fd5b505050506040513d601f19601f82011682018060405250810190611ef39190612af0565b6000838152600460208190526040918290205491516302e8fe1360e01b81526001600160a01b0393909316926302e8fe1392611f339290918691016137da565b60206040518083038186803b158015611f4b57600080fd5b505afa158015611f5f573d6000803e3d6000fd5b505050506040513d601f19601f82011682018060405250810190611f839190612b0c565b611f9f5760405162461bcd60e51b81526004016102a990612eae565b6000828152600460205260409020426005820155600a0154611fcb9082906001600160a01b0316611aff565b600082815260046020526040808220600281018490556008810180546001600160a01b03191633908117909155600180830154925493516001600160a01b03939093169487937fdf3c258fd5ebb54ac1a83c73feafacc466858d3badc3dda9c4034b0da1da54d9936120409390928992612cdc565b60405180910390a46000828152600460205260408120600a01546001600160a01b031615612088576000838152600460205260409020600a01546001600160a01b0316612095565b6003546001600160a01b03165b6000848152600460205260408120600201549192509081806120b6876122fb565b9350915082905060018215151461210657600087815260046020526040902060088101546002820154600a909201546120fd926001600160a01b03928316929091166119c1565b611b9087611705565b6000878152600460205260409020600901546001600160a01b0316156121985760008781526004602052604090206007015461215290606490610cb3908690610100900460ff16611955565b9350612164838563ffffffff611cef16565b60008881526004602052604090206009810154600a90910154919450612198916001600160a01b03918216918791166119c1565b60008781526004602052604090206007810154600a909101546121cf916001600160a01b03620100009091048116918691166119c1565b60008781526004602052604090819020600181015481546007830154600984015460089094015494516001600160a01b039384169592948d947f334843dd102fb480fd982e331134a746cae45483f35aa91db449e96cb90cc5f19461224994620100009004821693928216929116908b908d908f90612d06565b60405180910390a450505060009384525050600460208190526040832083815560018101805474ffffffffffffffffffffffffffffffffffffffffff1916905560028101849055600381018490559081018390556005810183905560068101929092555060078101805475ffffffffffffffffffffffffffffffffffffffffffff191690556008810180546001600160a01b031990811690915560098201805482169055600a90910180549091169055565b6000818152600460205260408120600a0154819081906001600160a01b03161561233f576000848152600460205260409020600a01546001600160a01b031661234c565b6003546001600160a01b03165b9050612356612a7d565b506040805160a08101825260008681526004602081815284832060028082015486526001600160a01b0380891684880181905230888a01528c875285855260089093015481166060880152875180850189528681526080880152905487517f72d2739800000000000000000000000000000000000000000000000000000000815297519697929663095ea7b396610100909204909216946372d2739894848201949093929083900390910190829087803b15801561241357600080fd5b505af1158015612427573d6000803e3d6000fd5b505050506040513d601f19601f8201168201806040525081019061244b9190612af0565b83516040517fffffffff0000000000000000000000000000000000000000000000000000000060e085901b168152612487929190600401612d3e565b602060405180830381600087803b1580156124a157600080fd5b505af11580156124b5573d6000803e3d6000fd5b505050506040513d601f19601f820116820180604052508101906124d99190612b0c565b506002546000868152600460208190526040918290205491517f5bf624220000000000000000000000000000000000000000000000000000000081526101009093046001600160a01b031692635bf6242292612539929091869101613787565b600060405180830381600087803b15801561255357600080fd5b505af1158015612567573d6000803e3d6000fd5b50506040516370a0823160e01b8152600092506001600160a01b03851691506370a082319061259a903090600401612ca4565b60206040518083038186803b1580156125b257600080fd5b505afa1580156125c6573d6000803e3d6000fd5b505050506040513d601f19601f820116820180604052508101906125ea9190612b40565b6002546000888152600460208190526040918290205491517fba3393990000000000000000000000000000000000000000000000000000000081529394506101009092046001600160a01b03169263ba3393999261264b9291879101613787565b600060405180830381600087803b15801561266557600080fd5b505af1925050508015612676575060015b612719576002546000878152600460208190526040918290205491517fb320f4590000000000000000000000000000000000000000000000000000000081526101009093046001600160a01b03169263b320f459926126d7929091016136d6565b600060405180830381600087803b1580156126f157600080fd5b505af1158015612705573d6000803e3d6000fd5b50600097508796506127b595505050505050565b6040516370a0823160e01b81526000906001600160a01b038516906370a0823190612748903090600401612ca4565b60206040518083038186803b15801561276057600080fd5b505afa158015612774573d6000803e3d6000fd5b505050506040513d601f19601f820116820180604052508101906127989190612b40565b905060016127ac828463ffffffff611cef16565b95509550505050505b915091565b60408051600080825260208201928390529182916001600160a01b0386169185916127e491612c88565b60006040518083038185875af1925050503d8060008114612821576040519150601f19603f3d011682016040523d82523d6000602084013e612826565b606091505b509095945050505050565b6103248363a9059cbb60e01b8484604051602401612850929190612d3e565b60408051601f198184030181529190526020810180517bffffffffffffffffffffffffffffffffffffffffffffffffffffffff167fffffffff00000000000000000000000000000000000000000000000000000000909316929092179091526128d5565b6104f7846323b872dd60e01b85858560405160240161285093929190612cb8565b606061292a826040518060400160405280602081526020017f5361666545524332303a206c6f772d6c6576656c2063616c6c206661696c6564815250856001600160a01b03166129649092919063ffffffff16565b80519091501561032457808060200190518101906129489190612b0c565b6103245760405162461bcd60e51b81526004016102a9906133bb565b6060612973848460008561297d565b90505b9392505050565b60608247101561299f5760405162461bcd60e51b81526004016102a9906130d8565b6129a885612a3e565b6129c45760405162461bcd60e51b81526004016102a990613384565b60006060866001600160a01b031685876040516129e19190612c88565b60006040518083038185875af1925050503d8060008114612a1e576040519150601f19603f3d011682016040523d82523d6000602084013e612a23565b606091505b5091509150612a33828286612a44565b979650505050505050565b3b151590565b60608315612a53575081612976565b825115612a635782518084602001fd5b8160405162461bcd60e51b81526004016102a99190612d9f565b6040518060a001604052806000815260200160006001600160a01b0316815260200160006001600160a01b0316815260200160006001600160a01b03168152602001612ac7612acc565b905290565b6040518060200160405280600081525090565b803560ff8116811461194f57600080fd5b600060208284031215612b01578081fd5b815161194c8161386a565b600060208284031215612b1d578081fd5b815161194c81613882565b600060208284031215612b39578081fd5b5035919050565b600060208284031215612b51578081fd5b5051919050565b60008060008060008060008060006101208a8c031215612b76578485fd5b8935985060208a0135612b888161386a565b975060408a0135965060608a0135955060808a01359450612bac8b60a08c01612adf565b935060c08a0135612bbc8161386a565b9250612bcb8b60e08c01612adf565b91506101008a0135612bdc8161386a565b809150509295985092959850929598565b60008060408385031215612bff578182fd5b823591506020830135612c1181613882565b809150509250929050565b600080600060608486031215612c30578283fd5b833592506020840135612c4281613882565b929592945050506040919091013590565b60008060408385031215612c65578182fd5b50508035926020909101359150565b6001600160a01b03169052565b60ff169052565b60008251612c9a81846020870161383e565b9190910192915050565b6001600160a01b0391909116815260200190565b6001600160a01b039384168152919092166020820152604081019190915260600190565b6001600160a01b039490941684526020840192909252151560408301521515606082015260800190565b6001600160a01b039687168152948616602086015292851660408501526060840191909152608083015290911660a082015260c00190565b6001600160a01b03929092168252602082015260400190565b901515815260200190565b9115158252602082015260400190565b7fffffffff0000000000000000000000000000000000000000000000000000000091909116815260200190565b6000602082528251806020840152612dbe81604085016020870161383e565b601f01601f19169190910160400192915050565b6020808252601c908201527f4d757374206265206c697374696e6720696e7465726d65646961727900000000604082015260600190565b60208082526013908201527f4d7573742073656e64206c697374507269636500000000000000000000000000604082015260600190565b6020808252601c908201527f4d7573742073656e64206174206c65617374206c697374507269636500000000604082015260600190565b60208082526012908201527f4c697374206973206e6f74206163746976650000000000000000000000000000604082015260600190565b6020808252601f908201527f42696420696e76616c696420666f722073686172652073706c697474696e6700604082015260600190565b60208082526027908201527f43616e27742063616e63656c20616e206c697374696e67206f6e63652069742760408201527f7320626567756e00000000000000000000000000000000000000000000000000606082015260800190565b6020808252602b908201527f4d757374206265206c697374696e6720696e7465726d656469617279206f722060408201527f746f6b656e206f776e6572000000000000000000000000000000000000000000606082015260800190565b60208082526034908201527f53656e74204d4f5449462056616c756520646f6573206e6f74206d617463682060408201527f7370656369666965642062696420616d6f756e74000000000000000000000000606082015260800190565b60208082526015908201527f4c697374696e6720646f65736e27742065786973740000000000000000000000604082015260600190565b6020808252601b908201527f536166654d6174683a206164646974696f6e206f766572666c6f770000000000604082015260600190565b6020808252601b908201527f4c697374696e672068617320616c726561647920737461727465640000000000604082015260600190565b6020808252601e908201527f536166654d6174683a207375627472616374696f6e206f766572666c6f770000604082015260600190565b60208082526026908201527f416464726573733a20696e73756666696369656e742062616c616e636520666f60408201527f722063616c6c0000000000000000000000000000000000000000000000000000606082015260800190565b6020808252601a908201527f536166654d6174683a206469766973696f6e206279207a65726f000000000000604082015260600190565b60208082526028908201527f4c697374696e67206d75737420626520617070726f76656420627920696e746560408201527f726d656469617279000000000000000000000000000000000000000000000000606082015260800190565b602080825260409082018190527f4d7573742073656e64206d6f7265207468616e206c6173742062696420627920908201527f6d696e426964496e6372656d656e7450657263656e7461676520616d6f756e74606082015260800190565b60208082526021908201527f536166654d6174683a206d756c7469706c69636174696f6e206f766572666c6f60408201527f7700000000000000000000000000000000000000000000000000000000000000606082015260800190565b60208082526018908201527f4c6973742068617320616c726561647920737461727465640000000000000000604082015260600190565b6020808252818101527f4d7573742062652062696464696e67206f722064726f70206c69737454797065604082015260600190565b6020808252601c908201527f4d757374206265206669786564207072696365206c6973745479706500000000604082015260600190565b60208082526035908201527f43616e206f6e6c792062652063616c6c6564206279206c697374696e6720637260408201527f6561746f72206f7220696e7465726d6564696172790000000000000000000000606082015260800190565b6020808252601d908201527f416464726573733a2063616c6c20746f206e6f6e2d636f6e7472616374000000604082015260600190565b6020808252602a908201527f5361666545524332303a204552433230206f7065726174696f6e20646964206e60408201527f6f74207375636365656400000000000000000000000000000000000000000000606082015260800190565b6020808252602f908201527f696e7465726d65646961727946656550657263656e74616765206d757374206260408201527f65206c657373207468616e203130300000000000000000000000000000000000606082015260800190565b6020808252602d908201527f43616c6c6572206d75737420626520617070726f766564206f72206f776e657260408201527f20666f7220746f6b656e20696400000000000000000000000000000000000000606082015260800190565b6020808252600f908201527f4c697374696e6720657870697265640000000000000000000000000000000000604082015260600190565b60208082526018908201527f4c697374696e67206861736e277420636f6d706c657465640000000000000000604082015260600190565b6020808252601f908201527f5265656e7472616e637947756172643a207265656e7472616e742063616c6c00604082015260600190565b60208082526014908201527f4c697374696e67206861736e277420626567756e000000000000000000000000604082015260600190565b60208082526015908201527f4d7573742062652064726f70206c697374547970650000000000000000000000604082015260600190565b60208082526019908201527f4d757374206265206c69737420696e7465726d65646961727900000000000000604082015260600190565b6020808252602f908201527f746f6b656e436f6e747261637420646f6573206e6f7420737570706f7274204560408201527f524337323120696e746572666163650000000000000000000000000000000000606082015260800190565b60208082526034908201527f546f6b656e207472616e736665722063616c6c20646964206e6f74207472616e60408201527f7366657220657870656374656420616d6f756e74000000000000000000000000606082015260800190565b90815260200190565b60006101c0820190508f82526001600160a01b038f1660208301528d151560408301528c60608301528b60808301528a60a08301528960c08301528860e083015261372e610100830189612c81565b61373c610120830188612c81565b61374a610140830187612c74565b613758610160830186612c74565b613766610180830185612c74565b6137746101a0830184612c74565b9f9e505050505050505050505050505050565b600060c0820190508382528251602083015260208301516001600160a01b038082166040850152806040860151166060850152806060860151166080850152505060808301515160a08301529392505050565b918252602082015260400190565b9788526020880196909652604087019490945260ff92831660608701526001600160a01b039182166080870152811660a0860152911660c08401521660e08201526101000190565b60ff91909116815260200190565b60005b83811015613859578181015183820152602001613841565b838111156104f75750506000910152565b6001600160a01b038116811461387f57600080fd5b50565b801515811461387f57600080fdfea2646970667358221220e325f5b3261cd75f5440b3ae75b5657ab0fd7610cf30c67242c7f24c4f5ca68964736f6c63430006080033",
  "linkReferences": {},
  "deployedLinkReferences": {}
}