{
  "_format": "hh-sol-artifact-1",
  "contractName": "SpaceListing",
  "sourceName": "contracts/SpaceListing.sol",
  "abi": [
    {
      "inputs": [
        {
          "internalType": "address",
          "name": "_motif",
          "type": "address"
        },
        {
          "internalType": "address",
          "name": "_wmotif",
          "type": "address"
        }
      ],
      "stateMutability": "nonpayable",
      "type": "constructor"
    },
    {
      "anonymous": false,
      "inputs": [
        {
          "indexed": true,
          "internalType": "uint256",
          "name": "listId",
          "type": "uint256"
        },
        {
          "indexed": true,
          "internalType": "uint256",
          "name": "tokenId",
          "type": "uint256"
        },
        {
          "indexed": true,
          "internalType": "address",
          "name": "tokenContract",
          "type": "address"
        },
        {
          "indexed": false,
          "internalType": "bool",
          "name": "approved",
          "type": "bool"
        }
      ],
      "name": "ListApprovalUpdated",
      "type": "event"
    },
    {
      "anonymous": false,
      "inputs": [
        {
          "indexed": true,
          "internalType": "uint256",
          "name": "listId",
          "type": "uint256"
        },
        {
          "indexed": true,
          "internalType": "uint256",
          "name": "tokenId",
          "type": "uint256"
        },
        {
          "indexed": true,
          "internalType": "address",
          "name": "tokenContract",
          "type": "address"
        },
        {
          "indexed": false,
          "internalType": "address",
          "name": "sender",
          "type": "address"
        },
        {
          "indexed": false,
          "internalType": "uint256",
          "name": "value",
          "type": "uint256"
        },
        {
          "indexed": false,
          "internalType": "bool",
          "name": "firstBid",
          "type": "bool"
        },
        {
          "indexed": false,
          "internalType": "bool",
          "name": "extended",
          "type": "bool"
        }
      ],
      "name": "ListBid",
      "type": "event"
    },
    {
      "anonymous": false,
      "inputs": [
        {
          "indexed": true,
          "internalType": "uint256",
          "name": "listId",
          "type": "uint256"
        },
        {
          "indexed": true,
          "internalType": "uint256",
          "name": "tokenId",
          "type": "uint256"
        },
        {
          "indexed": true,
          "internalType": "address",
          "name": "tokenContract",
          "type": "address"
        },
        {
          "indexed": false,
          "internalType": "address",
          "name": "tokenOwner",
          "type": "address"
        }
      ],
      "name": "ListCanceled",
      "type": "event"
    },
    {
      "anonymous": false,
      "inputs": [
        {
          "indexed": true,
          "internalType": "uint256",
          "name": "listId",
          "type": "uint256"
        },
        {
          "indexed": true,
          "internalType": "uint256",
          "name": "tokenId",
          "type": "uint256"
        },
        {
          "indexed": true,
          "internalType": "address",
          "name": "tokenContract",
          "type": "address"
        },
        {
          "indexed": false,
          "internalType": "uint256",
          "name": "startsAt",
          "type": "uint256"
        },
        {
          "indexed": false,
          "internalType": "uint256",
          "name": "duration",
          "type": "uint256"
        },
        {
          "indexed": false,
          "internalType": "uint256",
          "name": "listPrice",
          "type": "uint256"
        },
        {
          "indexed": false,
          "internalType": "uint8",
          "name": "listType",
          "type": "uint8"
        },
        {
          "indexed": false,
          "internalType": "address",
          "name": "tokenOwner",
          "type": "address"
        },
        {
          "indexed": false,
          "internalType": "address",
          "name": "intermediary",
          "type": "address"
        },
        {
          "indexed": false,
          "internalType": "uint8",
          "name": "intermediaryFeePercentage",
          "type": "uint8"
        },
        {
          "indexed": false,
          "internalType": "address",
          "name": "listCurrency",
          "type": "address"
        }
      ],
      "name": "ListCreated",
      "type": "event"
    },
    {
      "anonymous": false,
      "inputs": [
        {
          "indexed": true,
          "internalType": "uint256",
          "name": "listId",
          "type": "uint256"
        },
        {
          "indexed": true,
          "internalType": "uint256",
          "name": "tokenId",
          "type": "uint256"
        },
        {
          "indexed": true,
          "internalType": "address",
          "name": "tokenContract",
          "type": "address"
        },
        {
          "indexed": false,
          "internalType": "bool",
          "name": "approved",
          "type": "bool"
        },
        {
          "indexed": false,
          "internalType": "uint256",
          "name": "startsAt",
          "type": "uint256"
        }
      ],
      "name": "ListDropApprovalUpdated",
      "type": "event"
    },
    {
      "anonymous": false,
      "inputs": [
        {
          "indexed": true,
          "internalType": "uint256",
          "name": "listId",
          "type": "uint256"
        },
        {
          "indexed": true,
          "internalType": "uint256",
          "name": "tokenId",
          "type": "uint256"
        },
        {
          "indexed": true,
          "internalType": "address",
          "name": "tokenContract",
          "type": "address"
        },
        {
          "indexed": false,
          "internalType": "uint256",
          "name": "duration",
          "type": "uint256"
        }
      ],
      "name": "ListDurationExtended",
      "type": "event"
    },
    {
      "anonymous": false,
      "inputs": [
        {
          "indexed": true,
          "internalType": "uint256",
          "name": "listId",
          "type": "uint256"
        },
        {
          "indexed": true,
          "internalType": "uint256",
          "name": "tokenId",
          "type": "uint256"
        },
        {
          "indexed": true,
          "internalType": "address",
          "name": "tokenContract",
          "type": "address"
        },
        {
          "indexed": false,
          "internalType": "address",
          "name": "tokenOwner",
          "type": "address"
        },
        {
          "indexed": false,
          "internalType": "address",
          "name": "intermediary",
          "type": "address"
        },
        {
          "indexed": false,
          "internalType": "address",
          "name": "winner",
          "type": "address"
        },
        {
          "indexed": false,
          "internalType": "uint256",
          "name": "amount",
          "type": "uint256"
        },
        {
          "indexed": false,
          "internalType": "uint256",
          "name": "intermediaryFee",
          "type": "uint256"
        },
        {
          "indexed": false,
          "internalType": "address",
          "name": "listCurrency",
          "type": "address"
        }
      ],
      "name": "ListEnded",
      "type": "event"
    },
    {
      "anonymous": false,
      "inputs": [
        {
          "indexed": true,
          "internalType": "uint256",
          "name": "listId",
          "type": "uint256"
        },
        {
          "indexed": true,
          "internalType": "uint256",
          "name": "tokenId",
          "type": "uint256"
        },
        {
          "indexed": true,
          "internalType": "address",
          "name": "tokenContract",
          "type": "address"
        },
        {
          "indexed": false,
          "internalType": "uint256",
          "name": "listPrice",
          "type": "uint256"
        }
      ],
      "name": "ListListPriceUpdated",
      "type": "event"
    },
    {
      "stateMutability": "payable",
      "type": "fallback"
    },
    {
      "inputs": [
        {
          "internalType": "uint256",
          "name": "listId",
          "type": "uint256"
        }
      ],
      "name": "cancelList",
      "outputs": [],
      "stateMutability": "nonpayable",
      "type": "function"
    },
    {
      "inputs": [
        {
          "internalType": "uint256",
          "name": "listId",
          "type": "uint256"
        },
        {
          "internalType": "uint256",
          "name": "amount",
          "type": "uint256"
        }
      ],
      "name": "createBid",
      "outputs": [],
      "stateMutability": "payable",
      "type": "function"
    },
    {
      "inputs": [
        {
          "internalType": "uint256",
          "name": "listId",
          "type": "uint256"
        },
        {
          "internalType": "uint256",
          "name": "amount",
          "type": "uint256"
        }
      ],
      "name": "createBidForFixed",
      "outputs": [],
      "stateMutability": "payable",
      "type": "function"
    },
    {
      "inputs": [
        {
          "internalType": "uint256",
          "name": "tokenId",
          "type": "uint256"
        },
        {
          "internalType": "address",
          "name": "tokenContract",
          "type": "address"
        },
        {
          "internalType": "uint256",
          "name": "startsAt",
          "type": "uint256"
        },
        {
          "internalType": "uint256",
          "name": "duration",
          "type": "uint256"
        },
        {
          "internalType": "uint256",
          "name": "listPrice",
          "type": "uint256"
        },
        {
          "internalType": "uint8",
          "name": "listType",
          "type": "uint8"
        },
        {
          "internalType": "address payable",
          "name": "intermediary",
          "type": "address"
        },
        {
          "internalType": "uint8",
          "name": "intermediaryFeePercentage",
          "type": "uint8"
        },
        {
          "internalType": "address",
          "name": "listCurrency",
          "type": "address"
        }
      ],
      "name": "createList",
      "outputs": [
        {
          "internalType": "uint256",
          "name": "",
          "type": "uint256"
        }
      ],
      "stateMutability": "nonpayable",
      "type": "function"
    },
    {
      "inputs": [
        {
          "internalType": "uint256",
          "name": "listId",
          "type": "uint256"
        }
      ],
      "name": "endList",
      "outputs": [],
      "stateMutability": "nonpayable",
      "type": "function"
    },
    {
      "inputs": [
        {
          "internalType": "uint256",
          "name": "",
          "type": "uint256"
        }
      ],
      "name": "lists",
      "outputs": [
        {
          "internalType": "uint256",
          "name": "tokenId",
          "type": "uint256"
        },
        {
          "internalType": "address",
          "name": "tokenContract",
          "type": "address"
        },
        {
          "internalType": "bool",
          "name": "approved",
          "type": "bool"
        },
        {
          "internalType": "uint256",
          "name": "amount",
          "type": "uint256"
        },
        {
          "internalType": "uint256",
          "name": "startsAt",
          "type": "uint256"
        },
        {
          "internalType": "uint256",
          "name": "duration",
          "type": "uint256"
        },
        {
          "internalType": "uint256",
          "name": "firstBidTime",
          "type": "uint256"
        },
        {
          "internalType": "uint256",
          "name": "listPrice",
          "type": "uint256"
        },
        {
          "internalType": "uint8",
          "name": "listType",
          "type": "uint8"
        },
        {
          "internalType": "uint8",
          "name": "intermediaryFeePercentage",
          "type": "uint8"
        },
        {
          "internalType": "address",
          "name": "tokenOwner",
          "type": "address"
        },
        {
          "internalType": "address payable",
          "name": "bidder",
          "type": "address"
        },
        {
          "internalType": "address payable",
          "name": "intermediary",
          "type": "address"
        },
        {
          "internalType": "address",
          "name": "listCurrency",
          "type": "address"
        }
      ],
      "stateMutability": "view",
      "type": "function"
    },
    {
      "inputs": [],
      "name": "minBidIncrementPercentage",
      "outputs": [
        {
          "internalType": "uint8",
          "name": "",
          "type": "uint8"
        }
      ],
      "stateMutability": "view",
      "type": "function"
    },
    {
      "inputs": [],
      "name": "motif",
      "outputs": [
        {
          "internalType": "address",
          "name": "",
          "type": "address"
        }
      ],
      "stateMutability": "view",
      "type": "function"
    },
    {
      "inputs": [
        {
          "internalType": "uint256",
          "name": "listId",
          "type": "uint256"
        },
        {
          "internalType": "bool",
          "name": "approved",
          "type": "bool"
        }
      ],
      "name": "setListApproval",
      "outputs": [],
      "stateMutability": "nonpayable",
      "type": "function"
    },
    {
      "inputs": [
        {
          "internalType": "uint256",
          "name": "listId",
          "type": "uint256"
        },
        {
          "internalType": "bool",
          "name": "approved",
          "type": "bool"
        },
        {
          "internalType": "uint256",
          "name": "startsAt",
          "type": "uint256"
        }
      ],
      "name": "setListDropApproval",
      "outputs": [],
      "stateMutability": "nonpayable",
      "type": "function"
    },
    {
      "inputs": [
        {
          "internalType": "uint256",
          "name": "listId",
          "type": "uint256"
        },
        {
          "internalType": "uint256",
          "name": "listPrice",
          "type": "uint256"
        }
      ],
      "name": "setListListPrice",
      "outputs": [],
      "stateMutability": "nonpayable",
      "type": "function"
    },
    {
      "inputs": [],
      "name": "timeBuffer",
      "outputs": [
        {
          "internalType": "uint256",
          "name": "",
          "type": "uint256"
        }
      ],
      "stateMutability": "view",
      "type": "function"
    },
    {
      "inputs": [],
      "name": "wmotifAddress",
      "outputs": [
        {
          "internalType": "address",
          "name": "",
          "type": "address"
        }
      ],
      "stateMutability": "view",
      "type": "function"
    },
    {
      "stateMutability": "payable",
      "type": "receive"
    }
  ],
  "bytecode": "0x60806040523480156200001157600080fd5b5060405162003c6538038062003c65833981016040819052620000349162000132565b60016000556040516301ffc9a760e01b8082526001600160a01b038416916301ffc9a791620000669160040162000199565b60206040518083038186803b1580156200007f57600080fd5b505afa15801562000094573d6000803e3d6000fd5b505050506040513d601f19601f82011682018060405250810190620000ba919062000170565b620000e25760405162461bcd60e51b8152600401620000d990620001ae565b60405180910390fd5b60028054600380546001600160a01b039485166001600160a01b03199091161790556104b060015560ff199290931661010002610100600160a81b031990931692909217166005179055620001fe565b6000806040838503121562000145578182fd5b82516200015281620001e5565b60208401519092506200016581620001e5565b809150509250929050565b60006020828403121562000182578081fd5b8151801515811462000192578182fd5b9392505050565b6001600160e01b031991909116815260200190565b6020808252601d908201527f446f65736e277420737570706f7274204e465420696e74657266616365000000604082015260600190565b6001600160a01b0381168114620001fb57600080fd5b50565b613a57806200020e6000396000f3fe6080604052600436106100d65760003560e01c8063b296024d1161007f578063db38b44c11610059578063db38b44c14610226578063e273aece14610246578063ec91f2a41461025b578063fb4bd43914610270576100dd565b8063b296024d146101d1578063b7751c71146101f3578063c9c9d2d814610206576100dd565b80635e2cbb24116100b05780635e2cbb241461014a5780639014ab461461016a57806396102cf414610197576100dd565b80631582f801146100df5780632acc08da1461010a5780633c8f367a1461012a576100dd565b366100dd57005b005b3480156100eb57600080fd5b506100f4610283565b6040516101019190612e20565b60405180910390f35b34801561011657600080fd5b506100dd610125366004612ca4565b610292565b34801561013657600080fd5b506100dd610145366004612d98565b61079d565b34801561015657600080fd5b506100dd610165366004612dcf565b610870565b34801561017657600080fd5b5061018a610185366004612cd4565b610991565b6040516101019190613867565b3480156101a357600080fd5b506101b76101b2366004612ca4565b610f5a565b6040516101019e9d9c9b9a99989796959493929190613870565b3480156101dd57600080fd5b506101e6610fe0565b60405161010191906139c1565b6100dd610201366004612dcf565b610fe9565b34801561021257600080fd5b506100dd610221366004612ca4565b6115a7565b34801561023257600080fd5b506100dd610241366004612d69565b611690565b34801561025257600080fd5b506100f461172d565b34801561026757600080fd5b5061018a611741565b6100dd61027e366004612dcf565b611747565b6003546001600160a01b031681565b8061029c81611de1565b6102c15760405162461bcd60e51b81526004016102b890612f4e565b60405180910390fd5b600260005414156102e45760405162461bcd60e51b81526004016102b890613708565b600260009081558281526004602052604090206007015460ff1660011480610320575060008281526004602052604090206007015460ff166002145b61033c5760405162461bcd60e51b81526004016102b8906134ba565b60008281526004602052604090206003015442101561036d5760405162461bcd60e51b81526004016102b890612fe2565b60008281526004602052604090206005015461039b5760405162461bcd60e51b81526004016102b890613334565b6000828152600460208190526040909120908101546005909101546103c59163ffffffff611e0716565b4210156103e45760405162461bcd60e51b81526004016102b890613526565b6000828152600460205260408120600a01546001600160a01b031615610424576000838152600460205260409020600a01546001600160a01b0316610431565b6003546001600160a01b03165b6000848152600460205260408120600280820154905460019092015493945091926001600160a01b039081166101009092041614156104d75760008061047687611e35565b935091508290506001821515146104d057600087815260046020526040902060088101546002820154600a909201546104bd926001600160a01b03928316929091166122f4565b6104c687612432565b5050505050610794565b5050610597565b6000858152600460208190526040918290206001810154600882015491549351632142170760e11b81526001600160a01b03918216946342842e0e94610521943094169201612e34565b600060405180830381600087803b15801561053b57600080fd5b505af192505050801561054c575060015b61059757600085815260046020526040902060088101546002820154600a90920154610586926001600160a01b03928316929091166122f4565b61058f85612432565b505050610794565b6000858152600460205260409020600901546001600160a01b031615610635576000858152600460205260409020600701546105ef906064906105e3908490610100900460ff166125ba565b9063ffffffff6125f416565b9150610601818363ffffffff61262616565b60008681526004602052604090206009810154600a90910154919250610635916001600160a01b03918216918591166122f4565b60008581526004602052604090206007810154600a9091015461066c916001600160a01b03620100009091048116918491166122f4565b60008581526004602052604090819020600181015481546007830154600984015460089094015494516001600160a01b039384169592948b947fd2a3553d2c5cccab17d33e00c63e77470f0aa375113c1160c5c042396fc3f639946106e6946201000090048216939282169291169089908b908d90612e82565b60405180910390a45050506000828152600460208190526040822082815560018101805474ffffffffffffffffffffffffffffffffffffffffff19169055600281018390556003810183905590810182905560058101829055600681019190915560078101805475ffffffffffffffffffffffffffffffffffffffffffff191690556008810180546001600160a01b031990811690915560098201805482169055600a909101805490911690555b50506001600055565b826107a781611de1565b6107c35760405162461bcd60e51b81526004016102b890612f4e565b60008481526004602052604090206007015460ff166002146107f75760405162461bcd60e51b81526004016102b89061373f565b6000848152600460205260409020600901546001600160a01b031633146108305760405162461bcd60e51b81526004016102b890613776565b6000848152600460205260409020600501541561085f5760405162461bcd60e51b81526004016102b890613426565b61086a84848461264e565b50505050565b8161087a81611de1565b6108965760405162461bcd60e51b81526004016102b890612f4e565b6000838152600460205260409020600901546001600160a01b03163314806108dd57506000838152600460205260409020600701546201000090046001600160a01b031633145b6108f95760405162461bcd60e51b81526004016102b8906132d7565b600083815260046020526040902060050154156109285760405162461bcd60e51b81526004016102b890613426565b60008381526004602052604090819020600681018490556001810154905491516001600160a01b03909116919085907f60b080667a771cd2b2259447ae186f58dcbd1184abdbd2bfd9c48ddcdee5a6ef90610984908790613867565b60405180910390a4505050565b6000600260005414156109b65760405162461bcd60e51b81526004016102b890613708565b60026000556040517f01ffc9a7000000000000000000000000000000000000000000000000000000008082526001600160a01b038b16916301ffc9a7916109ff91600401612eee565b60206040518083038186803b158015610a1757600080fd5b505afa158015610a2b573d6000803e3d6000fd5b505050506040513d601f19601f82011682018060405250810190610a4f9190612c88565b610a6b5760405162461bcd60e51b81526004016102b8906137ad565b60648360ff1610610a8e5760405162461bcd60e51b81526004016102b8906136ab565b6040517f6352211e0000000000000000000000000000000000000000000000000000000081526000906001600160a01b038b1690636352211e90610ad6908e90600401613867565b60206040518083038186803b158015610aee57600080fd5b505afa158015610b02573d6000803e3d6000fd5b505050506040513d601f19601f82011682018060405250810190610b269190612c6c565b6040517f081812fc0000000000000000000000000000000000000000000000000000000081529091506001600160a01b038b169063081812fc90610b6e908e90600401613867565b60206040518083038186803b158015610b8657600080fd5b505afa158015610b9a573d6000803e3d6000fd5b505050506040513d601f19601f82011682018060405250810190610bbe9190612c6c565b6001600160a01b0316336001600160a01b03161480610be55750336001600160a01b038216145b610c015760405162461bcd60e51b81526004016102b890613594565b6000610c0d60056126c2565b9050604051806101c001604052808d81526020018c6001600160a01b03168152602001600015158152602001600081526020018b81526020018a8152602001600081526020018981526020018860ff1681526020018660ff168152602001836001600160a01b0316815260200160006001600160a01b03168152602001876001600160a01b03168152602001856001600160a01b0316815250600460008381526020019081526020016000206000820151816000015560208201518160010160006101000a8154816001600160a01b0302191690836001600160a01b0316021790555060408201518160010160146101000a81548160ff021916908315150217905550606082015181600201556080820151816003015560a0820151816004015560c0820151816005015560e082015181600601556101008201518160070160006101000a81548160ff021916908360ff1602179055506101208201518160070160016101000a81548160ff021916908360ff1602179055506101408201518160070160026101000a8154816001600160a01b0302191690836001600160a01b031602179055506101608201518160080160006101000a8154816001600160a01b0302191690836001600160a01b031602179055506101808201518160090160006101000a8154816001600160a01b0302191690836001600160a01b031602179055506101a082015181600a0160006101000a8154816001600160a01b0302191690836001600160a01b031602179055509050508a6001600160a01b03166323b872dd83308f6040518463ffffffff1660e01b8152600401610e7193929190612e34565b600060405180830381600087803b158015610e8b57600080fd5b505af1158015610e9f573d6000803e3d6000fd5b50505050610ead60056126c6565b8a6001600160a01b03168c827f86a1a6bd1e4300f4d347bf0aaf3a461315017111067a6e01323b086be098e1898d8d8d8d898e8e8e604051610ef6989796959493929190613979565b60405180910390a46000818152600460205260409020600901546001600160a01b03161580610f365750816001600160a01b0316866001600160a01b0316145b15610f4657610f468160016126cf565b60016000559b9a5050505050505050505050565b600460208190526000918252604090912080546001820154600283015460038401549484015460058501546006860154600787015460088801546009890154600a9099015497996001600160a01b038089169a60ff600160a01b909a048a169a98999298858416956101008104909416946201000090940483169383169291821691168e565b60025460ff1681565b81610ff381611de1565b61100f5760405162461bcd60e51b81526004016102b890612f4e565b600260005414156110325760405162461bcd60e51b81526004016102b890613708565b6002600090815583815260046020526040902060088101546001909101546001600160a01b0390911690600160a01b900460ff166110825760405162461bcd60e51b81526004016102b8906131e6565b60008481526004602052604090206007015460ff16600114806110b9575060008481526004602052604090206007015460ff166002145b6110d55760405162461bcd60e51b81526004016102b8906134ba565b6000848152600460205260409020600301544210156111065760405162461bcd60e51b81526004016102b890612fe2565b6000848152600460205260409020600601548310156111375760405162461bcd60e51b81526004016102b89061327a565b600084815260046020526040902060050154158061117d575060008481526004602081905260409091209081015460059091015461117a9163ffffffff611e0716565b42105b6111995760405162461bcd60e51b81526004016102b8906130e4565b600280546000868152600460205260409020909101546111eb916111cd916064916105e3919060ff1663ffffffff6125ba16565b6000868152600460205260409020600201549063ffffffff611e0716565b83101561120a5760405162461bcd60e51b81526004016102b89061336b565b6002546000858152600460205260409020600101546001600160a01b0390811661010090920416141561136b57600260019054906101000a90046001600160a01b03166001600160a01b03166372d273986040518163ffffffff1660e01b8152600401602060405180830381600087803b15801561128757600080fd5b505af115801561129b573d6000803e3d6000fd5b505050506040513d601f19601f820116820180604052508101906112bf9190612c6c565b6000858152600460208190526040918290205491516302e8fe1360e01b81526001600160a01b0393909316926302e8fe13926112ff92909188910161396b565b60206040518083038186803b15801561131757600080fd5b505afa15801561132b573d6000803e3d6000fd5b505050506040513d601f19601f8201168201806040525081019061134f9190612c88565b61136b5760405162461bcd60e51b81526004016102b890613019565b60008481526004602052604090206005015461139b576000848152600460205260409020426005909101556113d7565b6001600160a01b038116156113d75760008481526004602052604090206002810154600a909101546113d79183916001600160a01b03166122f4565b6000848152600460205260409020600a01546113fd9084906001600160a01b0316612746565b60008481526004602081905260408220600281018690556008810180546001600160a01b031916331790556001549181015460059091015461145691429161144a9163ffffffff611e0716565b9063ffffffff61262616565b10156114ca576000858152600460208190526040909120908101546005909101546114b1906114a49061149590429061144a908663ffffffff611e0716565b6001549063ffffffff61262616565b829063ffffffff611e0716565b6000878152600460208190526040909120015550600190505b600085815260046020526040908190206001810154905491516001600160a01b03918216929188917f051386da70a754457cc29145ba11900dfdeec8c494526255df335982738cc93f916115289133918b91908a1615908990612e58565b60405180910390a4801561159b5760008581526004602081905260409182902060018101548154919092015492516001600160a01b0390921692909188917f3987a0244f306c38a091741f1d648278ac39aa1ee8ce4caa147732fe70d4d4ad916115929190613867565b60405180910390a45b50506001600055505050565b600260005414156115ca5760405162461bcd60e51b81526004016102b890613708565b6002600055806115d981611de1565b6115f55760405162461bcd60e51b81526004016102b890612f4e565b6000828152600460205260409020600701546201000090046001600160a01b031633148061163c57506000828152600460205260409020600901546001600160a01b031633145b6116585760405162461bcd60e51b81526004016102b89061364e565b600082815260046020526040902060050154156116875760405162461bcd60e51b81526004016102b890612f85565b61079482612432565b8161169a81611de1565b6116b65760405162461bcd60e51b81526004016102b890612f4e565b6000838152600460205260409020600901546001600160a01b031633146116ef5760405162461bcd60e51b81526004016102b890613776565b6000838152600460205260409020600501541561171e5760405162461bcd60e51b81526004016102b890613426565b61172883836126cf565b505050565b60025461010090046001600160a01b031681565b60015481565b8161175181611de1565b61176d5760405162461bcd60e51b81526004016102b890612f4e565b600260005414156117905760405162461bcd60e51b81526004016102b890613708565b6002600090815583815260046020526040902060010154600160a01b900460ff166117cd5760405162461bcd60e51b81526004016102b8906131e6565b60008381526004602052604090206007015460ff166003146118015760405162461bcd60e51b81526004016102b8906134ef565b6000838152600460205260409020600301544210156118325760405162461bcd60e51b81526004016102b890612fe2565b60008381526004602052604090206006015482146118625760405162461bcd60e51b81526004016102b890613152565b600083815260046020526040902060050154156118915760405162461bcd60e51b81526004016102b89061345d565b6002546000848152600460205260409020600101546001600160a01b039081166101009092041614156119f257600260019054906101000a90046001600160a01b03166001600160a01b03166372d273986040518163ffffffff1660e01b8152600401602060405180830381600087803b15801561190e57600080fd5b505af1158015611922573d6000803e3d6000fd5b505050506040513d601f19601f820116820180604052508101906119469190612c6c565b6000848152600460208190526040918290205491516302e8fe1360e01b81526001600160a01b0393909316926302e8fe139261198692909187910161396b565b60206040518083038186803b15801561199e57600080fd5b505afa1580156119b2573d6000803e3d6000fd5b505050506040513d601f19601f820116820180604052508101906119d69190612c88565b6119f25760405162461bcd60e51b81526004016102b890613019565b6000838152600460205260409020600a0154611a189083906001600160a01b0316612746565b6000838152600460205260408120600281018490556008810180546001600160a01b03191633179055600a01546001600160a01b031615611a73576000848152600460205260409020600a01546001600160a01b0316611a80565b6003546001600160a01b03165b6000858152600460205260408120600280820154905460019092015493945091926001600160a01b03908116610100909204161415611b2657600080611ac588611e35565b93509150829050600182151514611b1f57600088815260046020526040902060088101546002820154600a90920154611b0c926001600160a01b03928316929091166122f4565b611b1588612432565b5050505050611dd7565b5050611be6565b6000868152600460208190526040918290206001810154600882015491549351632142170760e11b81526001600160a01b03918216946342842e0e94611b70943094169201612e34565b600060405180830381600087803b158015611b8a57600080fd5b505af1925050508015611b9b575060015b611be657600086815260046020526040902060088101546002820154600a90920154611bd5926001600160a01b03928316929091166122f4565b611bde86612432565b505050611dd7565b6000868152600460205260409020600901546001600160a01b031615611c7857600086815260046020526040902060070154611c32906064906105e3908490610100900460ff166125ba565b9150611c44818363ffffffff61262616565b60008781526004602052604090206009810154600a90910154919250611c78916001600160a01b03918216918591166122f4565b60008681526004602052604090206007810154600a90910154611caf916001600160a01b03620100009091048116918491166122f4565b60008681526004602052604090819020600181015481546007830154600984015460089094015494516001600160a01b039384169592948c947fd2a3553d2c5cccab17d33e00c63e77470f0aa375113c1160c5c042396fc3f63994611d29946201000090048216939282169291169089908b908d90612e82565b60405180910390a45050506000838152600460208190526040822082815560018101805474ffffffffffffffffffffffffffffffffffffffffff19169055600281018390556003810183905590810182905560058101829055600681019190915560078101805475ffffffffffffffffffffffffffffffffffffffffffff191690556008810180546001600160a01b031990811690915560098201805482169055600a909101805490911690555b5050600160005550565b6000908152600460205260409020600701546201000090046001600160a01b0316151590565b600082820183811015611e2c5760405162461bcd60e51b81526004016102b8906130ad565b90505b92915050565b6000818152600460205260408120600a0154819081906001600160a01b031615611e79576000848152600460205260409020600a01546001600160a01b0316611e86565b6003546001600160a01b03165b9050611e90612bf9565b506040805160a08101825260008681526004602081815284832060028082015486526001600160a01b0380891684880181905230888a01528c875285855260089093015481166060880152875180850189528681526080880152905487517f72d2739800000000000000000000000000000000000000000000000000000000815297519697929663095ea7b396610100909204909216946372d2739894848201949093929083900390910190829087803b158015611f4d57600080fd5b505af1158015611f61573d6000803e3d6000fd5b505050506040513d601f19601f82011682018060405250810190611f859190612c6c565b83516040517fffffffff0000000000000000000000000000000000000000000000000000000060e085901b168152611fc1929190600401612eba565b602060405180830381600087803b158015611fdb57600080fd5b505af1158015611fef573d6000803e3d6000fd5b505050506040513d601f19601f820116820180604052508101906120139190612c88565b506002546000868152600460208190526040918290205491517f5bf624220000000000000000000000000000000000000000000000000000000081526101009093046001600160a01b031692635bf6242292612073929091869101613918565b600060405180830381600087803b15801561208d57600080fd5b505af11580156120a1573d6000803e3d6000fd5b50506040516370a0823160e01b8152600092506001600160a01b03851691506370a08231906120d4903090600401612e20565b60206040518083038186803b1580156120ec57600080fd5b505afa158015612100573d6000803e3d6000fd5b505050506040513d601f19601f820116820180604052508101906121249190612cbc565b6002546000888152600460208190526040918290205491517fba3393990000000000000000000000000000000000000000000000000000000081529394506101009092046001600160a01b03169263ba339399926121859291879101613918565b600060405180830381600087803b15801561219f57600080fd5b505af19250505080156121b0575060015b612253576002546000878152600460208190526040918290205491517fb320f4590000000000000000000000000000000000000000000000000000000081526101009093046001600160a01b03169263b320f4599261221192909101613867565b600060405180830381600087803b15801561222b57600080fd5b505af115801561223f573d6000803e3d6000fd5b50600097508796506122ef95505050505050565b6040516370a0823160e01b81526000906001600160a01b038516906370a0823190612282903090600401612e20565b60206040518083038186803b15801561229a57600080fd5b505afa1580156122ae573d6000803e3d6000fd5b505050506040513d601f19601f820116820180604052508101906122d29190612cbc565b905060016122e6828463ffffffff61262616565b95509550505050505b915091565b6001600160a01b038116612418576003546040517f2e1a7d4d0000000000000000000000000000000000000000000000000000000081526001600160a01b0390911690632e1a7d4d9061234b908590600401613867565b600060405180830381600087803b15801561236557600080fd5b505af1158015612379573d6000803e3d6000fd5b505050506123878383612936565b61241357600360009054906101000a90046001600160a01b03166001600160a01b031663d0e30db0836040518263ffffffff1660e01b81526004016000604051808303818588803b1580156123db57600080fd5b505af11580156123ef573d6000803e3d6000fd5b505060035461241393506001600160a01b031691508590508463ffffffff6129ad16565b611728565b6117286001600160a01b038216848463ffffffff6129ad16565b6000818152600460208190526040918290206007810154600182015491549351632142170760e11b8152620100009091046001600160a01b03908116949216926342842e0e9261248792309287929101612e34565b600060405180830381600087803b1580156124a157600080fd5b505af11580156124b5573d6000803e3d6000fd5b505050600083815260046020526040908190206001810154905491516001600160a01b03909116925084907fb9163a95e59bfc5890dfc137ebf658412967857788dc73d2d4250c72c041fb399061250d908690612e20565b60405180910390a4506000908152600460208190526040822082815560018101805474ffffffffffffffffffffffffffffffffffffffffff19169055600281018390556003810183905590810182905560058101829055600681019190915560078101805475ffffffffffffffffffffffffffffffffffffffffffff191690556008810180546001600160a01b031990811690915560098201805482169055600a90910180549091169055565b6000826125c957506000611e2f565b828202828482816125d657fe5b0414611e2c5760405162461bcd60e51b81526004016102b8906133c9565b60008082116126155760405162461bcd60e51b81526004016102b890613243565b81838161261e57fe5b049392505050565b6000828211156126485760405162461bcd60e51b81526004016102b89061311b565b50900390565b6000838152600460205260409081902060018101805460ff60a01b1916600160a01b86151502179081905560038201849055905491516001600160a01b03909116919085907f82b8cfa48f136e023427c7beaa4b97261e4c00e985b55c0ca92397b76f519d88906109849087908790612ede565b5490565b80546001019055565b6000828152600460205260409081902060018101805460ff60a01b1916600160a01b851515021790819055905491516001600160a01b03909116919084907fdd098c08e55aad8889eb157b1f12c0214d670efb08db084c86b56b6c2f60047b9061273a908690612ed3565b60405180910390a45050565b6001600160a01b0381166127e1578134146127735760405162461bcd60e51b81526004016102b890613050565b600360009054906101000a90046001600160a01b03166001600160a01b031663d0e30db0836040518263ffffffff1660e01b81526004016000604051808303818588803b1580156127c357600080fd5b505af11580156127d7573d6000803e3d6000fd5b5050505050612932565b6040516370a0823160e01b815281906000906001600160a01b038316906370a0823190612812903090600401612e20565b60206040518083038186803b15801561282a57600080fd5b505afa15801561283e573d6000803e3d6000fd5b505050506040513d601f19601f820116820180604052508101906128629190612cbc565b905061287f6001600160a01b03831633308763ffffffff612a3016565b6040516370a0823160e01b81526000906001600160a01b038416906370a08231906128ae903090600401612e20565b60206040518083038186803b1580156128c657600080fd5b505afa1580156128da573d6000803e3d6000fd5b505050506040513d601f19601f820116820180604052508101906128fe9190612cbc565b905080612911838763ffffffff611e0716565b1461292e5760405162461bcd60e51b81526004016102b89061380a565b5050505b5050565b60408051600080825260208201928390529182916001600160a01b03861691859161296091612e04565b60006040518083038185875af1925050503d806000811461299d576040519150601f19603f3d011682016040523d82523d6000602084013e6129a2565b606091505b509095945050505050565b6117288363a9059cbb60e01b84846040516024016129cc929190612eba565b60408051601f198184030181529190526020810180517bffffffffffffffffffffffffffffffffffffffffffffffffffffffff167fffffffff0000000000000000000000000000000000000000000000000000000090931692909217909152612a51565b61086a846323b872dd60e01b8585856040516024016129cc93929190612e34565b6060612aa6826040518060400160405280602081526020017f5361666545524332303a206c6f772d6c6576656c2063616c6c206661696c6564815250856001600160a01b0316612ae09092919063ffffffff16565b8051909150156117285780806020019051810190612ac49190612c88565b6117285760405162461bcd60e51b81526004016102b8906135f1565b6060612aef8484600085612af9565b90505b9392505050565b606082471015612b1b5760405162461bcd60e51b81526004016102b890613189565b612b2485612bba565b612b405760405162461bcd60e51b81526004016102b89061355d565b60006060866001600160a01b03168587604051612b5d9190612e04565b60006040518083038185875af1925050503d8060008114612b9a576040519150601f19603f3d011682016040523d82523d6000602084013e612b9f565b606091505b5091509150612baf828286612bc0565b979650505050505050565b3b151590565b60608315612bcf575081612af2565b825115612bdf5782518084602001fd5b8160405162461bcd60e51b81526004016102b89190612f1b565b6040518060a001604052806000815260200160006001600160a01b0316815260200160006001600160a01b0316815260200160006001600160a01b03168152602001612c43612c48565b905290565b6040518060200160405280600081525090565b803560ff81168114611e2f57600080fd5b600060208284031215612c7d578081fd5b8151611e2c816139fb565b600060208284031215612c99578081fd5b8151611e2c81613a13565b600060208284031215612cb5578081fd5b5035919050565b600060208284031215612ccd578081fd5b5051919050565b60008060008060008060008060006101208a8c031215612cf2578485fd5b8935985060208a0135612d04816139fb565b975060408a0135965060608a0135955060808a01359450612d288b60a08c01612c5b565b935060c08a0135612d38816139fb565b9250612d478b60e08c01612c5b565b91506101008a0135612d58816139fb565b809150509295985092959850929598565b60008060408385031215612d7b578182fd5b823591506020830135612d8d81613a13565b809150509250929050565b600080600060608486031215612dac578283fd5b833592506020840135612dbe81613a13565b929592945050506040919091013590565b60008060408385031215612de1578182fd5b50508035926020909101359150565b6001600160a01b03169052565b60ff169052565b60008251612e168184602087016139cf565b9190910192915050565b6001600160a01b0391909116815260200190565b6001600160a01b039384168152919092166020820152604081019190915260600190565b6001600160a01b039490941684526020840192909252151560408301521515606082015260800190565b6001600160a01b039687168152948616602086015292851660408501526060840191909152608083015290911660a082015260c00190565b6001600160a01b03929092168252602082015260400190565b901515815260200190565b9115158252602082015260400190565b7fffffffff0000000000000000000000000000000000000000000000000000000091909116815260200190565b6000602082528251806020840152612f3a8160408501602087016139cf565b601f01601f19169190910160400192915050565b60208082526011908201527f4c69737420646f65736e74206578697374000000000000000000000000000000604082015260600190565b60208082526024908201527f43616e27742063616e63656c20616e206c697374206f6e63652069742773206260408201527f6567756e00000000000000000000000000000000000000000000000000000000606082015260800190565b60208082526012908201527f4c697374206973206e6f74206163746976650000000000000000000000000000604082015260600190565b6020808252601f908201527f42696420696e76616c696420666f722073686172652073706c697474696e6700604082015260600190565b60208082526034908201527f53656e74204d4f5449462056616c756520646f6573206e6f74206d617463682060408201527f7370656369666965642062696420616d6f756e74000000000000000000000000606082015260800190565b6020808252601b908201527f536166654d6174683a206164646974696f6e206f766572666c6f770000000000604082015260600190565b60208082526010908201527f4c69737420686173206578706972656400000000000000000000000000000000604082015260600190565b6020808252601e908201527f536166654d6174683a207375627472616374696f6e206f766572666c6f770000604082015260600190565b6020808252601d908201527f4d7573742070726f76696465206c697374507269636520616d6f756e74000000604082015260600190565b60208082526026908201527f416464726573733a20696e73756666696369656e742062616c616e636520666f60408201527f722063616c6c0000000000000000000000000000000000000000000000000000606082015260800190565b60208082526025908201527f4c697374206d75737420626520617070726f76656420627920696e7465726d6560408201527f6469617279000000000000000000000000000000000000000000000000000000606082015260800190565b6020808252601a908201527f536166654d6174683a206469766973696f6e206279207a65726f000000000000604082015260600190565b60208082526026908201527f4d7573742070726f76696465206174206c65617374206c69737450726963652060408201527f616d6f756e740000000000000000000000000000000000000000000000000000606082015260800190565b60208082526028908201527f4d757374206265206c69737420696e7465726d656469617279206f7220746f6b60408201527f656e206f776e6572000000000000000000000000000000000000000000000000606082015260800190565b60208082526014908201527f4c69737420686173206e6f742073746172746564000000000000000000000000604082015260600190565b602080825260409082018190527f4d7573742073656e64206d6f7265207468616e206c6173742062696420627920908201527f6d696e426964496e6372656d656e7450657263656e7461676520616d6f756e74606082015260800190565b60208082526021908201527f536166654d6174683a206d756c7469706c69636174696f6e206f766572666c6f60408201527f7700000000000000000000000000000000000000000000000000000000000000606082015260800190565b60208082526018908201527f4c6973742068617320616c726561647920737461727465640000000000000000604082015260600190565b60208082526027908201527f4c69737420747970652063616e6e6f742068617665206d6f7265207468616e2060408201527f6f6e652062696400000000000000000000000000000000000000000000000000606082015260800190565b6020808252818101527f4d7573742062652062696464696e67206f722064726f70206c69737454797065604082015260600190565b6020808252601c908201527f4d757374206265206669786564207072696365206c6973745479706500000000604082015260600190565b60208082526016908201527f4c69737420686173206e6f7420636f6d706c6574656400000000000000000000604082015260600190565b6020808252601d908201527f416464726573733a2063616c6c20746f206e6f6e2d636f6e7472616374000000604082015260600190565b6020808252602b908201527f43616c6c6572206d75737420626520617070726f7665642c206f776e6572206660408201527f6f7220746f6b656e206964000000000000000000000000000000000000000000606082015260800190565b6020808252602a908201527f5361666545524332303a204552433230206f7065726174696f6e20646964206e60408201527f6f74207375636365656400000000000000000000000000000000000000000000606082015260800190565b60208082526032908201527f43616e206f6e6c792062652063616c6c6564206279206c69737420637265617460408201527f6f72206f7220696e7465726d6564696172790000000000000000000000000000606082015260800190565b6020808252602f908201527f696e7465726d65646961727946656550657263656e74616765206d757374206260408201527f65206c657373207468616e203130300000000000000000000000000000000000606082015260800190565b6020808252601f908201527f5265656e7472616e637947756172643a207265656e7472616e742063616c6c00604082015260600190565b60208082526015908201527f4d7573742062652064726f70206c697374547970650000000000000000000000604082015260600190565b60208082526019908201527f4d757374206265206c69737420696e7465726d65646961727900000000000000604082015260600190565b6020808252602f908201527f746f6b656e436f6e747261637420646f6573206e6f7420737570706f7274204560408201527f524337323120696e746572666163650000000000000000000000000000000000606082015260800190565b60208082526034908201527f546f6b656e207472616e736665722063616c6c20646964206e6f74207472616e60408201527f7366657220657870656374656420616d6f756e74000000000000000000000000606082015260800190565b90815260200190565b60006101c0820190508f82526001600160a01b038f1660208301528d151560408301528c60608301528b60808301528a60a08301528960c08301528860e08301526138bf610100830189612dfd565b6138cd610120830188612dfd565b6138db610140830187612df0565b6138e9610160830186612df0565b6138f7610180830185612df0565b6139056101a0830184612df0565b9f9e505050505050505050505050505050565b600060c0820190508382528251602083015260208301516001600160a01b038082166040850152806040860151166060850152806060860151166080850152505060808301515160a08301529392505050565b918252602082015260400190565b9788526020880196909652604087019490945260ff92831660608701526001600160a01b039182166080870152811660a0860152911660c08401521660e08201526101000190565b60ff91909116815260200190565b60005b838110156139ea5781810151838201526020016139d2565b8381111561086a5750506000910152565b6001600160a01b0381168114613a1057600080fd5b50565b8015158114613a1057600080fdfea264697066735822122021fd573784a30092316be3c349b872b97115174c9c0274bd37991947bbab8a5464736f6c63430006080033",
  "linkReferences": {},
  "deployedLinkReferences": {}
}